{
  "contractName": "CitizenRegistry",
  "abi": [
    {
      "constant": true,
      "inputs": [],
      "name": "governance",
      "outputs": [
        {
          "name": "",
          "type": "address"
        }
      ],
      "payable": false,
      "stateMutability": "view",
      "type": "function"
    },
    {
      "constant": true,
      "inputs": [],
      "name": "signal",
      "outputs": [
        {
          "name": "",
          "type": "address"
        }
      ],
      "payable": false,
      "stateMutability": "view",
      "type": "function"
    },
    {
      "constant": true,
      "inputs": [
        {
          "name": "",
          "type": "address"
        }
      ],
      "name": "humans",
      "outputs": [
        {
          "name": "",
          "type": "bool"
        }
      ],
      "payable": false,
      "stateMutability": "view",
      "type": "function"
    },
    {
      "inputs": [
        {
          "name": "_signal",
          "type": "address"
        },
        {
          "name": "_governance",
          "type": "address"
        }
      ],
      "payable": false,
      "stateMutability": "nonpayable",
      "type": "constructor"
    },
    {
      "constant": false,
      "inputs": [
        {
          "name": "who",
          "type": "address"
        }
      ],
      "name": "add",
      "outputs": [],
      "payable": false,
      "stateMutability": "nonpayable",
      "type": "function"
    },
    {
      "constant": false,
      "inputs": [
        {
          "name": "who",
          "type": "address"
        }
      ],
      "name": "remove",
      "outputs": [],
      "payable": false,
      "stateMutability": "nonpayable",
      "type": "function"
    },
    {
      "constant": true,
      "inputs": [
        {
          "name": "who",
          "type": "address"
        }
      ],
      "name": "isCitizen",
      "outputs": [
        {
          "name": "",
          "type": "bool"
        }
      ],
      "payable": false,
      "stateMutability": "view",
      "type": "function"
    }
  ],
  "bytecode": "0x608060405234801561001057600080fd5b50604051604080610dce833981018060405261002f91908101906100e0565b81600160006101000a81548173ffffffffffffffffffffffffffffffffffffffff021916908373ffffffffffffffffffffffffffffffffffffffff16021790555080600260006101000a81548173ffffffffffffffffffffffffffffffffffffffff021916908373ffffffffffffffffffffffffffffffffffffffff1602179055505050610160565b60006100c4825161011c565b905092915050565b60006100d8825161012e565b905092915050565b600080604083850312156100f357600080fd5b6000610101858286016100cc565b9250506020610112858286016100b8565b9150509250929050565b600061012782610140565b9050919050565b60006101398261011c565b9050919050565b600073ffffffffffffffffffffffffffffffffffffffff82169050919050565b610c5f8061016f6000396000f3fe608060405234801561001057600080fd5b506004361061007f576000357c0100000000000000000000000000000000000000000000000000000000900480630a3b0a4f1461008457806329092d0e146100a05780635aa6e675146100bc578063640d090b146100da5780639a98ce27146100f8578063f3caad0314610128575b600080fd5b61009e60048036036100999190810190610806565b610158565b005b6100ba60048036036100b59190810190610806565b6102dd565b005b6100c46103f4565b6040516100d19190610a0a565b60405180910390f35b6100e261041a565b6040516100ef9190610abb565b60405180910390f35b610112600480360361010d9190810190610806565b610440565b60405161011f9190610aa0565b60405180910390f35b610142600480360361013d9190810190610806565b610460565b60405161014f9190610aa0565b60405180910390f35b600260009054906101000a900473ffffffffffffffffffffffffffffffffffffffff1673ffffffffffffffffffffffffffffffffffffffff163373ffffffffffffffffffffffffffffffffffffffff16146101e8576040517f08c379a00000000000000000000000000000000000000000000000000000000081526004016101df90610b16565b60405180910390fd5b600015156000808373ffffffffffffffffffffffffffffffffffffffff1673ffffffffffffffffffffffffffffffffffffffff16815260200190815260200160002060009054906101000a900460ff1615151461027a576040517f08c379a000000000000000000000000000000000000000000000000000000000815260040161027190610af6565b60405180910390fd5b610283816104b5565b60016000808373ffffffffffffffffffffffffffffffffffffffff1673ffffffffffffffffffffffffffffffffffffffff16815260200190815260200160002060006101000a81548160ff02191690831515021790555050565b600260009054906101000a900473ffffffffffffffffffffffffffffffffffffffff1673ffffffffffffffffffffffffffffffffffffffff163373ffffffffffffffffffffffffffffffffffffffff16148061036457508073ffffffffffffffffffffffffffffffffffffffff163373ffffffffffffffffffffffffffffffffffffffff16145b6103a3576040517f08c379a000000000000000000000000000000000000000000000000000000000815260040161039a90610ad6565b60405180910390fd5b6000808273ffffffffffffffffffffffffffffffffffffffff1673ffffffffffffffffffffffffffffffffffffffff16815260200190815260200160002060006101000a81549060ff021916905550565b600260009054906101000a900473ffffffffffffffffffffffffffffffffffffffff1681565b600160009054906101000a900473ffffffffffffffffffffffffffffffffffffffff1681565b60006020528060005260406000206000915054906101000a900460ff1681565b60008060008373ffffffffffffffffffffffffffffffffffffffff1673ffffffffffffffffffffffffffffffffffffffff16815260200190815260200160002060009054906101000a900460ff169050919050565b6000600160009054906101000a900473ffffffffffffffffffffffffffffffffffffffff1673ffffffffffffffffffffffffffffffffffffffff166318160ddd6040518163ffffffff167c010000000000000000000000000000000000000000000000000000000002815260040160206040518083038186803b15801561053b57600080fd5b505afa15801561054f573d6000803e3d6000fd5b505050506040513d601f19601f82011682018060405250610573919081019061082f565b90506a17293b0a9e69fd9c00000081101561064257600160009054906101000a900473ffffffffffffffffffffffffffffffffffffffff1673ffffffffffffffffffffffffffffffffffffffff166340c10f198369065a4da25d3016c000006040518363ffffffff167c010000000000000000000000000000000000000000000000000000000002815260040161060b929190610a4e565b600060405180830381600087803b15801561062557600080fd5b505af1158015610639573d6000803e3d6000fd5b505050506107da565b6a260ce0ff28d2b2ee00000081101561070f57600160009054906101000a900473ffffffffffffffffffffffffffffffffffffffff1673ffffffffffffffffffffffffffffffffffffffff166340c10f198369043c33c19375648000006040518363ffffffff167c01000000000000000000000000000000000000000000000000000000000281526004016106d8929190610a25565b600060405180830381600087803b1580156106f257600080fd5b505af1158015610706573d6000803e3d6000fd5b505050506107d9565b6a52b7d2dcc80cd2e40000008110156107d857600160009054906101000a900473ffffffffffffffffffffffffffffffffffffffff1673ffffffffffffffffffffffffffffffffffffffff166340c10f198369014542ba12a337c000006040518363ffffffff167c01000000000000000000000000000000000000000000000000000000000281526004016107a5929190610a77565b600060405180830381600087803b1580156107bf57600080fd5b505af11580156107d3573d6000803e3d6000fd5b505050505b5b5b5050565b60006107ea8235610b8f565b905092915050565b60006107fe8251610bc1565b905092915050565b60006020828403121561081857600080fd5b6000610826848285016107de565b91505092915050565b60006020828403121561084157600080fd5b600061084f848285016107f2565b91505092915050565b61086181610b47565b82525050565b61087081610b59565b82525050565b61087f81610bcb565b82525050565b61088e81610bef565b82525050565b61089d81610c01565b82525050565b6108ac81610c13565b82525050565b60006108bf605583610b36565b91507f436974697a656e52656769737472793a3a72656d6f76653a204f6e6c7920676f60008301527f7665726e616e6365206f7220746865206964656e74697479206f776e6572206360208301527f616e2072656d6f766520616e206964656e7469747900000000000000000000006040830152606082019050919050565b600061094b603883610b36565b91507f436974697a656e52656769737472793a3a6164643a204164647265737320697360008301527f20616c7265616479206f6e2074686520726567697374727900000000000000006020830152604082019050919050565b60006109b1603983610b36565b91507f436974697a656e52656769737472793a3a6164643a204f6e6c7920676f76657260008301527f6e616e63652063616e2061646420616e206964656e74697479000000000000006020830152604082019050919050565b6000602082019050610a1f6000830184610858565b92915050565b6000604082019050610a3a6000830185610858565b610a476020830184610885565b9392505050565b6000604082019050610a636000830185610858565b610a706020830184610894565b9392505050565b6000604082019050610a8c6000830185610858565b610a9960208301846108a3565b9392505050565b6000602082019050610ab56000830184610867565b92915050565b6000602082019050610ad06000830184610876565b92915050565b60006020820190508181036000830152610aef816108b2565b9050919050565b60006020820190508181036000830152610b0f8161093e565b9050919050565b60006020820190508181036000830152610b2f816109a4565b9050919050565b600082825260208201905092915050565b6000610b5282610b65565b9050919050565b60008115159050919050565b600073ffffffffffffffffffffffffffffffffffffffff82169050919050565b6000819050919050565b6000610b9a82610ba1565b9050919050565b600073ffffffffffffffffffffffffffffffffffffffff82169050919050565b6000819050919050565b6000610bd682610bdd565b9050919050565b6000610be882610b65565b9050919050565b6000610bfa82610b85565b9050919050565b6000610c0c82610b85565b9050919050565b6000610c1e82610b85565b905091905056fea265627a7a72305820492765d74a62e8982b3e6888cc068f68da3bd5965741c1ca4bb54444076b4cf66c6578706572696d656e74616cf50037",
  "source": "pragma solidity 0.5.7;\npragma experimental ABIEncoderV2;\n\nimport { ISignal } from \"./interface/ISignal.sol\";\n\n/**\n * @title CitizenRegistry\n * @dev A list of Ethereum addresses that belong to unique humans as determined by Humanity governance.\n */\ncontract CitizenRegistry {\n\n    mapping (address => bool) public humans;\n\n    ISignal public signal;\n    address public governance;\n\n    constructor(ISignal _signal, address _governance) public {\n        signal = _signal;\n        governance = _governance;\n    }\n\n    function add(address who) public {\n        require(msg.sender == governance, \"CitizenRegistry::add: Only governance can add an identity\");\n        require(humans[who] == false, \"CitizenRegistry::add: Address is already on the registry\");\n\n        _reward(who);\n        humans[who] = true;\n    }\n\n    function remove(address who) public {\n        require(\n            msg.sender == governance || msg.sender == who,\n            \"CitizenRegistry::remove: Only governance or the identity owner can remove an identity\"\n        );\n        delete humans[who];\n    }\n\n    function isCitizen(address who) public view returns (bool) {\n        return humans[who];\n    }\n\n    function _reward(address who) internal {\n        uint totalSupply = signal.totalSupply();\n\n        if (totalSupply < 28000000e18) {\n            signal.mint(who, 30000e18); // 1 - 100\n        } else if (totalSupply < 46000000e18) {\n            signal.mint(who, 20000e18); // 101 - 1000\n        } else if (totalSupply < 100000000e18) {\n            signal.mint(who, 6000e18); // 1001 - 10000\n        }\n\n    }\n\n}",
  "sourcePath": "/Users/jaywelsh/GitHub/society0x/ethereum/contracts/CitizenRegistry.sol",
  "compiler": {
    "name": "solc",
    "version": "0.5.7+commit.6da8b019.Emscripten.clang"
  },
  "schemaVersion": "3.0.9",
  "updatedAt": "2019-07-21T12:26:10.688Z",
  "devdoc": {
    "details": "A list of Ethereum addresses that belong to unique humans as determined by Humanity governance.",
    "methods": {},
    "title": "CitizenRegistry"
  },
  "userdoc": {
    "methods": {}
  }
}