{
  "contractName": "Faucet",
  "abi": [
    {
      "constant": true,
      "inputs": [],
      "name": "START_BLOCK",
      "outputs": [
        {
          "name": "",
          "type": "uint256"
        }
      ],
      "payable": false,
      "stateMutability": "view",
      "type": "function"
    },
    {
      "constant": true,
      "inputs": [],
      "name": "humanity",
      "outputs": [
        {
          "name": "",
          "type": "address"
        }
      ],
      "payable": false,
      "stateMutability": "view",
      "type": "function"
    },
    {
      "constant": true,
      "inputs": [],
      "name": "auction",
      "outputs": [
        {
          "name": "",
          "type": "address"
        }
      ],
      "payable": false,
      "stateMutability": "view",
      "type": "function"
    },
    {
      "constant": true,
      "inputs": [],
      "name": "BLOCK_REWARD",
      "outputs": [
        {
          "name": "",
          "type": "uint256"
        }
      ],
      "payable": false,
      "stateMutability": "view",
      "type": "function"
    },
    {
      "constant": true,
      "inputs": [],
      "name": "lastMined",
      "outputs": [
        {
          "name": "",
          "type": "uint256"
        }
      ],
      "payable": false,
      "stateMutability": "view",
      "type": "function"
    },
    {
      "constant": true,
      "inputs": [],
      "name": "END_BLOCK",
      "outputs": [
        {
          "name": "",
          "type": "uint256"
        }
      ],
      "payable": false,
      "stateMutability": "view",
      "type": "function"
    },
    {
      "inputs": [
        {
          "name": "_humanity",
          "type": "address"
        },
        {
          "name": "_auction",
          "type": "address"
        }
      ],
      "payable": false,
      "stateMutability": "nonpayable",
      "type": "constructor"
    },
    {
      "constant": false,
      "inputs": [],
      "name": "mine",
      "outputs": [],
      "payable": false,
      "stateMutability": "nonpayable",
      "type": "function"
    }
  ],
  "bytecode": "0x608060405243600055624c4b4043016001554360045534801561002157600080fd5b506040516040806107ab833981018060405261004091908101906100f1565b81600260006101000a81548173ffffffffffffffffffffffffffffffffffffffff021916908373ffffffffffffffffffffffffffffffffffffffff16021790555080600360006101000a81548173ffffffffffffffffffffffffffffffffffffffff021916908373ffffffffffffffffffffffffffffffffffffffff1602179055505050610171565b60006100d5825161012d565b905092915050565b60006100e9825161013f565b905092915050565b6000806040838503121561010457600080fd5b6000610112858286016100dd565b9250506020610123858286016100c9565b9150509250929050565b600061013882610151565b9050919050565b600061014a8261012d565b9050919050565b600073ffffffffffffffffffffffffffffffffffffffff82169050919050565b61062b806101806000396000f3fe608060405234801561001057600080fd5b506004361061009a576000357c0100000000000000000000000000000000000000000000000000000000900480637f05b9ef116100785780637f05b9ef146100f957806399f4b25114610117578063b5afac5d14610121578063cd3ec1d61461013f5761009a565b806339b3e8261461009f57806349f81a20146100bd5780637d9f6db5146100db575b600080fd5b6100a761015d565b6040516100b49190610559565b60405180910390f35b6100c5610163565b6040516100d291906104fe565b60405180910390f35b6100e3610189565b6040516100f091906104ba565b60405180910390f35b6101016101af565b60405161010e9190610559565b60405180910390f35b61011f6101bb565b005b6101296102fe565b6040516101369190610559565b60405180910390f35b610147610304565b6040516101549190610559565b60405180910390f35b60005481565b600260009054906101000a900473ffffffffffffffffffffffffffffffffffffffff1681565b600360009054906101000a900473ffffffffffffffffffffffffffffffffffffffff1681565b670de0b6b3a764000081565b600060015443106101ce576001546101d0565b435b90506000610203670de0b6b3a76400006101f56004548561030a90919063ffffffff16565b61036090919063ffffffff16565b9050600260009054906101000a900473ffffffffffffffffffffffffffffffffffffffff1673ffffffffffffffffffffffffffffffffffffffff1663a9059cbb600360009054906101000a900473ffffffffffffffffffffffffffffffffffffffff16836040518363ffffffff167c01000000000000000000000000000000000000000000000000000000000281526004016102a09291906104d5565b602060405180830381600087803b1580156102ba57600080fd5b505af11580156102ce573d6000803e3d6000fd5b505050506040513d601f19601f820116820180604052506102f291908101906103e4565b50436004819055505050565b60045481565b60015481565b60008282111561034f576040517f08c379a000000000000000000000000000000000000000000000000000000000815260040161034690610539565b60405180910390fd5b600082840390508091505092915050565b60008083141561037357600090506103ca565b600082840290508284828161038457fe5b04146103c5576040517f08c379a00000000000000000000000000000000000000000000000000000000081526004016103bc90610519565b60405180910390fd5b809150505b92915050565b60006103dc82516105c1565b905092915050565b6000602082840312156103f657600080fd5b6000610404848285016103d0565b91505092915050565b61041681610585565b82525050565b610425816105cd565b82525050565b6000610438601f83610574565b91507f536166654d6174683a3a6d756c3a20496e7465676572206f766572666c6f77006000830152602082019050919050565b6000610478602083610574565b91507f536166654d6174683a3a7375623a20496e746567657220756e646572666c6f776000830152602082019050919050565b6104b4816105b7565b82525050565b60006020820190506104cf600083018461040d565b92915050565b60006040820190506104ea600083018561040d565b6104f760208301846104ab565b9392505050565b6000602082019050610513600083018461041c565b92915050565b600060208201905081810360008301526105328161042b565b9050919050565b600060208201905081810360008301526105528161046b565b9050919050565b600060208201905061056e60008301846104ab565b92915050565b600082825260208201905092915050565b600061059082610597565b9050919050565b600073ffffffffffffffffffffffffffffffffffffffff82169050919050565b6000819050919050565b60008115159050919050565b60006105d8826105df565b9050919050565b60006105ea82610597565b905091905056fea265627a7a72305820b35a5ff259e61a63c880ef69bae3022ba28a1fa915ac66461de571c58d8255c46c6578706572696d656e74616cf50037",
  "source": "pragma solidity 0.5.7;\npragma experimental ABIEncoderV2;\n\nimport { IERC20 } from \"openzeppelin-solidity/contracts/token/ERC20/IERC20.sol\";\nimport { SafeMath } from \"openzeppelin-solidity/contracts/math/SafeMath.sol\";\n\n/**\n * @title Faucet\n * @dev Mine Humanity tokens into Uniswap.\n */\ncontract Faucet {\n    using SafeMath for uint;\n\n    uint public constant BLOCK_REWARD = 1e18;\n    uint public START_BLOCK = block.number;\n    uint public END_BLOCK = block.number + 5000000;\n\n    IERC20 public humanity;\n    address public auction;\n\n    uint public lastMined = block.number;\n\n    constructor(IERC20 _humanity, address _auction) public {\n        humanity = _humanity;\n        auction = _auction;\n    }\n\n    function mine() public {\n        uint rewardBlock = block.number < END_BLOCK ? block.number : END_BLOCK;\n        uint reward = rewardBlock.sub(lastMined).mul(BLOCK_REWARD);\n        humanity.transfer(auction, reward);\n        lastMined = block.number;\n    }\n\n}",
  "sourcePath": "/Users/jaywelsh/GitHub/society0x/ethereum/contracts/Faucet.sol",
  "compiler": {
    "name": "solc",
    "version": "0.5.7+commit.6da8b019.Emscripten.clang"
  },
  "schemaVersion": "3.0.9",
  "updatedAt": "2019-07-21T12:29:37.364Z",
  "devdoc": {
    "details": "Mine Humanity tokens into Uniswap.",
    "methods": {},
    "title": "Faucet"
  },
  "userdoc": {
    "methods": {}
  }
}