{
  "contractName": "Humanity",
  "abi": [
    {
      "constant": true,
      "inputs": [],
      "name": "name",
      "outputs": [
        {
          "name": "",
          "type": "string"
        }
      ],
      "payable": false,
      "stateMutability": "view",
      "type": "function"
    },
    {
      "constant": false,
      "inputs": [
        {
          "name": "spender",
          "type": "address"
        },
        {
          "name": "value",
          "type": "uint256"
        }
      ],
      "name": "approve",
      "outputs": [
        {
          "name": "",
          "type": "bool"
        }
      ],
      "payable": false,
      "stateMutability": "nonpayable",
      "type": "function"
    },
    {
      "constant": true,
      "inputs": [],
      "name": "totalSupply",
      "outputs": [
        {
          "name": "",
          "type": "uint256"
        }
      ],
      "payable": false,
      "stateMutability": "view",
      "type": "function"
    },
    {
      "constant": false,
      "inputs": [
        {
          "name": "from",
          "type": "address"
        },
        {
          "name": "to",
          "type": "address"
        },
        {
          "name": "value",
          "type": "uint256"
        }
      ],
      "name": "transferFrom",
      "outputs": [
        {
          "name": "",
          "type": "bool"
        }
      ],
      "payable": false,
      "stateMutability": "nonpayable",
      "type": "function"
    },
    {
      "constant": true,
      "inputs": [],
      "name": "INITIAL_SUPPLY",
      "outputs": [
        {
          "name": "",
          "type": "uint256"
        }
      ],
      "payable": false,
      "stateMutability": "view",
      "type": "function"
    },
    {
      "constant": true,
      "inputs": [],
      "name": "decimals",
      "outputs": [
        {
          "name": "",
          "type": "uint8"
        }
      ],
      "payable": false,
      "stateMutability": "view",
      "type": "function"
    },
    {
      "constant": false,
      "inputs": [
        {
          "name": "spender",
          "type": "address"
        },
        {
          "name": "addedValue",
          "type": "uint256"
        }
      ],
      "name": "increaseAllowance",
      "outputs": [
        {
          "name": "",
          "type": "bool"
        }
      ],
      "payable": false,
      "stateMutability": "nonpayable",
      "type": "function"
    },
    {
      "constant": true,
      "inputs": [],
      "name": "FINAL_SUPPLY",
      "outputs": [
        {
          "name": "",
          "type": "uint256"
        }
      ],
      "payable": false,
      "stateMutability": "view",
      "type": "function"
    },
    {
      "constant": true,
      "inputs": [],
      "name": "version",
      "outputs": [
        {
          "name": "",
          "type": "string"
        }
      ],
      "payable": false,
      "stateMutability": "view",
      "type": "function"
    },
    {
      "constant": true,
      "inputs": [
        {
          "name": "owner",
          "type": "address"
        }
      ],
      "name": "balanceOf",
      "outputs": [
        {
          "name": "",
          "type": "uint256"
        }
      ],
      "payable": false,
      "stateMutability": "view",
      "type": "function"
    },
    {
      "constant": true,
      "inputs": [],
      "name": "registry",
      "outputs": [
        {
          "name": "",
          "type": "address"
        }
      ],
      "payable": false,
      "stateMutability": "view",
      "type": "function"
    },
    {
      "constant": true,
      "inputs": [],
      "name": "symbol",
      "outputs": [
        {
          "name": "",
          "type": "string"
        }
      ],
      "payable": false,
      "stateMutability": "view",
      "type": "function"
    },
    {
      "constant": false,
      "inputs": [
        {
          "name": "spender",
          "type": "address"
        },
        {
          "name": "subtractedValue",
          "type": "uint256"
        }
      ],
      "name": "decreaseAllowance",
      "outputs": [
        {
          "name": "",
          "type": "bool"
        }
      ],
      "payable": false,
      "stateMutability": "nonpayable",
      "type": "function"
    },
    {
      "constant": false,
      "inputs": [
        {
          "name": "to",
          "type": "address"
        },
        {
          "name": "value",
          "type": "uint256"
        }
      ],
      "name": "transfer",
      "outputs": [
        {
          "name": "",
          "type": "bool"
        }
      ],
      "payable": false,
      "stateMutability": "nonpayable",
      "type": "function"
    },
    {
      "constant": true,
      "inputs": [
        {
          "name": "owner",
          "type": "address"
        },
        {
          "name": "spender",
          "type": "address"
        }
      ],
      "name": "allowance",
      "outputs": [
        {
          "name": "",
          "type": "uint256"
        }
      ],
      "payable": false,
      "stateMutability": "view",
      "type": "function"
    },
    {
      "inputs": [
        {
          "name": "_registry",
          "type": "address"
        }
      ],
      "payable": false,
      "stateMutability": "nonpayable",
      "type": "constructor"
    },
    {
      "anonymous": false,
      "inputs": [
        {
          "indexed": true,
          "name": "from",
          "type": "address"
        },
        {
          "indexed": true,
          "name": "to",
          "type": "address"
        },
        {
          "indexed": false,
          "name": "value",
          "type": "uint256"
        }
      ],
      "name": "Transfer",
      "type": "event"
    },
    {
      "anonymous": false,
      "inputs": [
        {
          "indexed": true,
          "name": "owner",
          "type": "address"
        },
        {
          "indexed": true,
          "name": "spender",
          "type": "address"
        },
        {
          "indexed": false,
          "name": "value",
          "type": "uint256"
        }
      ],
      "name": "Approval",
      "type": "event"
    },
    {
      "constant": false,
      "inputs": [
        {
          "name": "account",
          "type": "address"
        },
        {
          "name": "value",
          "type": "uint256"
        }
      ],
      "name": "mint",
      "outputs": [],
      "payable": false,
      "stateMutability": "nonpayable",
      "type": "function"
    }
  ],
  "bytecode": "0x60806040526040518060400160405280600581526020017f302e302e310000000000000000000000000000000000000000000000000000008152506003908051906020019062000051929190620002f4565b503480156200005f57600080fd5b506040516020806200209c8339810180604052620000819190810190620003b9565b80600460006101000a81548173ffffffffffffffffffffffffffffffffffffffff021916908373ffffffffffffffffffffffffffffffffffffffff160217905550620000e8336acecb8f27f4200f3a000000620000ef640100000000026401000000009004565b5062000550565b600073ffffffffffffffffffffffffffffffffffffffff168273ffffffffffffffffffffffffffffffffffffffff16141562000162576040517f08c379a00000000000000000000000000000000000000000000000000000000081526004016200015990620004a0565b60405180910390fd5b62000187816002546200029c6401000000000262001163179091906401000000009004565b600281905550620001ee816000808573ffffffffffffffffffffffffffffffffffffffff1673ffffffffffffffffffffffffffffffffffffffff168152602001908152602001600020546200029c6401000000000262001163179091906401000000009004565b6000808473ffffffffffffffffffffffffffffffffffffffff1673ffffffffffffffffffffffffffffffffffffffff168152602001908152602001600020819055508173ffffffffffffffffffffffffffffffffffffffff16600073ffffffffffffffffffffffffffffffffffffffff167fddf252ad1be2c89b69c2b068fc378daa952ba7f163c4a11628f55a4df523b3ef83604051620002909190620004e4565b60405180910390a35050565b600080828401905083811015620002ea576040517f08c379a0000000000000000000000000000000000000000000000000000000008152600401620002e190620004c2565b60405180910390fd5b8091505092915050565b828054600181600116156101000203166002900490600052602060002090601f016020900481019282601f106200033757805160ff191683800117855562000368565b8280016001018555821562000368579182015b82811115620003675782518255916020019190600101906200034a565b5b5090506200037791906200037b565b5090565b620003a091905b808211156200039c57600081600090555060010162000382565b5090565b90565b6000620003b182516200051c565b905092915050565b600060208284031215620003cc57600080fd5b6000620003dc84828501620003a3565b91505092915050565b6000620003f460298362000501565b91507f45524332303a3a5f6d696e743a2043616e6e6f74206d696e7420746f2061646460008301527f72657373207a65726f00000000000000000000000000000000000000000000006020830152604082019050919050565b60006200045c601f8362000501565b91507f536166654d6174683a3a6164643a20496e7465676572206f766572666c6f77006000830152602082019050919050565b6200049a8162000512565b82525050565b60006020820190508181036000830152620004bb81620003e5565b9050919050565b60006020820190508181036000830152620004dd816200044d565b9050919050565b6000602082019050620004fb60008301846200048f565b92915050565b600082825260208201905092915050565b6000819050919050565b6000620005298262000530565b9050919050565b600073ffffffffffffffffffffffffffffffffffffffff82169050919050565b611b3c80620005606000396000f3fe608060405234801561001057600080fd5b506004361061011d576000357c01000000000000000000000000000000000000000000000000000000009004806340c10f19116100b457806395d89b411161008357806395d89b41146102d0578063a457c2d7146102ee578063a9059cbb1461031e578063dd62ed3e1461034e5761011d565b806340c10f191461024857806354fd4d501461026457806370a08231146102825780637b103999146102b25761011d565b80632ff2e9dc116100f05780632ff2e9dc146101be578063313ce567146101dc57806339509351146101fa57806339605da21461022a5761011d565b806306fdde0314610122578063095ea7b31461014057806318160ddd1461017057806323b872dd1461018e575b600080fd5b61012a61037e565b6040516101379190611899565b60405180910390f35b61015a6004803603610155919081019061141c565b6103b7565b604051610167919061187e565b60405180910390f35b610178610518565b60405161018591906119db565b60405180910390f35b6101a860048036036101a391908101906113cd565b610522565b6040516101b5919061187e565b60405180910390f35b6101c661072a565b6040516101d391906119db565b60405180910390f35b6101e4610739565b6040516101f191906119f6565b60405180910390f35b610214600480360361020f919081019061141c565b61073e565b604051610221919061187e565b60405180910390f35b6102326109a9565b60405161023f91906119db565b60405180910390f35b610262600480360361025d919081019061141c565b6109b9565b005b61026c610abf565b6040516102799190611899565b60405180910390f35b61029c60048036036102979190810190611368565b610b5d565b6040516102a991906119db565b60405180910390f35b6102ba610ba5565b6040516102c79190611863565b60405180910390f35b6102d8610bcb565b6040516102e59190611899565b60405180910390f35b6103086004803603610303919081019061141c565b610c04565b604051610315919061187e565b60405180910390f35b6103386004803603610333919081019061141c565b610e6f565b604051610345919061187e565b60405180910390f35b61036860048036036103639190810190611391565b610e86565b60405161037591906119db565b60405180910390f35b6040518060400160405280600781526020017f526170706f72740000000000000000000000000000000000000000000000000081525081565b60008073ffffffffffffffffffffffffffffffffffffffff168373ffffffffffffffffffffffffffffffffffffffff161415610428576040517f08c379a000000000000000000000000000000000000000000000000000000000815260040161041f9061195b565b60405180910390fd5b81600160003373ffffffffffffffffffffffffffffffffffffffff1673ffffffffffffffffffffffffffffffffffffffff16815260200190815260200160002060008573ffffffffffffffffffffffffffffffffffffffff1673ffffffffffffffffffffffffffffffffffffffff168152602001908152602001600020819055508273ffffffffffffffffffffffffffffffffffffffff163373ffffffffffffffffffffffffffffffffffffffff167f8c5be1e5ebec7d5bd14f71427d1e84f3dd0314c0f7b2291e5b200ac8c7c3b9258460405161050691906119db565b60405180910390a36001905092915050565b6000600254905090565b60006105b382600160008773ffffffffffffffffffffffffffffffffffffffff1673ffffffffffffffffffffffffffffffffffffffff16815260200190815260200160002060003373ffffffffffffffffffffffffffffffffffffffff1673ffffffffffffffffffffffffffffffffffffffff16815260200190815260200160002054610f0d90919063ffffffff16565b600160008673ffffffffffffffffffffffffffffffffffffffff1673ffffffffffffffffffffffffffffffffffffffff16815260200190815260200160002060003373ffffffffffffffffffffffffffffffffffffffff1673ffffffffffffffffffffffffffffffffffffffff1681526020019081526020016000208190555061063e848484610f63565b3373ffffffffffffffffffffffffffffffffffffffff168473ffffffffffffffffffffffffffffffffffffffff167f8c5be1e5ebec7d5bd14f71427d1e84f3dd0314c0f7b2291e5b200ac8c7c3b925600160008873ffffffffffffffffffffffffffffffffffffffff1673ffffffffffffffffffffffffffffffffffffffff16815260200190815260200160002060003373ffffffffffffffffffffffffffffffffffffffff1673ffffffffffffffffffffffffffffffffffffffff1681526020019081526020016000205460405161071791906119db565b60405180910390a3600190509392505050565b6acecb8f27f4200f3a00000081565b601281565b60008073ffffffffffffffffffffffffffffffffffffffff168373ffffffffffffffffffffffffffffffffffffffff1614156107af576040517f08c379a00000000000000000000000000000000000000000000000000000000081526004016107a69061199b565b60405180910390fd5b61083e82600160003373ffffffffffffffffffffffffffffffffffffffff1673ffffffffffffffffffffffffffffffffffffffff16815260200190815260200160002060008673ffffffffffffffffffffffffffffffffffffffff1673ffffffffffffffffffffffffffffffffffffffff1681526020019081526020016000205461116390919063ffffffff16565b600160003373ffffffffffffffffffffffffffffffffffffffff1673ffffffffffffffffffffffffffffffffffffffff16815260200190815260200160002060008573ffffffffffffffffffffffffffffffffffffffff1673ffffffffffffffffffffffffffffffffffffffff168152602001908152602001600020819055508273ffffffffffffffffffffffffffffffffffffffff163373ffffffffffffffffffffffffffffffffffffffff167f8c5be1e5ebec7d5bd14f71427d1e84f3dd0314c0f7b2291e5b200ac8c7c3b925600160003373ffffffffffffffffffffffffffffffffffffffff1673ffffffffffffffffffffffffffffffffffffffff16815260200190815260200160002060008773ffffffffffffffffffffffffffffffffffffffff1673ffffffffffffffffffffffffffffffffffffffff1681526020019081526020016000205460405161099791906119db565b60405180910390a36001905092915050565b6b204fce5e3e2502611000000081565b600460009054906101000a900473ffffffffffffffffffffffffffffffffffffffff1673ffffffffffffffffffffffffffffffffffffffff163373ffffffffffffffffffffffffffffffffffffffff1614610a49576040517f08c379a0000000000000000000000000000000000000000000000000000000008152600401610a409061191b565b60405180910390fd5b6b204fce5e3e25026110000000610a7082610a62610518565b61116390919063ffffffff16565b1115610ab1576040517f08c379a0000000000000000000000000000000000000000000000000000000008152600401610aa8906119bb565b60405180910390fd5b610abb82826111b8565b5050565b60038054600181600116156101000203166002900480601f016020809104026020016040519081016040528092919081815260200182805460018160011615610100020316600290048015610b555780601f10610b2a57610100808354040283529160200191610b55565b820191906000526020600020905b815481529060010190602001808311610b3857829003601f168201915b505050505081565b60008060008373ffffffffffffffffffffffffffffffffffffffff1673ffffffffffffffffffffffffffffffffffffffff168152602001908152602001600020549050919050565b600460009054906101000a900473ffffffffffffffffffffffffffffffffffffffff1681565b6040518060400160405280600381526020017f524150000000000000000000000000000000000000000000000000000000000081525081565b60008073ffffffffffffffffffffffffffffffffffffffff168373ffffffffffffffffffffffffffffffffffffffff161415610c75576040517f08c379a0000000000000000000000000000000000000000000000000000000008152600401610c6c906118bb565b60405180910390fd5b610d0482600160003373ffffffffffffffffffffffffffffffffffffffff1673ffffffffffffffffffffffffffffffffffffffff16815260200190815260200160002060008673ffffffffffffffffffffffffffffffffffffffff1673ffffffffffffffffffffffffffffffffffffffff16815260200190815260200160002054610f0d90919063ffffffff16565b600160003373ffffffffffffffffffffffffffffffffffffffff1673ffffffffffffffffffffffffffffffffffffffff16815260200190815260200160002060008573ffffffffffffffffffffffffffffffffffffffff1673ffffffffffffffffffffffffffffffffffffffff168152602001908152602001600020819055508273ffffffffffffffffffffffffffffffffffffffff163373ffffffffffffffffffffffffffffffffffffffff167f8c5be1e5ebec7d5bd14f71427d1e84f3dd0314c0f7b2291e5b200ac8c7c3b925600160003373ffffffffffffffffffffffffffffffffffffffff1673ffffffffffffffffffffffffffffffffffffffff16815260200190815260200160002060008773ffffffffffffffffffffffffffffffffffffffff1673ffffffffffffffffffffffffffffffffffffffff16815260200190815260200160002054604051610e5d91906119db565b60405180910390a36001905092915050565b6000610e7c338484610f63565b6001905092915050565b6000600160008473ffffffffffffffffffffffffffffffffffffffff1673ffffffffffffffffffffffffffffffffffffffff16815260200190815260200160002060008373ffffffffffffffffffffffffffffffffffffffff1673ffffffffffffffffffffffffffffffffffffffff16815260200190815260200160002054905092915050565b600082821115610f52576040517f08c379a0000000000000000000000000000000000000000000000000000000008152600401610f49906118db565b60405180910390fd5b600082840390508091505092915050565b600073ffffffffffffffffffffffffffffffffffffffff168273ffffffffffffffffffffffffffffffffffffffff161415610fd3576040517f08c379a0000000000000000000000000000000000000000000000000000000008152600401610fca906118fb565b60405180910390fd5b611024816000808673ffffffffffffffffffffffffffffffffffffffff1673ffffffffffffffffffffffffffffffffffffffff16815260200190815260200160002054610f0d90919063ffffffff16565b6000808573ffffffffffffffffffffffffffffffffffffffff1673ffffffffffffffffffffffffffffffffffffffff168152602001908152602001600020819055506110b7816000808573ffffffffffffffffffffffffffffffffffffffff1673ffffffffffffffffffffffffffffffffffffffff1681526020019081526020016000205461116390919063ffffffff16565b6000808473ffffffffffffffffffffffffffffffffffffffff1673ffffffffffffffffffffffffffffffffffffffff168152602001908152602001600020819055508173ffffffffffffffffffffffffffffffffffffffff168373ffffffffffffffffffffffffffffffffffffffff167fddf252ad1be2c89b69c2b068fc378daa952ba7f163c4a11628f55a4df523b3ef8360405161115691906119db565b60405180910390a3505050565b6000808284019050838110156111ae576040517f08c379a00000000000000000000000000000000000000000000000000000000081526004016111a59061197b565b60405180910390fd5b8091505092915050565b600073ffffffffffffffffffffffffffffffffffffffff168273ffffffffffffffffffffffffffffffffffffffff161415611228576040517f08c379a000000000000000000000000000000000000000000000000000000000815260040161121f9061193b565b60405180910390fd5b61123d8160025461116390919063ffffffff16565b600281905550611294816000808573ffffffffffffffffffffffffffffffffffffffff1673ffffffffffffffffffffffffffffffffffffffff1681526020019081526020016000205461116390919063ffffffff16565b6000808473ffffffffffffffffffffffffffffffffffffffff1673ffffffffffffffffffffffffffffffffffffffff168152602001908152602001600020819055508173ffffffffffffffffffffffffffffffffffffffff16600073ffffffffffffffffffffffffffffffffffffffff167fddf252ad1be2c89b69c2b068fc378daa952ba7f163c4a11628f55a4df523b3ef8360405161133491906119db565b60405180910390a35050565b600061134c8235611a82565b905092915050565b60006113608235611ab4565b905092915050565b60006020828403121561137a57600080fd5b600061138884828501611340565b91505092915050565b600080604083850312156113a457600080fd5b60006113b285828601611340565b92505060206113c385828601611340565b9150509250929050565b6000806000606084860312156113e257600080fd5b60006113f086828701611340565b935050602061140186828701611340565b925050604061141286828701611354565b9150509250925092565b6000806040838503121561142f57600080fd5b600061143d85828601611340565b925050602061144e85828601611354565b9150509250929050565b61146181611a2d565b82525050565b61147081611a3f565b82525050565b600061148182611a11565b61148b8185611a1c565b935061149b818560208601611abe565b6114a481611af1565b840191505092915050565b60006114bc604483611a1c565b91507f45524332303a3a6465637265617365416c6c6f77616e63653a2043616e6e6f7460008301527f20646563726561736520616c6c6f77616e636520666f7220616464726573732060208301527f7a65726f000000000000000000000000000000000000000000000000000000006040830152606082019050919050565b6000611548602083611a1c565b91507f536166654d6174683a3a7375623a20496e746567657220756e646572666c6f776000830152602082019050919050565b6000611588603183611a1c565b91507f45524332303a3a5f7472616e736665723a2043616e6e6f74207472616e73666560008301527f7220746f2061646472657373207a65726f0000000000000000000000000000006020830152604082019050919050565b60006115ee603483611a1c565b91507f526170706f72743a3a6d696e743a204f6e6c792074686520726567697374727960008301527f2063616e206d696e74206e657720746f6b656e730000000000000000000000006020830152604082019050919050565b6000611654602983611a1c565b91507f45524332303a3a5f6d696e743a2043616e6e6f74206d696e7420746f2061646460008301527f72657373207a65726f00000000000000000000000000000000000000000000006020830152604082019050919050565b60006116ba602b83611a1c565b91507f45524332303a3a617070726f76653a2043616e6e6f7420617070726f7665206160008301527f646472657373207a65726f0000000000000000000000000000000000000000006020830152604082019050919050565b6000611720601f83611a1c565b91507f536166654d6174683a3a6164643a20496e7465676572206f766572666c6f77006000830152602082019050919050565b6000611760604483611a1c565b91507f45524332303a3a696e637265617365416c6c6f77616e63653a2043616e6e6f7460008301527f20696e63726561736520616c6c6f77616e636520666f7220616464726573732060208301527f7a65726f000000000000000000000000000000000000000000000000000000006040830152606082019050919050565b60006117ec602383611a1c565b91507f526170706f72743a3a6d696e743a20457863656564732066696e616c2073757060008301527f706c7900000000000000000000000000000000000000000000000000000000006020830152604082019050919050565b61184e81611a6b565b82525050565b61185d81611a75565b82525050565b60006020820190506118786000830184611458565b92915050565b60006020820190506118936000830184611467565b92915050565b600060208201905081810360008301526118b38184611476565b905092915050565b600060208201905081810360008301526118d4816114af565b9050919050565b600060208201905081810360008301526118f48161153b565b9050919050565b600060208201905081810360008301526119148161157b565b9050919050565b60006020820190508181036000830152611934816115e1565b9050919050565b6000602082019050818103600083015261195481611647565b9050919050565b60006020820190508181036000830152611974816116ad565b9050919050565b6000602082019050818103600083015261199481611713565b9050919050565b600060208201905081810360008301526119b481611753565b9050919050565b600060208201905081810360008301526119d4816117df565b9050919050565b60006020820190506119f06000830184611845565b92915050565b6000602082019050611a0b6000830184611854565b92915050565b600081519050919050565b600082825260208201905092915050565b6000611a3882611a4b565b9050919050565b60008115159050919050565b600073ffffffffffffffffffffffffffffffffffffffff82169050919050565b6000819050919050565b600060ff82169050919050565b6000611a8d82611a94565b9050919050565b600073ffffffffffffffffffffffffffffffffffffffff82169050919050565b6000819050919050565b60005b83811015611adc578082015181840152602081019050611ac1565b83811115611aeb576000848401525b50505050565b6000601f19601f830116905091905056fea265627a7a72305820ca6d01a79b691afeb358b2ba6e5d78040dbe9c288916bf197210ab2cd1464fde6c6578706572696d656e74616cf50037",
  "source": "pragma solidity 0.5.7;\npragma experimental ABIEncoderV2;\n\nimport { ERC20 } from \"openzeppelin-solidity/contracts/token/ERC20/ERC20.sol\";\n\n\n/**\n * @title Humanity\n * @dev ERC20 token that can be used to vote on applications to the Humanity registry.\n */\ncontract Humanity is ERC20 {\n\n    string public constant name = \"Rapport\";\n    string public constant symbol = \"RAP\";\n    uint8 public constant decimals = 18;\n    string public version = \"0.0.1\";\n\n    uint public constant INITIAL_SUPPLY = 250000000e18; // 250 million\n    uint public constant FINAL_SUPPLY = 10000000000e18; // 10 billion\n\n    address public registry;\n\n    constructor(address _registry) public {\n        registry = _registry;\n        _mint(msg.sender, INITIAL_SUPPLY);\n    }\n\n    function mint(address account, uint256 value) public {\n        require(msg.sender == registry, \"Rapport::mint: Only the registry can mint new tokens\");\n        require(totalSupply().add(value) <= FINAL_SUPPLY, \"Rapport::mint: Exceeds final supply\");\n\n        _mint(account, value);\n    }\n\n}\n",
  "sourcePath": "/Users/jaywelsh/GitHub/society0x/ethereum/contracts/Rapport.sol",
  "compiler": {
    "name": "solc",
    "version": "0.5.7+commit.6da8b019.Emscripten.clang"
  },
  "schemaVersion": "3.0.9",
  "updatedAt": "2019-06-15T13:23:05.272Z",
  "devdoc": {
    "details": "ERC20 token that can be used to vote on applications to the Humanity registry.",
    "methods": {
      "allowance(address,address)": {
        "details": "Function to check the amount of tokens that an owner allowed to a spender.",
        "params": {
          "owner": "address The address which owns the funds.",
          "spender": "address The address which will spend the funds."
        },
        "return": "A uint256 specifying the amount of tokens still available for the spender."
      },
      "approve(address,uint256)": {
        "details": "Approve the passed address to spend the specified amount of tokens on behalf of msg.sender. Beware that changing an allowance with this method brings the risk that someone may use both the old and the new allowance by unfortunate transaction ordering. One possible solution to mitigate this race condition is to first reduce the spender's allowance to 0 and set the desired value afterwards: https://github.com/ethereum/EIPs/issues/20#issuecomment-263524729",
        "params": {
          "spender": "The address which will spend the funds.",
          "value": "The amount of tokens to be spent."
        }
      },
      "balanceOf(address)": {
        "details": "Gets the balance of the specified address.",
        "params": {
          "owner": "The address to query the balance of."
        },
        "return": "An uint256 representing the amount owned by the passed address."
      },
      "decreaseAllowance(address,uint256)": {
        "details": "Decrease the amount of tokens that an owner allowed to a spender. approve should be called when allowed_[_spender] == 0. To decrement allowed value is better to use this function to avoid 2 calls (and wait until the first transaction is mined) From MonolithDAO Token.sol Emits an Approval event.",
        "params": {
          "spender": "The address which will spend the funds.",
          "subtractedValue": "The amount of tokens to decrease the allowance by."
        }
      },
      "increaseAllowance(address,uint256)": {
        "details": "Increase the amount of tokens that an owner allowed to a spender. approve should be called when allowed_[_spender] == 0. To increment allowed value is better to use this function to avoid 2 calls (and wait until the first transaction is mined) From MonolithDAO Token.sol Emits an Approval event.",
        "params": {
          "addedValue": "The amount of tokens to increase the allowance by.",
          "spender": "The address which will spend the funds."
        }
      },
      "totalSupply()": {
        "details": "Total number of tokens in existence"
      },
      "transfer(address,uint256)": {
        "details": "Transfer token for a specified address",
        "params": {
          "to": "The address to transfer to.",
          "value": "The amount to be transferred."
        }
      },
      "transferFrom(address,address,uint256)": {
        "details": "Transfer tokens from one address to another. Note that while this function emits an Approval event, this is not required as per the specification, and other compliant implementations may not emit the event.",
        "params": {
          "from": "address The address which you want to send tokens from",
          "to": "address The address which you want to transfer to",
          "value": "uint256 the amount of tokens to be transferred"
        }
      }
    },
    "title": "Humanity"
  },
  "userdoc": {
    "methods": {}
  }
}