{
  "contractName": "HumanityApplicant",
  "abi": [
    {
      "constant": true,
      "inputs": [],
      "name": "humanity",
      "outputs": [
        {
          "name": "",
          "type": "address"
        }
      ],
      "payable": false,
      "stateMutability": "view",
      "type": "function"
    },
    {
      "constant": true,
      "inputs": [],
      "name": "governance",
      "outputs": [
        {
          "name": "",
          "type": "address"
        }
      ],
      "payable": false,
      "stateMutability": "view",
      "type": "function"
    },
    {
      "constant": true,
      "inputs": [],
      "name": "registry",
      "outputs": [
        {
          "name": "",
          "type": "address"
        }
      ],
      "payable": false,
      "stateMutability": "view",
      "type": "function"
    },
    {
      "inputs": [
        {
          "name": "_governance",
          "type": "address"
        },
        {
          "name": "_registry",
          "type": "address"
        },
        {
          "name": "_humanity",
          "type": "address"
        }
      ],
      "payable": false,
      "stateMutability": "nonpayable",
      "type": "constructor"
    },
    {
      "constant": false,
      "inputs": [
        {
          "name": "who",
          "type": "address"
        }
      ],
      "name": "applyFor",
      "outputs": [
        {
          "name": "",
          "type": "uint256"
        }
      ],
      "payable": false,
      "stateMutability": "nonpayable",
      "type": "function"
    }
  ],
  "bytecode": "0x60806040523480156200001157600080fd5b5060405160608062000f3b833981018060405262000033919081019062000295565b826000806101000a81548173ffffffffffffffffffffffffffffffffffffffff021916908373ffffffffffffffffffffffffffffffffffffffff16021790555081600160006101000a81548173ffffffffffffffffffffffffffffffffffffffff021916908373ffffffffffffffffffffffffffffffffffffffff16021790555080600260006101000a81548173ffffffffffffffffffffffffffffffffffffffff021916908373ffffffffffffffffffffffffffffffffffffffff160217905550600260009054906101000a900473ffffffffffffffffffffffffffffffffffffffff1673ffffffffffffffffffffffffffffffffffffffff1663095ea7b36000809054906101000a900473ffffffffffffffffffffffffffffffffffffffff167fffffffffffffffffffffffffffffffffffffffffffffffffffffffffffffffff6040518363ffffffff167c0100000000000000000000000000000000000000000000000000000000028152600401620001b19291906200030d565b602060405180830381600087803b158015620001cc57600080fd5b505af1158015620001e1573d6000803e3d6000fd5b505050506040513d601f19601f8201168201806040525062000207919081019062000269565b50505050620003f4565b60006200021f82516200038c565b905092915050565b600062000235825162000398565b905092915050565b60006200024b8251620003ac565b905092915050565b6000620002618251620003c0565b905092915050565b6000602082840312156200027c57600080fd5b60006200028c8482850162000211565b91505092915050565b600080600060608486031215620002ab57600080fd5b6000620002bb868287016200023d565b9350506020620002ce8682870162000253565b9250506040620002e18682870162000227565b9150509250925092565b620002f6816200033a565b82525050565b62000307816200036e565b82525050565b6000604082019050620003246000830185620002eb565b620003336020830184620002fc565b9392505050565b600062000347826200034e565b9050919050565b600073ffffffffffffffffffffffffffffffffffffffff82169050919050565b6000819050919050565b60006200038582620003d4565b9050919050565b60008115159050919050565b6000620003a58262000378565b9050919050565b6000620003b98262000378565b9050919050565b6000620003cd8262000378565b9050919050565b600073ffffffffffffffffffffffffffffffffffffffff82169050919050565b610b3780620004046000396000f3fe608060405234801561001057600080fd5b5060043610610069576000357c01000000000000000000000000000000000000000000000000000000009004806337ea0de21461006e57806349f81a201461009e5780635aa6e675146100bc5780637b103999146100da575b600080fd5b61008860048036036100839190810190610676565b6100f8565b604051610095919061094b565b60405180910390f35b6100a6610573565b6040516100b391906108ba565b60405180910390f35b6100c4610599565b6040516100d191906108d5565b60405180910390f35b6100e26105be565b6040516100ef91906108f0565b60405180910390f35b6000806000809054906101000a900473ffffffffffffffffffffffffffffffffffffffff1673ffffffffffffffffffffffffffffffffffffffff1663c27cabb56040518163ffffffff167c010000000000000000000000000000000000000000000000000000000002815260040160206040518083038186803b15801561017e57600080fd5b505afa158015610192573d6000803e3d6000fd5b505050506040513d601f19601f820116820180604052506101b691908101906106c8565b90506000600260009054906101000a900473ffffffffffffffffffffffffffffffffffffffff1673ffffffffffffffffffffffffffffffffffffffff166370a08231306040518263ffffffff167c0100000000000000000000000000000000000000000000000000000000028152600401610231919061082a565b60206040518083038186803b15801561024957600080fd5b505afa15801561025d573d6000803e3d6000fd5b505050506040513d601f19601f8201168201806040525061028191908101906106c8565b9050808211156103aa57600260009054906101000a900473ffffffffffffffffffffffffffffffffffffffff1673ffffffffffffffffffffffffffffffffffffffff166323b872dd33306102de85876105e490919063ffffffff16565b6040518463ffffffff167c010000000000000000000000000000000000000000000000000000000002815260040161031893929190610883565b602060405180830381600087803b15801561033257600080fd5b505af1158015610346573d6000803e3d6000fd5b505050506040513d601f19601f8201168201806040525061036a919081019061069f565b6103a9576040517f08c379a00000000000000000000000000000000000000000000000000000000081526004016103a09061090b565b60405180910390fd5b5b6060600160009054906101000a900473ffffffffffffffffffffffffffffffffffffffff1673ffffffffffffffffffffffffffffffffffffffff16630a3b0a4f90507c0100000000000000000000000000000000000000000000000000000000028560405160240161041c919061082a565b604051602081830303815290604052907bffffffffffffffffffffffffffffffffffffffffffffffffffffffff19166020820180517bffffffffffffffffffffffffffffffffffffffffffffffffffffffff838183161783525050505090506000809054906101000a900473ffffffffffffffffffffffffffffffffffffffff1673ffffffffffffffffffffffffffffffffffffffff1663e3c3b20033600160009054906101000a900473ffffffffffffffffffffffffffffffffffffffff16846040518463ffffffff167c010000000000000000000000000000000000000000000000000000000002815260040161051793929190610845565b602060405180830381600087803b15801561053157600080fd5b505af1158015610545573d6000803e3d6000fd5b505050506040513d601f19601f8201168201806040525061056991908101906106c8565b9350505050919050565b600260009054906101000a900473ffffffffffffffffffffffffffffffffffffffff1681565b6000809054906101000a900473ffffffffffffffffffffffffffffffffffffffff1681565b600160009054906101000a900473ffffffffffffffffffffffffffffffffffffffff1681565b600082821115610629576040517f08c379a00000000000000000000000000000000000000000000000000000000081526004016106209061092b565b60405180910390fd5b600082840390508091505092915050565b600061064682356109cf565b905092915050565b600061065a82516109e1565b905092915050565b600061066e8251610a0d565b905092915050565b60006020828403121561068857600080fd5b60006106968482850161063a565b91505092915050565b6000602082840312156106b157600080fd5b60006106bf8482850161064e565b91505092915050565b6000602082840312156106da57600080fd5b60006106e884828501610662565b91505092915050565b6106fa81610a17565b82525050565b61070981610993565b82525050565b600061071a82610966565b6107248185610971565b9350610734818560208601610ab9565b61073d81610aec565b840191505092915050565b61075181610a29565b82525050565b61076081610a4d565b82525050565b61076f81610a71565b82525050565b6000610782602c83610982565b91507f48756d616e6974794170706c6963616e743a3a6170706c79466f723a2054726160008301527f6e73666572206661696c656400000000000000000000000000000000000000006020830152604082019050919050565b60006107e8602083610982565b91507f536166654d6174683a3a7375623a20496e746567657220756e646572666c6f776000830152602082019050919050565b610824816109c5565b82525050565b600060208201905061083f6000830184610700565b92915050565b600060608201905061085a60008301866106f1565b6108676020830185610700565b8181036040830152610879818461070f565b9050949350505050565b600060608201905061089860008301866106f1565b6108a56020830185610700565b6108b2604083018461081b565b949350505050565b60006020820190506108cf6000830184610748565b92915050565b60006020820190506108ea6000830184610757565b92915050565b60006020820190506109056000830184610766565b92915050565b6000602082019050818103600083015261092481610775565b9050919050565b60006020820190508181036000830152610944816107db565b9050919050565b6000602082019050610960600083018461081b565b92915050565b600081519050919050565b600082825260208201905092915050565b600082825260208201905092915050565b600061099e826109a5565b9050919050565b600073ffffffffffffffffffffffffffffffffffffffff82169050919050565b6000819050919050565b60006109da826109ed565b9050919050565b60008115159050919050565b600073ffffffffffffffffffffffffffffffffffffffff82169050919050565b6000819050919050565b6000610a2282610a95565b9050919050565b6000610a3482610a3b565b9050919050565b6000610a46826109a5565b9050919050565b6000610a5882610a5f565b9050919050565b6000610a6a826109a5565b9050919050565b6000610a7c82610a83565b9050919050565b6000610a8e826109a5565b9050919050565b6000610aa082610aa7565b9050919050565b6000610ab2826109a5565b9050919050565b60005b83811015610ad7578082015181840152602081019050610abc565b83811115610ae6576000848401525b50505050565b6000601f19601f830116905091905056fea265627a7a723058203a7f62dd8d52b0e8b44121d3279fa007acb916bf831b15f62dfbacbb18c80f5b6c6578706572696d656e74616cf50037",
  "source": "pragma solidity 0.5.7;\npragma experimental ABIEncoderV2;\n\nimport { IERC20 } from \"openzeppelin-solidity/contracts/token/ERC20/IERC20.sol\";\nimport { SafeMath } from \"openzeppelin-solidity/contracts/math/SafeMath.sol\";\n\nimport { IGovernance } from \"./interface/IGovernance.sol\";\nimport { IRegistry } from \"./interface/IRegistry.sol\";\n\n\n/**\n * @title HumanityApplicant\n * @dev Convenient interface for applying to the Humanity registry.\n */\ncontract HumanityApplicant {\n    using SafeMath for uint;\n\n    IGovernance public governance;\n    IRegistry public registry;\n    IERC20 public humanity;\n\n    constructor(IGovernance _governance, IRegistry _registry, IERC20 _humanity) public {\n        governance = _governance;\n        registry = _registry;\n        humanity = _humanity;\n        humanity.approve(address(governance), uint(-1));\n    }\n\n    function applyFor(address who) public returns (uint) {\n        uint fee = governance.proposalFee();\n        uint balance = humanity.balanceOf(address(this));\n        if (fee > balance) {\n            require(humanity.transferFrom(msg.sender, address(this), fee.sub(balance)), \"HumanityApplicant::applyFor: Transfer failed\");\n        }\n        bytes memory data = abi.encodeWithSelector(registry.add.selector, who);\n        return governance.proposeWithFeeRecipient(msg.sender, address(registry), data);\n    }\n\n}\n",
  "sourcePath": "/Users/jaywelsh/GitHub/society0x/ethereum/contracts/HumanityApplicant.sol",
  "compiler": {
    "name": "solc",
    "version": "0.5.7+commit.6da8b019.Emscripten.clang"
  },
  "schemaVersion": "3.0.9",
  "updatedAt": "2019-06-01T13:06:25.376Z",
  "devdoc": {
    "details": "Convenient interface for applying to the Humanity registry.",
    "methods": {},
    "title": "HumanityApplicant"
  },
  "userdoc": {
    "methods": {}
  }
}