{
  "contractName": "HumanityGovernance",
  "abi": [
    {
      "constant": true,
      "inputs": [
        {
          "name": "",
          "type": "uint256"
        }
      ],
      "name": "proposals",
      "outputs": [
        {
          "name": "result",
          "type": "uint8"
        },
        {
          "name": "target",
          "type": "address"
        },
        {
          "name": "data",
          "type": "bytes"
        },
        {
          "name": "proposer",
          "type": "address"
        },
        {
          "name": "feeRecipient",
          "type": "address"
        },
        {
          "name": "fee",
          "type": "uint256"
        },
        {
          "name": "startTime",
          "type": "uint256"
        },
        {
          "name": "yesCount",
          "type": "uint256"
        },
        {
          "name": "noCount",
          "type": "uint256"
        }
      ],
      "payable": false,
      "stateMutability": "view",
      "type": "function"
    },
    {
      "constant": false,
      "inputs": [
        {
          "name": "proposalId",
          "type": "uint256"
        }
      ],
      "name": "finalize",
      "outputs": [],
      "payable": false,
      "stateMutability": "nonpayable",
      "type": "function"
    },
    {
      "constant": true,
      "inputs": [
        {
          "name": "",
          "type": "uint256"
        },
        {
          "name": "",
          "type": "address"
        }
      ],
      "name": "yesVotes",
      "outputs": [
        {
          "name": "",
          "type": "uint256"
        }
      ],
      "payable": false,
      "stateMutability": "view",
      "type": "function"
    },
    {
      "constant": false,
      "inputs": [
        {
          "name": "fee",
          "type": "uint256"
        }
      ],
      "name": "setProposalFee",
      "outputs": [],
      "payable": false,
      "stateMutability": "nonpayable",
      "type": "function"
    },
    {
      "constant": true,
      "inputs": [],
      "name": "time",
      "outputs": [
        {
          "name": "",
          "type": "uint256"
        }
      ],
      "payable": false,
      "stateMutability": "view",
      "type": "function"
    },
    {
      "constant": false,
      "inputs": [
        {
          "name": "proposalId",
          "type": "uint256"
        }
      ],
      "name": "voteNo",
      "outputs": [],
      "payable": false,
      "stateMutability": "nonpayable",
      "type": "function"
    },
    {
      "constant": false,
      "inputs": [
        {
          "name": "amount",
          "type": "uint256"
        }
      ],
      "name": "withdraw",
      "outputs": [],
      "payable": false,
      "stateMutability": "nonpayable",
      "type": "function"
    },
    {
      "constant": false,
      "inputs": [
        {
          "name": "proposalId",
          "type": "uint256"
        }
      ],
      "name": "removeVote",
      "outputs": [],
      "payable": false,
      "stateMutability": "nonpayable",
      "type": "function"
    },
    {
      "constant": true,
      "inputs": [],
      "name": "OPEN_VOTE_PERIOD",
      "outputs": [
        {
          "name": "",
          "type": "uint256"
        }
      ],
      "payable": false,
      "stateMutability": "view",
      "type": "function"
    },
    {
      "constant": false,
      "inputs": [
        {
          "name": "proposalId",
          "type": "uint256"
        }
      ],
      "name": "voteYes",
      "outputs": [],
      "payable": false,
      "stateMutability": "nonpayable",
      "type": "function"
    },
    {
      "constant": true,
      "inputs": [],
      "name": "TOTAL_VOTE_PERIOD",
      "outputs": [
        {
          "name": "",
          "type": "uint256"
        }
      ],
      "payable": false,
      "stateMutability": "view",
      "type": "function"
    },
    {
      "constant": true,
      "inputs": [],
      "name": "getProposalsCount",
      "outputs": [
        {
          "name": "",
          "type": "uint256"
        }
      ],
      "payable": false,
      "stateMutability": "view",
      "type": "function"
    },
    {
      "constant": false,
      "inputs": [
        {
          "name": "target",
          "type": "address"
        },
        {
          "name": "data",
          "type": "bytes"
        }
      ],
      "name": "propose",
      "outputs": [
        {
          "name": "",
          "type": "uint256"
        }
      ],
      "payable": false,
      "stateMutability": "nonpayable",
      "type": "function"
    },
    {
      "constant": true,
      "inputs": [],
      "name": "void",
      "outputs": [
        {
          "name": "",
          "type": "address"
        }
      ],
      "payable": false,
      "stateMutability": "view",
      "type": "function"
    },
    {
      "constant": true,
      "inputs": [
        {
          "name": "",
          "type": "address"
        }
      ],
      "name": "withdrawTimes",
      "outputs": [
        {
          "name": "",
          "type": "uint256"
        }
      ],
      "payable": false,
      "stateMutability": "view",
      "type": "function"
    },
    {
      "constant": false,
      "inputs": [
        {
          "name": "amount",
          "type": "uint256"
        }
      ],
      "name": "deposit",
      "outputs": [],
      "payable": false,
      "stateMutability": "nonpayable",
      "type": "function"
    },
    {
      "constant": true,
      "inputs": [],
      "name": "proposalFee",
      "outputs": [
        {
          "name": "",
          "type": "uint256"
        }
      ],
      "payable": false,
      "stateMutability": "view",
      "type": "function"
    },
    {
      "constant": true,
      "inputs": [
        {
          "name": "proposalId",
          "type": "uint256"
        }
      ],
      "name": "getProposal",
      "outputs": [
        {
          "components": [
            {
              "name": "result",
              "type": "uint8"
            },
            {
              "name": "target",
              "type": "address"
            },
            {
              "name": "data",
              "type": "bytes"
            },
            {
              "name": "proposer",
              "type": "address"
            },
            {
              "name": "feeRecipient",
              "type": "address"
            },
            {
              "name": "fee",
              "type": "uint256"
            },
            {
              "name": "startTime",
              "type": "uint256"
            },
            {
              "name": "yesCount",
              "type": "uint256"
            },
            {
              "name": "noCount",
              "type": "uint256"
            }
          ],
          "name": "",
          "type": "tuple"
        }
      ],
      "payable": false,
      "stateMutability": "view",
      "type": "function"
    },
    {
      "constant": true,
      "inputs": [
        {
          "name": "",
          "type": "uint256"
        },
        {
          "name": "",
          "type": "address"
        }
      ],
      "name": "noVotes",
      "outputs": [
        {
          "name": "",
          "type": "uint256"
        }
      ],
      "payable": false,
      "stateMutability": "view",
      "type": "function"
    },
    {
      "constant": false,
      "inputs": [
        {
          "name": "feeRecipient",
          "type": "address"
        },
        {
          "name": "target",
          "type": "address"
        },
        {
          "name": "data",
          "type": "bytes"
        }
      ],
      "name": "proposeWithFeeRecipient",
      "outputs": [
        {
          "name": "",
          "type": "uint256"
        }
      ],
      "payable": false,
      "stateMutability": "nonpayable",
      "type": "function"
    },
    {
      "constant": true,
      "inputs": [],
      "name": "VETO_PERIOD",
      "outputs": [
        {
          "name": "",
          "type": "uint256"
        }
      ],
      "payable": false,
      "stateMutability": "view",
      "type": "function"
    },
    {
      "constant": true,
      "inputs": [],
      "name": "token",
      "outputs": [
        {
          "name": "",
          "type": "address"
        }
      ],
      "payable": false,
      "stateMutability": "view",
      "type": "function"
    },
    {
      "constant": true,
      "inputs": [
        {
          "name": "",
          "type": "address"
        }
      ],
      "name": "deposits",
      "outputs": [
        {
          "name": "",
          "type": "uint256"
        }
      ],
      "payable": false,
      "stateMutability": "view",
      "type": "function"
    },
    {
      "inputs": [
        {
          "name": "humanity",
          "type": "address"
        },
        {
          "name": "proposalFee",
          "type": "uint256"
        }
      ],
      "payable": false,
      "stateMutability": "nonpayable",
      "type": "constructor"
    },
    {
      "anonymous": false,
      "inputs": [
        {
          "indexed": true,
          "name": "proposalId",
          "type": "uint256"
        }
      ],
      "name": "Execute",
      "type": "event"
    },
    {
      "anonymous": false,
      "inputs": [
        {
          "indexed": true,
          "name": "proposalId",
          "type": "uint256"
        },
        {
          "indexed": true,
          "name": "proposer",
          "type": "address"
        },
        {
          "indexed": true,
          "name": "target",
          "type": "address"
        },
        {
          "indexed": false,
          "name": "data",
          "type": "bytes"
        }
      ],
      "name": "Propose",
      "type": "event"
    },
    {
      "anonymous": false,
      "inputs": [
        {
          "indexed": true,
          "name": "proposalId",
          "type": "uint256"
        },
        {
          "indexed": true,
          "name": "voter",
          "type": "address"
        }
      ],
      "name": "RemoveVote",
      "type": "event"
    },
    {
      "anonymous": false,
      "inputs": [
        {
          "indexed": true,
          "name": "proposalId",
          "type": "uint256"
        }
      ],
      "name": "Terminate",
      "type": "event"
    },
    {
      "anonymous": false,
      "inputs": [
        {
          "indexed": true,
          "name": "proposalId",
          "type": "uint256"
        },
        {
          "indexed": true,
          "name": "voter",
          "type": "address"
        },
        {
          "indexed": false,
          "name": "approve",
          "type": "bool"
        },
        {
          "indexed": false,
          "name": "weight",
          "type": "uint256"
        }
      ],
      "name": "Vote",
      "type": "event"
    }
  ],
  "bytecode": "0x60806040523480156200001157600080fd5b50604051604080620038e083398101806040526200003391908101906200012c565b818181600160006101000a81548173ffffffffffffffffffffffffffffffffffffffff021916908373ffffffffffffffffffffffffffffffffffffffff160217905550806000819055506040516200008b90620000f3565b604051809103906000f080158015620000a8573d6000803e3d6000fd5b50600260006101000a81548173ffffffffffffffffffffffffffffffffffffffff021916908373ffffffffffffffffffffffffffffffffffffffff16021790555050505050620001bf565b6052806200388e83390190565b60006200010e825162000181565b905092915050565b6000620001248251620001b5565b905092915050565b600080604083850312156200014057600080fd5b6000620001508582860162000100565b9250506020620001638582860162000116565b9150509250929050565b60006200017a8262000195565b9050919050565b60006200018e826200016d565b9050919050565b600073ffffffffffffffffffffffffffffffffffffffff82169050919050565b6000819050919050565b6136bf80620001cf6000396000f3fe608060405234801561001057600080fd5b506004361061016a576000357c01000000000000000000000000000000000000000000000000000000009004806398e527d3116100e0578063c7f758a811610099578063c7f758a8146103af578063da5c5b55146103df578063e3c3b2001461040f578063e861dc851461043f578063fc0c546a1461045d578063fc7e286d1461047b5761016a565b806398e527d3146102d95780639d481848146102f7578063ac4c25b214610327578063ad22132114610345578063b6b55f2514610375578063c27cabb5146103915761016a565b80631a6f7be5116101325780631a6f7be51461022d5780632e1a7d4d146102495780633f68fde4146102655780635d9dacb5146102815780636a1cf7211461029f5780637c64a45c146102bb5761016a565b8063013cf08b1461016f57806305261aea146101a75780630bc43490146101c357806310bf5068146101f357806316ada5471461020f575b600080fd5b61018960048036036101849190810190612516565b6104ab565b60405161019e9998979695949392919061310e565b60405180910390f35b6101c160048036036101bc9190810190612516565b61060b565b005b6101dd60048036036101d8919081019061253f565b610b0c565b6040516101ea9190613424565b60405180910390f35b61020d60048036036102089190810190612516565b610b31565b005b610217610ba9565b6040516102249190613424565b60405180910390f35b61024760048036036102429190810190612516565b610bb1565b005b610263600480360361025e9190810190612516565b61106c565b005b61027f600480360361027a9190810190612516565b611296565b005b610289611552565b6040516102969190613424565b60405180910390f35b6102b960048036036102b49190810190612516565b611559565b005b6102c3611838565b6040516102d09190613424565b60405180910390f35b6102e1611841565b6040516102ee9190613424565b60405180910390f35b610311600480360361030c9190810190612499565b61184e565b60405161031e9190613424565b60405180910390f35b61032f611863565b60405161033c91906130f3565b60405180910390f35b61035f600480360361035a9190810190612409565b611889565b60405161036c9190613424565b60405180910390f35b61038f600480360361038a9190810190612516565b6118a1565b005b610399611a45565b6040516103a69190613424565b60405180910390f35b6103c960048036036103c49190810190612516565b611a4b565b6040516103d69190613402565b60405180910390f35b6103f960048036036103f4919081019061253f565b611c7a565b6040516104069190613424565b60405180910390f35b61042960048036036104249190810190612432565b611c9f565b6040516104369190613424565b60405180910390f35b61044761214b565b6040516104549190613424565b60405180910390f35b610465612152565b60405161047291906130d8565b60405180910390f35b61049560048036036104909190810190612409565b612178565b6040516104a29190613424565b60405180910390f35b600381815481106104b857fe5b90600052602060002090600802016000915090508060000160009054906101000a900460ff16908060000160019054906101000a900473ffffffffffffffffffffffffffffffffffffffff1690806001018054600181600116156101000203166002900480601f01602080910402602001604051908101604052809291908181526020018280546001816001161561010002031660029004801561059d5780601f106105725761010080835404028352916020019161059d565b820191906000526020600020905b81548152906001019060200180831161058057829003601f168201915b5050505050908060020160009054906101000a900473ffffffffffffffffffffffffffffffffffffffff16908060030160009054906101000a900473ffffffffffffffffffffffffffffffffffffffff16908060040154908060050154908060060154908060070154905089565b60006003828154811061061a57fe5b906000526020600020906008020190506000600281111561063757fe5b8160000160009054906101000a900460ff16600281111561065457fe5b14610694576040517f08c379a000000000000000000000000000000000000000000000000000000000815260040161068b90613362565b60405180910390fd5b600061069e610ba9565b9050816007015482600601541115610928576106cc6202a3008001836005015461219090919063ffffffff16565b811161070d576040517f08c379a000000000000000000000000000000000000000000000000000000000815260040161070490613302565b60405180910390fd5b60018260000160006101000a81548160ff0219169083600281111561072e57fe5b0217905550600160009054906101000a900473ffffffffffffffffffffffffffffffffffffffff1673ffffffffffffffffffffffffffffffffffffffff1663a9059cbb8360030160009054906101000a900473ffffffffffffffffffffffffffffffffffffffff1684600401546040518363ffffffff167c01000000000000000000000000000000000000000000000000000000000281526004016107d4929190613064565b602060405180830381600087803b1580156107ee57600080fd5b505af1158015610802573d6000803e3d6000fd5b505050506040513d601f19601f8201168201806040525061082691908101906124ed565b610865576040517f08c379a000000000000000000000000000000000000000000000000000000000815260040161085c906131c2565b60405180910390fd5b8160000160019054906101000a900473ffffffffffffffffffffffffffffffffffffffff1673ffffffffffffffffffffffffffffffffffffffff16826001016040516108b19190612fed565b6000604051808303816000865af19150503d80600081146108ee576040519150601f19603f3d011682016040523d82523d6000602084013e6108f3565b606091505b505050827fddb556f1d2c1ec821e910b019d3685b229db152a0ecd517ca7e24b8bd713928960405160405180910390a2610b07565b6109426202a300836005015461219090919063ffffffff16565b8111610983576040517f08c379a000000000000000000000000000000000000000000000000000000000815260040161097a90613342565b60405180910390fd5b60028260000160006101000a81548160ff021916908360028111156109a457fe5b0217905550600160009054906101000a900473ffffffffffffffffffffffffffffffffffffffff1673ffffffffffffffffffffffffffffffffffffffff1663a9059cbb600260009054906101000a900473ffffffffffffffffffffffffffffffffffffffff1684600401546040518363ffffffff167c0100000000000000000000000000000000000000000000000000000000028152600401610a48929190613064565b602060405180830381600087803b158015610a6257600080fd5b505af1158015610a76573d6000803e3d6000fd5b505050506040513d601f19601f82011682018060405250610a9a91908101906124ed565b610ad9576040517f08c379a0000000000000000000000000000000000000000000000000000000008152600401610ad0906133a2565b60405180910390fd5b827fd681175168470800567b22d50d831df189686adc5b155827823a5ada6a97a4fe60405160405180910390a25b505050565b6004602052816000526040600020602052806000526040600020600091509150505481565b3073ffffffffffffffffffffffffffffffffffffffff163373ffffffffffffffffffffffffffffffffffffffff1614610b9f576040517f08c379a0000000000000000000000000000000000000000000000000000000008152600401610b9690613222565b60405180910390fd5b8060008190555050565b600042905090565b600060038281548110610bc057fe5b9060005260206000209060080201905060006002811115610bdd57fe5b8160000160009054906101000a900460ff166002811115610bfa57fe5b14610c3a576040517f08c379a0000000000000000000000000000000000000000000000000000000008152600401610c31906132e2565b60405180910390fd5b6000610c586202a3008001836005015461219090919063ffffffff16565b90506000610c64610ba9565b905081811115610ca9576040517f08c379a0000000000000000000000000000000000000000000000000000000008152600401610ca0906133c2565b60405180910390fd5b6000600660003373ffffffffffffffffffffffffffffffffffffffff1673ffffffffffffffffffffffffffffffffffffffff1681526020019081526020016000205490506000610d526005600088815260200190815260200160002060003373ffffffffffffffffffffffffffffffffffffffff1673ffffffffffffffffffffffffffffffffffffffff16815260200190815260200160002054836121e590919063ffffffff16565b9050610d6b81866007015461219090919063ffffffff16565b8560070181905550816005600088815260200190815260200160002060003373ffffffffffffffffffffffffffffffffffffffff1673ffffffffffffffffffffffffffffffffffffffff168152602001908152602001600020819055503373ffffffffffffffffffffffffffffffffffffffff16867f88d35328232823f54954b6627e9f732371656f6daa40cb1b01b27dc7875a7b47600084604051610e1292919061308d565b60405180910390a3610e346202a300866005015461219090919063ffffffff16565b83118015610e4a57508460060154856007015410155b15610fd75760028560000160006101000a81548160ff02191690836002811115610e7057fe5b0217905550600160009054906101000a900473ffffffffffffffffffffffffffffffffffffffff1673ffffffffffffffffffffffffffffffffffffffff1663a9059cbb600260009054906101000a900473ffffffffffffffffffffffffffffffffffffffff1687600401546040518363ffffffff167c0100000000000000000000000000000000000000000000000000000000028152600401610f14929190613064565b602060405180830381600087803b158015610f2e57600080fd5b505af1158015610f42573d6000803e3d6000fd5b505050506040513d601f19601f82011682018060405250610f6691908101906124ed565b610fa5576040517f08c379a0000000000000000000000000000000000000000000000000000000008152600401610f9c906132a2565b60405180910390fd5b857fd681175168470800567b22d50d831df189686adc5b155827823a5ada6a97a4fe60405160405180910390a2611064565b600760003373ffffffffffffffffffffffffffffffffffffffff1673ffffffffffffffffffffffffffffffffffffffff168152602001908152602001600020548411156110635783600760003373ffffffffffffffffffffffffffffffffffffffff1673ffffffffffffffffffffffffffffffffffffffff168152602001908152602001600020819055505b5b505050505050565b600760003373ffffffffffffffffffffffffffffffffffffffff1673ffffffffffffffffffffffffffffffffffffffff168152602001908152602001600020546110b4610ba9565b116110f4576040517f08c379a00000000000000000000000000000000000000000000000000000000081526004016110eb906131a2565b60405180910390fd5b61114681600660003373ffffffffffffffffffffffffffffffffffffffff1673ffffffffffffffffffffffffffffffffffffffff168152602001908152602001600020546121e590919063ffffffff16565b600660003373ffffffffffffffffffffffffffffffffffffffff1673ffffffffffffffffffffffffffffffffffffffff16815260200190815260200160002081905550600160009054906101000a900473ffffffffffffffffffffffffffffffffffffffff1673ffffffffffffffffffffffffffffffffffffffff1663a9059cbb33836040518363ffffffff167c010000000000000000000000000000000000000000000000000000000002815260040161120292919061303b565b602060405180830381600087803b15801561121c57600080fd5b505af1158015611230573d6000803e3d6000fd5b505050506040513d601f19601f8201168201806040525061125491908101906124ed565b611293576040517f08c379a000000000000000000000000000000000000000000000000000000000815260040161128a90613262565b60405180910390fd5b50565b6000600382815481106112a557fe5b90600052602060002090600802019050600060028111156112c257fe5b8160000160009054906101000a900460ff1660028111156112df57fe5b1461131f576040517f08c379a0000000000000000000000000000000000000000000000000000000008152600401611316906131e2565b60405180910390fd5b61133b6202a3008001826005015461219090919063ffffffff16565b611343610ba9565b1115611384576040517f08c379a000000000000000000000000000000000000000000000000000000000815260040161137b90613242565b60405180910390fd5b6113eb6004600084815260200190815260200160002060003373ffffffffffffffffffffffffffffffffffffffff1673ffffffffffffffffffffffffffffffffffffffff1681526020019081526020016000205482600601546121e590919063ffffffff16565b816006018190555061145a6005600084815260200190815260200160002060003373ffffffffffffffffffffffffffffffffffffffff1673ffffffffffffffffffffffffffffffffffffffff1681526020019081526020016000205482600701546121e590919063ffffffff16565b81600701819055506004600083815260200190815260200160002060003373ffffffffffffffffffffffffffffffffffffffff1673ffffffffffffffffffffffffffffffffffffffff168152602001908152602001600020600090556005600083815260200190815260200160002060003373ffffffffffffffffffffffffffffffffffffffff1673ffffffffffffffffffffffffffffffffffffffff168152602001908152602001600020600090553373ffffffffffffffffffffffffffffffffffffffff16827f3676c1fca38c63566d0cbf07d561c0db78a4cc1f64d3d929ef452bfef41a3d0660405160405180910390a35050565b6202a30081565b60006003828154811061156857fe5b906000526020600020906008020190506115926202a300826005015461219090919063ffffffff16565b61159a610ba9565b11156115db576040517f08c379a00000000000000000000000000000000000000000000000000000000081526004016115d290613322565b60405180910390fd5b60006115f96202a3008001836005015461219090919063ffffffff16565b9050600760003373ffffffffffffffffffffffffffffffffffffffff1673ffffffffffffffffffffffffffffffffffffffff168152602001908152602001600020548111156116875780600760003373ffffffffffffffffffffffffffffffffffffffff1673ffffffffffffffffffffffffffffffffffffffff168152602001908152602001600020819055505b600061172b6004600086815260200190815260200160002060003373ffffffffffffffffffffffffffffffffffffffff1673ffffffffffffffffffffffffffffffffffffffff16815260200190815260200160002054600660003373ffffffffffffffffffffffffffffffffffffffff1673ffffffffffffffffffffffffffffffffffffffff168152602001908152602001600020546121e590919063ffffffff16565b905061174481846006015461219090919063ffffffff16565b8360060181905550600660003373ffffffffffffffffffffffffffffffffffffffff1673ffffffffffffffffffffffffffffffffffffffff168152602001908152602001600020546004600086815260200190815260200160002060003373ffffffffffffffffffffffffffffffffffffffff1673ffffffffffffffffffffffffffffffffffffffff168152602001908152602001600020819055503373ffffffffffffffffffffffffffffffffffffffff16847f88d35328232823f54954b6627e9f732371656f6daa40cb1b01b27dc7875a7b4760018460405161182a92919061308d565b60405180910390a350505050565b6202a300800181565b6000600380549050905090565b600061185b338484611c9f565b905092915050565b600260009054906101000a900473ffffffffffffffffffffffffffffffffffffffff1681565b60076020528060005260406000206000915090505481565b600160009054906101000a900473ffffffffffffffffffffffffffffffffffffffff1673ffffffffffffffffffffffffffffffffffffffff166323b872dd3330846040518463ffffffff167c010000000000000000000000000000000000000000000000000000000002815260040161191c93929190613004565b602060405180830381600087803b15801561193657600080fd5b505af115801561194a573d6000803e3d6000fd5b505050506040513d601f19601f8201168201806040525061196e91908101906124ed565b6119ad576040517f08c379a00000000000000000000000000000000000000000000000000000000081526004016119a4906132c2565b60405180910390fd5b6119ff81600660003373ffffffffffffffffffffffffffffffffffffffff1673ffffffffffffffffffffffffffffffffffffffff1681526020019081526020016000205461219090919063ffffffff16565b600660003373ffffffffffffffffffffffffffffffffffffffff1673ffffffffffffffffffffffffffffffffffffffff1681526020019081526020016000208190555050565b60005481565b611a5361223b565b60038281548110611a6057fe5b9060005260206000209060080201604051806101200160405290816000820160009054906101000a900460ff166002811115611a9857fe5b6002811115611aa357fe5b81526020016000820160019054906101000a900473ffffffffffffffffffffffffffffffffffffffff1673ffffffffffffffffffffffffffffffffffffffff1673ffffffffffffffffffffffffffffffffffffffff168152602001600182018054600181600116156101000203166002900480601f016020809104026020016040519081016040528092919081815260200182805460018160011615610100020316600290048015611b965780601f10611b6b57610100808354040283529160200191611b96565b820191906000526020600020905b815481529060010190602001808311611b7957829003601f168201915b505050505081526020016002820160009054906101000a900473ffffffffffffffffffffffffffffffffffffffff1673ffffffffffffffffffffffffffffffffffffffff1673ffffffffffffffffffffffffffffffffffffffff1681526020016003820160009054906101000a900473ffffffffffffffffffffffffffffffffffffffff1673ffffffffffffffffffffffffffffffffffffffff1673ffffffffffffffffffffffffffffffffffffffff1681526020016004820154815260200160058201548152602001600682015481526020016007820154815250509050919050565b6005602052816000526040600020602052806000526040600020600091509150505481565b60003073ffffffffffffffffffffffffffffffffffffffff163373ffffffffffffffffffffffffffffffffffffffff1614158015611d2b5750600160009054906101000a900473ffffffffffffffffffffffffffffffffffffffff1673ffffffffffffffffffffffffffffffffffffffff168373ffffffffffffffffffffffffffffffffffffffff1614155b611d6a576040517f08c379a0000000000000000000000000000000000000000000000000000000008152600401611d61906133e2565b60405180910390fd5b600160009054906101000a900473ffffffffffffffffffffffffffffffffffffffff1673ffffffffffffffffffffffffffffffffffffffff166323b872dd33306000546040518463ffffffff167c0100000000000000000000000000000000000000000000000000000000028152600401611de793929190613004565b602060405180830381600087803b158015611e0157600080fd5b505af1158015611e15573d6000803e3d6000fd5b505050506040513d601f19601f82011682018060405250611e3991908101906124ed565b611e78576040517f08c379a0000000000000000000000000000000000000000000000000000000008152600401611e6f90613282565b60405180910390fd5b60006003805490509050611e8a61223b565b84816020019073ffffffffffffffffffffffffffffffffffffffff16908173ffffffffffffffffffffffffffffffffffffffff168152505083816040018190525033816060019073ffffffffffffffffffffffffffffffffffffffff16908173ffffffffffffffffffffffffffffffffffffffff168152505085816080019073ffffffffffffffffffffffffffffffffffffffff16908173ffffffffffffffffffffffffffffffffffffffff16815250506000548160a0018181525050611f4f610ba9565b8160c00181815250506000548160e00181815250506003819080600181540180825580915050906001820390600052602060002090600802016000909192909190915060008201518160000160006101000a81548160ff02191690836002811115611fb657fe5b021790555060208201518160000160016101000a81548173ffffffffffffffffffffffffffffffffffffffff021916908373ffffffffffffffffffffffffffffffffffffffff160217905550604082015181600101908051906020019061201e9291906122d4565b5060608201518160020160006101000a81548173ffffffffffffffffffffffffffffffffffffffff021916908373ffffffffffffffffffffffffffffffffffffffff16021790555060808201518160030160006101000a81548173ffffffffffffffffffffffffffffffffffffffff021916908373ffffffffffffffffffffffffffffffffffffffff16021790555060a0820151816004015560c0820151816005015560e0820151816006015561010082015181600701555050508473ffffffffffffffffffffffffffffffffffffffff163373ffffffffffffffffffffffffffffffffffffffff16837f2f162bd58e5254c884a7cbc5409e7e1d4f69b18801f19b8502365fc82b0c19968760405161213791906130b6565b60405180910390a481925050509392505050565b6202a30081565b600160009054906101000a900473ffffffffffffffffffffffffffffffffffffffff1681565b60066020528060005260406000206000915090505481565b6000808284019050838110156121db576040517f08c379a00000000000000000000000000000000000000000000000000000000081526004016121d290613382565b60405180910390fd5b8091505092915050565b60008282111561222a576040517f08c379a000000000000000000000000000000000000000000000000000000000815260040161222190613202565b60405180910390fd5b600082840390508091505092915050565b6040518061012001604052806000600281111561225457fe5b8152602001600073ffffffffffffffffffffffffffffffffffffffff16815260200160608152602001600073ffffffffffffffffffffffffffffffffffffffff168152602001600073ffffffffffffffffffffffffffffffffffffffff168152602001600081526020016000815260200160008152602001600081525090565b828054600181600116156101000203166002900490600052602060002090601f016020900481019282601f1061231557805160ff1916838001178555612343565b82800160010185558215612343579182015b82811115612342578251825591602001919060010190612327565b5b5090506123509190612354565b5090565b61237691905b8082111561237257600081600090555060010161235a565b5090565b90565b6000612385823561355a565b905092915050565b6000612399825161356c565b905092915050565b600082601f8301126123b257600080fd5b81356123c56123c08261346c565b61343f565b915080825260208301602083018583830111156123e157600080fd5b6123ec838284613632565b50505092915050565b60006124018235613598565b905092915050565b60006020828403121561241b57600080fd5b600061242984828501612379565b91505092915050565b60008060006060848603121561244757600080fd5b600061245586828701612379565b935050602061246686828701612379565b925050604084013567ffffffffffffffff81111561248357600080fd5b61248f868287016123a1565b9150509250925092565b600080604083850312156124ac57600080fd5b60006124ba85828601612379565b925050602083013567ffffffffffffffff8111156124d757600080fd5b6124e3858286016123a1565b9150509250929050565b6000602082840312156124ff57600080fd5b600061250d8482850161238d565b91505092915050565b60006020828403121561252857600080fd5b6000612536848285016123f5565b91505092915050565b6000806040838503121561255257600080fd5b6000612560858286016123f5565b925050602061257185828601612379565b9150509250929050565b612584816135a2565b82525050565b612593816134fe565b82525050565b6125a2816134fe565b82525050565b6125b181613510565b82525050565b60006125c2826134b5565b6125cc81856134d1565b93506125dc818560208601613641565b6125e581613674565b840191505092915050565b60006125fb826134aa565b61260581856134c0565b9350612615818560208601613641565b61261e81613674565b840191505092915050565b6000612634826134aa565b61263e81856134d1565b935061264e818560208601613641565b61265781613674565b840191505092915050565b60008154600181166000811461267f57600181146126a4576126e8565b607f600283041661269081876134e2565b955060ff19831686528086019350506126e8565b600282046126b281876134e2565b95506126bd85613498565b60005b828110156126df578154818901526001820191506020810190506126c0565b82880195505050505b505092915050565b6126f9816135b4565b82525050565b612708816135d8565b82525050565b612717816135fc565b82525050565b612726816135fc565b82525050565b60006127396044836134ed565b91507f476f7665726e616e63653a3a77697468647261773a20566f746572732077697460008301527f6820616e206163746976652070726f706f73616c2063616e6e6f74207769746860208301527f64726177000000000000000000000000000000000000000000000000000000006040830152606082019050919050565b60006127c56030836134ed565b91507f476f7665726e616e63653a3a66696e616c697a653a2052657475726e2070726f60008301527f706f73616c20666565206661696c6564000000000000000000000000000000006020830152604082019050919050565b600061282b6035836134ed565b91507f476f7665726e616e63653a3a72656d6f7665566f74653a2050726f706f73616c60008301527f20697320616c72656164792066696e616c697a656400000000000000000000006020830152604082019050919050565b60006128916020836134ed565b91507f536166654d6174683a3a7375623a20496e746567657220756e646572666c6f776000830152602082019050919050565b60006128d16047836134ed565b91507f476f7665726e616e63653a3a73657450726f706f73616c4665653a2050726f7060008301527f6f73616c206665652063616e206f6e6c79206265207365742076696120676f7660208301527f65726e616e6365000000000000000000000000000000000000000000000000006040830152606082019050919050565b600061295d603e836134ed565b91507f476f7665726e616e63653a3a72656d6f7665566f74653a2050726f706f73616c60008301527f206973206e6f206c6f6e67657220696e20766f74696e6720706572696f6400006020830152604082019050919050565b60006129c36025836134ed565b91507f476f7665726e616e63653a3a77697468647261773a205472616e73666572206660008301527f61696c65640000000000000000000000000000000000000000000000000000006020830152604082019050919050565b6000612a296034836134ed565b91507f476f7665726e616e63653a3a70726f706f73655769746846656552656369706960008301527f656e743a205472616e73666572206661696c65640000000000000000000000006020830152604082019050919050565b6000612a8f602b836134ed565b91507f476f7665726e616e63653a3a766f74654e6f3a205472616e7366657220746f2060008301527f766f6964206661696c65640000000000000000000000000000000000000000006020830152604082019050919050565b6000612af56024836134ed565b91507f476f7665726e616e63653a3a6465706f7369743a205472616e7366657220666160008301527f696c6564000000000000000000000000000000000000000000000000000000006020830152604082019050919050565b6000612b5b6031836134ed565b91507f476f7665726e616e63653a3a766f74654e6f3a2050726f706f73616c2069732060008301527f616c72656164792066696e616c697a65640000000000000000000000000000006020830152604082019050919050565b6000612bc1604a836134ed565b91507f476f7665726e616e63653a3a66696e616c697a653a2050726f706f73616c206360008301527f616e6e6f7420626520657865637574656420756e74696c20656e64206f66207660208301527f65746f20706572696f64000000000000000000000000000000000000000000006040830152606082019050919050565b6000612c4d603e836134ed565b91507f476f7665726e616e63653a3a766f74655965733a2050726f706f73616c20697360008301527f206e6f206c6f6e67657220616363657074696e672079657320766f74657300006020830152604082019050919050565b6000612cb36050836134ed565b91507f476f7665726e616e63653a3a66696e616c697a653a2050726f706f73616c206360008301527f616e6e6f74206265207465726d696e6174656420756e74696c20656e64206f6660208301527f2079657320766f746520706572696f64000000000000000000000000000000006040830152606082019050919050565b6000612d3f6033836134ed565b91507f476f7665726e616e63653a3a66696e616c697a653a2050726f706f73616c206960008301527f7320616c72656164792066696e616c697a6564000000000000000000000000006020830152604082019050919050565b6000612da5601f836134ed565b91507f536166654d6174683a3a6164643a20496e7465676572206f766572666c6f77006000830152602082019050919050565b6000612de5602d836134ed565b91507f476f7665726e616e63653a3a66696e616c697a653a205472616e73666572207460008301527f6f20766f6964206661696c6564000000000000000000000000000000000000006020830152604082019050919050565b6000612e4b603a836134ed565b91507f476f7665726e616e63653a3a766f74654e6f3a2050726f706f73616c2069732060008301527f6e6f206c6f6e67657220696e20766f74696e6720706572696f640000000000006020830152604082019050919050565b6000612eb16035836134ed565b91507f476f7665726e616e63653a3a70726f706f73655769746846656552656369706960008301527f656e743a20496e76616c69642070726f706f73616c00000000000000000000006020830152604082019050919050565b600061012083016000830151612f23600086018261270e565b506020830151612f36602086018261258a565b5060408301518482036040860152612f4e82826125f0565b9150506060830151612f63606086018261258a565b506080830151612f76608086018261258a565b5060a0830151612f8960a0860182612fcf565b5060c0830151612f9c60c0860182612fcf565b5060e0830151612faf60e0860182612fcf565b50610100830151612fc4610100860182612fcf565b508091505092915050565b612fd881613550565b82525050565b612fe781613550565b82525050565b6000612ff98284612662565b915081905092915050565b6000606082019050613019600083018661257b565b6130266020830185612599565b6130336040830184612fde565b949350505050565b6000604082019050613050600083018561257b565b61305d6020830184612fde565b9392505050565b60006040820190506130796000830185612599565b6130866020830184612fde565b9392505050565b60006040820190506130a260008301856125a8565b6130af6020830184612fde565b9392505050565b600060208201905081810360008301526130d081846125b7565b905092915050565b60006020820190506130ed60008301846126f0565b92915050565b600060208201905061310860008301846126ff565b92915050565b600061012082019050613124600083018c61271d565b613131602083018b612599565b8181036040830152613143818a612629565b90506131526060830189612599565b61315f6080830188612599565b61316c60a0830187612fde565b61317960c0830186612fde565b61318660e0830185612fde565b613194610100830184612fde565b9a9950505050505050505050565b600060208201905081810360008301526131bb8161272c565b9050919050565b600060208201905081810360008301526131db816127b8565b9050919050565b600060208201905081810360008301526131fb8161281e565b9050919050565b6000602082019050818103600083015261321b81612884565b9050919050565b6000602082019050818103600083015261323b816128c4565b9050919050565b6000602082019050818103600083015261325b81612950565b9050919050565b6000602082019050818103600083015261327b816129b6565b9050919050565b6000602082019050818103600083015261329b81612a1c565b9050919050565b600060208201905081810360008301526132bb81612a82565b9050919050565b600060208201905081810360008301526132db81612ae8565b9050919050565b600060208201905081810360008301526132fb81612b4e565b9050919050565b6000602082019050818103600083015261331b81612bb4565b9050919050565b6000602082019050818103600083015261333b81612c40565b9050919050565b6000602082019050818103600083015261335b81612ca6565b9050919050565b6000602082019050818103600083015261337b81612d32565b9050919050565b6000602082019050818103600083015261339b81612d98565b9050919050565b600060208201905081810360008301526133bb81612dd8565b9050919050565b600060208201905081810360008301526133db81612e3e565b9050919050565b600060208201905081810360008301526133fb81612ea4565b9050919050565b6000602082019050818103600083015261341c8184612f0a565b905092915050565b60006020820190506134396000830184612fde565b92915050565b6000604051905081810181811067ffffffffffffffff8211171561346257600080fd5b8060405250919050565b600067ffffffffffffffff82111561348357600080fd5b601f19601f8301169050602081019050919050565b60008160005260206000209050919050565b600081519050919050565b600081519050919050565b600082825260208201905092915050565b600082825260208201905092915050565b600081905092915050565b600082825260208201905092915050565b600061350982613530565b9050919050565b60008115159050919050565b60006003821061352857fe5b819050919050565b600073ffffffffffffffffffffffffffffffffffffffff82169050919050565b6000819050919050565b600061356582613578565b9050919050565b60008115159050919050565b600073ffffffffffffffffffffffffffffffffffffffff82169050919050565b6000819050919050565b60006135ad8261360e565b9050919050565b60006135bf826135c6565b9050919050565b60006135d182613530565b9050919050565b60006135e3826135ea565b9050919050565b60006135f582613530565b9050919050565b60006136078261351c565b9050919050565b600061361982613620565b9050919050565b600061362b82613530565b9050919050565b82818337600083830152505050565b60005b8381101561365f578082015181840152602081019050613644565b8381111561366e576000848401525b50505050565b6000601f19601f830116905091905056fea265627a7a723058201330e01bafbb7cf05967cd27ee72d7db8841a86a0566059167941d95d9fadbef6c6578706572696d656e74616cf500376080604052348015600f57600080fd5b50603580601d6000396000f3fe6080604052600080fdfea165627a7a723058207783f100472e6d5ae91e7ba47e30d3eb17df24d3b0cfb9c2198419c17ee88ba70029",
  "source": "pragma solidity 0.5.7;\npragma experimental ABIEncoderV2;\n\nimport { IERC20 } from \"openzeppelin-solidity/contracts/token/ERC20/IERC20.sol\";\n\nimport { Governance } from \"./Governance.sol\";\n\n/**\n * @title HumanityGovernance\n * @dev Plutocratic voting system that uses Humanity token for voting and proposal fees.\n */\ncontract HumanityGovernance is Governance {\n\n    constructor(IERC20 humanity, uint proposalFee) public\n        Governance(humanity, proposalFee) {}\n\n}",
  "sourcePath": "/Users/jaywelsh/GitHub/society0x/ethereum/contracts/HumanityGovernance.sol",
  "compiler": {
    "name": "solc",
    "version": "0.5.7+commit.6da8b019.Emscripten.clang"
  },
  "schemaVersion": "3.0.9",
  "updatedAt": "2019-06-01T13:06:25.378Z",
  "devdoc": {
    "details": "Plutocratic voting system that uses Humanity token for voting and proposal fees.",
    "methods": {},
    "title": "HumanityGovernance"
  },
  "userdoc": {
    "methods": {}
  }
}