{
  "contractName": "HumanityGovernance",
  "abi": [
    {
      "constant": true,
      "inputs": [
        {
          "name": "",
          "type": "uint256"
        }
      ],
      "name": "proposals",
      "outputs": [
        {
          "name": "result",
          "type": "uint8"
        },
        {
          "name": "target",
          "type": "address"
        },
        {
          "name": "data",
          "type": "bytes"
        },
        {
          "name": "proposer",
          "type": "address"
        },
        {
          "name": "feeRecipient",
          "type": "address"
        },
        {
          "name": "fee",
          "type": "uint256"
        },
        {
          "name": "startTime",
          "type": "uint256"
        },
        {
          "name": "yesCount",
          "type": "uint256"
        },
        {
          "name": "noCount",
          "type": "uint256"
        }
      ],
      "payable": false,
      "stateMutability": "view",
      "type": "function"
    },
    {
      "constant": false,
      "inputs": [
        {
          "name": "proposalId",
          "type": "uint256"
        }
      ],
      "name": "finalize",
      "outputs": [],
      "payable": false,
      "stateMutability": "nonpayable",
      "type": "function"
    },
    {
      "constant": false,
      "inputs": [
        {
          "name": "proposalId",
          "type": "uint256"
        },
        {
          "name": "voteWeightRemoval",
          "type": "uint256"
        }
      ],
      "name": "removeVote",
      "outputs": [
        {
          "name": "",
          "type": "uint256"
        }
      ],
      "payable": false,
      "stateMutability": "nonpayable",
      "type": "function"
    },
    {
      "constant": true,
      "inputs": [
        {
          "name": "",
          "type": "uint256"
        },
        {
          "name": "",
          "type": "address"
        }
      ],
      "name": "yesVotes",
      "outputs": [
        {
          "name": "",
          "type": "uint256"
        }
      ],
      "payable": false,
      "stateMutability": "view",
      "type": "function"
    },
    {
      "constant": false,
      "inputs": [
        {
          "name": "fee",
          "type": "uint256"
        }
      ],
      "name": "setProposalFee",
      "outputs": [
        {
          "name": "",
          "type": "uint256"
        }
      ],
      "payable": false,
      "stateMutability": "nonpayable",
      "type": "function"
    },
    {
      "constant": true,
      "inputs": [
        {
          "name": "proposalId",
          "type": "uint256"
        }
      ],
      "name": "time",
      "outputs": [
        {
          "name": "",
          "type": "uint256"
        }
      ],
      "payable": false,
      "stateMutability": "view",
      "type": "function"
    },
    {
      "constant": false,
      "inputs": [
        {
          "name": "amount",
          "type": "uint256"
        }
      ],
      "name": "withdraw",
      "outputs": [
        {
          "name": "",
          "type": "uint256"
        }
      ],
      "payable": false,
      "stateMutability": "nonpayable",
      "type": "function"
    },
    {
      "constant": true,
      "inputs": [
        {
          "name": "proposalId",
          "type": "uint256"
        },
        {
          "name": "voteWeight",
          "type": "uint256"
        }
      ],
      "name": "citizenRegistry",
      "outputs": [
        {
          "name": "",
          "type": "address"
        }
      ],
      "payable": false,
      "stateMutability": "view",
      "type": "function"
    },
    {
      "constant": false,
      "inputs": [
        {
          "name": "proposalId",
          "type": "uint256"
        },
        {
          "name": "voteWeight",
          "type": "uint256"
        }
      ],
      "name": "voteYes",
      "outputs": [
        {
          "name": "",
          "type": "uint256"
        }
      ],
      "payable": false,
      "stateMutability": "nonpayable",
      "type": "function"
    },
    {
      "constant": true,
      "inputs": [
        {
          "name": "_taxCommunityPool",
          "type": "address"
        }
      ],
      "name": "OPEN_VOTE_PERIOD",
      "outputs": [
        {
          "name": "",
          "type": "uint256"
        }
      ],
      "payable": false,
      "stateMutability": "view",
      "type": "function"
    },
    {
      "constant": true,
      "inputs": [
        {
          "name": "proposalId",
          "type": "uint256"
        },
        {
          "name": "voteWeight",
          "type": "uint256"
        }
      ],
      "name": "signal",
      "outputs": [
        {
          "name": "",
          "type": "address"
        }
      ],
      "payable": false,
      "stateMutability": "view",
      "type": "function"
    },
    {
      "constant": true,
      "inputs": [
        {
          "name": "proposalId",
          "type": "uint256"
        },
        {
          "name": "voteWeight",
          "type": "uint256"
        }
      ],
      "name": "taxCommunityPool",
      "outputs": [
        {
          "name": "",
          "type": "address"
        }
      ],
      "payable": false,
      "stateMutability": "view",
      "type": "function"
    },
    {
      "constant": false,
      "inputs": [
        {
          "name": "proposalId",
          "type": "uint256"
        },
        {
          "name": "voteWeight",
          "type": "uint256"
        }
      ],
      "name": "voteNo",
      "outputs": [
        {
          "name": "",
          "type": "address"
        }
      ],
      "payable": false,
      "stateMutability": "nonpayable",
      "type": "function"
    },
    {
      "constant": true,
      "inputs": [],
      "name": "taxDevelopmentPool",
      "outputs": [
        {
          "name": "",
          "type": "address"
        }
      ],
      "payable": false,
      "stateMutability": "view",
      "type": "function"
    },
    {
      "constant": true,
      "inputs": [
        {
          "name": "",
          "type": "address"
        }
      ],
      "name": "TOTAL_VOTE_PERIOD",
      "outputs": [
        {
          "name": "",
          "type": "uint256"
        }
      ],
      "payable": false,
      "stateMutability": "view",
      "type": "function"
    },
    {
      "constant": true,
      "inputs": [
        {
          "name": "amount",
          "type": "uint256"
        }
      ],
      "name": "getProposalsCount",
      "outputs": [
        {
          "name": "",
          "type": "uint256"
        }
      ],
      "payable": false,
      "stateMutability": "view",
      "type": "function"
    },
    {
      "constant": false,
      "inputs": [
        {
          "name": "target",
          "type": "address"
        },
        {
          "name": "data",
          "type": "bytes"
        }
      ],
      "name": "propose",
      "outputs": [
        {
          "name": "",
          "type": "uint256"
        }
      ],
      "payable": false,
      "stateMutability": "nonpayable",
      "type": "function"
    },
    {
      "constant": true,
      "inputs": [
        {
          "name": "target",
          "type": "address"
        },
        {
          "name": "data",
          "type": "bytes"
        }
      ],
      "name": "void",
      "outputs": [
        {
          "components": [
            {
              "name": "result",
              "type": "uint8"
            },
            {
              "name": "target",
              "type": "address"
            },
            {
              "name": "data",
              "type": "bytes"
            },
            {
              "name": "proposer",
              "type": "address"
            },
            {
              "name": "feeRecipient",
              "type": "address"
            },
            {
              "name": "fee",
              "type": "uint256"
            },
            {
              "name": "startTime",
              "type": "uint256"
            },
            {
              "name": "yesCount",
              "type": "uint256"
            },
            {
              "name": "noCount",
              "type": "uint256"
            }
          ],
          "name": "",
          "type": "address"
        }
      ],
      "payable": false,
      "stateMutability": "view",
      "type": "function"
    },
    {
      "constant": true,
      "inputs": [
        {
          "name": "",
          "type": "address"
        },
        {
          "name": "",
          "type": "address"
        }
      ],
      "name": "withdrawTimes",
      "outputs": [
        {
          "name": "",
          "type": "uint256"
        }
      ],
      "payable": false,
      "stateMutability": "view",
      "type": "function"
    },
    {
      "constant": false,
      "inputs": [
        {
          "name": "amount",
          "type": "uint256"
        },
        {
          "name": "target",
          "type": "address"
        },
        {
          "name": "data",
          "type": "bytes"
        }
      ],
      "name": "deposit",
      "outputs": [
        {
          "name": "",
          "type": "uint256"
        }
      ],
      "payable": false,
      "stateMutability": "nonpayable",
      "type": "function"
    },
    {
      "constant": true,
      "inputs": [
        {
          "name": "amount",
          "type": "uint256"
        }
      ],
      "name": "taxRatePercent",
      "outputs": [
        {
          "name": "",
          "type": "uint8"
        }
      ],
      "payable": false,
      "stateMutability": "view",
      "type": "function"
    },
    {
      "constant": true,
      "inputs": [],
      "name": "proposalFee",
      "outputs": [
        {
          "name": "",
          "type": "uint256"
        }
      ],
      "payable": false,
      "stateMutability": "view",
      "type": "function"
    },
    {
      "constant": true,
      "inputs": [
        {
          "name": "proposalId",
          "type": "uint256"
        }
      ],
      "name": "getProposal",
      "outputs": [
        {
          "name": "",
          "type": "tuple",
          "components": [
            {
              "name": "result",
              "type": "uint8"
            },
            {
              "name": "target",
              "type": "address"
            },
            {
              "name": "data",
              "type": "bytes"
            },
            {
              "name": "proposer",
              "type": "address"
            },
            {
              "name": "feeRecipient",
              "type": "address"
            },
            {
              "name": "fee",
              "type": "uint256"
            },
            {
              "name": "startTime",
              "type": "uint256"
            },
            {
              "name": "yesCount",
              "type": "uint256"
            },
            {
              "name": "noCount",
              "type": "uint256"
            }
          ]
        }
      ],
      "payable": false,
      "stateMutability": "view",
      "type": "function"
    },
    {
      "inputs": [
        {
          "name": "",
          "type": "uint256"
        },
        {
          "name": "",
          "type": "address"
        }
      ],
      "payable": false,
      "stateMutability": "view",
      "type": "function",
      "constant": true,
      "name": "noVotes",
      "outputs": [
        {
          "components": [
            {
              "name": "result",
              "type": "uint8"
            },
            {
              "name": "target",
              "type": "address"
            },
            {
              "name": "data",
              "type": "bytes"
            },
            {
              "name": "proposer",
              "type": "address"
            },
            {
              "name": "feeRecipient",
              "type": "address"
            },
            {
              "name": "fee",
              "type": "uint256"
            },
            {
              "name": "startTime",
              "type": "uint256"
            },
            {
              "name": "yesCount",
              "type": "uint256"
            },
            {
              "name": "noCount",
              "type": "uint256"
            }
          ],
          "name": "",
          "type": "uint256"
        }
      ]
    },
    {
      "anonymous": false,
      "inputs": [
        {
          "indexed": true,
          "name": "feeRecipient",
          "type": "address"
        },
        {
          "name": "target",
          "type": "address"
        },
        {
          "name": "data",
          "type": "bytes"
        }
      ],
      "name": "proposeWithFeeRecipient",
      "type": "function",
      "constant": false,
      "outputs": [
        {
          "components": [
            {
              "name": "result",
              "type": "uint8"
            },
            {
              "name": "target",
              "type": "address"
            },
            {
              "name": "data",
              "type": "bytes"
            },
            {
              "name": "proposer",
              "type": "address"
            },
            {
              "name": "feeRecipient",
              "type": "address"
            },
            {
              "name": "fee",
              "type": "uint256"
            },
            {
              "name": "startTime",
              "type": "uint256"
            },
            {
              "name": "yesCount",
              "type": "uint256"
            },
            {
              "name": "noCount",
              "type": "uint256"
            }
          ],
          "name": "",
          "type": "uint256"
        }
      ],
      "payable": false,
      "stateMutability": "nonpayable"
    },
    {
      "anonymous": false,
      "inputs": [
        {
          "indexed": true,
          "name": "feeRecipient",
          "type": "address"
        },
        {
          "indexed": true,
          "name": "target",
          "type": "address"
        },
        {
          "indexed": true,
          "name": "data",
          "type": "bytes"
        },
        {
          "indexed": false,
          "name": "data",
          "type": "bytes"
        }
      ],
      "name": "VETO_PERIOD",
      "type": "function",
      "constant": true,
      "outputs": [
        {
          "name": "",
          "type": "uint256"
        }
      ],
      "payable": false,
      "stateMutability": "view"
    },
    {
      "anonymous": false,
      "inputs": [
        {
          "indexed": true,
          "name": "feeRecipient",
          "type": "address"
        },
        {
          "indexed": true,
          "name": "target",
          "type": "address"
        },
        {
          "name": "data",
          "type": "bytes"
        }
      ],
      "name": "token",
      "type": "function",
      "constant": true,
      "outputs": [
        {
          "name": "",
          "type": "address"
        }
      ],
      "payable": false,
      "stateMutability": "view"
    },
    {
      "anonymous": false,
      "inputs": [
        {
          "indexed": true,
          "name": "",
          "type": "address"
        }
      ],
      "name": "deposits",
      "type": "function",
      "constant": true,
      "outputs": [
        {
          "name": "",
          "type": "uint256"
        }
      ],
      "payable": false,
      "stateMutability": "view"
    },
    {
      "anonymous": false,
      "inputs": [
        {
          "indexed": true,
          "name": "humanity",
          "type": "address"
        },
        {
          "indexed": true,
          "name": "proposalFee",
          "type": "uint256"
        },
        {
          "indexed": false,
          "name": "taxRatePercent",
          "type": "uint8"
        },
        {
          "indexed": false,
          "name": "taxDevPoolAddress",
          "type": "address"
        },
        {
          "name": "taxCommunityPoolAddress",
          "type": "address"
        },
        {
          "name": "_registry",
          "type": "address"
        }
      ],
      "name": "deposits",
      "type": "constructor",
      "constant": true,
      "outputs": [
        {
          "name": "",
          "type": "uint256"
        }
      ],
      "payable": false,
      "stateMutability": "nonpayable"
    },
    {
      "constant": true,
      "inputs": [
        {
          "name": "proposalId",
          "type": "uint256",
          "indexed": true
        },
        {
          "name": "proposalFee",
          "type": "uint256"
        },
        {
          "name": "taxRatePercent",
          "type": "uint8"
        },
        {
          "name": "taxDevPoolAddress",
          "type": "address"
        },
        {
          "name": "taxCommunityPoolAddress",
          "type": "address"
        },
        {
          "name": "_registry",
          "type": "address"
        }
      ],
      "name": "Execute",
      "outputs": [
        {
          "name": "",
          "type": "address"
        }
      ],
      "payable": false,
      "stateMutability": "nonpayable",
      "type": "event",
      "anonymous": false
    },
    {
      "constant": true,
      "inputs": [
        {
          "name": "proposalId",
          "type": "uint256",
          "indexed": true
        },
        {
          "indexed": true,
          "name": "proposer",
          "type": "address"
        },
        {
          "indexed": true,
          "name": "target",
          "type": "address"
        },
        {
          "indexed": false,
          "name": "data",
          "type": "bytes"
        }
      ],
      "name": "Propose",
      "outputs": [
        {
          "name": "",
          "type": "uint256"
        }
      ],
      "payable": false,
      "stateMutability": "view",
      "type": "event",
      "anonymous": false
    },
    {
      "inputs": [
        {
          "name": "proposalId",
          "type": "uint256",
          "indexed": true
        },
        {
          "name": "voter",
          "type": "address",
          "indexed": true
        },
        {
          "name": "target",
          "type": "address",
          "indexed": true
        },
        {
          "name": "data",
          "type": "bytes",
          "indexed": false
        },
        {
          "name": "taxCommunityPoolAddress",
          "type": "address"
        },
        {
          "name": "_registry",
          "type": "address"
        }
      ],
      "payable": false,
      "stateMutability": "nonpayable",
      "type": "event",
      "anonymous": false,
      "name": "RemoveVote"
    },
    {
      "anonymous": false,
      "inputs": [
        {
          "indexed": true,
          "name": "proposalId",
          "type": "uint256"
        },
        {
          "indexed": true,
          "name": "voter",
          "type": "address"
        }
      ],
      "name": "Terminate",
      "type": "event"
    },
    {
      "anonymous": false,
      "inputs": [
        {
          "indexed": true,
          "name": "proposalId",
          "type": "uint256"
        },
        {
          "indexed": true,
          "name": "voter",
          "type": "address"
        },
        {
          "indexed": false,
          "name": "approve",
          "type": "bool"
        },
        {
          "indexed": false,
          "name": "weight",
          "type": "uint256"
        },
        {
          "indexed": false,
          "name": "totalWeight",
          "type": "uint256"
        }
      ],
      "name": "Vote",
      "type": "event"
    },
    {
      "anonymous": false,
      "inputs": [
        {
          "indexed": true,
          "name": "proposalId",
          "type": "uint256"
        },
        {
          "indexed": true,
          "name": "voter",
          "type": "address"
        },
        {
          "indexed": false,
          "name": "approve",
          "type": "bool"
        },
        {
          "indexed": false,
          "name": "weight",
          "type": "uint256"
        }
      ],
      "name": "Vote",
      "type": "event"
    },
    {
      "anonymous": false,
      "inputs": [
        {
          "indexed": true,
          "name": "proposalId",
          "type": "uint256"
        }
      ],
      "name": "Terminate",
      "type": "event"
    },
    {
      "anonymous": false,
      "inputs": [
        {
          "indexed": true,
          "name": "proposalId",
          "type": "uint256"
        },
        {
          "indexed": true,
          "name": "voter",
          "type": "address"
        },
        {
          "indexed": false,
          "name": "approve",
          "type": "bool"
        },
        {
          "indexed": false,
          "name": "weight",
          "type": "uint256"
        }
      ],
      "name": "Vote",
      "type": "event"
    }
  ],
  "bytecode": "0x60806040523480156200001157600080fd5b5060405160c08062004ae3833981018060405262000033919081019062000257565b85858585858585600560006101000a81548173ffffffffffffffffffffffffffffffffffffffff021916908373ffffffffffffffffffffffffffffffffffffffff1602179055508460008190555083600160006101000a81548160ff021916908360ff16021790555082600260006101000a81548173ffffffffffffffffffffffffffffffffffffffff021916908373ffffffffffffffffffffffffffffffffffffffff160217905550816001806101000a81548173ffffffffffffffffffffffffffffffffffffffff021916908373ffffffffffffffffffffffffffffffffffffffff16021790555080600360006101000a81548173ffffffffffffffffffffffffffffffffffffffff021916908373ffffffffffffffffffffffffffffffffffffffff1602179055506040516200016c90620001dc565b604051809103906000f08015801562000189573d6000803e3d6000fd5b50600660006101000a81548173ffffffffffffffffffffffffffffffffffffffff021916908373ffffffffffffffffffffffffffffffffffffffff16021790555050505050505050505050505062000360565b60528062004a9183390190565b6000620001f78251620002ed565b905092915050565b60006200020d825162000301565b905092915050565b600062000223825162000315565b905092915050565b600062000239825162000349565b905092915050565b60006200024f825162000353565b905092915050565b60008060008060008060c087890312156200027157600080fd5b60006200028189828a0162000215565b96505060206200029489828a016200022b565b9550506040620002a789828a0162000241565b9450506060620002ba89828a01620001e9565b9350506080620002cd89828a01620001e9565b92505060a0620002e089828a01620001ff565b9150509295509295509295565b6000620002fa8262000329565b9050919050565b60006200030e82620002ed565b9050919050565b60006200032282620002ed565b9050919050565b600073ffffffffffffffffffffffffffffffffffffffff82169050919050565b6000819050919050565b600060ff82169050919050565b61472180620003706000396000f3fe608060405234801561001057600080fd5b50600436106101e1576000357c0100000000000000000000000000000000000000000000000000000000900480637c64a45c11610116578063c27cabb5116100b4578063e3c3b2001161008e578063e3c3b2001461051c578063e861dc851461054c578063fc0c546a1461056a578063fc7e286d14610588576101e1565b8063c27cabb51461049e578063c7f758a8146104bc578063da5c5b55146104ec576101e1565b8063ac4c25b2116100f0578063ac4c25b214610416578063ad22132114610434578063b6b55f2514610464578063b7220fc014610480576101e1565b80637c64a45c146103aa57806398e527d3146103c85780639d481848146103e6576101e1565b8063386ca89d11610183578063640d090b1161015d578063640d090b146103345780636c3d00ff146103525780636d6be0e0146103705780637811c8191461038c576101e1565b8063386ca89d146102dc5780633ab86904146102fa5780635d9dacb514610316576101e1565b80630bc43490116101bf5780630bc434901461025657806310bf50681461028657806316ada547146102a25780632e1a7d4d146102c0576101e1565b8063013cf08b146101e657806305261aea1461021e5780630a1040a71461023a575b600080fd5b61020060048036036101fb919081019061301d565b6105b8565b60405161021599989796959493929190614040565b60405180910390f35b6102386004803603610233919081019061301d565b610718565b005b610254600480360361024f9190810190613082565b610d1f565b005b610270600480360361026b9190810190613046565b610fdc565b60405161027d9190614416565b60405180910390f35b6102a0600480360361029b919081019061301d565b611001565b005b6102aa611079565b6040516102b79190614416565b60405180910390f35b6102da60048036036102d5919081019061301d565b611081565b005b6102e46112ab565b6040516102f19190613fd4565b60405180910390f35b610314600480360361030f9190810190613082565b6112d1565b005b61031e61182f565b60405161032b9190614416565b60405180910390f35b61033c611836565b604051610349919061400a565b60405180910390f35b61035a61185c565b6040516103679190613ebc565b60405180910390f35b61038a60048036036103859190810190613082565b611882565b005b610394611ff5565b6040516103a19190613ebc565b60405180910390f35b6103b261201a565b6040516103bf9190614416565b60405180910390f35b6103d0612023565b6040516103dd9190614416565b60405180910390f35b61040060048036036103fb9190810190612fa0565b612030565b60405161040d9190614416565b60405180910390f35b61041e61214b565b60405161042b9190614025565b60405180910390f35b61044e60048036036104499190810190612f10565b612171565b60405161045b9190614416565b60405180910390f35b61047e6004803603610479919081019061301d565b612189565b005b610488612433565b6040516104959190614431565b60405180910390f35b6104a6612446565b6040516104b39190614416565b60405180910390f35b6104d660048036036104d1919081019061301d565b61244c565b6040516104e391906143f4565b60405180910390f35b61050660048036036105019190810190613046565b61267b565b6040516105139190614416565b60405180910390f35b61053660048036036105319190810190612f39565b6126a0565b6040516105439190614416565b60405180910390f35b610554612c52565b6040516105619190614416565b60405180910390f35b610572612c59565b60405161057f9190613fef565b60405180910390f35b6105a2600480360361059d9190810190612f10565b612c7f565b6040516105af9190614416565b60405180910390f35b600781815481106105c557fe5b90600052602060002090600802016000915090508060000160009054906101000a900460ff16908060000160019054906101000a900473ffffffffffffffffffffffffffffffffffffffff1690806001018054600181600116156101000203166002900480601f0160208091040260200160405190810160405280929190818152602001828054600181600116156101000203166002900480156106aa5780601f1061067f576101008083540402835291602001916106aa565b820191906000526020600020905b81548152906001019060200180831161068d57829003601f168201915b5050505050908060020160009054906101000a900473ffffffffffffffffffffffffffffffffffffffff16908060030160009054906101000a900473ffffffffffffffffffffffffffffffffffffffff16908060040154908060050154908060060154908060070154905089565b600360009054906101000a900473ffffffffffffffffffffffffffffffffffffffff1673ffffffffffffffffffffffffffffffffffffffff1663f3caad03336040518263ffffffff167c010000000000000000000000000000000000000000000000000000000002815260040161078f9190613ed7565b60206040518083038186803b1580156107a757600080fd5b505afa1580156107bb573d6000803e3d6000fd5b505050506040513d601f19601f820116820180604052506107df9190810190612ff4565b61081e576040517f08c379a0000000000000000000000000000000000000000000000000000000008152600401610815906143b4565b60405180910390fd5b60006007828154811061082d57fe5b906000526020600020906008020190506000600281111561084a57fe5b8160000160009054906101000a900460ff16600281111561086757fe5b146108a7576040517f08c379a000000000000000000000000000000000000000000000000000000000815260040161089e906142f4565b60405180910390fd5b60006108b1611079565b9050816007015482600601541115610b3b576108df6202a30080018360050154612c9790919063ffffffff16565b8111610920576040517f08c379a000000000000000000000000000000000000000000000000000000000815260040161091790614214565b60405180910390fd5b60018260000160006101000a81548160ff0219169083600281111561094157fe5b0217905550600560009054906101000a900473ffffffffffffffffffffffffffffffffffffffff1673ffffffffffffffffffffffffffffffffffffffff1663a9059cbb8360030160009054906101000a900473ffffffffffffffffffffffffffffffffffffffff1684600401546040518363ffffffff167c01000000000000000000000000000000000000000000000000000000000281526004016109e7929190613f52565b602060405180830381600087803b158015610a0157600080fd5b505af1158015610a15573d6000803e3d6000fd5b505050506040513d601f19601f82011682018060405250610a399190810190612ff4565b610a78576040517f08c379a0000000000000000000000000000000000000000000000000000000008152600401610a6f906140f4565b60405180910390fd5b8160000160019054906101000a900473ffffffffffffffffffffffffffffffffffffffff1673ffffffffffffffffffffffffffffffffffffffff1682600101604051610ac49190613ea5565b6000604051808303816000865af19150503d8060008114610b01576040519150601f19603f3d011682016040523d82523d6000602084013e610b06565b606091505b505050827fddb556f1d2c1ec821e910b019d3685b229db152a0ecd517ca7e24b8bd713928960405160405180910390a2610d1a565b610b556202a3008360050154612c9790919063ffffffff16565b8111610b96576040517f08c379a0000000000000000000000000000000000000000000000000000000008152600401610b8d906142b4565b60405180910390fd5b60028260000160006101000a81548160ff02191690836002811115610bb757fe5b0217905550600560009054906101000a900473ffffffffffffffffffffffffffffffffffffffff1673ffffffffffffffffffffffffffffffffffffffff1663a9059cbb600660009054906101000a900473ffffffffffffffffffffffffffffffffffffffff1684600401546040518363ffffffff167c0100000000000000000000000000000000000000000000000000000000028152600401610c5b929190613f52565b602060405180830381600087803b158015610c7557600080fd5b505af1158015610c89573d6000803e3d6000fd5b505050506040513d601f19601f82011682018060405250610cad9190810190612ff4565b610cec576040517f08c379a0000000000000000000000000000000000000000000000000000000008152600401610ce390614354565b60405180910390fd5b827fd681175168470800567b22d50d831df189686adc5b155827823a5ada6a97a4fe60405160405180910390a25b505050565b600060078381548110610d2e57fe5b9060005260206000209060080201905060006002811115610d4b57fe5b8160000160009054906101000a900460ff166002811115610d6857fe5b14610da8576040517f08c379a0000000000000000000000000000000000000000000000000000000008152600401610d9f90614114565b60405180910390fd5b610dc46202a30080018260050154612c9790919063ffffffff16565b610dcc611079565b1115610e0d576040517f08c379a0000000000000000000000000000000000000000000000000000000008152600401610e0490614194565b60405180910390fd5b610e746008600085815260200190815260200160002060003373ffffffffffffffffffffffffffffffffffffffff1673ffffffffffffffffffffffffffffffffffffffff168152602001908152602001600020548260060154612cec90919063ffffffff16565b8160060181905550610ee36009600085815260200190815260200160002060003373ffffffffffffffffffffffffffffffffffffffff1673ffffffffffffffffffffffffffffffffffffffff168152602001908152602001600020548260070154612cec90919063ffffffff16565b81600701819055506008600084815260200190815260200160002060003373ffffffffffffffffffffffffffffffffffffffff1673ffffffffffffffffffffffffffffffffffffffff168152602001908152602001600020600090556009600084815260200190815260200160002060003373ffffffffffffffffffffffffffffffffffffffff1673ffffffffffffffffffffffffffffffffffffffff168152602001908152602001600020600090553373ffffffffffffffffffffffffffffffffffffffff16837f3676c1fca38c63566d0cbf07d561c0db78a4cc1f64d3d929ef452bfef41a3d0660405160405180910390a3505050565b6008602052816000526040600020602052806000526040600020600091509150505481565b3073ffffffffffffffffffffffffffffffffffffffff163373ffffffffffffffffffffffffffffffffffffffff161461106f576040517f08c379a000000000000000000000000000000000000000000000000000000000815260040161106690614154565b60405180910390fd5b8060008190555050565b600042905090565b600b60003373ffffffffffffffffffffffffffffffffffffffff1673ffffffffffffffffffffffffffffffffffffffff168152602001908152602001600020546110c9611079565b11611109576040517f08c379a0000000000000000000000000000000000000000000000000000000008152600401611100906140d4565b60405180910390fd5b61115b81600a60003373ffffffffffffffffffffffffffffffffffffffff1673ffffffffffffffffffffffffffffffffffffffff16815260200190815260200160002054612cec90919063ffffffff16565b600a60003373ffffffffffffffffffffffffffffffffffffffff1673ffffffffffffffffffffffffffffffffffffffff16815260200190815260200160002081905550600560009054906101000a900473ffffffffffffffffffffffffffffffffffffffff1673ffffffffffffffffffffffffffffffffffffffff1663a9059cbb33836040518363ffffffff167c0100000000000000000000000000000000000000000000000000000000028152600401611217929190613f29565b602060405180830381600087803b15801561123157600080fd5b505af1158015611245573d6000803e3d6000fd5b505050506040513d601f19601f820116820180604052506112699190810190612ff4565b6112a8576040517f08c379a000000000000000000000000000000000000000000000000000000000815260040161129f906141b4565b60405180910390fd5b50565b600360009054906101000a900473ffffffffffffffffffffffffffffffffffffffff1681565b600360009054906101000a900473ffffffffffffffffffffffffffffffffffffffff1673ffffffffffffffffffffffffffffffffffffffff1663f3caad03336040518263ffffffff167c01000000000000000000000000000000000000000000000000000000000281526004016113489190613ed7565b60206040518083038186803b15801561136057600080fd5b505afa158015611374573d6000803e3d6000fd5b505050506040513d601f19601f820116820180604052506113989190810190612ff4565b6113d7576040517f08c379a00000000000000000000000000000000000000000000000000000000081526004016113ce90614394565b60405180910390fd5b6000600783815481106113e657fe5b906000526020600020906008020190506114106202a3008260050154612c9790919063ffffffff16565b611418611079565b1115611459576040517f08c379a000000000000000000000000000000000000000000000000000000000815260040161145090614294565b60405180910390fd5b600a60003373ffffffffffffffffffffffffffffffffffffffff1673ffffffffffffffffffffffffffffffffffffffff168152602001908152602001600020548211156114db576040517f08c379a00000000000000000000000000000000000000000000000000000000081526004016114d290614274565b60405180910390fd5b60006009600085815260200190815260200160002060003373ffffffffffffffffffffffffffffffffffffffff1673ffffffffffffffffffffffffffffffffffffffff168152602001908152602001600020541461156e576040517f08c379a000000000000000000000000000000000000000000000000000000000815260040161156590614234565b60405180910390fd5b600061158c6202a30080018360050154612c9790919063ffffffff16565b9050600b60003373ffffffffffffffffffffffffffffffffffffffff1673ffffffffffffffffffffffffffffffffffffffff1681526020019081526020016000205481111561161a5780600b60003373ffffffffffffffffffffffffffffffffffffffff1673ffffffffffffffffffffffffffffffffffffffff168152602001908152602001600020819055505b611631838360060154612c9790919063ffffffff16565b826006018190555061169c836008600087815260200190815260200160002060003373ffffffffffffffffffffffffffffffffffffffff1673ffffffffffffffffffffffffffffffffffffffff16815260200190815260200160002054612c9790919063ffffffff16565b6008600086815260200190815260200160002060003373ffffffffffffffffffffffffffffffffffffffff1673ffffffffffffffffffffffffffffffffffffffff1681526020019081526020016000208190555061174283600a60003373ffffffffffffffffffffffffffffffffffffffff1673ffffffffffffffffffffffffffffffffffffffff16815260200190815260200160002054612cec90919063ffffffff16565b600a60003373ffffffffffffffffffffffffffffffffffffffff1673ffffffffffffffffffffffffffffffffffffffff168152602001908152602001600020819055503373ffffffffffffffffffffffffffffffffffffffff16847f32bcc29325d8e1e9ceb860407a52e04e3403889778329c71fa7c13cc4fef3dc1600186600860008a815260200190815260200160002060003373ffffffffffffffffffffffffffffffffffffffff1673ffffffffffffffffffffffffffffffffffffffff1681526020019081526020016000205460405161182193929190613f7b565b60405180910390a350505050565b6202a30081565b600460009054906101000a900473ffffffffffffffffffffffffffffffffffffffff1681565b600260009054906101000a900473ffffffffffffffffffffffffffffffffffffffff1681565b600360009054906101000a900473ffffffffffffffffffffffffffffffffffffffff1673ffffffffffffffffffffffffffffffffffffffff1663f3caad03336040518263ffffffff167c01000000000000000000000000000000000000000000000000000000000281526004016118f99190613ed7565b60206040518083038186803b15801561191157600080fd5b505afa158015611925573d6000803e3d6000fd5b505050506040513d601f19601f820116820180604052506119499190810190612ff4565b611988576040517f08c379a000000000000000000000000000000000000000000000000000000000815260040161197f90614394565b60405180910390fd5b60006007838154811061199757fe5b90600052602060002090600802019050600a60003373ffffffffffffffffffffffffffffffffffffffff1673ffffffffffffffffffffffffffffffffffffffff16815260200190815260200160002054821115611a29576040517f08c379a0000000000000000000000000000000000000000000000000000000008152600401611a2090614274565b60405180910390fd5b60006002811115611a3657fe5b8160000160009054906101000a900460ff166002811115611a5357fe5b14611a93576040517f08c379a0000000000000000000000000000000000000000000000000000000008152600401611a8a90614334565b60405180910390fd5b60006008600085815260200190815260200160002060003373ffffffffffffffffffffffffffffffffffffffff1673ffffffffffffffffffffffffffffffffffffffff1681526020019081526020016000205414611b26576040517f08c379a0000000000000000000000000000000000000000000000000000000008152600401611b1d90614234565b60405180910390fd5b6000611b446202a30080018360050154612c9790919063ffffffff16565b90506000611b50611079565b905081811115611b95576040517f08c379a0000000000000000000000000000000000000000000000000000000008152600401611b8c90614294565b60405180910390fd5b611bac848460070154612c9790919063ffffffff16565b8360070181905550611c17846009600088815260200190815260200160002060003373ffffffffffffffffffffffffffffffffffffffff1673ffffffffffffffffffffffffffffffffffffffff16815260200190815260200160002054612c9790919063ffffffff16565b6009600087815260200190815260200160002060003373ffffffffffffffffffffffffffffffffffffffff1673ffffffffffffffffffffffffffffffffffffffff16815260200190815260200160002081905550611cbd84600a60003373ffffffffffffffffffffffffffffffffffffffff1673ffffffffffffffffffffffffffffffffffffffff16815260200190815260200160002054612cec90919063ffffffff16565b600a60003373ffffffffffffffffffffffffffffffffffffffff1673ffffffffffffffffffffffffffffffffffffffff168152602001908152602001600020819055503373ffffffffffffffffffffffffffffffffffffffff16857f32bcc29325d8e1e9ceb860407a52e04e3403889778329c71fa7c13cc4fef3dc1600087600960008b815260200190815260200160002060003373ffffffffffffffffffffffffffffffffffffffff1673ffffffffffffffffffffffffffffffffffffffff16815260200190815260200160002054604051611d9c93929190613f7b565b60405180910390a3611dbe6202a3008460050154612c9790919063ffffffff16565b81118015611dd457508260060154836007015410155b15611f615760028360000160006101000a81548160ff02191690836002811115611dfa57fe5b0217905550600560009054906101000a900473ffffffffffffffffffffffffffffffffffffffff1673ffffffffffffffffffffffffffffffffffffffff1663a9059cbb600660009054906101000a900473ffffffffffffffffffffffffffffffffffffffff1685600401546040518363ffffffff167c0100000000000000000000000000000000000000000000000000000000028152600401611e9e929190613f52565b602060405180830381600087803b158015611eb857600080fd5b505af1158015611ecc573d6000803e3d6000fd5b505050506040513d601f19601f82011682018060405250611ef09190810190612ff4565b611f2f576040517f08c379a0000000000000000000000000000000000000000000000000000000008152600401611f26906142d4565b60405180910390fd5b847fd681175168470800567b22d50d831df189686adc5b155827823a5ada6a97a4fe60405160405180910390a2611fee565b600b60003373ffffffffffffffffffffffffffffffffffffffff1673ffffffffffffffffffffffffffffffffffffffff16815260200190815260200160002054821115611fed5781600b60003373ffffffffffffffffffffffffffffffffffffffff1673ffffffffffffffffffffffffffffffffffffffff168152602001908152602001600020819055505b5b5050505050565b6001809054906101000a900473ffffffffffffffffffffffffffffffffffffffff1681565b6202a300800181565b6000600780549050905090565b6000600360009054906101000a900473ffffffffffffffffffffffffffffffffffffffff1673ffffffffffffffffffffffffffffffffffffffff1663f3caad03336040518263ffffffff167c01000000000000000000000000000000000000000000000000000000000281526004016120a99190613ed7565b60206040518083038186803b1580156120c157600080fd5b505afa1580156120d5573d6000803e3d6000fd5b505050506040513d601f19601f820116820180604052506120f99190810190612ff4565b612138576040517f08c379a000000000000000000000000000000000000000000000000000000000815260040161212f90614374565b60405180910390fd5b6121433384846126a0565b905092915050565b600660009054906101000a900473ffffffffffffffffffffffffffffffffffffffff1681565b600b6020528060005260406000206000915090505481565b600360009054906101000a900473ffffffffffffffffffffffffffffffffffffffff1673ffffffffffffffffffffffffffffffffffffffff1663f3caad03336040518263ffffffff167c01000000000000000000000000000000000000000000000000000000000281526004016122009190613ed7565b60206040518083038186803b15801561221857600080fd5b505afa15801561222c573d6000803e3d6000fd5b505050506040513d601f19601f820116820180604052506122509190810190612ff4565b61228f576040517f08c379a000000000000000000000000000000000000000000000000000000000815260040161228690614174565b60405180910390fd5b600560009054906101000a900473ffffffffffffffffffffffffffffffffffffffff1673ffffffffffffffffffffffffffffffffffffffff166323b872dd3330846040518463ffffffff167c010000000000000000000000000000000000000000000000000000000002815260040161230a93929190613ef2565b602060405180830381600087803b15801561232457600080fd5b505af1158015612338573d6000803e3d6000fd5b505050506040513d601f19601f8201168201806040525061235c9190810190612ff4565b61239b576040517f08c379a0000000000000000000000000000000000000000000000000000000008152600401612392906141f4565b60405180910390fd5b6123ed81600a60003373ffffffffffffffffffffffffffffffffffffffff1673ffffffffffffffffffffffffffffffffffffffff16815260200190815260200160002054612c9790919063ffffffff16565b600a60003373ffffffffffffffffffffffffffffffffffffffff1673ffffffffffffffffffffffffffffffffffffffff1681526020019081526020016000208190555050565b600160009054906101000a900460ff1681565b60005481565b612454612d42565b6007828154811061246157fe5b9060005260206000209060080201604051806101200160405290816000820160009054906101000a900460ff16600281111561249957fe5b60028111156124a457fe5b81526020016000820160019054906101000a900473ffffffffffffffffffffffffffffffffffffffff1673ffffffffffffffffffffffffffffffffffffffff1673ffffffffffffffffffffffffffffffffffffffff168152602001600182018054600181600116156101000203166002900480601f0160208091040260200160405190810160405280929190818152602001828054600181600116156101000203166002900480156125975780601f1061256c57610100808354040283529160200191612597565b820191906000526020600020905b81548152906001019060200180831161257a57829003601f168201915b505050505081526020016002820160009054906101000a900473ffffffffffffffffffffffffffffffffffffffff1673ffffffffffffffffffffffffffffffffffffffff1673ffffffffffffffffffffffffffffffffffffffff1681526020016003820160009054906101000a900473ffffffffffffffffffffffffffffffffffffffff1673ffffffffffffffffffffffffffffffffffffffff1673ffffffffffffffffffffffffffffffffffffffff1681526020016004820154815260200160058201548152602001600682015481526020016007820154815250509050919050565b6009602052816000526040600020602052806000526040600020600091509150505481565b6000600360009054906101000a900473ffffffffffffffffffffffffffffffffffffffff1673ffffffffffffffffffffffffffffffffffffffff1663f3caad03336040518263ffffffff167c01000000000000000000000000000000000000000000000000000000000281526004016127199190613ed7565b60206040518083038186803b15801561273157600080fd5b505afa158015612745573d6000803e3d6000fd5b505050506040513d601f19601f820116820180604052506127699190810190612ff4565b6127a8576040517f08c379a000000000000000000000000000000000000000000000000000000000815260040161279f90614254565b60405180910390fd5b3073ffffffffffffffffffffffffffffffffffffffff163373ffffffffffffffffffffffffffffffffffffffff16141580156128325750600560009054906101000a900473ffffffffffffffffffffffffffffffffffffffff1673ffffffffffffffffffffffffffffffffffffffff168373ffffffffffffffffffffffffffffffffffffffff1614155b612871576040517f08c379a0000000000000000000000000000000000000000000000000000000008152600401612868906143d4565b60405180910390fd5b600560009054906101000a900473ffffffffffffffffffffffffffffffffffffffff1673ffffffffffffffffffffffffffffffffffffffff166323b872dd33306000546040518463ffffffff167c01000000000000000000000000000000000000000000000000000000000281526004016128ee93929190613ef2565b602060405180830381600087803b15801561290857600080fd5b505af115801561291c573d6000803e3d6000fd5b505050506040513d601f19601f820116820180604052506129409190810190612ff4565b61297f576040517f08c379a0000000000000000000000000000000000000000000000000000000008152600401612976906141d4565b60405180910390fd5b60006007805490509050612991612d42565b84816020019073ffffffffffffffffffffffffffffffffffffffff16908173ffffffffffffffffffffffffffffffffffffffff168152505083816040018190525033816060019073ffffffffffffffffffffffffffffffffffffffff16908173ffffffffffffffffffffffffffffffffffffffff168152505085816080019073ffffffffffffffffffffffffffffffffffffffff16908173ffffffffffffffffffffffffffffffffffffffff16815250506000548160a0018181525050612a56611079565b8160c00181815250506000548160e00181815250506007819080600181540180825580915050906001820390600052602060002090600802016000909192909190915060008201518160000160006101000a81548160ff02191690836002811115612abd57fe5b021790555060208201518160000160016101000a81548173ffffffffffffffffffffffffffffffffffffffff021916908373ffffffffffffffffffffffffffffffffffffffff1602179055506040820151816001019080519060200190612b25929190612ddb565b5060608201518160020160006101000a81548173ffffffffffffffffffffffffffffffffffffffff021916908373ffffffffffffffffffffffffffffffffffffffff16021790555060808201518160030160006101000a81548173ffffffffffffffffffffffffffffffffffffffff021916908373ffffffffffffffffffffffffffffffffffffffff16021790555060a0820151816004015560c0820151816005015560e0820151816006015561010082015181600701555050508473ffffffffffffffffffffffffffffffffffffffff163373ffffffffffffffffffffffffffffffffffffffff16837f2f162bd58e5254c884a7cbc5409e7e1d4f69b18801f19b8502365fc82b0c199687604051612c3e9190613fb2565b60405180910390a481925050509392505050565b6202a30081565b600560009054906101000a900473ffffffffffffffffffffffffffffffffffffffff1681565b600a6020528060005260406000206000915090505481565b600080828401905083811015612ce2576040517f08c379a0000000000000000000000000000000000000000000000000000000008152600401612cd990614314565b60405180910390fd5b8091505092915050565b600082821115612d31576040517f08c379a0000000000000000000000000000000000000000000000000000000008152600401612d2890614134565b60405180910390fd5b600082840390508091505092915050565b60405180610120016040528060006002811115612d5b57fe5b8152602001600073ffffffffffffffffffffffffffffffffffffffff16815260200160608152602001600073ffffffffffffffffffffffffffffffffffffffff168152602001600073ffffffffffffffffffffffffffffffffffffffff168152602001600081526020016000815260200160008152602001600081525090565b828054600181600116156101000203166002900490600052602060002090601f016020900481019282601f10612e1c57805160ff1916838001178555612e4a565b82800160010185558215612e4a579182015b82811115612e49578251825591602001919060010190612e2e565b5b509050612e579190612e5b565b5090565b612e7d91905b80821115612e79576000816000905550600101612e61565b5090565b90565b6000612e8c8235614574565b905092915050565b6000612ea08251614586565b905092915050565b600082601f830112612eb957600080fd5b8135612ecc612ec782614479565b61444c565b91508082526020830160208301858383011115612ee857600080fd5b612ef3838284614694565b50505092915050565b6000612f0882356145b2565b905092915050565b600060208284031215612f2257600080fd5b6000612f3084828501612e80565b91505092915050565b600080600060608486031215612f4e57600080fd5b6000612f5c86828701612e80565b9350506020612f6d86828701612e80565b925050604084013567ffffffffffffffff811115612f8a57600080fd5b612f9686828701612ea8565b9150509250925092565b60008060408385031215612fb357600080fd5b6000612fc185828601612e80565b925050602083013567ffffffffffffffff811115612fde57600080fd5b612fea85828601612ea8565b9150509250929050565b60006020828403121561300657600080fd5b600061301484828501612e94565b91505092915050565b60006020828403121561302f57600080fd5b600061303d84828501612efc565b91505092915050565b6000806040838503121561305957600080fd5b600061306785828601612efc565b925050602061307885828601612e80565b9150509250929050565b6000806040838503121561309557600080fd5b60006130a385828601612efc565b92505060206130b485828601612efc565b9150509250929050565b6130c7816145bc565b82525050565b6130d68161450b565b82525050565b6130e58161450b565b82525050565b6130f48161451d565b82525050565b6000613105826144c2565b61310f81856144de565b935061311f8185602086016146a3565b613128816146d6565b840191505092915050565b600061313e826144b7565b61314881856144cd565b93506131588185602086016146a3565b613161816146d6565b840191505092915050565b6000613177826144b7565b61318181856144de565b93506131918185602086016146a3565b61319a816146d6565b840191505092915050565b6000815460018116600081146131c257600181146131e75761322b565b607f60028304166131d381876144ef565b955060ff198316865280860193505061322b565b600282046131f581876144ef565b9550613200856144a5565b60005b8281101561322257815481890152600182019150602081019050613203565b82880195505050505b505092915050565b61323c816145ce565b82525050565b61324b816145f2565b82525050565b61325a81614616565b82525050565b6132698161463a565b82525050565b6132788161465e565b82525050565b6132878161465e565b82525050565b600061329a6044836144fa565b91507f476f7665726e616e63653a3a77697468647261773a20566f746572732077697460008301527f6820616e206163746976652070726f706f73616c2063616e6e6f74207769746860208301527f64726177000000000000000000000000000000000000000000000000000000006040830152606082019050919050565b60006133266030836144fa565b91507f476f7665726e616e63653a3a66696e616c697a653a2052657475726e2070726f60008301527f706f73616c20666565206661696c6564000000000000000000000000000000006020830152604082019050919050565b600061338c6035836144fa565b91507f476f7665726e616e63653a3a72656d6f7665566f74653a2050726f706f73616c60008301527f20697320616c72656164792066696e616c697a656400000000000000000000006020830152604082019050919050565b60006133f26020836144fa565b91507f536166654d6174683a3a7375623a20496e746567657220756e646572666c6f776000830152602082019050919050565b60006134326047836144fa565b91507f476f7665726e616e63653a3a73657450726f706f73616c4665653a2050726f7060008301527f6f73616c206665652063616e206f6e6c79206265207365742076696120676f7660208301527f65726e616e6365000000000000000000000000000000000000000000000000006040830152606082019050919050565b60006134be6049836144fa565b91507f476f7665726e616e63653a3a6465706f7369743a20596f75206d75737420626560008301527f206120436974697a656e20746f206d616b65206465706f7369747320746f204760208301527f6f7665726e616e636500000000000000000000000000000000000000000000006040830152606082019050919050565b600061354a603e836144fa565b91507f476f7665726e616e63653a3a72656d6f7665566f74653a2050726f706f73616c60008301527f206973206e6f206c6f6e67657220696e20766f74696e6720706572696f6400006020830152604082019050919050565b60006135b06025836144fa565b91507f476f7665726e616e63653a3a77697468647261773a205472616e73666572206660008301527f61696c65640000000000000000000000000000000000000000000000000000006020830152604082019050919050565b60006136166034836144fa565b91507f476f7665726e616e63653a3a70726f706f73655769746846656552656369706960008301527f656e743a205472616e73666572206661696c65640000000000000000000000006020830152604082019050919050565b600061367c6024836144fa565b91507f476f7665726e616e63653a3a6465706f7369743a205472616e7366657220666160008301527f696c6564000000000000000000000000000000000000000000000000000000006020830152604082019050919050565b60006136e2604a836144fa565b91507f476f7665726e616e63653a3a66696e616c697a653a2050726f706f73616c206360008301527f616e6e6f7420626520657865637574656420756e74696c20656e64206f66207660208301527f65746f20706572696f64000000000000000000000000000000000000000000006040830152606082019050919050565b600061376e6044836144fa565b91507f476f7665726e616e63653a3a766f74653a20436974697a656e2068617320616c60008301527f726561647920766f746564206f6e20746865206f70706f7369746520706f736960208301527f74696f6e000000000000000000000000000000000000000000000000000000006040830152606082019050919050565b60006137fa6058836144fa565b91507f476f7665726e616e63653a3a70726f706f73655769746846656552656369706960008301527f656e743a20596f75206d757374206265206120436974697a656e20746f206d6160208301527f6b65206120476f7665726e616e63652070726f706f73616c00000000000000006040830152606082019050919050565b6000613886604f836144fa565b91507f476f7665726e616e63653a3a766f74653a20417474656d707420746f20766f7460008301527f652077697468206d6f726520776569676874207468616e20697320706f73736560208301527f7373656420627920436974697a656e00000000000000000000000000000000006040830152606082019050919050565b60006139126038836144fa565b91507f476f7665726e616e63653a3a766f74653a2050726f706f73616c206973206e6f60008301527f206c6f6e67657220696e20766f74696e6720706572696f6400000000000000006020830152604082019050919050565b60006139786050836144fa565b91507f476f7665726e616e63653a3a66696e616c697a653a2050726f706f73616c206360008301527f616e6e6f74206265207465726d696e6174656420756e74696c20656e64206f6660208301527f2079657320766f746520706572696f64000000000000000000000000000000006040830152606082019050919050565b6000613a046029836144fa565b91507f476f7665726e616e63653a3a766f74653a205472616e7366657220746f20766f60008301527f6964206661696c656400000000000000000000000000000000000000000000006020830152604082019050919050565b6000613a6a6033836144fa565b91507f476f7665726e616e63653a3a66696e616c697a653a2050726f706f73616c206960008301527f7320616c72656164792066696e616c697a6564000000000000000000000000006020830152604082019050919050565b6000613ad0601f836144fa565b91507f536166654d6174683a3a6164643a20496e7465676572206f766572666c6f77006000830152602082019050919050565b6000613b10602f836144fa565b91507f476f7665726e616e63653a3a766f74653a2050726f706f73616c20697320616c60008301527f72656164792066696e616c697a656400000000000000000000000000000000006020830152604082019050919050565b6000613b76602d836144fa565b91507f476f7665726e616e63653a3a66696e616c697a653a205472616e73666572207460008301527f6f20766f6964206661696c6564000000000000000000000000000000000000006020830152604082019050919050565b6000613bdc6048836144fa565b91507f476f7665726e616e63653a3a70726f706f73653a20596f75206d75737420626560008301527f206120436974697a656e20746f206d616b65206120476f7665726e616e63652060208301527f70726f706f73616c0000000000000000000000000000000000000000000000006040830152606082019050919050565b6000613c68602f836144fa565b91507f476f7665726e616e63653a3a766f74653a20596f75206d75737420626520612060008301527f436974697a656e20746f20766f746500000000000000000000000000000000006020830152604082019050919050565b6000613cce6041836144fa565b91507f476f7665726e616e63653a3a766f74653a20596f75206e65656420746f20626560008301527f206120436974697a656e20746f2066696e616c69736520612070726f706f736160208301527f6c000000000000000000000000000000000000000000000000000000000000006040830152606082019050919050565b6000613d5a6035836144fa565b91507f476f7665726e616e63653a3a70726f706f73655769746846656552656369706960008301527f656e743a20496e76616c69642070726f706f73616c00000000000000000000006020830152604082019050919050565b600061012083016000830151613dcc600086018261326f565b506020830151613ddf60208601826130cd565b5060408301518482036040860152613df78282613133565b9150506060830151613e0c60608601826130cd565b506080830151613e1f60808601826130cd565b5060a0830151613e3260a0860182613e78565b5060c0830151613e4560c0860182613e78565b5060e0830151613e5860e0860182613e78565b50610100830151613e6d610100860182613e78565b508091505092915050565b613e818161455d565b82525050565b613e908161455d565b82525050565b613e9f81614567565b82525050565b6000613eb182846131a5565b915081905092915050565b6000602082019050613ed160008301846130dc565b92915050565b6000602082019050613eec60008301846130be565b92915050565b6000606082019050613f0760008301866130be565b613f1460208301856130dc565b613f216040830184613e87565b949350505050565b6000604082019050613f3e60008301856130be565b613f4b6020830184613e87565b9392505050565b6000604082019050613f6760008301856130dc565b613f746020830184613e87565b9392505050565b6000606082019050613f9060008301866130eb565b613f9d6020830185613e87565b613faa6040830184613e87565b949350505050565b60006020820190508181036000830152613fcc81846130fa565b905092915050565b6000602082019050613fe96000830184613233565b92915050565b60006020820190506140046000830184613242565b92915050565b600060208201905061401f6000830184613251565b92915050565b600060208201905061403a6000830184613260565b92915050565b600061012082019050614056600083018c61327e565b614063602083018b6130dc565b8181036040830152614075818a61316c565b905061408460608301896130dc565b61409160808301886130dc565b61409e60a0830187613e87565b6140ab60c0830186613e87565b6140b860e0830185613e87565b6140c6610100830184613e87565b9a9950505050505050505050565b600060208201905081810360008301526140ed8161328d565b9050919050565b6000602082019050818103600083015261410d81613319565b9050919050565b6000602082019050818103600083015261412d8161337f565b9050919050565b6000602082019050818103600083015261414d816133e5565b9050919050565b6000602082019050818103600083015261416d81613425565b9050919050565b6000602082019050818103600083015261418d816134b1565b9050919050565b600060208201905081810360008301526141ad8161353d565b9050919050565b600060208201905081810360008301526141cd816135a3565b9050919050565b600060208201905081810360008301526141ed81613609565b9050919050565b6000602082019050818103600083015261420d8161366f565b9050919050565b6000602082019050818103600083015261422d816136d5565b9050919050565b6000602082019050818103600083015261424d81613761565b9050919050565b6000602082019050818103600083015261426d816137ed565b9050919050565b6000602082019050818103600083015261428d81613879565b9050919050565b600060208201905081810360008301526142ad81613905565b9050919050565b600060208201905081810360008301526142cd8161396b565b9050919050565b600060208201905081810360008301526142ed816139f7565b9050919050565b6000602082019050818103600083015261430d81613a5d565b9050919050565b6000602082019050818103600083015261432d81613ac3565b9050919050565b6000602082019050818103600083015261434d81613b03565b9050919050565b6000602082019050818103600083015261436d81613b69565b9050919050565b6000602082019050818103600083015261438d81613bcf565b9050919050565b600060208201905081810360008301526143ad81613c5b565b9050919050565b600060208201905081810360008301526143cd81613cc1565b9050919050565b600060208201905081810360008301526143ed81613d4d565b9050919050565b6000602082019050818103600083015261440e8184613db3565b905092915050565b600060208201905061442b6000830184613e87565b92915050565b60006020820190506144466000830184613e96565b92915050565b6000604051905081810181811067ffffffffffffffff8211171561446f57600080fd5b8060405250919050565b600067ffffffffffffffff82111561449057600080fd5b601f19601f8301169050602081019050919050565b60008160005260206000209050919050565b600081519050919050565b600081519050919050565b600082825260208201905092915050565b600082825260208201905092915050565b600081905092915050565b600082825260208201905092915050565b60006145168261453d565b9050919050565b60008115159050919050565b60006003821061453557fe5b819050919050565b600073ffffffffffffffffffffffffffffffffffffffff82169050919050565b6000819050919050565b600060ff82169050919050565b600061457f82614592565b9050919050565b60008115159050919050565b600073ffffffffffffffffffffffffffffffffffffffff82169050919050565b6000819050919050565b60006145c782614670565b9050919050565b60006145d9826145e0565b9050919050565b60006145eb8261453d565b9050919050565b60006145fd82614604565b9050919050565b600061460f8261453d565b9050919050565b600061462182614628565b9050919050565b60006146338261453d565b9050919050565b60006146458261464c565b9050919050565b60006146578261453d565b9050919050565b600061466982614529565b9050919050565b600061467b82614682565b9050919050565b600061468d8261453d565b9050919050565b82818337600083830152505050565b60005b838110156146c15780820151818401526020810190506146a6565b838111156146d0576000848401525b50505050565b6000601f19601f830116905091905056fea265627a7a72305820dc0697e9ecb0f15faaac91ec8dd75abe5476a42a89cf256e05ed5e3bfa9c85696c6578706572696d656e74616cf500376080604052348015600f57600080fd5b50603580601d6000396000f3fe6080604052600080fdfea165627a7a723058207783f100472e6d5ae91e7ba47e30d3eb17df24d3b0cfb9c2198419c17ee88ba70029",
  "source": "pragma solidity 0.5.7;\npragma experimental ABIEncoderV2;\n\nimport { IERC20 } from \"openzeppelin-solidity/contracts/token/ERC20/IERC20.sol\";\n\nimport { Governance } from \"./Governance.sol\";\n\nimport { CitizenRegistry } from \"./CitizenRegistry.sol\";\n\n/**\n * @title HumanityGovernance\n * @dev Plutocratic voting system that uses Humanity token for voting and proposal fees.\n */\ncontract HumanityGovernance is Governance {\n\n    constructor(IERC20 humanity, uint proposalFee, uint8 taxRatePercent, address taxDevPoolAddress, address taxCommunityPoolAddress, CitizenRegistry _registry) public\n        Governance(humanity, proposalFee, taxRatePercent, taxDevPoolAddress, taxCommunityPoolAddress, _registry) {}\n\n}",
  "sourcePath": "/Users/jaywelsh/GitHub/society0x/ethereum/contracts/HumanityGovernance.sol",
  "compiler": {
    "name": "solc",
    "version": "0.5.7+commit.6da8b019.Emscripten.clang"
  },
  "schemaVersion": "3.0.9",
  "updatedAt": "2019-07-21T12:29:37.348Z",
  "devdoc": {
    "details": "Plutocratic voting system that uses Humanity token for voting and proposal fees.",
    "methods": {},
    "title": "HumanityGovernance"
  },
  "userdoc": {
    "methods": {}
  }
}