{
  "contractName": "MockTarget",
  "abi": [
    {
      "constant": true,
      "inputs": [],
      "name": "value",
      "outputs": [
        {
          "name": "",
          "type": "uint256"
        }
      ],
      "payable": false,
      "stateMutability": "view",
      "type": "function"
    },
    {
      "constant": false,
      "inputs": [],
      "name": "setValue",
      "outputs": [],
      "payable": false,
      "stateMutability": "nonpayable",
      "type": "function"
    },
    {
      "constant": true,
      "inputs": [],
      "name": "data",
      "outputs": [
        {
          "name": "",
          "type": "bytes"
        }
      ],
      "payable": false,
      "stateMutability": "view",
      "type": "function"
    }
  ],
  "bytecode": "0x608060405234801561001057600080fd5b50610270806100206000396000f3fe608060405234801561001057600080fd5b506004361061005e576000357c0100000000000000000000000000000000000000000000000000000000900480633fa4f245146100635780634fa519fa1461008157806373d4a13a1461008b575b600080fd5b61006b6100a9565b60405161007891906101b1565b60405180910390f35b6100896100af565b005b6100936100b9565b6040516100a0919061018f565b60405180910390f35b60005481565b6004600081905550565b6060634fa519fa7c010000000000000000000000000000000000000000000000000000000002604051602401604051602081830303815290604052907bffffffffffffffffffffffffffffffffffffffffffffffffffffffff19166020820180517bffffffffffffffffffffffffffffffffffffffffffffffffffffffff8381831617835250505050905090565b6000610152826101cc565b61015c81856101d7565b935061016c8185602086016101f2565b61017581610225565b840191505092915050565b610189816101e8565b82525050565b600060208201905081810360008301526101a98184610147565b905092915050565b60006020820190506101c66000830184610180565b92915050565b600081519050919050565b600082825260208201905092915050565b6000819050919050565b60005b838110156102105780820151818401526020810190506101f5565b8381111561021f576000848401525b50505050565b6000601f19601f830116905091905056fea265627a7a723058201285d6801c7cd2b087817e35b6897f60af7fcdd65e2a8cd26ffe79c6466d32896c6578706572696d656e74616cf50037",
  "source": "pragma solidity 0.5.7;\npragma experimental ABIEncoderV2;\n\n\n// @title MockTarget sets a value to test governance.\ncontract MockTarget {\n\n    uint public value;\n\n    function setValue() public {\n        value = 4;\n    }\n\n    function data() public view returns (bytes memory) {\n        return abi.encodeWithSelector(this.setValue.selector);\n    }\n\n}",
  "sourcePath": "/Users/jaywelsh/GitHub/society0x/ethereum/contracts/mock/MockTarget.sol",
  "compiler": {
    "name": "solc",
    "version": "0.5.7+commit.6da8b019.Emscripten.clang"
  },
  "schemaVersion": "3.0.9",
  "updatedAt": "2019-06-15T13:06:42.119Z",
  "devdoc": {
    "methods": {}
  },
  "userdoc": {
    "methods": {}
  }
}