{
  "contractName": "MockHumanityRegistry",
  "abi": [
    {
      "constant": true,
      "inputs": [],
      "name": "result",
      "outputs": [
        {
          "name": "",
          "type": "bool"
        }
      ],
      "payable": false,
      "stateMutability": "view",
      "type": "function"
    },
    {
      "constant": true,
      "inputs": [
        {
          "name": "who",
          "type": "address"
        }
      ],
      "name": "isHuman",
      "outputs": [
        {
          "name": "",
          "type": "bool"
        }
      ],
      "payable": false,
      "stateMutability": "view",
      "type": "function"
    },
    {
      "constant": false,
      "inputs": [
        {
          "name": "_result",
          "type": "bool"
        }
      ],
      "name": "setResult",
      "outputs": [],
      "payable": false,
      "stateMutability": "nonpayable",
      "type": "function"
    }
  ],
  "bytecode": "0x608060405260016000806101000a81548160ff02191690831515021790555034801561002a57600080fd5b5061023b8061003a6000396000f3fe608060405234801561001057600080fd5b506004361061005e576000357c0100000000000000000000000000000000000000000000000000000000900480636537214714610063578063f4b4dc2e14610081578063f72c436f1461009d575b600080fd5b61006b6100cd565b604051610078919061019c565b60405180910390f35b61009b60048036036100969190810190610164565b6100df565b005b6100b760048036036100b2919081019061013b565b6100fb565b6040516100c4919061019c565b60405180910390f35b6000809054906101000a900460ff1681565b806000806101000a81548160ff02191690831515021790555050565b60008060009054906101000a900460ff169050919050565b600061011f82356101c3565b905092915050565b600061013382356101d5565b905092915050565b60006020828403121561014d57600080fd5b600061015b84828501610113565b91505092915050565b60006020828403121561017657600080fd5b600061018484828501610127565b91505092915050565b610196816101b7565b82525050565b60006020820190506101b1600083018461018d565b92915050565b60008115159050919050565b60006101ce826101e1565b9050919050565b60008115159050919050565b600073ffffffffffffffffffffffffffffffffffffffff8216905091905056fea265627a7a72305820916d0ce4b121f515f0b9bbb8805f4d629da0c449bb23c3b155d8c1281876411e6c6578706572696d656e74616cf50037",
  "source": "pragma solidity 0.5.7;\npragma experimental ABIEncoderV2;\n\n\ncontract MockHumanityRegistry {\n\n    bool public result = true;\n\n    function isHuman(address who) public view returns (bool) {\n        return result;\n    }\n\n    function setResult(bool _result) public {\n        result = _result;\n    }\n\n}",
  "sourcePath": "/Users/jaywelsh/GitHub/society0x/ethereum/contracts/mock/MockHumanityRegistry.sol",
  "compiler": {
    "name": "solc",
    "version": "0.5.7+commit.6da8b019.Emscripten.clang"
  },
  "schemaVersion": "3.0.9",
  "updatedAt": "2019-06-15T13:06:42.117Z",
  "devdoc": {
    "methods": {}
  },
  "userdoc": {
    "methods": {}
  }
}