{
  "contractName": "MockUniswap",
  "abi": [
    {
      "constant": true,
      "inputs": [
        {
          "name": "eth_bought",
          "type": "uint256"
        },
        {
          "name": "max_tokens",
          "type": "uint256"
        },
        {
          "name": "deadline",
          "type": "uint256"
        }
      ],
      "name": "humanity",
      "outputs": [
        {
          "name": "",
          "type": "address"
        }
      ],
      "payable": false,
      "stateMutability": "view",
      "type": "function"
    },
    {
      "inputs": [
        {
          "name": "_humanity",
          "type": "address"
        }
      ],
      "payable": false,
      "stateMutability": "nonpayable",
      "type": "constructor",
      "constant": true,
      "name": "name",
      "outputs": [
        {
          "name": "",
          "type": "bytes32"
        }
      ]
    },
    {
      "constant": false,
      "inputs": [
        {
          "name": "tokens_bought",
          "type": "uint256"
        },
        {
          "name": "timestamp",
          "type": "uint256"
        }
      ],
      "name": "ethToTokenSwapOutput",
      "outputs": [
        {
          "name": "",
          "type": "uint256"
        }
      ],
      "payable": true,
      "stateMutability": "payable",
      "type": "function"
    },
    {
      "constant": false,
      "inputs": [
        {
          "name": "tokens_bought",
          "type": "uint256"
        },
        {
          "name": "deadline",
          "type": "uint256"
        },
        {
          "name": "recipient",
          "type": "address"
        }
      ],
      "name": "ethToTokenTransferOutput",
      "outputs": [
        {
          "name": "eth_sold",
          "type": "uint256"
        }
      ],
      "payable": true,
      "stateMutability": "payable",
      "type": "function"
    },
    {
      "constant": true,
      "inputs": [],
      "name": "totalSupply",
      "outputs": [
        {
          "name": "",
          "type": "uint256"
        }
      ],
      "payable": false,
      "stateMutability": "view",
      "type": "function"
    },
    {
      "constant": false,
      "inputs": [
        {
          "name": "_from",
          "type": "address"
        },
        {
          "name": "_to",
          "type": "address"
        },
        {
          "name": "value",
          "type": "uint256"
        }
      ],
      "name": "transferFrom",
      "outputs": [
        {
          "name": "",
          "type": "bool"
        }
      ],
      "payable": false,
      "stateMutability": "nonpayable",
      "type": "function"
    },
    {
      "constant": true,
      "inputs": [
        {
          "name": "eth_bought",
          "type": "uint256"
        }
      ],
      "name": "getTokenToEthOutputPrice",
      "outputs": [
        {
          "name": "tokens_sold",
          "type": "uint256"
        }
      ],
      "payable": false,
      "stateMutability": "view",
      "type": "function"
    },
    {
      "constant": true,
      "inputs": [],
      "name": "decimals",
      "outputs": [
        {
          "name": "",
          "type": "uint256"
        }
      ],
      "payable": false,
      "stateMutability": "view",
      "type": "function"
    },
    {
      "constant": false,
      "inputs": [
        {
          "name": "min_liquidity",
          "type": "uint256"
        },
        {
          "name": "max_tokens",
          "type": "uint256"
        },
        {
          "name": "deadline",
          "type": "uint256"
        }
      ],
      "name": "addLiquidity",
      "outputs": [
        {
          "name": "",
          "type": "uint256"
        }
      ],
      "payable": true,
      "stateMutability": "payable",
      "type": "function"
    },
    {
      "constant": true,
      "inputs": [],
      "name": "humanity",
      "outputs": [
        {
          "name": "",
          "type": "address"
        }
      ],
      "payable": false,
      "stateMutability": "view",
      "type": "function"
    },
    {
      "constant": true,
      "inputs": [
        {
          "name": "tokens_bought",
          "type": "uint256"
        }
      ],
      "name": "getEthToTokenOutputPrice",
      "outputs": [
        {
          "name": "eth_sold",
          "type": "uint256"
        }
      ],
      "payable": false,
      "stateMutability": "view",
      "type": "function"
    },
    {
      "constant": false,
      "inputs": [
        {
          "name": "token_addr",
          "type": "address"
        }
      ],
      "name": "setup",
      "outputs": [],
      "payable": false,
      "stateMutability": "nonpayable",
      "type": "function"
    },
    {
      "constant": true,
      "inputs": [
        {
          "name": "_owner",
          "type": "address"
        }
      ],
      "name": "balanceOf",
      "outputs": [
        {
          "name": "",
          "type": "uint256"
        }
      ],
      "payable": false,
      "stateMutability": "view",
      "type": "function"
    },
    {
      "constant": false,
      "inputs": [
        {
          "name": "tokens_sold",
          "type": "uint256"
        },
        {
          "name": "min_eth",
          "type": "uint256"
        },
        {
          "name": "deadline",
          "type": "uint256"
        },
        {
          "name": "recipient",
          "type": "address"
        }
      ],
      "name": "tokenToEthTransferInput",
      "outputs": [
        {
          "name": "eth_bought",
          "type": "uint256"
        }
      ],
      "payable": false,
      "stateMutability": "nonpayable",
      "type": "function"
    },
    {
      "constant": true,
      "inputs": [
        {
          "name": "tokens_sold",
          "type": "uint256"
        }
      ],
      "name": "getTokenToEthInputPrice",
      "outputs": [
        {
          "name": "eth_bought",
          "type": "uint256"
        }
      ],
      "payable": false,
      "stateMutability": "view",
      "type": "function"
    },
    {
      "constant": true,
      "inputs": [],
      "name": "symbol",
      "outputs": [
        {
          "name": "",
          "type": "bytes32"
        }
      ],
      "payable": false,
      "stateMutability": "view",
      "type": "function"
    },
    {
      "constant": false,
      "inputs": [
        {
          "name": "tokens_sold",
          "type": "uint256"
        },
        {
          "name": "min_eth",
          "type": "uint256"
        },
        {
          "name": "deadline",
          "type": "uint256"
        }
      ],
      "name": "tokenToEthSwapInput",
      "outputs": [
        {
          "name": "eth_bought",
          "type": "uint256"
        }
      ],
      "payable": false,
      "stateMutability": "nonpayable",
      "type": "function"
    },
    {
      "constant": true,
      "inputs": [],
      "name": "factoryAddress",
      "outputs": [
        {
          "name": "factory",
          "type": "address"
        }
      ],
      "payable": false,
      "stateMutability": "view",
      "type": "function"
    },
    {
      "constant": false,
      "inputs": [
        {
          "name": "tokens_bought",
          "type": "uint256"
        },
        {
          "name": "max_tokens_sold",
          "type": "uint256"
        },
        {
          "name": "max_eth_sold",
          "type": "uint256"
        },
        {
          "name": "deadline",
          "type": "uint256"
        },
        {
          "name": "recipient",
          "type": "address"
        },
        {
          "name": "exchange_addr",
          "type": "address"
        }
      ],
      "name": "tokenToExchangeTransferOutput",
      "outputs": [
        {
          "name": "tokens_sold",
          "type": "uint256"
        }
      ],
      "payable": false,
      "stateMutability": "nonpayable",
      "type": "function"
    },
    {
      "constant": true,
      "inputs": [],
      "name": "tokenAddress",
      "outputs": [
        {
          "name": "token",
          "type": "address"
        }
      ],
      "payable": false,
      "stateMutability": "view",
      "type": "function"
    },
    {
      "constant": false,
      "inputs": [
        {
          "name": "_to",
          "type": "address"
        },
        {
          "name": "_value",
          "type": "uint256"
        }
      ],
      "name": "transfer",
      "outputs": [
        {
          "name": "",
          "type": "bool"
        }
      ],
      "payable": false,
      "stateMutability": "nonpayable",
      "type": "function"
    },
    {
      "constant": false,
      "inputs": [
        {
          "name": "min_tokens",
          "type": "uint256"
        },
        {
          "name": "deadline",
          "type": "uint256"
        },
        {
          "name": "recipient",
          "type": "address"
        }
      ],
      "name": "ethToTokenTransferInput",
      "outputs": [
        {
          "name": "tokens_bought",
          "type": "uint256"
        }
      ],
      "payable": true,
      "stateMutability": "payable",
      "type": "function"
    },
    {
      "constant": false,
      "inputs": [
        {
          "name": "tokens_bought",
          "type": "uint256"
        },
        {
          "name": "max_tokens_sold",
          "type": "uint256"
        },
        {
          "name": "max_eth_sold",
          "type": "uint256"
        },
        {
          "name": "deadline",
          "type": "uint256"
        },
        {
          "name": "token_addr",
          "type": "address"
        }
      ],
      "name": "tokenToTokenSwapOutput",
      "outputs": [
        {
          "name": "tokens_sold",
          "type": "uint256"
        }
      ],
      "payable": false,
      "stateMutability": "nonpayable",
      "type": "function"
    },
    {
      "constant": false,
      "inputs": [
        {
          "name": "tokens_sold",
          "type": "uint256"
        },
        {
          "name": "min_tokens_bought",
          "type": "uint256"
        },
        {
          "name": "min_eth_bought",
          "type": "uint256"
        },
        {
          "name": "deadline",
          "type": "uint256"
        },
        {
          "name": "exchange_addr",
          "type": "address"
        }
      ],
      "name": "tokenToExchangeSwapInput",
      "outputs": [
        {
          "name": "tokens_bought",
          "type": "uint256"
        }
      ],
      "payable": false,
      "stateMutability": "nonpayable",
      "type": "function"
    },
    {
      "constant": true,
      "inputs": [
        {
          "name": "eth_sold",
          "type": "uint256"
        }
      ],
      "name": "getEthToTokenInputPrice",
      "outputs": [
        {
          "name": "tokens_bought",
          "type": "uint256"
        }
      ],
      "payable": false,
      "stateMutability": "view",
      "type": "function"
    },
    {
      "constant": false,
      "inputs": [
        {
          "name": "eth_bought",
          "type": "uint256"
        },
        {
          "name": "max_tokens",
          "type": "uint256"
        },
        {
          "name": "deadline",
          "type": "uint256"
        },
        {
          "name": "recipient",
          "type": "address"
        }
      ],
      "name": "tokenToEthTransferOutput",
      "outputs": [
        {
          "name": "tokens_sold",
          "type": "uint256"
        }
      ],
      "payable": false,
      "stateMutability": "nonpayable",
      "type": "function"
    },
    {
      "constant": true,
      "inputs": [
        {
          "name": "_owner",
          "type": "address"
        },
        {
          "name": "_spender",
          "type": "address"
        }
      ],
      "name": "allowance",
      "outputs": [
        {
          "name": "",
          "type": "uint256"
        }
      ],
      "payable": false,
      "stateMutability": "view",
      "type": "function"
    },
    {
      "constant": false,
      "inputs": [
        {
          "name": "tokens_sold",
          "type": "uint256"
        },
        {
          "name": "min_tokens_bought",
          "type": "uint256"
        },
        {
          "name": "min_eth_bought",
          "type": "uint256"
        },
        {
          "name": "deadline",
          "type": "uint256"
        },
        {
          "name": "token_addr",
          "type": "address"
        }
      ],
      "name": "tokenToTokenSwapInput",
      "outputs": [
        {
          "name": "tokens_bought",
          "type": "uint256"
        }
      ],
      "payable": false,
      "stateMutability": "nonpayable",
      "type": "function"
    },
    {
      "constant": false,
      "inputs": [
        {
          "name": "tokens_bought",
          "type": "uint256"
        },
        {
          "name": "max_tokens_sold",
          "type": "uint256"
        },
        {
          "name": "max_eth_sold",
          "type": "uint256"
        },
        {
          "name": "deadline",
          "type": "uint256"
        },
        {
          "name": "exchange_addr",
          "type": "address"
        }
      ],
      "name": "tokenToExchangeSwapOutput",
      "outputs": [
        {
          "name": "tokens_sold",
          "type": "uint256"
        }
      ],
      "payable": false,
      "stateMutability": "nonpayable",
      "type": "function"
    },
    {
      "constant": false,
      "inputs": [
        {
          "name": "tokens_sold",
          "type": "uint256"
        },
        {
          "name": "min_tokens_bought",
          "type": "uint256"
        },
        {
          "name": "min_eth_bought",
          "type": "uint256"
        },
        {
          "name": "deadline",
          "type": "uint256"
        },
        {
          "name": "recipient",
          "type": "address"
        },
        {
          "name": "exchange_addr",
          "type": "address"
        }
      ],
      "name": "tokenToExchangeTransferInput",
      "outputs": [
        {
          "name": "tokens_bought",
          "type": "uint256"
        }
      ],
      "payable": false,
      "stateMutability": "nonpayable",
      "type": "function"
    },
    {
      "constant": false,
      "inputs": [
        {
          "name": "min_tokens",
          "type": "uint256"
        },
        {
          "name": "deadline",
          "type": "uint256"
        }
      ],
      "name": "ethToTokenSwapInput",
      "outputs": [
        {
          "name": "tokens_bought",
          "type": "uint256"
        }
      ],
      "payable": true,
      "stateMutability": "payable",
      "type": "function"
    },
    {
      "constant": false,
      "inputs": [
        {
          "name": "tokens_bought",
          "type": "uint256"
        },
        {
          "name": "max_tokens_sold",
          "type": "uint256"
        },
        {
          "name": "max_eth_sold",
          "type": "uint256"
        },
        {
          "name": "deadline",
          "type": "uint256"
        },
        {
          "name": "recipient",
          "type": "address"
        },
        {
          "name": "token_addr",
          "type": "address"
        }
      ],
      "name": "tokenToTokenTransferOutput",
      "outputs": [
        {
          "name": "tokens_sold",
          "type": "uint256"
        }
      ],
      "payable": false,
      "stateMutability": "nonpayable",
      "type": "function"
    },
    {
      "constant": false,
      "inputs": [
        {
          "name": "tokens_sold",
          "type": "uint256"
        },
        {
          "name": "min_tokens_bought",
          "type": "uint256"
        },
        {
          "name": "min_eth_bought",
          "type": "uint256"
        },
        {
          "name": "deadline",
          "type": "uint256"
        },
        {
          "name": "recipient",
          "type": "address"
        },
        {
          "name": "token_addr",
          "type": "address"
        }
      ],
      "name": "tokenToTokenTransferInput",
      "outputs": [
        {
          "name": "tokens_bought",
          "type": "uint256"
        }
      ],
      "payable": false,
      "stateMutability": "nonpayable",
      "type": "function"
    },
    {
      "constant": false,
      "inputs": [
        {
          "name": "amount",
          "type": "uint256"
        },
        {
          "name": "min_eth",
          "type": "uint256"
        },
        {
          "name": "min_tokens",
          "type": "uint256"
        },
        {
          "name": "deadline",
          "type": "uint256"
        }
      ],
      "name": "removeLiquidity",
      "outputs": [
        {
          "name": "",
          "type": "uint256"
        },
        {
          "name": "",
          "type": "uint256"
        }
      ],
      "payable": false,
      "stateMutability": "nonpayable",
      "type": "function"
    },
    {
      "inputs": [
        {
          "name": "_humanity",
          "type": "address"
        }
      ],
      "payable": false,
      "stateMutability": "nonpayable",
      "type": "constructor"
    },
    {
      "constant": false,
      "inputs": [
        {
          "name": "tokens_bought",
          "type": "uint256"
        },
        {
          "name": "timestamp",
          "type": "uint256"
        }
      ],
      "name": "ethToTokenSwapOutput",
      "outputs": [
        {
          "name": "",
          "type": "uint256"
        }
      ],
      "payable": true,
      "stateMutability": "payable",
      "type": "function"
    }
  ],
  "bytecode": "0x608060405234801561001057600080fd5b50604051602080610628833981018060405261002f9190810190610089565b806000806101000a81548173ffffffffffffffffffffffffffffffffffffffff021916908373ffffffffffffffffffffffffffffffffffffffff160217905550506100f6565b600061008182516100c4565b905092915050565b60006020828403121561009b57600080fd5b60006100a984828501610075565b91505092915050565b60006100bd826100d6565b9050919050565b60006100cf826100b2565b9050919050565b600073ffffffffffffffffffffffffffffffffffffffff82169050919050565b610523806101056000396000f3fe608060405260043610610046576000357c01000000000000000000000000000000000000000000000000000000009004806349f81a201461004b5780636b1d4db714610076575b600080fd5b34801561005757600080fd5b506100606100a6565b60405161006d9190610407565b60405180910390f35b610090600480360361008b919081019061034b565b6100cb565b60405161009d9190610422565b60405180910390f35b6000809054906101000a900473ffffffffffffffffffffffffffffffffffffffff1681565b6000806000809054906101000a900473ffffffffffffffffffffffffffffffffffffffff1673ffffffffffffffffffffffffffffffffffffffff166370a08231306040518263ffffffff167c010000000000000000000000000000000000000000000000000000000002815260040161014491906103c3565b60206040518083038186803b15801561015c57600080fd5b505afa158015610170573d6000803e3d6000fd5b505050506040513d601f19601f820116820180604052506101949190810190610322565b90506000809054906101000a900473ffffffffffffffffffffffffffffffffffffffff1673ffffffffffffffffffffffffffffffffffffffff1663a9059cbb33836040518363ffffffff167c010000000000000000000000000000000000000000000000000000000002815260040161020e9291906103de565b602060405180830381600087803b15801561022857600080fd5b505af115801561023c573d6000803e3d6000fd5b505050506040513d601f19601f8201168201806040525061026091908101906102f9565b50833411156102b3573373ffffffffffffffffffffffffffffffffffffffff166108fc8534039081150290604051600060405180830381858888f193505050501580156102b1573d6000803e3d6000fd5b505b8091505092915050565b60006102c98251610479565b905092915050565b60006102dd8235610485565b905092915050565b60006102f18251610485565b905092915050565b60006020828403121561030b57600080fd5b6000610319848285016102bd565b91505092915050565b60006020828403121561033457600080fd5b6000610342848285016102e5565b91505092915050565b6000806040838503121561035e57600080fd5b600061036c858286016102d1565b925050602061037d858286016102d1565b9150509250929050565b6103908161048f565b82525050565b61039f8161043d565b82525050565b6103ae816104a1565b82525050565b6103bd8161046f565b82525050565b60006020820190506103d86000830184610396565b92915050565b60006040820190506103f36000830185610387565b61040060208301846103b4565b9392505050565b600060208201905061041c60008301846103a5565b92915050565b600060208201905061043760008301846103b4565b92915050565b60006104488261044f565b9050919050565b600073ffffffffffffffffffffffffffffffffffffffff82169050919050565b6000819050919050565b60008115159050919050565b6000819050919050565b600061049a826104c5565b9050919050565b60006104ac826104b3565b9050919050565b60006104be8261044f565b9050919050565b60006104d0826104d7565b9050919050565b60006104e28261044f565b905091905056fea265627a7a7230582083ba46c7d8e3a933ae023fc2ade79fcdd3444d02353a0e347f6fe9973748b2d66c6578706572696d656e74616cf50037",
  "source": "pragma solidity 0.5.7;\npragma experimental ABIEncoderV2;\n\nimport { IERC20 } from \"openzeppelin-solidity/contracts/token/ERC20/IERC20.sol\";\n\nimport { IUniswapExchange } from \"../interface/IUniswapExchange.sol\";\n\n\n// @title MockUniswap exchanges Ether for Humanity to test PayableHumanityApplicant.\ncontract MockUniswap is IUniswapExchange {\n\n    IERC20 public humanity;\n\n    constructor(IERC20 _humanity) public {\n        humanity = _humanity;\n    }\n\n    function ethToTokenSwapOutput(uint256 tokens_bought, uint256 timestamp) public payable returns (uint256) {\n        uint balance = humanity.balanceOf(address(this));\n        humanity.transfer(msg.sender, balance);\n\n        // Use a 1-to-1 exchange rate and refund the rest\n        if (msg.value > tokens_bought) {\n            msg.sender.transfer(msg.value - tokens_bought);\n        }\n\n        return balance;\n    }\n\n}",
  "sourcePath": "/Users/jaywelsh/GitHub/society0x/ethereum/contracts/mock/MockUniswap.sol",
  "compiler": {
    "name": "solc",
    "version": "0.5.7+commit.6da8b019.Emscripten.clang"
  },
  "schemaVersion": "3.0.9",
  "updatedAt": "2019-06-15T13:06:42.121Z",
  "devdoc": {
    "methods": {}
  },
  "userdoc": {
    "methods": {}
  }
}