{
  "contractName": "PayableHumanityApplicant",
  "abi": [
    {
      "constant": false,
      "inputs": [
        {
          "name": "who",
          "type": "address"
        }
      ],
      "name": "applyFor",
      "outputs": [
        {
          "name": "",
          "type": "uint256"
        }
      ],
      "payable": false,
      "stateMutability": "nonpayable",
      "type": "function"
    },
    {
      "constant": true,
      "inputs": [],
      "name": "humanity",
      "outputs": [
        {
          "name": "",
          "type": "address"
        }
      ],
      "payable": false,
      "stateMutability": "view",
      "type": "function"
    },
    {
      "constant": true,
      "inputs": [],
      "name": "governance",
      "outputs": [
        {
          "name": "",
          "type": "address"
        }
      ],
      "payable": false,
      "stateMutability": "view",
      "type": "function"
    },
    {
      "constant": true,
      "inputs": [],
      "name": "registry",
      "outputs": [
        {
          "name": "",
          "type": "address"
        }
      ],
      "payable": false,
      "stateMutability": "view",
      "type": "function"
    },
    {
      "constant": true,
      "inputs": [],
      "name": "exchange",
      "outputs": [
        {
          "name": "",
          "type": "address"
        }
      ],
      "payable": false,
      "stateMutability": "view",
      "type": "function"
    },
    {
      "inputs": [
        {
          "name": "_governance",
          "type": "address"
        },
        {
          "name": "_registry",
          "type": "address"
        },
        {
          "name": "_humanity",
          "type": "address"
        },
        {
          "name": "_exchange",
          "type": "address"
        }
      ],
      "payable": false,
      "stateMutability": "nonpayable",
      "type": "constructor"
    },
    {
      "payable": true,
      "stateMutability": "payable",
      "type": "fallback"
    },
    {
      "constant": false,
      "inputs": [
        {
          "name": "who",
          "type": "address"
        }
      ],
      "name": "applyWithEtherFor",
      "outputs": [
        {
          "name": "",
          "type": "uint256"
        }
      ],
      "payable": true,
      "stateMutability": "payable",
      "type": "function"
    }
  ],
  "bytecode": "0x60806040523480156200001157600080fd5b50604051608080620012e68339810180604052620000339190810190620002f3565b838383826000806101000a81548173ffffffffffffffffffffffffffffffffffffffff021916908373ffffffffffffffffffffffffffffffffffffffff16021790555081600160006101000a81548173ffffffffffffffffffffffffffffffffffffffff021916908373ffffffffffffffffffffffffffffffffffffffff16021790555080600260006101000a81548173ffffffffffffffffffffffffffffffffffffffff021916908373ffffffffffffffffffffffffffffffffffffffff160217905550600260009054906101000a900473ffffffffffffffffffffffffffffffffffffffff1673ffffffffffffffffffffffffffffffffffffffff1663095ea7b36000809054906101000a900473ffffffffffffffffffffffffffffffffffffffff167fffffffffffffffffffffffffffffffffffffffffffffffffffffffffffffffff6040518363ffffffff167c0100000000000000000000000000000000000000000000000000000000028152600401620001b492919062000381565b602060405180830381600087803b158015620001cf57600080fd5b505af1158015620001e4573d6000803e3d6000fd5b505050506040513d601f19601f820116820180604052506200020a9190810190620002c7565b5050505080600360006101000a81548173ffffffffffffffffffffffffffffffffffffffff021916908373ffffffffffffffffffffffffffffffffffffffff160217905550505050506200047c565b600062000267825162000400565b905092915050565b60006200027d82516200040c565b905092915050565b600062000293825162000420565b905092915050565b6000620002a9825162000434565b905092915050565b6000620002bf825162000448565b905092915050565b600060208284031215620002da57600080fd5b6000620002ea8482850162000259565b91505092915050565b600080600080608085870312156200030a57600080fd5b60006200031a8782880162000285565b94505060206200032d878288016200029b565b935050604062000340878288016200026f565b92505060606200035387828801620002b1565b91505092959194509250565b6200036a81620003ae565b82525050565b6200037b81620003e2565b82525050565b60006040820190506200039860008301856200035f565b620003a7602083018462000370565b9392505050565b6000620003bb82620003c2565b9050919050565b600073ffffffffffffffffffffffffffffffffffffffff82169050919050565b6000819050919050565b6000620003f9826200045c565b9050919050565b60008115159050919050565b60006200041982620003ec565b9050919050565b60006200042d82620003ec565b9050919050565b60006200044182620003ec565b9050919050565b60006200045582620003ec565b9050919050565b600073ffffffffffffffffffffffffffffffffffffffff82169050919050565b610e5a806200048c6000396000f3fe608060405260043610610072576000357c01000000000000000000000000000000000000000000000000000000009004806337ea0de21461007457806349f81a20146100b157806351e6a9f5146100dc5780635aa6e6751461010c5780637b10399914610137578063d2f7265a14610162575b005b34801561008057600080fd5b5061009b60048036036100969190810190610922565b61018d565b6040516100a89190610c21565b60405180910390f35b3480156100bd57600080fd5b506100c6610608565b6040516100d39190610b75565b60405180910390f35b6100f660048036036100f19190810190610922565b61062e565b6040516101039190610c21565b60405180910390f35b34801561011857600080fd5b5061012161081f565b60405161012e9190610b90565b60405180910390f35b34801561014357600080fd5b5061014c610844565b6040516101599190610bab565b60405180910390f35b34801561016e57600080fd5b5061017761086a565b6040516101849190610bc6565b60405180910390f35b6000806000809054906101000a900473ffffffffffffffffffffffffffffffffffffffff1673ffffffffffffffffffffffffffffffffffffffff1663c27cabb56040518163ffffffff167c010000000000000000000000000000000000000000000000000000000002815260040160206040518083038186803b15801561021357600080fd5b505afa158015610227573d6000803e3d6000fd5b505050506040513d601f19601f8201168201806040525061024b9190810190610974565b90506000600260009054906101000a900473ffffffffffffffffffffffffffffffffffffffff1673ffffffffffffffffffffffffffffffffffffffff166370a08231306040518263ffffffff167c01000000000000000000000000000000000000000000000000000000000281526004016102c69190610ae5565b60206040518083038186803b1580156102de57600080fd5b505afa1580156102f2573d6000803e3d6000fd5b505050506040513d601f19601f820116820180604052506103169190810190610974565b90508082111561043f57600260009054906101000a900473ffffffffffffffffffffffffffffffffffffffff1673ffffffffffffffffffffffffffffffffffffffff166323b872dd3330610373858761089090919063ffffffff16565b6040518463ffffffff167c01000000000000000000000000000000000000000000000000000000000281526004016103ad93929190610b3e565b602060405180830381600087803b1580156103c757600080fd5b505af11580156103db573d6000803e3d6000fd5b505050506040513d601f19601f820116820180604052506103ff919081019061094b565b61043e576040517f08c379a000000000000000000000000000000000000000000000000000000000815260040161043590610be1565b60405180910390fd5b5b6060600160009054906101000a900473ffffffffffffffffffffffffffffffffffffffff1673ffffffffffffffffffffffffffffffffffffffff16630a3b0a4f90507c010000000000000000000000000000000000000000000000000000000002856040516024016104b19190610ae5565b604051602081830303815290604052907bffffffffffffffffffffffffffffffffffffffffffffffffffffffff19166020820180517bffffffffffffffffffffffffffffffffffffffffffffffffffffffff838183161783525050505090506000809054906101000a900473ffffffffffffffffffffffffffffffffffffffff1673ffffffffffffffffffffffffffffffffffffffff1663e3c3b20033600160009054906101000a900473ffffffffffffffffffffffffffffffffffffffff16846040518463ffffffff167c01000000000000000000000000000000000000000000000000000000000281526004016105ac93929190610b00565b602060405180830381600087803b1580156105c657600080fd5b505af11580156105da573d6000803e3d6000fd5b505050506040513d601f19601f820116820180604052506105fe9190810190610974565b9350505050919050565b600260009054906101000a900473ffffffffffffffffffffffffffffffffffffffff1681565b6000806000809054906101000a900473ffffffffffffffffffffffffffffffffffffffff1673ffffffffffffffffffffffffffffffffffffffff1663c27cabb56040518163ffffffff167c010000000000000000000000000000000000000000000000000000000002815260040160206040518083038186803b1580156106b457600080fd5b505afa1580156106c8573d6000803e3d6000fd5b505050506040513d601f19601f820116820180604052506106ec9190810190610974565b9050600360009054906101000a900473ffffffffffffffffffffffffffffffffffffffff1673ffffffffffffffffffffffffffffffffffffffff16636b1d4db73483426040518463ffffffff167c0100000000000000000000000000000000000000000000000000000000028152600401610768929190610c3c565b6020604051808303818588803b15801561078157600080fd5b505af1158015610795573d6000803e3d6000fd5b50505050506040513d601f19601f820116820180604052506107ba9190810190610974565b5060006107c68461018d565b90503373ffffffffffffffffffffffffffffffffffffffff166108fc3073ffffffffffffffffffffffffffffffffffffffff16319081150290604051600060405180830381858888f19350505050508092505050919050565b6000809054906101000a900473ffffffffffffffffffffffffffffffffffffffff1681565b600160009054906101000a900473ffffffffffffffffffffffffffffffffffffffff1681565b600360009054906101000a900473ffffffffffffffffffffffffffffffffffffffff1681565b6000828211156108d5576040517f08c379a00000000000000000000000000000000000000000000000000000000081526004016108cc90610c01565b60405180910390fd5b600082840390508091505092915050565b60006108f28235610cce565b905092915050565b60006109068251610ce0565b905092915050565b600061091a8251610d0c565b905092915050565b60006020828403121561093457600080fd5b6000610942848285016108e6565b91505092915050565b60006020828403121561095d57600080fd5b600061096b848285016108fa565b91505092915050565b60006020828403121561098657600080fd5b60006109948482850161090e565b91505092915050565b6109a681610d16565b82525050565b6109b581610c92565b82525050565b60006109c682610c65565b6109d08185610c70565b93506109e0818560208601610ddc565b6109e981610e0f565b840191505092915050565b6109fd81610d28565b82525050565b610a0c81610d4c565b82525050565b610a1b81610d70565b82525050565b610a2a81610d94565b82525050565b6000610a3d602c83610c81565b91507f48756d616e6974794170706c6963616e743a3a6170706c79466f723a2054726160008301527f6e73666572206661696c656400000000000000000000000000000000000000006020830152604082019050919050565b6000610aa3602083610c81565b91507f536166654d6174683a3a7375623a20496e746567657220756e646572666c6f776000830152602082019050919050565b610adf81610cc4565b82525050565b6000602082019050610afa60008301846109ac565b92915050565b6000606082019050610b15600083018661099d565b610b2260208301856109ac565b8181036040830152610b3481846109bb565b9050949350505050565b6000606082019050610b53600083018661099d565b610b6060208301856109ac565b610b6d6040830184610ad6565b949350505050565b6000602082019050610b8a60008301846109f4565b92915050565b6000602082019050610ba56000830184610a03565b92915050565b6000602082019050610bc06000830184610a12565b92915050565b6000602082019050610bdb6000830184610a21565b92915050565b60006020820190508181036000830152610bfa81610a30565b9050919050565b60006020820190508181036000830152610c1a81610a96565b9050919050565b6000602082019050610c366000830184610ad6565b92915050565b6000604082019050610c516000830185610ad6565b610c5e6020830184610ad6565b9392505050565b600081519050919050565b600082825260208201905092915050565b600082825260208201905092915050565b6000610c9d82610ca4565b9050919050565b600073ffffffffffffffffffffffffffffffffffffffff82169050919050565b6000819050919050565b6000610cd982610cec565b9050919050565b60008115159050919050565b600073ffffffffffffffffffffffffffffffffffffffff82169050919050565b6000819050919050565b6000610d2182610db8565b9050919050565b6000610d3382610d3a565b9050919050565b6000610d4582610ca4565b9050919050565b6000610d5782610d5e565b9050919050565b6000610d6982610ca4565b9050919050565b6000610d7b82610d82565b9050919050565b6000610d8d82610ca4565b9050919050565b6000610d9f82610da6565b9050919050565b6000610db182610ca4565b9050919050565b6000610dc382610dca565b9050919050565b6000610dd582610ca4565b9050919050565b60005b83811015610dfa578082015181840152602081019050610ddf565b83811115610e09576000848401525b50505050565b6000601f19601f830116905091905056fea265627a7a7230582090e6758d6b2a73d9a11b16c75d0b11881a30a5b4eea4ec4e2fd267e1455d992e6c6578706572696d656e74616cf50037",
  "source": "pragma solidity 0.5.7;\npragma experimental ABIEncoderV2;\n\nimport { IERC20 } from \"openzeppelin-solidity/contracts/token/ERC20/IERC20.sol\";\n\nimport { IGovernance } from \"./interface/IGovernance.sol\";\nimport { IRegistry } from \"./interface/IRegistry.sol\";\nimport { IUniswapExchange } from \"./interface/IUniswapExchange.sol\";\n\nimport { HumanityApplicant } from \"./HumanityApplicant.sol\";\n\n/**\n * @title PayableHumanityApplicant\n * @dev Convenient interface for applying to the Humanity registry using Ether.\n */\ncontract PayableHumanityApplicant is HumanityApplicant {\n\n    IUniswapExchange public exchange;\n\n    constructor(IGovernance _governance, IRegistry _registry, IERC20 _humanity, IUniswapExchange _exchange) public\n        HumanityApplicant(_governance, _registry, _humanity)\n    {\n        exchange = _exchange;\n    }\n\n    function () external payable {}\n\n    function applyWithEtherFor(address who) public payable returns (uint) {\n        // Exchange Ether for Humanity tokens\n        uint fee = governance.proposalFee();\n        exchange.ethToTokenSwapOutput.value(msg.value)(fee, block.timestamp);\n\n        // Apply to the registry\n        uint proposalId = applyFor(who);\n\n        // Refund any remaining balance\n        msg.sender.send(address(this).balance);\n\n        return proposalId;\n    }\n\n}\n",
  "sourcePath": "/Users/jaywelsh/GitHub/society0x/ethereum/contracts/PayableHumanityApplicant.sol",
  "compiler": {
    "name": "solc",
    "version": "0.5.7+commit.6da8b019.Emscripten.clang"
  },
  "schemaVersion": "3.0.9",
  "updatedAt": "2019-06-01T13:06:25.389Z",
  "devdoc": {
    "details": "Convenient interface for applying to the Humanity registry using Ether.",
    "methods": {},
    "title": "PayableHumanityApplicant"
  },
  "userdoc": {
    "methods": {}
  }
}