{
  "contractName": "Rapport",
  "abi": [
    {
      "constant": true,
      "inputs": [],
      "name": "name",
      "outputs": [
        {
          "name": "",
          "type": "string"
        }
      ],
      "payable": false,
      "stateMutability": "view",
      "type": "function"
    },
    {
      "constant": false,
      "inputs": [
        {
          "name": "spender",
          "type": "address"
        },
        {
          "name": "value",
          "type": "uint256"
        }
      ],
      "name": "approve",
      "outputs": [
        {
          "name": "",
          "type": "bool"
        }
      ],
      "payable": false,
      "stateMutability": "nonpayable",
      "type": "function"
    },
    {
      "constant": true,
      "inputs": [],
      "name": "totalSupply",
      "outputs": [
        {
          "name": "",
          "type": "uint256"
        }
      ],
      "payable": false,
      "stateMutability": "view",
      "type": "function"
    },
    {
      "constant": false,
      "inputs": [
        {
          "name": "sender",
          "type": "address"
        },
        {
          "name": "recipient",
          "type": "address"
        },
        {
          "name": "amount",
          "type": "uint256"
        }
      ],
      "name": "transferFrom",
      "outputs": [
        {
          "name": "",
          "type": "bool"
        }
      ],
      "payable": false,
      "stateMutability": "nonpayable",
      "type": "function"
    },
    {
      "constant": true,
      "inputs": [],
      "name": "INITIAL_SUPPLY",
      "outputs": [
        {
          "name": "",
          "type": "uint256"
        }
      ],
      "payable": false,
      "stateMutability": "view",
      "type": "function"
    },
    {
      "constant": true,
      "inputs": [],
      "name": "decimals",
      "outputs": [
        {
          "name": "",
          "type": "uint8"
        }
      ],
      "payable": false,
      "stateMutability": "view",
      "type": "function"
    },
    {
      "constant": false,
      "inputs": [
        {
          "name": "spender",
          "type": "address"
        },
        {
          "name": "addedValue",
          "type": "uint256"
        }
      ],
      "name": "increaseAllowance",
      "outputs": [
        {
          "name": "",
          "type": "bool"
        }
      ],
      "payable": false,
      "stateMutability": "nonpayable",
      "type": "function"
    },
    {
      "constant": true,
      "inputs": [],
      "name": "FINAL_SUPPLY",
      "outputs": [
        {
          "name": "",
          "type": "uint256"
        }
      ],
      "payable": false,
      "stateMutability": "view",
      "type": "function"
    },
    {
      "constant": true,
      "inputs": [],
      "name": "version",
      "outputs": [
        {
          "name": "",
          "type": "string"
        }
      ],
      "payable": false,
      "stateMutability": "view",
      "type": "function"
    },
    {
      "constant": true,
      "inputs": [
        {
          "name": "owner",
          "type": "address"
        }
      ],
      "name": "governance",
      "outputs": [
        {
          "name": "",
          "type": "address"
        }
      ],
      "payable": false,
      "stateMutability": "view",
      "type": "function"
    },
    {
      "constant": true,
      "inputs": [],
      "name": "taxCommunityPool",
      "outputs": [
        {
          "name": "",
          "type": "address"
        }
      ],
      "payable": false,
      "stateMutability": "view",
      "type": "function"
    },
    {
      "constant": true,
      "inputs": [
        {
          "name": "account",
          "type": "address"
        }
      ],
      "name": "balanceOf",
      "outputs": [
        {
          "name": "",
          "type": "uint256"
        }
      ],
      "payable": false,
      "stateMutability": "view",
      "type": "function"
    },
    {
      "constant": true,
      "inputs": [
        {
          "name": "spender",
          "type": "address"
        },
        {
          "name": "subtractedValue",
          "type": "uint256"
        }
      ],
      "name": "taxDevelopmentPool",
      "outputs": [
        {
          "name": "",
          "type": "address"
        }
      ],
      "payable": false,
      "stateMutability": "view",
      "type": "function"
    },
    {
      "constant": true,
      "inputs": [
        {
          "name": "to",
          "type": "address"
        },
        {
          "name": "value",
          "type": "uint256"
        }
      ],
      "name": "registry",
      "outputs": [
        {
          "name": "",
          "type": "address"
        }
      ],
      "payable": false,
      "stateMutability": "view",
      "type": "function"
    },
    {
      "constant": true,
      "inputs": [
        {
          "name": "owner",
          "type": "address"
        },
        {
          "name": "spender",
          "type": "address"
        }
      ],
      "name": "symbol",
      "outputs": [
        {
          "name": "",
          "type": "string"
        }
      ],
      "payable": false,
      "stateMutability": "view",
      "type": "function"
    },
    {
      "inputs": [
        {
          "name": "spender",
          "type": "address"
        },
        {
          "name": "subtractedValue",
          "type": "uint256"
        }
      ],
      "payable": false,
      "stateMutability": "nonpayable",
      "type": "function",
      "constant": false,
      "name": "decreaseAllowance",
      "outputs": [
        {
          "name": "",
          "type": "bool"
        }
      ]
    },
    {
      "anonymous": false,
      "inputs": [
        {
          "indexed": true,
          "name": "recipient",
          "type": "address"
        },
        {
          "indexed": true,
          "name": "amount",
          "type": "uint256"
        },
        {
          "indexed": false,
          "name": "value",
          "type": "uint256"
        }
      ],
      "name": "transfer",
      "type": "function",
      "constant": false,
      "outputs": [
        {
          "name": "",
          "type": "bool"
        }
      ],
      "payable": false,
      "stateMutability": "nonpayable"
    },
    {
      "anonymous": false,
      "inputs": [
        {
          "indexed": true,
          "name": "owner",
          "type": "address"
        },
        {
          "indexed": true,
          "name": "spender",
          "type": "address"
        },
        {
          "indexed": false,
          "name": "value",
          "type": "uint256"
        }
      ],
      "name": "taxRatePercent",
      "type": "function",
      "constant": true,
      "outputs": [
        {
          "name": "",
          "type": "uint8"
        }
      ],
      "payable": false,
      "stateMutability": "view"
    },
    {
      "constant": true,
      "inputs": [
        {
          "name": "owner",
          "type": "address"
        },
        {
          "name": "spender",
          "type": "address"
        }
      ],
      "name": "allowance",
      "outputs": [
        {
          "name": "",
          "type": "uint256"
        }
      ],
      "payable": false,
      "stateMutability": "view",
      "type": "function"
    },
    {
      "inputs": [
        {
          "name": "_registry",
          "type": "address"
        },
        {
          "name": "_governance",
          "type": "address"
        },
        {
          "name": "_taxRatePercent",
          "type": "uint8"
        },
        {
          "name": "_taxCommunityPool",
          "type": "address"
        },
        {
          "name": "_taxDevelopmentPool",
          "type": "address"
        }
      ],
      "payable": false,
      "stateMutability": "nonpayable",
      "type": "constructor"
    },
    {
      "anonymous": false,
      "inputs": [
        {
          "indexed": true,
          "name": "from",
          "type": "address"
        },
        {
          "indexed": true,
          "name": "to",
          "type": "address"
        },
        {
          "indexed": false,
          "name": "value",
          "type": "uint256"
        }
      ],
      "name": "Transfer",
      "type": "event"
    },
    {
      "anonymous": false,
      "inputs": [
        {
          "indexed": true,
          "name": "owner",
          "type": "address"
        },
        {
          "indexed": true,
          "name": "spender",
          "type": "address"
        },
        {
          "indexed": false,
          "name": "value",
          "type": "uint256"
        }
      ],
      "name": "Approval",
      "type": "event"
    },
    {
      "constant": false,
      "inputs": [
        {
          "name": "sender",
          "type": "address",
          "indexed": true
        },
        {
          "name": "taxAmount",
          "type": "uint256",
          "indexed": false
        }
      ],
      "name": "Tax",
      "outputs": [],
      "payable": false,
      "stateMutability": "nonpayable",
      "type": "event",
      "anonymous": false
    },
    {
      "constant": false,
      "inputs": [
        {
          "name": "account",
          "type": "address"
        },
        {
          "name": "value",
          "type": "uint256"
        }
      ],
      "name": "mint",
      "outputs": [],
      "payable": false,
      "stateMutability": "nonpayable",
      "type": "function"
    },
    {
      "constant": false,
      "inputs": [
        {
          "name": "_taxRatePercent",
          "type": "uint8"
        }
      ],
      "name": "setTaxRate",
      "outputs": [],
      "payable": false,
      "stateMutability": "nonpayable",
      "type": "function"
    },
    {
      "constant": false,
      "inputs": [
        {
          "name": "_taxCommunityPool",
          "type": "address"
        }
      ],
      "name": "setTaxCommunityPool",
      "outputs": [],
      "payable": false,
      "stateMutability": "nonpayable",
      "type": "function"
    },
    {
      "constant": false,
      "inputs": [
        {
          "name": "_taxDevelopmentPool",
          "type": "address"
        }
      ],
      "name": "setTaxDevelopmentPool",
      "outputs": [],
      "payable": false,
      "stateMutability": "nonpayable",
      "type": "function"
    }
  ],
  "bytecode": "0x60806040526040518060400160405280600581526020017f302e302e310000000000000000000000000000000000000000000000000000008152506006908051906020019062000051929190620004bd565b503480156200005f57600080fd5b5060405160a080620026be833981018060405262000081919081019062000598565b8383838383600360006101000a81548173ffffffffffffffffffffffffffffffffffffffff021916908373ffffffffffffffffffffffffffffffffffffffff16021790555082600560146101000a81548160ff021916908360ff16021790555081600460006101000a81548173ffffffffffffffffffffffffffffffffffffffff021916908373ffffffffffffffffffffffffffffffffffffffff16021790555080600560006101000a81548173ffffffffffffffffffffffffffffffffffffffff021916908373ffffffffffffffffffffffffffffffffffffffff1602179055505050505084600760006101000a81548173ffffffffffffffffffffffffffffffffffffffff021916908373ffffffffffffffffffffffffffffffffffffffff16021790555083600860006101000a81548173ffffffffffffffffffffffffffffffffffffffff021916908373ffffffffffffffffffffffffffffffffffffffff16021790555082600860146101000a81548160ff021916908360ff16021790555081600960006101000a81548173ffffffffffffffffffffffffffffffffffffffff021916908373ffffffffffffffffffffffffffffffffffffffff16021790555080600a60006101000a81548173ffffffffffffffffffffffffffffffffffffffff021916908373ffffffffffffffffffffffffffffffffffffffff160217905550620002ad336b0cecb8f27f4200f3a0000000620002b8640100000000026401000000009004565b50505050506200076c565b600073ffffffffffffffffffffffffffffffffffffffff168273ffffffffffffffffffffffffffffffffffffffff1614156200032b576040517f08c379a00000000000000000000000000000000000000000000000000000000081526004016200032290620006d1565b60405180910390fd5b62000350816002546200046564010000000002620012f3179091906401000000009004565b600281905550620003b7816000808573ffffffffffffffffffffffffffffffffffffffff1673ffffffffffffffffffffffffffffffffffffffff168152602001908152602001600020546200046564010000000002620012f3179091906401000000009004565b6000808473ffffffffffffffffffffffffffffffffffffffff1673ffffffffffffffffffffffffffffffffffffffff168152602001908152602001600020819055508173ffffffffffffffffffffffffffffffffffffffff16600073ffffffffffffffffffffffffffffffffffffffff167fddf252ad1be2c89b69c2b068fc378daa952ba7f163c4a11628f55a4df523b3ef83604051620004599190620006f3565b60405180910390a35050565b600080828401905083811015620004b3576040517f08c379a0000000000000000000000000000000000000000000000000000000008152600401620004aa90620006af565b60405180910390fd5b8091505092915050565b828054600181600116156101000203166002900490600052602060002090601f016020900481019282601f106200050057805160ff191683800117855562000531565b8280016001018555821562000531579182015b828111156200053057825182559160200191906001019062000513565b5b50905062000540919062000544565b5090565b6200056991905b80821115620005655760008160009055506001016200054b565b5090565b90565b60006200057a82516200072b565b905092915050565b60006200059082516200075f565b905092915050565b600080600080600060a08688031215620005b157600080fd5b6000620005c1888289016200056c565b9550506020620005d4888289016200056c565b9450506040620005e78882890162000582565b9350506060620005fa888289016200056c565b92505060806200060d888289016200056c565b9150509295509295909350565b600062000629601f8362000710565b91507f536166654d6174683a3a6164643a20496e7465676572206f766572666c6f77006000830152602082019050919050565b60006200066b601f8362000710565b91507f45524332303a206d696e7420746f20746865207a65726f2061646472657373006000830152602082019050919050565b620006a98162000721565b82525050565b60006020820190508181036000830152620006ca816200061a565b9050919050565b60006020820190508181036000830152620006ec816200065c565b9050919050565b60006020820190506200070a60008301846200069e565b92915050565b600082825260208201905092915050565b6000819050919050565b600062000738826200073f565b9050919050565b600073ffffffffffffffffffffffffffffffffffffffff82169050919050565b600060ff82169050919050565b611f42806200077c6000396000f3fe608060405234801561001057600080fd5b506004361061016a576000357c0100000000000000000000000000000000000000000000000000000000900480635aa6e675116100e057806395d89b411161009957806395d89b41146103af578063a457c2d7146103cd578063a9059cbb146103fd578063b7220fc01461042d578063dd62ed3e1461044b578063ec667b2a1461047b5761016a565b80635aa6e675146102eb5780636c3d00ff146103095780636c791e041461032757806370a08231146103435780637811c819146103735780637b103999146103915761016a565b8063313ce56711610132578063313ce56714610229578063395093511461024757806339605da2146102775780633f12d2621461029557806340c10f19146102b157806354fd4d50146102cd5761016a565b806306fdde031461016f578063095ea7b31461018d57806318160ddd146101bd57806323b872dd146101db5780632ff2e9dc1461020b575b600080fd5b610177610497565b6040516101849190611bf2565b60405180910390f35b6101a760048036036101a291908101906115c0565b6104d0565b6040516101b49190611bd7565b60405180910390f35b6101c56104e7565b6040516101d29190611dd4565b60405180910390f35b6101f560048036036101f09190810190611571565b6104f1565b6040516102029190611bd7565b60405180910390f35b6102136105b0565b6040516102209190611dd4565b60405180910390f35b6102316105c0565b60405161023e9190611def565b60405180910390f35b610261600480360361025c91908101906115c0565b6105c5565b60405161026e9190611bd7565b60405180910390f35b61027f61066a565b60405161028c9190611dd4565b60405180910390f35b6102af60048036036102aa919081019061150c565b61067c565b005b6102cb60048036036102c691908101906115c0565b610750565b005b6102d5610858565b6040516102e29190611bf2565b60405180910390f35b6102f36108f6565b6040516103009190611bbc565b60405180910390f35b61031161091c565b60405161031e9190611bbc565b60405180910390f35b610341600480360361033c91908101906115fc565b610942565b005b61035d6004803603610358919081019061150c565b6109f0565b60405161036a9190611dd4565b60405180910390f35b61037b610a38565b6040516103889190611bbc565b60405180910390f35b610399610a5e565b6040516103a69190611bbc565b60405180910390f35b6103b7610a84565b6040516103c49190611bf2565b60405180910390f35b6103e760048036036103e291908101906115c0565b610abd565b6040516103f49190611bd7565b60405180910390f35b610417600480360361041291908101906115c0565b610b62565b6040516104249190611bd7565b60405180910390f35b610435610b87565b6040516104429190611def565b60405180910390f35b61046560048036036104609190810190611535565b610b9a565b6040516104729190611dd4565b60405180910390f35b6104956004803603610490919081019061150c565b610c21565b005b6040518060400160405280600781526020017f526170706f72740000000000000000000000000000000000000000000000000081525081565b60006104dd338484610cf5565b6001905092915050565b6000600254905090565b6000806104fe8584610ec0565b905061050b85858361102d565b6105a4853361059f86600160008b73ffffffffffffffffffffffffffffffffffffffff1673ffffffffffffffffffffffffffffffffffffffff16815260200190815260200160002060003373ffffffffffffffffffffffffffffffffffffffff1673ffffffffffffffffffffffffffffffffffffffff1681526020019081526020016000205461129d90919063ffffffff16565b610cf5565b60019150509392505050565b6b0cecb8f27f4200f3a000000081565b601281565b6000610660338461065b85600160003373ffffffffffffffffffffffffffffffffffffffff1673ffffffffffffffffffffffffffffffffffffffff16815260200190815260200160002060008973ffffffffffffffffffffffffffffffffffffffff1673ffffffffffffffffffffffffffffffffffffffff168152602001908152602001600020546112f390919063ffffffff16565b610cf5565b6001905092915050565b6d13b8b5b5056e16b3be040000000081565b600860009054906101000a900473ffffffffffffffffffffffffffffffffffffffff1673ffffffffffffffffffffffffffffffffffffffff163373ffffffffffffffffffffffffffffffffffffffff161461070c576040517f08c379a000000000000000000000000000000000000000000000000000000000815260040161070390611c74565b60405180910390fd5b80600960006101000a81548173ffffffffffffffffffffffffffffffffffffffff021916908373ffffffffffffffffffffffffffffffffffffffff16021790555050565b600760009054906101000a900473ffffffffffffffffffffffffffffffffffffffff1673ffffffffffffffffffffffffffffffffffffffff163373ffffffffffffffffffffffffffffffffffffffff16146107e0576040517f08c379a00000000000000000000000000000000000000000000000000000000081526004016107d790611cb4565b60405180910390fd5b6d13b8b5b5056e16b3be0400000000610809826107fb6104e7565b6112f390919063ffffffff16565b111561084a576040517f08c379a000000000000000000000000000000000000000000000000000000000815260040161084190611d54565b60405180910390fd5b6108548282611348565b5050565b60068054600181600116156101000203166002900480601f0160208091040260200160405190810160405280929190818152602001828054600181600116156101000203166002900480156108ee5780601f106108c3576101008083540402835291602001916108ee565b820191906000526020600020905b8154815290600101906020018083116108d157829003601f168201915b505050505081565b600860009054906101000a900473ffffffffffffffffffffffffffffffffffffffff1681565b600960009054906101000a900473ffffffffffffffffffffffffffffffffffffffff1681565b600860009054906101000a900473ffffffffffffffffffffffffffffffffffffffff1673ffffffffffffffffffffffffffffffffffffffff163373ffffffffffffffffffffffffffffffffffffffff16146109d2576040517f08c379a00000000000000000000000000000000000000000000000000000000081526004016109c990611d74565b60405180910390fd5b80600860146101000a81548160ff021916908360ff16021790555050565b60008060008373ffffffffffffffffffffffffffffffffffffffff1673ffffffffffffffffffffffffffffffffffffffff168152602001908152602001600020549050919050565b600a60009054906101000a900473ffffffffffffffffffffffffffffffffffffffff1681565b600760009054906101000a900473ffffffffffffffffffffffffffffffffffffffff1681565b6040518060400160405280600381526020017f524150000000000000000000000000000000000000000000000000000000000081525081565b6000610b583384610b5385600160003373ffffffffffffffffffffffffffffffffffffffff1673ffffffffffffffffffffffffffffffffffffffff16815260200190815260200160002060008973ffffffffffffffffffffffffffffffffffffffff1673ffffffffffffffffffffffffffffffffffffffff1681526020019081526020016000205461129d90919063ffffffff16565b610cf5565b6001905092915050565b600080610b6f3384610ec0565b9050610b7c33858361102d565b600191505092915050565b600860149054906101000a900460ff1681565b6000600160008473ffffffffffffffffffffffffffffffffffffffff1673ffffffffffffffffffffffffffffffffffffffff16815260200190815260200160002060008373ffffffffffffffffffffffffffffffffffffffff1673ffffffffffffffffffffffffffffffffffffffff16815260200190815260200160002054905092915050565b600860009054906101000a900473ffffffffffffffffffffffffffffffffffffffff1673ffffffffffffffffffffffffffffffffffffffff163373ffffffffffffffffffffffffffffffffffffffff1614610cb1576040517f08c379a0000000000000000000000000000000000000000000000000000000008152600401610ca890611cd4565b60405180910390fd5b80600a60006101000a81548173ffffffffffffffffffffffffffffffffffffffff021916908373ffffffffffffffffffffffffffffffffffffffff16021790555050565b600073ffffffffffffffffffffffffffffffffffffffff168373ffffffffffffffffffffffffffffffffffffffff161415610d65576040517f08c379a0000000000000000000000000000000000000000000000000000000008152600401610d5c90611d34565b60405180910390fd5b600073ffffffffffffffffffffffffffffffffffffffff168273ffffffffffffffffffffffffffffffffffffffff161415610dd5576040517f08c379a0000000000000000000000000000000000000000000000000000000008152600401610dcc90611c34565b60405180910390fd5b80600160008573ffffffffffffffffffffffffffffffffffffffff1673ffffffffffffffffffffffffffffffffffffffff16815260200190815260200160002060008473ffffffffffffffffffffffffffffffffffffffff1673ffffffffffffffffffffffffffffffffffffffff168152602001908152602001600020819055508173ffffffffffffffffffffffffffffffffffffffff168373ffffffffffffffffffffffffffffffffffffffff167f8c5be1e5ebec7d5bd14f71427d1e84f3dd0314c0f7b2291e5b200ac8c7c3b92583604051610eb39190611dd4565b60405180910390a3505050565b60008060c8600560149054906101000a900460ff1660ff16840281610ee157fe5b04905060008111610f27576040517f08c379a0000000000000000000000000000000000000000000000000000000008152600401610f1e90611db4565b60405180910390fd5b60006002820290506000818503905060008111610f79576040517f08c379a0000000000000000000000000000000000000000000000000000000008152600401610f7090611c94565b60405180910390fd5b610fa686600460009054906101000a900473ffffffffffffffffffffffffffffffffffffffff168561102d565b610fd386600560009054906101000a900473ffffffffffffffffffffffffffffffffffffffff168561102d565b8573ffffffffffffffffffffffffffffffffffffffff167f800f0710d5627fe1155e84a30f52e968a8b0df991b6f2538e4ab459786289a32836040516110199190611dd4565b60405180910390a280935050505092915050565b600073ffffffffffffffffffffffffffffffffffffffff168373ffffffffffffffffffffffffffffffffffffffff16141561109d576040517f08c379a000000000000000000000000000000000000000000000000000000000815260040161109490611d14565b60405180910390fd5b600073ffffffffffffffffffffffffffffffffffffffff168273ffffffffffffffffffffffffffffffffffffffff16141561110d576040517f08c379a000000000000000000000000000000000000000000000000000000000815260040161110490611c14565b60405180910390fd5b61115e816000808673ffffffffffffffffffffffffffffffffffffffff1673ffffffffffffffffffffffffffffffffffffffff1681526020019081526020016000205461129d90919063ffffffff16565b6000808573ffffffffffffffffffffffffffffffffffffffff1673ffffffffffffffffffffffffffffffffffffffff168152602001908152602001600020819055506111f1816000808573ffffffffffffffffffffffffffffffffffffffff1673ffffffffffffffffffffffffffffffffffffffff168152602001908152602001600020546112f390919063ffffffff16565b6000808473ffffffffffffffffffffffffffffffffffffffff1673ffffffffffffffffffffffffffffffffffffffff168152602001908152602001600020819055508173ffffffffffffffffffffffffffffffffffffffff168373ffffffffffffffffffffffffffffffffffffffff167fddf252ad1be2c89b69c2b068fc378daa952ba7f163c4a11628f55a4df523b3ef836040516112909190611dd4565b60405180910390a3505050565b6000828211156112e2576040517f08c379a00000000000000000000000000000000000000000000000000000000081526004016112d990611c54565b60405180910390fd5b600082840390508091505092915050565b60008082840190508381101561133e576040517f08c379a000000000000000000000000000000000000000000000000000000000815260040161133590611cf4565b60405180910390fd5b8091505092915050565b600073ffffffffffffffffffffffffffffffffffffffff168273ffffffffffffffffffffffffffffffffffffffff1614156113b8576040517f08c379a00000000000000000000000000000000000000000000000000000000081526004016113af90611d94565b60405180910390fd5b6113cd816002546112f390919063ffffffff16565b600281905550611424816000808573ffffffffffffffffffffffffffffffffffffffff1673ffffffffffffffffffffffffffffffffffffffff168152602001908152602001600020546112f390919063ffffffff16565b6000808473ffffffffffffffffffffffffffffffffffffffff1673ffffffffffffffffffffffffffffffffffffffff168152602001908152602001600020819055508173ffffffffffffffffffffffffffffffffffffffff16600073ffffffffffffffffffffffffffffffffffffffff167fddf252ad1be2c89b69c2b068fc378daa952ba7f163c4a11628f55a4df523b3ef836040516114c49190611dd4565b60405180910390a35050565b60006114dc8235611e7b565b905092915050565b60006114f08235611ead565b905092915050565b60006115048235611eb7565b905092915050565b60006020828403121561151e57600080fd5b600061152c848285016114d0565b91505092915050565b6000806040838503121561154857600080fd5b6000611556858286016114d0565b9250506020611567858286016114d0565b9150509250929050565b60008060006060848603121561158657600080fd5b6000611594868287016114d0565b93505060206115a5868287016114d0565b92505060406115b6868287016114e4565b9150509250925092565b600080604083850312156115d357600080fd5b60006115e1858286016114d0565b92505060206115f2858286016114e4565b9150509250929050565b60006020828403121561160e57600080fd5b600061161c848285016114f8565b91505092915050565b61162e81611e26565b82525050565b61163d81611e38565b82525050565b600061164e82611e0a565b6116588185611e15565b9350611668818560208601611ec4565b61167181611ef7565b840191505092915050565b6000611689602383611e15565b91507f45524332303a207472616e7366657220746f20746865207a65726f206164647260008301527f65737300000000000000000000000000000000000000000000000000000000006020830152604082019050919050565b60006116ef602283611e15565b91507f45524332303a20617070726f766520746f20746865207a65726f20616464726560008301527f73730000000000000000000000000000000000000000000000000000000000006020830152604082019050919050565b6000611755602083611e15565b91507f536166654d6174683a3a7375623a20496e746567657220756e646572666c6f776000830152602082019050919050565b6000611795605a83611e15565b91507f476f7665726e616e63653a3a736574546178436f6d6d756e697479506f6f6c3a60008301527f20436f6d6d756e6974792074617820706f6f6c20616464726573732063616e2060208301527f6f6e6c79206265207365742076696120676f7665726e616e63650000000000006040830152606082019050919050565b6000611821601b83611e15565b91507f5f7461783a20706f696e746c657373207472616e73616374696f6e00000000006000830152602082019050919050565b6000611861603483611e15565b91507f526170706f72743a3a6d696e743a204f6e6c792074686520726567697374727960008301527f2063616e206d696e74206e657720746f6b656e730000000000000000000000006020830152604082019050919050565b60006118c7605683611e15565b91507f476f7665726e616e63653a3a736574546178446576656c6f706d656e74506f6f60008301527f6c3a20446576656c6f706d656e742074617820706f6f6c2063616e206f6e6c7960208301527f206265207365742076696120676f7665726e616e6365000000000000000000006040830152606082019050919050565b6000611953601f83611e15565b91507f536166654d6174683a3a6164643a20496e7465676572206f766572666c6f77006000830152602082019050919050565b6000611993602583611e15565b91507f45524332303a207472616e736665722066726f6d20746865207a65726f20616460008301527f64726573730000000000000000000000000000000000000000000000000000006020830152604082019050919050565b60006119f9602483611e15565b91507f45524332303a20617070726f76652066726f6d20746865207a65726f2061646460008301527f72657373000000000000000000000000000000000000000000000000000000006020830152604082019050919050565b6000611a5f602383611e15565b91507f526170706f72743a3a6d696e743a20457863656564732066696e616c2073757060008301527f706c7900000000000000000000000000000000000000000000000000000000006020830152604082019050919050565b6000611ac5603f83611e15565b91507f476f7665726e616e63653a3a736574546178526174653a20546178207261746560008301527f2063616e206f6e6c79206265207365742076696120676f7665726e616e6365006020830152604082019050919050565b6000611b2b601f83611e15565b91507f45524332303a206d696e7420746f20746865207a65726f2061646472657373006000830152602082019050919050565b6000611b6b600d83611e15565b91507f5f7461783a2061766572746564000000000000000000000000000000000000006000830152602082019050919050565b611ba781611e64565b82525050565b611bb681611e6e565b82525050565b6000602082019050611bd16000830184611625565b92915050565b6000602082019050611bec6000830184611634565b92915050565b60006020820190508181036000830152611c0c8184611643565b905092915050565b60006020820190508181036000830152611c2d8161167c565b9050919050565b60006020820190508181036000830152611c4d816116e2565b9050919050565b60006020820190508181036000830152611c6d81611748565b9050919050565b60006020820190508181036000830152611c8d81611788565b9050919050565b60006020820190508181036000830152611cad81611814565b9050919050565b60006020820190508181036000830152611ccd81611854565b9050919050565b60006020820190508181036000830152611ced816118ba565b9050919050565b60006020820190508181036000830152611d0d81611946565b9050919050565b60006020820190508181036000830152611d2d81611986565b9050919050565b60006020820190508181036000830152611d4d816119ec565b9050919050565b60006020820190508181036000830152611d6d81611a52565b9050919050565b60006020820190508181036000830152611d8d81611ab8565b9050919050565b60006020820190508181036000830152611dad81611b1e565b9050919050565b60006020820190508181036000830152611dcd81611b5e565b9050919050565b6000602082019050611de96000830184611b9e565b92915050565b6000602082019050611e046000830184611bad565b92915050565b600081519050919050565b600082825260208201905092915050565b6000611e3182611e44565b9050919050565b60008115159050919050565b600073ffffffffffffffffffffffffffffffffffffffff82169050919050565b6000819050919050565b600060ff82169050919050565b6000611e8682611e8d565b9050919050565b600073ffffffffffffffffffffffffffffffffffffffff82169050919050565b6000819050919050565b600060ff82169050919050565b60005b83811015611ee2578082015181840152602081019050611ec7565b83811115611ef1576000848401525b50505050565b6000601f19601f830116905091905056fea265627a7a72305820f15ef441a049090eee01f16290b38144702d3978680665a388d06d447a1fee536c6578706572696d656e74616cf50037",
  "source": "pragma solidity 0.5.7;\npragma experimental ABIEncoderV2;\n\nimport { ERC20Taxable } from \"./ERC20.sol\";\n\n\n/**\n * @title Rapport\n * @dev ERC20Taxable token that can be used to vote on applications to the society0x registry.\n */\ncontract Rapport is ERC20Taxable {\n\n    string public constant name = \"Rapport\";\n    string public constant symbol = \"RAP\";\n    uint8 public constant decimals = 18;\n    string public version = \"0.0.1\";\n\n    uint public constant INITIAL_SUPPLY = 4000000000e18; // 4 billion\n    uint public constant FINAL_SUPPLY = 400000000000000e18; // 400 trillion\n\n    address public registry;\n    address public governance;\n    uint8 public taxRatePercent;\n    address public taxCommunityPool;\n    address public taxDevelopmentPool;\n\n    constructor(address _registry, address _governance, uint8 _taxRatePercent, address _taxCommunityPool, address _taxDevelopmentPool) public ERC20Taxable(_governance, _taxRatePercent, _taxCommunityPool, _taxDevelopmentPool) {\n        registry = _registry;\n        governance = _governance;\n        taxRatePercent = _taxRatePercent;\n        taxCommunityPool = _taxCommunityPool;\n        taxDevelopmentPool = _taxDevelopmentPool;\n        _mint(msg.sender, INITIAL_SUPPLY);\n    }\n\n    function mint(address account, uint256 value) public {\n        require(msg.sender == registry, \"Rapport::mint: Only the registry can mint new tokens\");\n        require(totalSupply().add(value) <= FINAL_SUPPLY, \"Rapport::mint: Exceeds final supply\");\n\n        _mint(account, value);\n    }\n\n    function setTaxRate(uint8 _taxRatePercent) public {\n        require(msg.sender == governance, \"Governance::setTaxRate: Tax rate can only be set via governance\");\n        taxRatePercent = _taxRatePercent;\n    }\n\n    function setTaxCommunityPool(address _taxCommunityPool) public {\n        require(msg.sender == governance, \"Governance::setTaxCommunityPool: Community tax pool address can only be set via governance\");\n        taxCommunityPool = _taxCommunityPool;\n    }\n\n    function setTaxDevelopmentPool(address _taxDevelopmentPool) public {\n        require(msg.sender == governance, \"Governance::setTaxDevelopmentPool: Development tax pool can only be set via governance\");\n        taxDevelopmentPool = _taxDevelopmentPool;\n    }\n\n}\n",
  "sourcePath": "/Users/jaywelsh/GitHub/society0x/ethereum/contracts/Rapport.sol",
  "compiler": {
    "name": "solc",
    "version": "0.5.7+commit.6da8b019.Emscripten.clang"
  },
  "schemaVersion": "3.0.9",
  "updatedAt": "2019-06-22T11:44:29.842Z",
  "devdoc": {
    "details": "ERC20Taxable token that can be used to vote on applications to the society0x registry.",
    "methods": {
      "allowance(address,address)": {
        "details": "See `IERC20.allowance`.",
        "params": {
          "owner": "address The address which owns the funds.",
          "spender": "address The address which will spend the funds."
        },
        "return": "A uint256 specifying the amount of tokens still available for the spender."
      },
      "approve(address,uint256)": {
        "details": "See `IERC20.approve`.     * Requirements:     * - `spender` cannot be the zero address.",
        "params": {
          "spender": "The address which will spend the funds.",
          "value": "The amount of tokens to be spent."
        }
      },
      "balanceOf(address)": {
        "details": "See `IERC20.balanceOf`.",
        "params": {
          "owner": "The address to query the balance of."
        },
        "return": "An uint256 representing the amount owned by the passed address."
      },
      "decreaseAllowance(address,uint256)": {
        "details": "Atomically decreases the allowance granted to `spender` by the caller.     * This is an alternative to `approve` that can be used as a mitigation for problems described in `IERC20.approve`.     * Emits an `Approval` event indicating the updated allowance.     * Requirements:     * - `spender` cannot be the zero address. - `spender` must have allowance for the caller of at least `subtractedValue`.",
        "params": {
          "spender": "The address which will spend the funds.",
          "subtractedValue": "The amount of tokens to decrease the allowance by."
        }
      },
      "increaseAllowance(address,uint256)": {
        "details": "Atomically increases the allowance granted to `spender` by the caller.     * This is an alternative to `approve` that can be used as a mitigation for problems described in `IERC20.approve`.     * Emits an `Approval` event indicating the updated allowance.     * Requirements:     * - `spender` cannot be the zero address.",
        "params": {
          "addedValue": "The amount of tokens to increase the allowance by.",
          "spender": "The address which will spend the funds."
        }
      },
      "totalSupply()": {
        "details": "See `IERC20.totalSupply`."
      },
      "transfer(address,uint256)": {
        "details": "See `IERC20.transfer`.     * Requirements:     * - `recipient` cannot be the zero address. - the caller must have a balance of at least `amount`.",
        "params": {
          "to": "The address to transfer to.",
          "value": "The amount to be transferred."
        }
      },
      "transferFrom(address,address,uint256)": {
        "details": "See `IERC20.transferFrom`.     * Emits an `Approval` event indicating the updated allowance. This is not required by the EIP. See the note at the beginning of `ERC20`;     * Requirements: - `sender` and `recipient` cannot be the zero address. - `sender` must have a balance of at least `value`. - the caller must have allowance for `sender`'s tokens of at least `amount`.",
        "params": {
          "from": "address The address which you want to send tokens from",
          "to": "address The address which you want to transfer to",
          "value": "uint256 the amount of tokens to be transferred"
        }
      }
    },
    "title": "Rapport"
  },
  "userdoc": {
    "methods": {}
  }
}