{
  "contractName": "Signal",
  "abi": [
    {
      "constant": true,
      "inputs": [],
      "name": "name",
      "outputs": [
        {
          "name": "",
          "type": "string"
        }
      ],
      "payable": false,
      "stateMutability": "view",
      "type": "function"
    },
    {
      "constant": false,
      "inputs": [
        {
          "name": "spender",
          "type": "address"
        },
        {
          "name": "value",
          "type": "uint256"
        }
      ],
      "name": "approve",
      "outputs": [
        {
          "name": "",
          "type": "bool"
        }
      ],
      "payable": false,
      "stateMutability": "nonpayable",
      "type": "function"
    },
    {
      "constant": true,
      "inputs": [],
      "name": "totalSupply",
      "outputs": [
        {
          "name": "",
          "type": "uint256"
        }
      ],
      "payable": false,
      "stateMutability": "view",
      "type": "function"
    },
    {
      "constant": false,
      "inputs": [
        {
          "name": "sender",
          "type": "address"
        },
        {
          "name": "recipient",
          "type": "address"
        },
        {
          "name": "amount",
          "type": "uint256"
        }
      ],
      "name": "transferFrom",
      "outputs": [
        {
          "name": "",
          "type": "bool"
        }
      ],
      "payable": false,
      "stateMutability": "nonpayable",
      "type": "function"
    },
    {
      "constant": true,
      "inputs": [],
      "name": "INITIAL_SUPPLY",
      "outputs": [
        {
          "name": "",
          "type": "uint256"
        }
      ],
      "payable": false,
      "stateMutability": "view",
      "type": "function"
    },
    {
      "constant": true,
      "inputs": [],
      "name": "decimals",
      "outputs": [
        {
          "name": "",
          "type": "uint8"
        }
      ],
      "payable": false,
      "stateMutability": "view",
      "type": "function"
    },
    {
      "constant": false,
      "inputs": [
        {
          "name": "spender",
          "type": "address"
        },
        {
          "name": "addedValue",
          "type": "uint256"
        }
      ],
      "name": "increaseAllowance",
      "outputs": [
        {
          "name": "",
          "type": "bool"
        }
      ],
      "payable": false,
      "stateMutability": "nonpayable",
      "type": "function"
    },
    {
      "constant": true,
      "inputs": [],
      "name": "FINAL_SUPPLY",
      "outputs": [
        {
          "name": "",
          "type": "uint256"
        }
      ],
      "payable": false,
      "stateMutability": "view",
      "type": "function"
    },
    {
      "constant": true,
      "inputs": [],
      "name": "version",
      "outputs": [
        {
          "name": "",
          "type": "string"
        }
      ],
      "payable": false,
      "stateMutability": "view",
      "type": "function"
    },
    {
      "constant": true,
      "inputs": [],
      "name": "governance",
      "outputs": [
        {
          "name": "",
          "type": "address"
        }
      ],
      "payable": false,
      "stateMutability": "view",
      "type": "function"
    },
    {
      "constant": true,
      "inputs": [],
      "name": "taxCommunityPool",
      "outputs": [
        {
          "name": "",
          "type": "address"
        }
      ],
      "payable": false,
      "stateMutability": "view",
      "type": "function"
    },
    {
      "constant": true,
      "inputs": [
        {
          "name": "account",
          "type": "address"
        }
      ],
      "name": "balanceOf",
      "outputs": [
        {
          "name": "",
          "type": "uint256"
        }
      ],
      "payable": false,
      "stateMutability": "view",
      "type": "function"
    },
    {
      "constant": true,
      "inputs": [],
      "name": "taxDevelopmentPool",
      "outputs": [
        {
          "name": "",
          "type": "address"
        }
      ],
      "payable": false,
      "stateMutability": "view",
      "type": "function"
    },
    {
      "constant": true,
      "inputs": [],
      "name": "registry",
      "outputs": [
        {
          "name": "",
          "type": "address"
        }
      ],
      "payable": false,
      "stateMutability": "view",
      "type": "function"
    },
    {
      "constant": true,
      "inputs": [],
      "name": "symbol",
      "outputs": [
        {
          "name": "",
          "type": "string"
        }
      ],
      "payable": false,
      "stateMutability": "view",
      "type": "function"
    },
    {
      "constant": false,
      "inputs": [
        {
          "name": "spender",
          "type": "address"
        },
        {
          "name": "subtractedValue",
          "type": "uint256"
        }
      ],
      "name": "decreaseAllowance",
      "outputs": [
        {
          "name": "",
          "type": "bool"
        }
      ],
      "payable": false,
      "stateMutability": "nonpayable",
      "type": "function"
    },
    {
      "constant": false,
      "inputs": [
        {
          "name": "recipient",
          "type": "address"
        },
        {
          "name": "amount",
          "type": "uint256"
        }
      ],
      "name": "transfer",
      "outputs": [
        {
          "name": "",
          "type": "bool"
        }
      ],
      "payable": false,
      "stateMutability": "nonpayable",
      "type": "function"
    },
    {
      "constant": true,
      "inputs": [],
      "name": "taxRatePercent",
      "outputs": [
        {
          "name": "",
          "type": "uint8"
        }
      ],
      "payable": false,
      "stateMutability": "view",
      "type": "function"
    },
    {
      "constant": true,
      "inputs": [
        {
          "name": "owner",
          "type": "address"
        },
        {
          "name": "spender",
          "type": "address"
        }
      ],
      "name": "allowance",
      "outputs": [
        {
          "name": "",
          "type": "uint256"
        }
      ],
      "payable": false,
      "stateMutability": "view",
      "type": "function"
    },
    {
      "inputs": [
        {
          "name": "_registry",
          "type": "address"
        },
        {
          "name": "_governance",
          "type": "address"
        },
        {
          "name": "_taxRatePercent",
          "type": "uint8"
        },
        {
          "name": "_taxCommunityPool",
          "type": "address"
        },
        {
          "name": "_taxDevelopmentPool",
          "type": "address"
        }
      ],
      "payable": false,
      "stateMutability": "nonpayable",
      "type": "constructor"
    },
    {
      "anonymous": false,
      "inputs": [
        {
          "indexed": true,
          "name": "from",
          "type": "address"
        },
        {
          "indexed": true,
          "name": "to",
          "type": "address"
        },
        {
          "indexed": false,
          "name": "value",
          "type": "uint256"
        }
      ],
      "name": "Transfer",
      "type": "event"
    },
    {
      "anonymous": false,
      "inputs": [
        {
          "indexed": true,
          "name": "owner",
          "type": "address"
        },
        {
          "indexed": true,
          "name": "spender",
          "type": "address"
        },
        {
          "indexed": false,
          "name": "value",
          "type": "uint256"
        }
      ],
      "name": "Approval",
      "type": "event"
    },
    {
      "anonymous": false,
      "inputs": [
        {
          "indexed": true,
          "name": "sender",
          "type": "address"
        },
        {
          "indexed": false,
          "name": "taxAmount",
          "type": "uint256"
        }
      ],
      "name": "Tax",
      "type": "event"
    },
    {
      "constant": false,
      "inputs": [
        {
          "name": "account",
          "type": "address"
        },
        {
          "name": "value",
          "type": "uint256"
        }
      ],
      "name": "mint",
      "outputs": [],
      "payable": false,
      "stateMutability": "nonpayable",
      "type": "function"
    },
    {
      "constant": false,
      "inputs": [
        {
          "name": "_taxRatePercent",
          "type": "uint8"
        }
      ],
      "name": "setTaxRate",
      "outputs": [],
      "payable": false,
      "stateMutability": "nonpayable",
      "type": "function"
    },
    {
      "constant": false,
      "inputs": [
        {
          "name": "_taxCommunityPool",
          "type": "address"
        }
      ],
      "name": "setTaxCommunityPool",
      "outputs": [],
      "payable": false,
      "stateMutability": "nonpayable",
      "type": "function"
    },
    {
      "constant": false,
      "inputs": [
        {
          "name": "_taxDevelopmentPool",
          "type": "address"
        }
      ],
      "name": "setTaxDevelopmentPool",
      "outputs": [],
      "payable": false,
      "stateMutability": "nonpayable",
      "type": "function"
    }
  ],
  "bytecode": "0x60806040526040518060400160405280600581526020017f302e302e310000000000000000000000000000000000000000000000000000008152506006908051906020019062000051929190620004bd565b503480156200005f57600080fd5b5060405160a080620026bc833981018060405262000081919081019062000598565b8383838383600360006101000a81548173ffffffffffffffffffffffffffffffffffffffff021916908373ffffffffffffffffffffffffffffffffffffffff16021790555082600560146101000a81548160ff021916908360ff16021790555081600460006101000a81548173ffffffffffffffffffffffffffffffffffffffff021916908373ffffffffffffffffffffffffffffffffffffffff16021790555080600560006101000a81548173ffffffffffffffffffffffffffffffffffffffff021916908373ffffffffffffffffffffffffffffffffffffffff1602179055505050505084600760006101000a81548173ffffffffffffffffffffffffffffffffffffffff021916908373ffffffffffffffffffffffffffffffffffffffff16021790555083600860006101000a81548173ffffffffffffffffffffffffffffffffffffffff021916908373ffffffffffffffffffffffffffffffffffffffff16021790555082600860146101000a81548160ff021916908360ff16021790555081600960006101000a81548173ffffffffffffffffffffffffffffffffffffffff021916908373ffffffffffffffffffffffffffffffffffffffff16021790555080600a60006101000a81548173ffffffffffffffffffffffffffffffffffffffff021916908373ffffffffffffffffffffffffffffffffffffffff160217905550620002ad336b033b2e3c9fd0803ce8000000620002b8640100000000026401000000009004565b50505050506200076c565b600073ffffffffffffffffffffffffffffffffffffffff168273ffffffffffffffffffffffffffffffffffffffff1614156200032b576040517f08c379a00000000000000000000000000000000000000000000000000000000081526004016200032290620006d1565b60405180910390fd5b62000350816002546200046564010000000002620012f1179091906401000000009004565b600281905550620003b7816000808573ffffffffffffffffffffffffffffffffffffffff1673ffffffffffffffffffffffffffffffffffffffff168152602001908152602001600020546200046564010000000002620012f1179091906401000000009004565b6000808473ffffffffffffffffffffffffffffffffffffffff1673ffffffffffffffffffffffffffffffffffffffff168152602001908152602001600020819055508173ffffffffffffffffffffffffffffffffffffffff16600073ffffffffffffffffffffffffffffffffffffffff167fddf252ad1be2c89b69c2b068fc378daa952ba7f163c4a11628f55a4df523b3ef83604051620004599190620006f3565b60405180910390a35050565b600080828401905083811015620004b3576040517f08c379a0000000000000000000000000000000000000000000000000000000008152600401620004aa90620006af565b60405180910390fd5b8091505092915050565b828054600181600116156101000203166002900490600052602060002090601f016020900481019282601f106200050057805160ff191683800117855562000531565b8280016001018555821562000531579182015b828111156200053057825182559160200191906001019062000513565b5b50905062000540919062000544565b5090565b6200056991905b80821115620005655760008160009055506001016200054b565b5090565b90565b60006200057a82516200072b565b905092915050565b60006200059082516200075f565b905092915050565b600080600080600060a08688031215620005b157600080fd5b6000620005c1888289016200056c565b9550506020620005d4888289016200056c565b9450506040620005e78882890162000582565b9350506060620005fa888289016200056c565b92505060806200060d888289016200056c565b9150509295509295909350565b600062000629601f8362000710565b91507f536166654d6174683a3a6164643a20496e7465676572206f766572666c6f77006000830152602082019050919050565b60006200066b601f8362000710565b91507f45524332303a206d696e7420746f20746865207a65726f2061646472657373006000830152602082019050919050565b620006a98162000721565b82525050565b60006020820190508181036000830152620006ca816200061a565b9050919050565b60006020820190508181036000830152620006ec816200065c565b9050919050565b60006020820190506200070a60008301846200069e565b92915050565b600082825260208201905092915050565b6000819050919050565b600062000738826200073f565b9050919050565b600073ffffffffffffffffffffffffffffffffffffffff82169050919050565b600060ff82169050919050565b611f40806200077c6000396000f3fe608060405234801561001057600080fd5b506004361061016a576000357c0100000000000000000000000000000000000000000000000000000000900480635aa6e675116100e057806395d89b411161009957806395d89b41146103af578063a457c2d7146103cd578063a9059cbb146103fd578063b7220fc01461042d578063dd62ed3e1461044b578063ec667b2a1461047b5761016a565b80635aa6e675146102eb5780636c3d00ff146103095780636c791e041461032757806370a08231146103435780637811c819146103735780637b103999146103915761016a565b8063313ce56711610132578063313ce56714610229578063395093511461024757806339605da2146102775780633f12d2621461029557806340c10f19146102b157806354fd4d50146102cd5761016a565b806306fdde031461016f578063095ea7b31461018d57806318160ddd146101bd57806323b872dd146101db5780632ff2e9dc1461020b575b600080fd5b610177610497565b6040516101849190611bf0565b60405180910390f35b6101a760048036036101a291908101906115be565b6104d0565b6040516101b49190611bd5565b60405180910390f35b6101c56104e7565b6040516101d29190611dd2565b60405180910390f35b6101f560048036036101f0919081019061156f565b6104f1565b6040516102029190611bd5565b60405180910390f35b6102136105b0565b6040516102209190611dd2565b60405180910390f35b6102316105c0565b60405161023e9190611ded565b60405180910390f35b610261600480360361025c91908101906115be565b6105c5565b60405161026e9190611bd5565b60405180910390f35b61027f61066a565b60405161028c9190611dd2565b60405180910390f35b6102af60048036036102aa919081019061150a565b61067b565b005b6102cb60048036036102c691908101906115be565b61074f565b005b6102d5610856565b6040516102e29190611bf0565b60405180910390f35b6102f36108f4565b6040516103009190611bba565b60405180910390f35b61031161091a565b60405161031e9190611bba565b60405180910390f35b610341600480360361033c91908101906115fa565b610940565b005b61035d6004803603610358919081019061150a565b6109ee565b60405161036a9190611dd2565b60405180910390f35b61037b610a36565b6040516103889190611bba565b60405180910390f35b610399610a5c565b6040516103a69190611bba565b60405180910390f35b6103b7610a82565b6040516103c49190611bf0565b60405180910390f35b6103e760048036036103e291908101906115be565b610abb565b6040516103f49190611bd5565b60405180910390f35b610417600480360361041291908101906115be565b610b60565b6040516104249190611bd5565b60405180910390f35b610435610b85565b6040516104429190611ded565b60405180910390f35b61046560048036036104609190810190611533565b610b98565b6040516104729190611dd2565b60405180910390f35b6104956004803603610490919081019061150a565b610c1f565b005b6040518060400160405280600681526020017f5369676e616c000000000000000000000000000000000000000000000000000081525081565b60006104dd338484610cf3565b6001905092915050565b6000600254905090565b6000806104fe8584610ebe565b905061050b85858361102b565b6105a4853361059f86600160008b73ffffffffffffffffffffffffffffffffffffffff1673ffffffffffffffffffffffffffffffffffffffff16815260200190815260200160002060003373ffffffffffffffffffffffffffffffffffffffff1673ffffffffffffffffffffffffffffffffffffffff1681526020019081526020016000205461129b90919063ffffffff16565b610cf3565b60019150509392505050565b6b033b2e3c9fd0803ce800000081565b601281565b6000610660338461065b85600160003373ffffffffffffffffffffffffffffffffffffffff1673ffffffffffffffffffffffffffffffffffffffff16815260200190815260200160002060008973ffffffffffffffffffffffffffffffffffffffff1673ffffffffffffffffffffffffffffffffffffffff168152602001908152602001600020546112f190919063ffffffff16565b610cf3565b6001905092915050565b6c01431e0fae6d7217caa000000081565b600860009054906101000a900473ffffffffffffffffffffffffffffffffffffffff1673ffffffffffffffffffffffffffffffffffffffff163373ffffffffffffffffffffffffffffffffffffffff161461070b576040517f08c379a000000000000000000000000000000000000000000000000000000000815260040161070290611c72565b60405180910390fd5b80600960006101000a81548173ffffffffffffffffffffffffffffffffffffffff021916908373ffffffffffffffffffffffffffffffffffffffff16021790555050565b600760009054906101000a900473ffffffffffffffffffffffffffffffffffffffff1673ffffffffffffffffffffffffffffffffffffffff163373ffffffffffffffffffffffffffffffffffffffff16146107df576040517f08c379a00000000000000000000000000000000000000000000000000000000081526004016107d690611cf2565b60405180910390fd5b6c01431e0fae6d7217caa0000000610807826107f96104e7565b6112f190919063ffffffff16565b1115610848576040517f08c379a000000000000000000000000000000000000000000000000000000000815260040161083f90611cd2565b60405180910390fd5b6108528282611346565b5050565b60068054600181600116156101000203166002900480601f0160208091040260200160405190810160405280929190818152602001828054600181600116156101000203166002900480156108ec5780601f106108c1576101008083540402835291602001916108ec565b820191906000526020600020905b8154815290600101906020018083116108cf57829003601f168201915b505050505081565b600860009054906101000a900473ffffffffffffffffffffffffffffffffffffffff1681565b600960009054906101000a900473ffffffffffffffffffffffffffffffffffffffff1681565b600860009054906101000a900473ffffffffffffffffffffffffffffffffffffffff1673ffffffffffffffffffffffffffffffffffffffff163373ffffffffffffffffffffffffffffffffffffffff16146109d0576040517f08c379a00000000000000000000000000000000000000000000000000000000081526004016109c790611d72565b60405180910390fd5b80600860146101000a81548160ff021916908360ff16021790555050565b60008060008373ffffffffffffffffffffffffffffffffffffffff1673ffffffffffffffffffffffffffffffffffffffff168152602001908152602001600020549050919050565b600a60009054906101000a900473ffffffffffffffffffffffffffffffffffffffff1681565b600760009054906101000a900473ffffffffffffffffffffffffffffffffffffffff1681565b6040518060400160405280600281526020017f644200000000000000000000000000000000000000000000000000000000000081525081565b6000610b563384610b5185600160003373ffffffffffffffffffffffffffffffffffffffff1673ffffffffffffffffffffffffffffffffffffffff16815260200190815260200160002060008973ffffffffffffffffffffffffffffffffffffffff1673ffffffffffffffffffffffffffffffffffffffff1681526020019081526020016000205461129b90919063ffffffff16565b610cf3565b6001905092915050565b600080610b6d3384610ebe565b9050610b7a33858361102b565b600191505092915050565b600860149054906101000a900460ff1681565b6000600160008473ffffffffffffffffffffffffffffffffffffffff1673ffffffffffffffffffffffffffffffffffffffff16815260200190815260200160002060008373ffffffffffffffffffffffffffffffffffffffff1673ffffffffffffffffffffffffffffffffffffffff16815260200190815260200160002054905092915050565b600860009054906101000a900473ffffffffffffffffffffffffffffffffffffffff1673ffffffffffffffffffffffffffffffffffffffff163373ffffffffffffffffffffffffffffffffffffffff1614610caf576040517f08c379a0000000000000000000000000000000000000000000000000000000008152600401610ca690611cb2565b60405180910390fd5b80600a60006101000a81548173ffffffffffffffffffffffffffffffffffffffff021916908373ffffffffffffffffffffffffffffffffffffffff16021790555050565b600073ffffffffffffffffffffffffffffffffffffffff168373ffffffffffffffffffffffffffffffffffffffff161415610d63576040517f08c379a0000000000000000000000000000000000000000000000000000000008152600401610d5a90611d52565b60405180910390fd5b600073ffffffffffffffffffffffffffffffffffffffff168273ffffffffffffffffffffffffffffffffffffffff161415610dd3576040517f08c379a0000000000000000000000000000000000000000000000000000000008152600401610dca90611c32565b60405180910390fd5b80600160008573ffffffffffffffffffffffffffffffffffffffff1673ffffffffffffffffffffffffffffffffffffffff16815260200190815260200160002060008473ffffffffffffffffffffffffffffffffffffffff1673ffffffffffffffffffffffffffffffffffffffff168152602001908152602001600020819055508173ffffffffffffffffffffffffffffffffffffffff168373ffffffffffffffffffffffffffffffffffffffff167f8c5be1e5ebec7d5bd14f71427d1e84f3dd0314c0f7b2291e5b200ac8c7c3b92583604051610eb19190611dd2565b60405180910390a3505050565b60008060c8600560149054906101000a900460ff1660ff16840281610edf57fe5b04905060008111610f25576040517f08c379a0000000000000000000000000000000000000000000000000000000008152600401610f1c90611db2565b60405180910390fd5b60006002820290506000818503905060008111610f77576040517f08c379a0000000000000000000000000000000000000000000000000000000008152600401610f6e90611c92565b60405180910390fd5b610fa486600460009054906101000a900473ffffffffffffffffffffffffffffffffffffffff168561102b565b610fd186600560009054906101000a900473ffffffffffffffffffffffffffffffffffffffff168561102b565b8573ffffffffffffffffffffffffffffffffffffffff167f800f0710d5627fe1155e84a30f52e968a8b0df991b6f2538e4ab459786289a32836040516110179190611dd2565b60405180910390a280935050505092915050565b600073ffffffffffffffffffffffffffffffffffffffff168373ffffffffffffffffffffffffffffffffffffffff16141561109b576040517f08c379a000000000000000000000000000000000000000000000000000000000815260040161109290611d32565b60405180910390fd5b600073ffffffffffffffffffffffffffffffffffffffff168273ffffffffffffffffffffffffffffffffffffffff16141561110b576040517f08c379a000000000000000000000000000000000000000000000000000000000815260040161110290611c12565b60405180910390fd5b61115c816000808673ffffffffffffffffffffffffffffffffffffffff1673ffffffffffffffffffffffffffffffffffffffff1681526020019081526020016000205461129b90919063ffffffff16565b6000808573ffffffffffffffffffffffffffffffffffffffff1673ffffffffffffffffffffffffffffffffffffffff168152602001908152602001600020819055506111ef816000808573ffffffffffffffffffffffffffffffffffffffff1673ffffffffffffffffffffffffffffffffffffffff168152602001908152602001600020546112f190919063ffffffff16565b6000808473ffffffffffffffffffffffffffffffffffffffff1673ffffffffffffffffffffffffffffffffffffffff168152602001908152602001600020819055508173ffffffffffffffffffffffffffffffffffffffff168373ffffffffffffffffffffffffffffffffffffffff167fddf252ad1be2c89b69c2b068fc378daa952ba7f163c4a11628f55a4df523b3ef8360405161128e9190611dd2565b60405180910390a3505050565b6000828211156112e0576040517f08c379a00000000000000000000000000000000000000000000000000000000081526004016112d790611c52565b60405180910390fd5b600082840390508091505092915050565b60008082840190508381101561133c576040517f08c379a000000000000000000000000000000000000000000000000000000000815260040161133390611d12565b60405180910390fd5b8091505092915050565b600073ffffffffffffffffffffffffffffffffffffffff168273ffffffffffffffffffffffffffffffffffffffff1614156113b6576040517f08c379a00000000000000000000000000000000000000000000000000000000081526004016113ad90611d92565b60405180910390fd5b6113cb816002546112f190919063ffffffff16565b600281905550611422816000808573ffffffffffffffffffffffffffffffffffffffff1673ffffffffffffffffffffffffffffffffffffffff168152602001908152602001600020546112f190919063ffffffff16565b6000808473ffffffffffffffffffffffffffffffffffffffff1673ffffffffffffffffffffffffffffffffffffffff168152602001908152602001600020819055508173ffffffffffffffffffffffffffffffffffffffff16600073ffffffffffffffffffffffffffffffffffffffff167fddf252ad1be2c89b69c2b068fc378daa952ba7f163c4a11628f55a4df523b3ef836040516114c29190611dd2565b60405180910390a35050565b60006114da8235611e79565b905092915050565b60006114ee8235611eab565b905092915050565b60006115028235611eb5565b905092915050565b60006020828403121561151c57600080fd5b600061152a848285016114ce565b91505092915050565b6000806040838503121561154657600080fd5b6000611554858286016114ce565b9250506020611565858286016114ce565b9150509250929050565b60008060006060848603121561158457600080fd5b6000611592868287016114ce565b93505060206115a3868287016114ce565b92505060406115b4868287016114e2565b9150509250925092565b600080604083850312156115d157600080fd5b60006115df858286016114ce565b92505060206115f0858286016114e2565b9150509250929050565b60006020828403121561160c57600080fd5b600061161a848285016114f6565b91505092915050565b61162c81611e24565b82525050565b61163b81611e36565b82525050565b600061164c82611e08565b6116568185611e13565b9350611666818560208601611ec2565b61166f81611ef5565b840191505092915050565b6000611687602383611e13565b91507f45524332303a207472616e7366657220746f20746865207a65726f206164647260008301527f65737300000000000000000000000000000000000000000000000000000000006020830152604082019050919050565b60006116ed602283611e13565b91507f45524332303a20617070726f766520746f20746865207a65726f20616464726560008301527f73730000000000000000000000000000000000000000000000000000000000006020830152604082019050919050565b6000611753602083611e13565b91507f536166654d6174683a3a7375623a20496e746567657220756e646572666c6f776000830152602082019050919050565b6000611793605a83611e13565b91507f476f7665726e616e63653a3a736574546178436f6d6d756e697479506f6f6c3a60008301527f20436f6d6d756e6974792074617820706f6f6c20616464726573732063616e2060208301527f6f6e6c79206265207365742076696120676f7665726e616e63650000000000006040830152606082019050919050565b600061181f601b83611e13565b91507f5f7461783a20706f696e746c657373207472616e73616374696f6e00000000006000830152602082019050919050565b600061185f605683611e13565b91507f476f7665726e616e63653a3a736574546178446576656c6f706d656e74506f6f60008301527f6c3a20446576656c6f706d656e742074617820706f6f6c2063616e206f6e6c7960208301527f206265207365742076696120676f7665726e616e6365000000000000000000006040830152606082019050919050565b60006118eb602283611e13565b91507f5369676e616c3a3a6d696e743a20457863656564732066696e616c207375707060008301527f6c790000000000000000000000000000000000000000000000000000000000006020830152604082019050919050565b6000611951603383611e13565b91507f5369676e616c3a3a6d696e743a204f6e6c79207468652072656769737472792060008301527f63616e206d696e74206e657720746f6b656e73000000000000000000000000006020830152604082019050919050565b60006119b7601f83611e13565b91507f536166654d6174683a3a6164643a20496e7465676572206f766572666c6f77006000830152602082019050919050565b60006119f7602583611e13565b91507f45524332303a207472616e736665722066726f6d20746865207a65726f20616460008301527f64726573730000000000000000000000000000000000000000000000000000006020830152604082019050919050565b6000611a5d602483611e13565b91507f45524332303a20617070726f76652066726f6d20746865207a65726f2061646460008301527f72657373000000000000000000000000000000000000000000000000000000006020830152604082019050919050565b6000611ac3603f83611e13565b91507f476f7665726e616e63653a3a736574546178526174653a20546178207261746560008301527f2063616e206f6e6c79206265207365742076696120676f7665726e616e6365006020830152604082019050919050565b6000611b29601f83611e13565b91507f45524332303a206d696e7420746f20746865207a65726f2061646472657373006000830152602082019050919050565b6000611b69600d83611e13565b91507f5f7461783a2061766572746564000000000000000000000000000000000000006000830152602082019050919050565b611ba581611e62565b82525050565b611bb481611e6c565b82525050565b6000602082019050611bcf6000830184611623565b92915050565b6000602082019050611bea6000830184611632565b92915050565b60006020820190508181036000830152611c0a8184611641565b905092915050565b60006020820190508181036000830152611c2b8161167a565b9050919050565b60006020820190508181036000830152611c4b816116e0565b9050919050565b60006020820190508181036000830152611c6b81611746565b9050919050565b60006020820190508181036000830152611c8b81611786565b9050919050565b60006020820190508181036000830152611cab81611812565b9050919050565b60006020820190508181036000830152611ccb81611852565b9050919050565b60006020820190508181036000830152611ceb816118de565b9050919050565b60006020820190508181036000830152611d0b81611944565b9050919050565b60006020820190508181036000830152611d2b816119aa565b9050919050565b60006020820190508181036000830152611d4b816119ea565b9050919050565b60006020820190508181036000830152611d6b81611a50565b9050919050565b60006020820190508181036000830152611d8b81611ab6565b9050919050565b60006020820190508181036000830152611dab81611b1c565b9050919050565b60006020820190508181036000830152611dcb81611b5c565b9050919050565b6000602082019050611de76000830184611b9c565b92915050565b6000602082019050611e026000830184611bab565b92915050565b600081519050919050565b600082825260208201905092915050565b6000611e2f82611e42565b9050919050565b60008115159050919050565b600073ffffffffffffffffffffffffffffffffffffffff82169050919050565b6000819050919050565b600060ff82169050919050565b6000611e8482611e8b565b9050919050565b600073ffffffffffffffffffffffffffffffffffffffff82169050919050565b6000819050919050565b600060ff82169050919050565b60005b83811015611ee0578082015181840152602081019050611ec5565b83811115611eef576000848401525b50505050565b6000601f19601f830116905091905056fea265627a7a723058205830e519ba4f1cc2292962a66a5a65d96cea57bd751724b06419affe5a6029f06c6578706572696d656e74616cf50037",
  "source": "pragma solidity 0.5.7;\npragma experimental ABIEncoderV2;\n\nimport { ERC20Taxable } from \"./ERC20Taxable.sol\";\n\n\n/**\n * @title Signal\n * @dev ERC20Taxable Signal token can be used for constructive or destructive interference in harmony with other signals.\n */\ncontract Signal is ERC20Taxable {\n\n    string public constant name = \"Signal\";\n    string public constant symbol = \"dB\"; \n    uint8 public constant decimals = 18;\n    string public version = \"0.0.1\";\n\n    uint public constant INITIAL_SUPPLY = 1000000000e18; // 1 billion\n    uint public constant FINAL_SUPPLY = 100000000000e18; // 10 billion\n\n    address public registry;\n    address public governance;\n    uint8 public taxRatePercent;\n    address public taxCommunityPool;\n    address public taxDevelopmentPool;\n\n    constructor(address _registry, address _governance, uint8 _taxRatePercent, address _taxCommunityPool, address _taxDevelopmentPool) public ERC20Taxable(_governance, _taxRatePercent, _taxCommunityPool, _taxDevelopmentPool) {\n        registry = _registry;\n        governance = _governance;\n        taxRatePercent = _taxRatePercent;\n        taxCommunityPool = _taxCommunityPool;\n        taxDevelopmentPool = _taxDevelopmentPool;\n        _mint(msg.sender, INITIAL_SUPPLY);\n    }\n\n    function mint(address account, uint256 value) public {\n        require(msg.sender == registry, \"Signal::mint: Only the registry can mint new tokens\");\n        require(totalSupply().add(value) <= FINAL_SUPPLY, \"Signal::mint: Exceeds final supply\");\n\n        _mint(account, value);\n    }\n\n    function setTaxRate(uint8 _taxRatePercent) public {\n        require(msg.sender == governance, \"Governance::setTaxRate: Tax rate can only be set via governance\");\n        taxRatePercent = _taxRatePercent;\n    }\n\n    function setTaxCommunityPool(address _taxCommunityPool) public {\n        require(msg.sender == governance, \"Governance::setTaxCommunityPool: Community tax pool address can only be set via governance\");\n        taxCommunityPool = _taxCommunityPool;\n    }\n\n    function setTaxDevelopmentPool(address _taxDevelopmentPool) public {\n        require(msg.sender == governance, \"Governance::setTaxDevelopmentPool: Development tax pool can only be set via governance\");\n        taxDevelopmentPool = _taxDevelopmentPool;\n    }\n\n}\n",
  "sourcePath": "/Users/jaywelsh/GitHub/society0x/ethereum/contracts/Signal.sol",
  "compiler": {
    "name": "solc",
    "version": "0.5.7+commit.6da8b019.Emscripten.clang"
  },
  "schemaVersion": "3.0.9",
  "updatedAt": "2019-07-21T12:29:37.339Z",
  "devdoc": {
    "details": "ERC20Taxable Signal token can be used for constructive or destructive interference in harmony with other signals.",
    "methods": {
      "allowance(address,address)": {
        "details": "See `IERC20.allowance`."
      },
      "approve(address,uint256)": {
        "details": "See `IERC20.approve`.     * Requirements:     * - `spender` cannot be the zero address."
      },
      "balanceOf(address)": {
        "details": "See `IERC20.balanceOf`."
      },
      "decreaseAllowance(address,uint256)": {
        "details": "Atomically decreases the allowance granted to `spender` by the caller.     * This is an alternative to `approve` that can be used as a mitigation for problems described in `IERC20.approve`.     * Emits an `Approval` event indicating the updated allowance.     * Requirements:     * - `spender` cannot be the zero address. - `spender` must have allowance for the caller of at least `subtractedValue`."
      },
      "increaseAllowance(address,uint256)": {
        "details": "Atomically increases the allowance granted to `spender` by the caller.     * This is an alternative to `approve` that can be used as a mitigation for problems described in `IERC20.approve`.     * Emits an `Approval` event indicating the updated allowance.     * Requirements:     * - `spender` cannot be the zero address."
      },
      "totalSupply()": {
        "details": "See `IERC20.totalSupply`."
      },
      "transfer(address,uint256)": {
        "details": "See `IERC20.transfer`.     * Requirements:     * - `recipient` cannot be the zero address. - the caller must have a balance of at least `amount`."
      },
      "transferFrom(address,address,uint256)": {
        "details": "See `IERC20.transferFrom`.     * Emits an `Approval` event indicating the updated allowance. This is not required by the EIP. See the note at the beginning of `ERC20`;     * Requirements: - `sender` and `recipient` cannot be the zero address. - `sender` must have a balance of at least `value`. - the caller must have allowance for `sender`'s tokens of at least `amount`."
      }
    },
    "title": "Signal"
  },
  "userdoc": {
    "methods": {}
  }
}