{
  "contractName": "Signal",
  "abi": [
    {
      "constant": true,
      "inputs": [],
      "name": "name",
      "outputs": [
        {
          "name": "",
          "type": "string"
        }
      ],
      "payable": false,
      "stateMutability": "view",
      "type": "function"
    },
    {
      "constant": false,
      "inputs": [
        {
          "name": "spender",
          "type": "address"
        },
        {
          "name": "value",
          "type": "uint256"
        }
      ],
      "name": "approve",
      "outputs": [
        {
          "name": "",
          "type": "bool"
        }
      ],
      "payable": false,
      "stateMutability": "nonpayable",
      "type": "function"
    },
    {
      "constant": true,
      "inputs": [],
      "name": "totalSupply",
      "outputs": [
        {
          "name": "",
          "type": "uint256"
        }
      ],
      "payable": false,
      "stateMutability": "view",
      "type": "function"
    },
    {
      "constant": false,
      "inputs": [
        {
          "name": "sender",
          "type": "address"
        },
        {
          "name": "recipient",
          "type": "address"
        },
        {
          "name": "amount",
          "type": "uint256"
        }
      ],
      "name": "transferFrom",
      "outputs": [
        {
          "name": "",
          "type": "bool"
        }
      ],
      "payable": false,
      "stateMutability": "nonpayable",
      "type": "function"
    },
    {
      "constant": true,
      "inputs": [],
      "name": "decimals",
      "outputs": [
        {
          "name": "",
          "type": "uint8"
        }
      ],
      "payable": false,
      "stateMutability": "view",
      "type": "function"
    },
    {
      "constant": false,
      "inputs": [
        {
          "name": "spender",
          "type": "address"
        },
        {
          "name": "addedValue",
          "type": "uint256"
        }
      ],
      "name": "increaseAllowance",
      "outputs": [
        {
          "name": "",
          "type": "bool"
        }
      ],
      "payable": false,
      "stateMutability": "nonpayable",
      "type": "function"
    },
    {
      "constant": true,
      "inputs": [],
      "name": "version",
      "outputs": [
        {
          "name": "",
          "type": "string"
        }
      ],
      "payable": false,
      "stateMutability": "view",
      "type": "function"
    },
    {
      "constant": true,
      "inputs": [],
      "name": "governance",
      "outputs": [
        {
          "name": "",
          "type": "address"
        }
      ],
      "payable": false,
      "stateMutability": "view",
      "type": "function"
    },
    {
      "constant": true,
      "inputs": [],
      "name": "taxCommunityPool",
      "outputs": [
        {
          "name": "",
          "type": "address"
        }
      ],
      "payable": false,
      "stateMutability": "view",
      "type": "function"
    },
    {
      "constant": true,
      "inputs": [
        {
          "name": "account",
          "type": "address"
        }
      ],
      "name": "balanceOf",
      "outputs": [
        {
          "name": "",
          "type": "uint256"
        }
      ],
      "payable": false,
      "stateMutability": "view",
      "type": "function"
    },
    {
      "constant": true,
      "inputs": [],
      "name": "taxDevelopmentPool",
      "outputs": [
        {
          "name": "",
          "type": "address"
        }
      ],
      "payable": false,
      "stateMutability": "view",
      "type": "function"
    },
    {
      "constant": true,
      "inputs": [],
      "name": "symbol",
      "outputs": [
        {
          "name": "",
          "type": "string"
        }
      ],
      "payable": false,
      "stateMutability": "view",
      "type": "function"
    },
    {
      "constant": false,
      "inputs": [
        {
          "name": "spender",
          "type": "address"
        },
        {
          "name": "subtractedValue",
          "type": "uint256"
        }
      ],
      "name": "decreaseAllowance",
      "outputs": [
        {
          "name": "",
          "type": "bool"
        }
      ],
      "payable": false,
      "stateMutability": "nonpayable",
      "type": "function"
    },
    {
      "constant": false,
      "inputs": [
        {
          "name": "recipient",
          "type": "address"
        },
        {
          "name": "amount",
          "type": "uint256"
        }
      ],
      "name": "transfer",
      "outputs": [
        {
          "name": "",
          "type": "bool"
        }
      ],
      "payable": false,
      "stateMutability": "nonpayable",
      "type": "function"
    },
    {
      "constant": true,
      "inputs": [],
      "name": "taxRatePercent",
      "outputs": [
        {
          "name": "",
          "type": "uint8"
        }
      ],
      "payable": false,
      "stateMutability": "view",
      "type": "function"
    },
    {
      "constant": true,
      "inputs": [
        {
          "name": "owner",
          "type": "address"
        },
        {
          "name": "spender",
          "type": "address"
        }
      ],
      "name": "allowance",
      "outputs": [
        {
          "name": "",
          "type": "uint256"
        }
      ],
      "payable": false,
      "stateMutability": "view",
      "type": "function"
    },
    {
      "constant": true,
      "inputs": [],
      "name": "signalPerDai",
      "outputs": [
        {
          "name": "",
          "type": "uint8"
        }
      ],
      "payable": false,
      "stateMutability": "view",
      "type": "function"
    },
    {
      "constant": true,
      "inputs": [],
      "name": "dai",
      "outputs": [
        {
          "name": "",
          "type": "address"
        }
      ],
      "payable": false,
      "stateMutability": "view",
      "type": "function"
    },
    {
      "inputs": [
        {
          "name": "_governance",
          "type": "address"
        },
        {
          "name": "_taxRatePercent",
          "type": "uint8"
        },
        {
          "name": "_taxCommunityPool",
          "type": "address"
        },
        {
          "name": "_taxDevelopmentPool",
          "type": "address"
        },
        {
          "name": "_dai",
          "type": "address"
        },
        {
          "name": "_signalPerDai",
          "type": "uint8"
        }
      ],
      "payable": false,
      "stateMutability": "nonpayable",
      "type": "constructor"
    },
    {
      "anonymous": false,
      "inputs": [
        {
          "indexed": true,
          "name": "from",
          "type": "address"
        },
        {
          "indexed": true,
          "name": "to",
          "type": "address"
        },
        {
          "indexed": false,
          "name": "value",
          "type": "uint256"
        }
      ],
      "name": "Transfer",
      "type": "event"
    },
    {
      "anonymous": false,
      "inputs": [
        {
          "indexed": true,
          "name": "owner",
          "type": "address"
        },
        {
          "indexed": true,
          "name": "spender",
          "type": "address"
        },
        {
          "indexed": false,
          "name": "value",
          "type": "uint256"
        }
      ],
      "name": "Approval",
      "type": "event"
    },
    {
      "anonymous": false,
      "inputs": [
        {
          "indexed": true,
          "name": "sender",
          "type": "address"
        },
        {
          "indexed": false,
          "name": "taxAmount",
          "type": "uint256"
        }
      ],
      "name": "Tax",
      "type": "event"
    },
    {
      "constant": false,
      "inputs": [
        {
          "name": "signalValue",
          "type": "uint256"
        }
      ],
      "name": "mint",
      "outputs": [],
      "payable": false,
      "stateMutability": "nonpayable",
      "type": "function"
    },
    {
      "constant": false,
      "inputs": [
        {
          "name": "signalValue",
          "type": "uint256"
        }
      ],
      "name": "withdraw",
      "outputs": [],
      "payable": false,
      "stateMutability": "nonpayable",
      "type": "function"
    },
    {
      "constant": false,
      "inputs": [
        {
          "name": "_taxCommunityPool",
          "type": "address"
        }
      ],
      "name": "setTaxCommunityPool",
      "outputs": [],
      "payable": false,
      "stateMutability": "nonpayable",
      "type": "function"
    },
    {
      "constant": false,
      "inputs": [
        {
          "name": "_taxDevelopmentPool",
          "type": "address"
        }
      ],
      "name": "setTaxDevelopmentPool",
      "outputs": [],
      "payable": false,
      "stateMutability": "nonpayable",
      "type": "function"
    }
  ],
  "bytecode": "0x60806040526040518060400160405280600581526020017f302e302e3100000000000000000000000000000000000000000000000000000081525060079080519060200190620000519291906200030d565b503480156200005f57600080fd5b5060405160c08062003ffb8339810180604052620000819190810190620003fe565b85858585858585600460006101000a81548173ffffffffffffffffffffffffffffffffffffffff021916908373ffffffffffffffffffffffffffffffffffffffff16021790555084600660146101000a81548160ff021916908360ff16021790555083600560006101000a81548173ffffffffffffffffffffffffffffffffffffffff021916908373ffffffffffffffffffffffffffffffffffffffff16021790555082600660006101000a81548173ffffffffffffffffffffffffffffffffffffffff021916908373ffffffffffffffffffffffffffffffffffffffff16021790555081600360006101000a81548173ffffffffffffffffffffffffffffffffffffffff021916908373ffffffffffffffffffffffffffffffffffffffff16021790555080600660156101000a81548160ff021916908360ff16021790555050505050505085600960006101000a81548173ffffffffffffffffffffffffffffffffffffffff021916908373ffffffffffffffffffffffffffffffffffffffff16021790555084600860006101000a81548160ff021916908360ff16021790555083600a60006101000a81548173ffffffffffffffffffffffffffffffffffffffff021916908373ffffffffffffffffffffffffffffffffffffffff16021790555082600b60006101000a81548173ffffffffffffffffffffffffffffffffffffffff021916908373ffffffffffffffffffffffffffffffffffffffff16021790555081600860026101000a81548173ffffffffffffffffffffffffffffffffffffffff021916908373ffffffffffffffffffffffffffffffffffffffff16021790555080600860016101000a81548160ff021916908360ff160217905550505050505050620004e9565b828054600181600116156101000203166002900490600052602060002090601f016020900481019282601f106200035057805160ff191683800117855562000381565b8280016001018555821562000381579182015b828111156200038057825182559160200191906001019062000363565b5b50905062000390919062000394565b5090565b620003b991905b80821115620003b55760008160009055506001016200039b565b5090565b90565b6000620003ca825162000494565b905092915050565b6000620003e08251620004a8565b905092915050565b6000620003f68251620004dc565b905092915050565b60008060008060008060c087890312156200041857600080fd5b60006200042889828a01620003bc565b96505060206200043b89828a01620003e8565b95505060406200044e89828a01620003bc565b94505060606200046189828a01620003bc565b93505060806200047489828a01620003d2565b92505060a06200048789828a01620003e8565b9150509295509295509295565b6000620004a182620004bc565b9050919050565b6000620004b58262000494565b9050919050565b600073ffffffffffffffffffffffffffffffffffffffff82169050919050565b600060ff82169050919050565b613b0280620004f96000396000f3fe608060405234801561001057600080fd5b506004361061015f576000357c01000000000000000000000000000000000000000000000000000000009004806370a08231116100d5578063a9059cbb11610099578063a9059cbb14610398578063b7220fc0146103c8578063dd62ed3e146103e6578063e93bd53114610416578063ec667b2a14610434578063f4b9fa75146104505761015f565b806370a08231146102e05780637811c8191461031057806395d89b411461032e578063a0712d681461034c578063a457c2d7146103685761015f565b8063313ce56711610127578063313ce5671461021c578063395093511461023a5780633f12d2621461026a57806354fd4d50146102865780635aa6e675146102a45780636c3d00ff146102c25761015f565b806306fdde0314610164578063095ea7b31461018257806318160ddd146101b257806323b872dd146101d05780632e1a7d4d14610200575b600080fd5b61016c61046e565b60405161017991906134d9565b60405180910390f35b61019c60048036036101979190810190612257565b6104a7565b6040516101a991906134a3565b60405180910390f35b6101ba6104be565b6040516101c7919061393b565b60405180910390f35b6101ea60048036036101e59190810190612208565b6104c8565b6040516101f791906134a3565b60405180910390f35b61021a600480360361021591908101906122bc565b610587565b005b61022461080b565b6040516102319190613956565b60405180910390f35b610254600480360361024f9190810190612257565b610810565b60405161026191906134a3565b60405180910390f35b610284600480360361027f91908101906121a3565b6108b5565b005b61028e610989565b60405161029b91906134d9565b60405180910390f35b6102ac610a27565b6040516102b991906133ff565b60405180910390f35b6102ca610a4d565b6040516102d791906133ff565b60405180910390f35b6102fa60048036036102f591908101906121a3565b610a73565b604051610307919061393b565b60405180910390f35b610318610abb565b60405161032591906133ff565b60405180910390f35b610336610ae1565b60405161034391906134d9565b60405180910390f35b610366600480360361036191908101906122bc565b610b1a565b005b610382600480360361037d9190810190612257565b610ec3565b60405161038f91906134a3565b60405180910390f35b6103b260048036036103ad9190810190612257565b610f68565b6040516103bf91906134a3565b60405180910390f35b6103d0610f8d565b6040516103dd9190613956565b60405180910390f35b61040060048036036103fb91908101906121cc565b610fa0565b60405161040d919061393b565b60405180910390f35b61041e611027565b60405161042b9190613956565b60405180910390f35b61044e600480360361044991908101906121a3565b61103a565b005b61045861110e565b60405161046591906134be565b60405180910390f35b6040518060400160405280600681526020017f5369676e616c000000000000000000000000000000000000000000000000000081525081565b60006104b4338484611134565b6001905092915050565b6000600254905090565b6000806104d585846112ff565b90506104e28585836115b9565b61057b853361057686600160008b73ffffffffffffffffffffffffffffffffffffffff1673ffffffffffffffffffffffffffffffffffffffff16815260200190815260200160002060003373ffffffffffffffffffffffffffffffffffffffff1673ffffffffffffffffffffffffffffffffffffffff1681526020019081526020016000205461182990919063ffffffff16565b611134565b60019150509392505050565b600061059e6127108361187f90919063ffffffff16565b146105de576040517f08c379a00000000000000000000000000000000000000000000000000000000081526004016105d5906136db565b60405180910390fd5b600073ffffffffffffffffffffffffffffffffffffffff163373ffffffffffffffffffffffffffffffffffffffff16141561064e576040517f08c379a00000000000000000000000000000000000000000000000000000000081526004016106459061389b565b60405180910390fd5b600061066b8261065d33610a73565b61182990919063ffffffff16565b10156106ac576040517f08c379a00000000000000000000000000000000000000000000000000000000081526004016106a3906135bb565b60405180910390fd5b6106d1600860019054906101000a900460ff1660ff16826118d690919063ffffffff16565b600860029054906101000a900473ffffffffffffffffffffffffffffffffffffffff1673ffffffffffffffffffffffffffffffffffffffff166370a08231306040518263ffffffff167c010000000000000000000000000000000000000000000000000000000002815260040161074891906133ff565b60206040518083038186803b15801561076057600080fd5b505afa158015610774573d6000803e3d6000fd5b505050506040513d601f19601f8201168201806040525061079891908101906122e5565b10156107d9576040517f08c379a00000000000000000000000000000000000000000000000000000000081526004016107d09061381b565b60405180910390fd5b61080833610802600860019054906101000a900460ff1660ff16846118d690919063ffffffff16565b83611932565b50565b601281565b60006108ab33846108a685600160003373ffffffffffffffffffffffffffffffffffffffff1673ffffffffffffffffffffffffffffffffffffffff16815260200190815260200160002060008973ffffffffffffffffffffffffffffffffffffffff1673ffffffffffffffffffffffffffffffffffffffff16815260200190815260200160002054611bd890919063ffffffff16565b611134565b6001905092915050565b600960009054906101000a900473ffffffffffffffffffffffffffffffffffffffff1673ffffffffffffffffffffffffffffffffffffffff163373ffffffffffffffffffffffffffffffffffffffff1614610945576040517f08c379a000000000000000000000000000000000000000000000000000000000815260040161093c9061361b565b60405180910390fd5b80600a60006101000a81548173ffffffffffffffffffffffffffffffffffffffff021916908373ffffffffffffffffffffffffffffffffffffffff16021790555050565b60078054600181600116156101000203166002900480601f016020809104026020016040519081016040528092919081815260200182805460018160011615610100020316600290048015610a1f5780601f106109f457610100808354040283529160200191610a1f565b820191906000526020600020905b815481529060010190602001808311610a0257829003601f168201915b505050505081565b600960009054906101000a900473ffffffffffffffffffffffffffffffffffffffff1681565b600a60009054906101000a900473ffffffffffffffffffffffffffffffffffffffff1681565b60008060008373ffffffffffffffffffffffffffffffffffffffff1673ffffffffffffffffffffffffffffffffffffffff168152602001908152602001600020549050919050565b600b60009054906101000a900473ffffffffffffffffffffffffffffffffffffffff1681565b6040518060400160405280600281526020017f644200000000000000000000000000000000000000000000000000000000000081525081565b6000610b316127108361187f90919063ffffffff16565b14610b71576040517f08c379a0000000000000000000000000000000000000000000000000000000008152600401610b689061365b565b60405180910390fd5b6000610b8d82610b7f6104be565b611bd890919063ffffffff16565b11610bcd576040517f08c379a0000000000000000000000000000000000000000000000000000000008152600401610bc49061391b565b60405180910390fd5b610bf2600860019054906101000a900460ff1660ff16826118d690919063ffffffff16565b600860029054906101000a900473ffffffffffffffffffffffffffffffffffffffff1673ffffffffffffffffffffffffffffffffffffffff1663dd62ed3e33306040518363ffffffff167c0100000000000000000000000000000000000000000000000000000000028152600401610c6b92919061341a565b60206040518083038186803b158015610c8357600080fd5b505afa158015610c97573d6000803e3d6000fd5b505050506040513d601f19601f82011682018060405250610cbb91908101906122e5565b1015610cfc576040517f08c379a0000000000000000000000000000000000000000000000000000000008152600401610cf39061373b565b60405180910390fd5b600860029054906101000a900473ffffffffffffffffffffffffffffffffffffffff1673ffffffffffffffffffffffffffffffffffffffff166323b872dd3330610d61600860019054906101000a900460ff1660ff16866118d690919063ffffffff16565b6040518463ffffffff167c0100000000000000000000000000000000000000000000000000000000028152600401610d9b93929190613443565b602060405180830381600087803b158015610db557600080fd5b505af1158015610dc9573d6000803e3d6000fd5b505050506040513d601f19601f82011682018060405250610ded9190810190612293565b610e2c576040517f08c379a0000000000000000000000000000000000000000000000000000000008152600401610e239061379b565b60405180910390fd5b80610e76600860019054906101000a900460ff1660ff16610e68600860019054906101000a900460ff1660ff16856118d690919063ffffffff16565b611c2d90919063ffffffff16565b14610eb6576040517f08c379a0000000000000000000000000000000000000000000000000000000008152600401610ead9061369b565b60405180910390fd5b610ec03382611c9d565b50565b6000610f5e3384610f5985600160003373ffffffffffffffffffffffffffffffffffffffff1673ffffffffffffffffffffffffffffffffffffffff16815260200190815260200160002060008973ffffffffffffffffffffffffffffffffffffffff1673ffffffffffffffffffffffffffffffffffffffff1681526020019081526020016000205461182990919063ffffffff16565b611134565b6001905092915050565b600080610f7533846112ff565b9050610f823385836115b9565b600191505092915050565b600860009054906101000a900460ff1681565b6000600160008473ffffffffffffffffffffffffffffffffffffffff1673ffffffffffffffffffffffffffffffffffffffff16815260200190815260200160002060008373ffffffffffffffffffffffffffffffffffffffff1673ffffffffffffffffffffffffffffffffffffffff16815260200190815260200160002054905092915050565b600860019054906101000a900460ff1681565b600960009054906101000a900473ffffffffffffffffffffffffffffffffffffffff1673ffffffffffffffffffffffffffffffffffffffff163373ffffffffffffffffffffffffffffffffffffffff16146110ca576040517f08c379a00000000000000000000000000000000000000000000000000000000081526004016110c1906136fb565b60405180910390fd5b80600b60006101000a81548173ffffffffffffffffffffffffffffffffffffffff021916908373ffffffffffffffffffffffffffffffffffffffff16021790555050565b600860029054906101000a900473ffffffffffffffffffffffffffffffffffffffff1681565b600073ffffffffffffffffffffffffffffffffffffffff168373ffffffffffffffffffffffffffffffffffffffff1614156111a4576040517f08c379a000000000000000000000000000000000000000000000000000000000815260040161119b906137fb565b60405180910390fd5b600073ffffffffffffffffffffffffffffffffffffffff168273ffffffffffffffffffffffffffffffffffffffff161415611214576040517f08c379a000000000000000000000000000000000000000000000000000000000815260040161120b906135db565b60405180910390fd5b80600160008573ffffffffffffffffffffffffffffffffffffffff1673ffffffffffffffffffffffffffffffffffffffff16815260200190815260200160002060008473ffffffffffffffffffffffffffffffffffffffff1673ffffffffffffffffffffffffffffffffffffffff168152602001908152602001600020819055508173ffffffffffffffffffffffffffffffffffffffff168373ffffffffffffffffffffffffffffffffffffffff167f8c5be1e5ebec7d5bd14f71427d1e84f3dd0314c0f7b2291e5b200ac8c7c3b925836040516112f2919061393b565b60405180910390a3505050565b6000806113176127108461187f90919063ffffffff16565b14611357576040517f08c379a000000000000000000000000000000000000000000000000000000000815260040161134e9061367b565b60405180910390fd5b600061139160c8611383600660149054906101000a900460ff1660ff1686611c2d90919063ffffffff16565b6118d690919063ffffffff16565b9050600081116113d6576040517f08c379a00000000000000000000000000000000000000000000000000000000081526004016113cd906138fb565b60405180910390fd5b60006113ec600283611c2d90919063ffffffff16565b90506000611403828661182990919063ffffffff16565b905060008111611448576040517f08c379a000000000000000000000000000000000000000000000000000000000815260040161143f9061363b565b60405180910390fd5b84611481600660149054906101000a900460ff1660ff16611473606486611c2d90919063ffffffff16565b6118d690919063ffffffff16565b146114c1576040517f08c379a00000000000000000000000000000000000000000000000000000000081526004016114b89061355b565b60405180910390fd5b8482820114611505576040517f08c379a00000000000000000000000000000000000000000000000000000000081526004016114fc906134fb565b60405180910390fd5b61153286600560009054906101000a900473ffffffffffffffffffffffffffffffffffffffff16856115b9565b61155f86600660009054906101000a900473ffffffffffffffffffffffffffffffffffffffff16856115b9565b8573ffffffffffffffffffffffffffffffffffffffff167f800f0710d5627fe1155e84a30f52e968a8b0df991b6f2538e4ab459786289a32836040516115a5919061393b565b60405180910390a280935050505092915050565b600073ffffffffffffffffffffffffffffffffffffffff168373ffffffffffffffffffffffffffffffffffffffff161415611629576040517f08c379a0000000000000000000000000000000000000000000000000000000008152600401611620906137db565b60405180910390fd5b600073ffffffffffffffffffffffffffffffffffffffff168273ffffffffffffffffffffffffffffffffffffffff161415611699576040517f08c379a00000000000000000000000000000000000000000000000000000000081526004016116909061353b565b60405180910390fd5b6116ea816000808673ffffffffffffffffffffffffffffffffffffffff1673ffffffffffffffffffffffffffffffffffffffff1681526020019081526020016000205461182990919063ffffffff16565b6000808573ffffffffffffffffffffffffffffffffffffffff1673ffffffffffffffffffffffffffffffffffffffff1681526020019081526020016000208190555061177d816000808573ffffffffffffffffffffffffffffffffffffffff1673ffffffffffffffffffffffffffffffffffffffff16815260200190815260200160002054611bd890919063ffffffff16565b6000808473ffffffffffffffffffffffffffffffffffffffff1673ffffffffffffffffffffffffffffffffffffffff168152602001908152602001600020819055508173ffffffffffffffffffffffffffffffffffffffff168373ffffffffffffffffffffffffffffffffffffffff167fddf252ad1be2c89b69c2b068fc378daa952ba7f163c4a11628f55a4df523b3ef8360405161181c919061393b565b60405180910390a3505050565b60008282111561186e576040517f08c379a0000000000000000000000000000000000000000000000000000000008152600401611865906135fb565b60405180910390fd5b600082840390508091505092915050565b6000808214156118c4576040517f08c379a00000000000000000000000000000000000000000000000000000000081526004016118bb906138bb565b60405180910390fd5b8183816118cd57fe5b06905092915050565b600080821161191a576040517f08c379a00000000000000000000000000000000000000000000000000000000081526004016119119061387b565b60405180910390fd5b600082848161192557fe5b0490508091505092915050565b600360009054906101000a900473ffffffffffffffffffffffffffffffffffffffff1673ffffffffffffffffffffffffffffffffffffffff1663a9059cbb8461197a85611e7c565b6040518363ffffffff167c01000000000000000000000000000000000000000000000000000000000281526004016119b392919061347a565b602060405180830381600087803b1580156119cd57600080fd5b505af11580156119e1573d6000803e3d6000fd5b505050506040513d601f19601f82011682018060405250611a059190810190612293565b611a44576040517f08c379a0000000000000000000000000000000000000000000000000000000008152600401611a3b9061371b565b60405180910390fd5b611a4e3082610f68565b611a8d576040517f08c379a0000000000000000000000000000000000000000000000000000000008152600401611a849061375b565b60405180910390fd5b611a9f30611a9a83611e7c565b611f74565b611aa76104be565b611b92600660159054906101000a900460ff1660ff16600360009054906101000a900473ffffffffffffffffffffffffffffffffffffffff1673ffffffffffffffffffffffffffffffffffffffff166370a08231306040518263ffffffff167c0100000000000000000000000000000000000000000000000000000000028152600401611b3491906133ff565b60206040518083038186803b158015611b4c57600080fd5b505afa158015611b60573d6000803e3d6000fd5b505050506040513d601f19601f82011682018060405250611b8491908101906122e5565b611c2d90919063ffffffff16565b1015611bd3576040517f08c379a0000000000000000000000000000000000000000000000000000000008152600401611bca906136bb565b60405180910390fd5b505050565b600080828401905083811015611c23576040517f08c379a0000000000000000000000000000000000000000000000000000000008152600401611c1a906137bb565b60405180910390fd5b8091505092915050565b600080831415611c405760009050611c97565b6000828402905082848281611c5157fe5b0414611c92576040517f08c379a0000000000000000000000000000000000000000000000000000000008152600401611c899061351b565b60405180910390fd5b809150505b92915050565b6000611cb46127108361187f90919063ffffffff16565b14611cf4576040517f08c379a0000000000000000000000000000000000000000000000000000000008152600401611ceb9061385b565b60405180910390fd5b600073ffffffffffffffffffffffffffffffffffffffff168273ffffffffffffffffffffffffffffffffffffffff161415611d64576040517f08c379a0000000000000000000000000000000000000000000000000000000008152600401611d5b906138db565b60405180910390fd5b611d7981600254611bd890919063ffffffff16565b600281905550611dd0816000808573ffffffffffffffffffffffffffffffffffffffff1673ffffffffffffffffffffffffffffffffffffffff16815260200190815260200160002054611bd890919063ffffffff16565b6000808473ffffffffffffffffffffffffffffffffffffffff1673ffffffffffffffffffffffffffffffffffffffff168152602001908152602001600020819055508173ffffffffffffffffffffffffffffffffffffffff16600073ffffffffffffffffffffffffffffffffffffffff167fddf252ad1be2c89b69c2b068fc378daa952ba7f163c4a11628f55a4df523b3ef83604051611e70919061393b565b60405180910390a35050565b600080611eb76064611ea9600660149054906101000a900460ff1660ff1686611c2d90919063ffffffff16565b6118d690919063ffffffff16565b90506000611ed06127108561187f90919063ffffffff16565b14611f10576040517f08c379a0000000000000000000000000000000000000000000000000000000008152600401611f079061357b565b60405180910390fd5b60008111611f53576040517f08c379a0000000000000000000000000000000000000000000000000000000008152600401611f4a9061359b565b60405180910390fd5b6000611f68828561182990919063ffffffff16565b90508092505050919050565b6000611f8b6127108361187f90919063ffffffff16565b14611fcb576040517f08c379a0000000000000000000000000000000000000000000000000000000008152600401611fc29061383b565b60405180910390fd5b600073ffffffffffffffffffffffffffffffffffffffff168273ffffffffffffffffffffffffffffffffffffffff16141561203b576040517f08c379a00000000000000000000000000000000000000000000000000000000081526004016120329061377b565b60405180910390fd5b6120508160025461182990919063ffffffff16565b6002819055506120a7816000808573ffffffffffffffffffffffffffffffffffffffff1673ffffffffffffffffffffffffffffffffffffffff1681526020019081526020016000205461182990919063ffffffff16565b6000808473ffffffffffffffffffffffffffffffffffffffff1673ffffffffffffffffffffffffffffffffffffffff16815260200190815260200160002081905550600073ffffffffffffffffffffffffffffffffffffffff168273ffffffffffffffffffffffffffffffffffffffff167fddf252ad1be2c89b69c2b068fc378daa952ba7f163c4a11628f55a4df523b3ef83604051612147919061393b565b60405180910390a35050565b600061215f82356139e2565b905092915050565b600061217382516139f4565b905092915050565b60006121878235613a20565b905092915050565b600061219b8251613a20565b905092915050565b6000602082840312156121b557600080fd5b60006121c384828501612153565b91505092915050565b600080604083850312156121df57600080fd5b60006121ed85828601612153565b92505060206121fe85828601612153565b9150509250929050565b60008060006060848603121561221d57600080fd5b600061222b86828701612153565b935050602061223c86828701612153565b925050604061224d8682870161217b565b9150509250925092565b6000806040838503121561226a57600080fd5b600061227885828601612153565b92505060206122898582860161217b565b9150509250929050565b6000602082840312156122a557600080fd5b60006122b384828501612167565b91505092915050565b6000602082840312156122ce57600080fd5b60006122dc8482850161217b565b91505092915050565b6000602082840312156122f757600080fd5b60006123058482850161218f565b91505092915050565b61231781613a2a565b82525050565b6123268161398d565b82525050565b6123358161399f565b82525050565b61234481613a3c565b82525050565b600061235582613971565b61235f818561397c565b935061236f818560208601613a84565b61237881613ab7565b840191505092915050565b600061239060398361397c565b91507f5f7461783a207472616e73616374696f6e20746f6f20736d616c6c20746f207060008301527f7265736572766520696e746567657220696e74656772697479000000000000006020830152604082019050919050565b60006123f6601f8361397c565b91507f536166654d6174683a3a6d756c3a20496e7465676572206f766572666c6f77006000830152602082019050919050565b600061243660238361397c565b91507f45524332303a207472616e7366657220746f20746865207a65726f206164647260008301527f65737300000000000000000000000000000000000000000000000000000000006020830152604082019050919050565b600061249c60418361397c565b91507f45524332303a3a5f7461783a207472616e73616374696f6e2076616c7565207760008301527f6f756c6420636175736520636f6c6c61746f72616c69736174696f6e206c656160208301527f6b000000000000000000000000000000000000000000000000000000000000006040830152606082019050919050565b600061252860818361397c565b91507f45524332303a3a5f76616c75654d696e75735461783a2076616c7565206d757360008301527f7420636f6e7461696e207a65726f20696e20746865206c617374203420756e6960208301527f7473206f66207468652077656920756e6974202870726576656e74732053696760408301527f6e616c20756e646572636f6c6c61746f72616c69736174696f6e207269736b2960608301527f2e00000000000000000000000000000000000000000000000000000000000000608083015260a082019050919050565b600061260060408361397c565b91507f45524332303a3a5f76616c75654d696e75735461783a2074617861626c65207660008301527f616c756520776f756c64206e6f74206265206d6f7265207468616e207a65726f6020830152604082019050919050565b6000612666605e8361397c565b91507f5369676e616c3a3a77697468647261773a20576974686472617720616464726560008301527f737320646f6573206e6f7420686176652062616c616e6365207375666669636960208301527f656e7420746f2066756c66696c207769746864726177207265717565737400006040830152606082019050919050565b60006126f260228361397c565b91507f45524332303a20617070726f766520746f20746865207a65726f20616464726560008301527f73730000000000000000000000000000000000000000000000000000000000006020830152604082019050919050565b600061275860208361397c565b91507f536166654d6174683a3a7375623a20496e746567657220756e646572666c6f776000830152602082019050919050565b6000612798605a8361397c565b91507f476f7665726e616e63653a3a736574546178436f6d6d756e697479506f6f6c3a60008301527f20436f6d6d756e6974792074617820706f6f6c20616464726573732063616e2060208301527f6f6e6c79206265207365742076696120676f7665726e616e63650000000000006040830152606082019050919050565b6000612824601b8361397c565b91507f5f7461783a20706f696e746c657373207472616e73616374696f6e00000000006000830152602082019050919050565b6000612864608a8361397c565b91507f5369676e616c3a3a6d696e743a205369676e616c20696e7075742076616c756560008301527f206d75737420636f6e7461696e207a65726f20696e20746865206c617374203460208301527f20756e697473206f6620746865205369676e616c20616d6f756e74202870726560408301527f76656e7473205369676e616c20756e646572636f6c6c61746f72616c6973617460608301527f696f6e207269736b292e00000000000000000000000000000000000000000000608083015260a082019050919050565b600061293c60788361397c565b91507f45524332303a3a5f7461783a20616d6f756e74206d75737420636f6e7461696e60008301527f207a65726f20696e20746865206c617374203420756e697473206f662074686560208301527f2077656920756e6974202870726576656e7473205369676e616c20756e64657260408301527f636f6c6c61746f72616c69736174696f6e207269736b292e00000000000000006060830152608082019050919050565b60006129ee60678361397c565b91507f5369676e616c3a3a6d696e743a20205369676e616c20756e646572636f6c6c6160008301527f746f72616c69736174696f6e207269736b2028747279207573696e67206c657360208301527f732064656772656573206f6620707265636973696f6e2f646563696d616c207060408301527f6c61636573292e000000000000000000000000000000000000000000000000006060830152608082019050919050565b6000612aa0603e8361397c565b91507f45524332303a20776974686472617720776f756c64206361757365205369676e60008301527f616c20756e646572636f6c6c61746f72616c69736174696f6e206c65616b00006020830152604082019050919050565b6000612b06608a8361397c565b91507f5369676e616c3a3a5f77697468647261773a205369676e616c20696e7075742060008301527f76616c7565206d75737420636f6e7461696e207a65726f20696e20746865206c60208301527f617374203420756e697473206f66207468652077656920756e6974202870726560408301527f76656e7473205369676e616c20756e646572636f6c6c61746f72616c6973617460608301527f696f6e207269736b292e00000000000000000000000000000000000000000000608083015260a082019050919050565b6000612bde60568361397c565b91507f476f7665726e616e63653a3a736574546178446576656c6f706d656e74506f6f60008301527f6c3a20446576656c6f706d656e742074617820706f6f6c2063616e206f6e6c7960208301527f206265207365742076696120676f7665726e616e6365000000000000000000006040830152606082019050919050565b6000612c6a60278361397c565b91507f45524332303a20776974686472617720444149207472616e7366657246726f6d60008301527f206661696c6564000000000000000000000000000000000000000000000000006020830152604082019050919050565b6000612cd060548361397c565b91507f5369676e616c3a3a6d696e743a2044414920616c6c6f77616e6365206973206e60008301527f6f742073756666696369656e7420666f72206d696e74696e672072657175657360208301527f7465642076616c7565206f66205369676e616c2e0000000000000000000000006040830152606082019050919050565b6000612d5c602a8361397c565b91507f45524332303a207769746864726177205369676e616c207472616e736665724660008301527f726f6d206661696c6564000000000000000000000000000000000000000000006020830152604082019050919050565b6000612dc260218361397c565b91507f45524332303a206275726e2066726f6d20746865207a65726f2061646472657360008301527f73000000000000000000000000000000000000000000000000000000000000006020830152604082019050919050565b6000612e28606d8361397c565b91507f5369676e616c3a3a6d696e743a20444149207472616e73666572206661696c6560008301527f642c206d616b652073757265204441492062616c616e6365206973207375666660208301527f696369656e7420666f72206d696e74696e67207265717565737465642076616c60408301527f7565206f66205369676e616c2e000000000000000000000000000000000000006060830152608082019050919050565b6000612eda601f8361397c565b91507f536166654d6174683a3a6164643a20496e7465676572206f766572666c6f77006000830152602082019050919050565b6000612f1a60258361397c565b91507f45524332303a207472616e736665722066726f6d20746865207a65726f20616460008301527f64726573730000000000000000000000000000000000000000000000000000006020830152604082019050919050565b6000612f8060248361397c565b91507f45524332303a20617070726f76652066726f6d20746865207a65726f2061646460008301527f72657373000000000000000000000000000000000000000000000000000000006020830152604082019050919050565b6000612fe660518361397c565b91507f5369676e616c3a3a77697468647261773a20444149207265736572766520697360008301527f206e6f74206c6172676520656e6f75676820746f2066756c66696c207468697360208301527f20776974686472617720726571756573740000000000000000000000000000006040830152606082019050919050565b600061307260718361397c565b91507f45524332303a2076616c7565206d75737420636f6e7461696e207a65726f206960008301527f6e20746865206c617374203420756e697473206f66207468652077656920756e60208301527f6974202870726576656e7473205369676e616c20756e646572636f6c6c61746f60408301527f72616c69736174696f6e207269736b292e0000000000000000000000000000006060830152608082019050919050565b600061312460798361397c565b91507f45524332303a3a5f6d696e743a20616d6f756e74206d75737420636f6e74616960008301527f6e207a65726f20696e20746865206c617374203420756e697473206f6620746860208301527f652077656920756e6974202870726576656e7473205369676e616c20756e646560408301527f72636f6c6c61746f72616c69736174696f6e207269736b292e000000000000006060830152608082019050919050565b60006131d660238361397c565b91507f536166654d6174683a3a6469763a20496e76616c69642064697669736f72207a60008301527f65726f00000000000000000000000000000000000000000000000000000000006020830152604082019050919050565b600061323c603a8361397c565b91507f5369676e616c3a3a77697468647261773a20576974686472617720616464726560008301527f73732063616e206e6f7420626520766f696420616464726573730000000000006020830152604082019050919050565b60006132a260238361397c565b91507f536166654d6174683a3a6d6f643a20496e76616c69642064697669736f72207a60008301527f65726f00000000000000000000000000000000000000000000000000000000006020830152604082019050919050565b6000613308601f8361397c565b91507f45524332303a206d696e7420746f20746865207a65726f2061646472657373006000830152602082019050919050565b6000613348600d8361397c565b91507f5f7461783a2061766572746564000000000000000000000000000000000000006000830152602082019050919050565b6000613388603c8361397c565b91507f5369676e616c3a3a6d696e743a20537570706c7920776f756c6420657863656560008301527f64206d6178696d756d20736166652075696e742028325e323536292e000000006020830152604082019050919050565b6133ea816139cb565b82525050565b6133f9816139d5565b82525050565b6000602082019050613414600083018461231d565b92915050565b600060408201905061342f600083018561230e565b61343c602083018461231d565b9392505050565b6000606082019050613458600083018661230e565b613465602083018561231d565b61347260408301846133e1565b949350505050565b600060408201905061348f600083018561231d565b61349c60208301846133e1565b9392505050565b60006020820190506134b8600083018461232c565b92915050565b60006020820190506134d3600083018461233b565b92915050565b600060208201905081810360008301526134f3818461234a565b905092915050565b6000602082019050818103600083015261351481612383565b9050919050565b60006020820190508181036000830152613534816123e9565b9050919050565b6000602082019050818103600083015261355481612429565b9050919050565b600060208201905081810360008301526135748161248f565b9050919050565b600060208201905081810360008301526135948161251b565b9050919050565b600060208201905081810360008301526135b4816125f3565b9050919050565b600060208201905081810360008301526135d481612659565b9050919050565b600060208201905081810360008301526135f4816126e5565b9050919050565b600060208201905081810360008301526136148161274b565b9050919050565b600060208201905081810360008301526136348161278b565b9050919050565b6000602082019050818103600083015261365481612817565b9050919050565b6000602082019050818103600083015261367481612857565b9050919050565b600060208201905081810360008301526136948161292f565b9050919050565b600060208201905081810360008301526136b4816129e1565b9050919050565b600060208201905081810360008301526136d481612a93565b9050919050565b600060208201905081810360008301526136f481612af9565b9050919050565b6000602082019050818103600083015261371481612bd1565b9050919050565b6000602082019050818103600083015261373481612c5d565b9050919050565b6000602082019050818103600083015261375481612cc3565b9050919050565b6000602082019050818103600083015261377481612d4f565b9050919050565b6000602082019050818103600083015261379481612db5565b9050919050565b600060208201905081810360008301526137b481612e1b565b9050919050565b600060208201905081810360008301526137d481612ecd565b9050919050565b600060208201905081810360008301526137f481612f0d565b9050919050565b6000602082019050818103600083015261381481612f73565b9050919050565b6000602082019050818103600083015261383481612fd9565b9050919050565b6000602082019050818103600083015261385481613065565b9050919050565b6000602082019050818103600083015261387481613117565b9050919050565b60006020820190508181036000830152613894816131c9565b9050919050565b600060208201905081810360008301526138b48161322f565b9050919050565b600060208201905081810360008301526138d481613295565b9050919050565b600060208201905081810360008301526138f4816132fb565b9050919050565b600060208201905081810360008301526139148161333b565b9050919050565b600060208201905081810360008301526139348161337b565b9050919050565b600060208201905061395060008301846133e1565b92915050565b600060208201905061396b60008301846133f0565b92915050565b600081519050919050565b600082825260208201905092915050565b6000613998826139ab565b9050919050565b60008115159050919050565b600073ffffffffffffffffffffffffffffffffffffffff82169050919050565b6000819050919050565b600060ff82169050919050565b60006139ed82613a00565b9050919050565b60008115159050919050565b600073ffffffffffffffffffffffffffffffffffffffff82169050919050565b6000819050919050565b6000613a3582613a60565b9050919050565b6000613a4782613a4e565b9050919050565b6000613a59826139ab565b9050919050565b6000613a6b82613a72565b9050919050565b6000613a7d826139ab565b9050919050565b60005b83811015613aa2578082015181840152602081019050613a87565b83811115613ab1576000848401525b50505050565b6000601f19601f830116905091905056fea265627a7a723058208f7a5ae7888c7222f2eb6068ed372316c5a942e7f2cef591413060c1364795ee6c6578706572696d656e74616cf50037",
  "source": "pragma solidity 0.5.7;\npragma experimental ABIEncoderV2;\n\nimport { IERC20 } from \"./interface/IERC20.sol\";\nimport { ERC20Taxable } from \"./ERC20Taxable.sol\";\n\n\n/**\n * @title Signal\n * @dev ERC20Taxable Signal token can be used for constructive or destructive interference in harmony with other signals.\n */\ncontract Signal is ERC20Taxable {\n\n    string public version = \"0.0.1\";\n    string public constant name = \"Signal\";\n    string public constant symbol = \"dB\";\n\n    uint8 public constant decimals = 18;\n    uint8 public taxRatePercent;\n    uint8 public signalPerDai;\n\n    IERC20 public dai;\n    address public governance;\n    address public taxCommunityPool;\n    address public taxDevelopmentPool;\n\n    constructor(address _governance, uint8 _taxRatePercent, address _taxCommunityPool, address _taxDevelopmentPool, IERC20 _dai, uint8 _signalPerDai) public ERC20Taxable(_governance, _taxRatePercent, _taxCommunityPool, _taxDevelopmentPool, _dai, _signalPerDai) {\n        governance = _governance;\n        taxRatePercent = _taxRatePercent;\n        taxCommunityPool = _taxCommunityPool;\n        taxDevelopmentPool = _taxDevelopmentPool;\n        dai = _dai;\n        signalPerDai = _signalPerDai;\n    }\n\n    function mint(uint256 signalValue) public {\n        require(\n            signalValue.mod(10000) == 0,\n            \"Signal::mint: Signal input value must contain zero in the last 4 units of the Signal amount (prevents Signal undercollatoralisation risk).\"\n        );\n        require(\n            totalSupply().add(signalValue) > 0,\n            \"Signal::mint: Supply would exceed maximum safe uint (2^256).\"\n        );\n        require(\n            dai.allowance(msg.sender, address(this)) >= signalValue.div(signalPerDai),\n            \"Signal::mint: DAI allowance is not sufficient for minting requested value of Signal.\"\n        );\n        require(\n            dai.transferFrom(msg.sender, address(this), signalValue.div(signalPerDai)),\n            \"Signal::mint: DAI transfer failed, make sure DAI balance is sufficient for minting requested value of Signal.\"\n        );\n        require(\n            signalValue.div(signalPerDai).mul(signalPerDai) == signalValue,\n            \"Signal::mint:  Signal undercollatoralisation risk (try using less degrees of precision/decimal places).\"\n        );\n        _mint(msg.sender, signalValue);\n    }\n\n    function withdraw(uint256 signalValue) public {\n        require(\n            signalValue.mod(10000) == 0,\n            \"Signal::_withdraw: Signal input value must contain zero in the last 4 units of the wei unit (prevents Signal undercollatoralisation risk).\"\n        );\n        require(\n            msg.sender != 0x0000000000000000000000000000000000000000,\n            \"Signal::withdraw: Withdraw address can not be void address\"\n        );\n        require(\n            balanceOf(msg.sender).sub(signalValue) >= 0,\n            \"Signal::withdraw: Withdraw address does not have balance sufficient to fulfil withdraw request\"\n        );\n        require(\n            dai.balanceOf(address(this)) >= signalValue.div(signalPerDai),\n            \"Signal::withdraw: DAI reserve is not large enough to fulfil this withdraw request\"\n        );\n        _withdraw(msg.sender, signalValue.div(signalPerDai), signalValue);\n    }\n\n    function setTaxCommunityPool(address _taxCommunityPool) public {\n        require(msg.sender == governance, \"Governance::setTaxCommunityPool: Community tax pool address can only be set via governance\");\n        taxCommunityPool = _taxCommunityPool;\n    }\n\n    function setTaxDevelopmentPool(address _taxDevelopmentPool) public {\n        require(msg.sender == governance, \"Governance::setTaxDevelopmentPool: Development tax pool can only be set via governance\");\n        taxDevelopmentPool = _taxDevelopmentPool;\n    }\n\n}\n",
  "sourcePath": "/Users/jaywelsh/GitHub/society0x/ethereum/contracts/Signal.sol",
  "compiler": {
    "name": "solc",
    "version": "0.5.7+commit.6da8b019.Emscripten.clang"
  },
  "schemaVersion": "3.0.9",
  "updatedAt": "2019-09-14T08:11:29.439Z",
  "devdoc": {
    "details": "ERC20Taxable Signal token can be used for constructive or destructive interference in harmony with other signals.",
    "methods": {
      "allowance(address,address)": {
        "details": "See `IERC20.allowance`."
      },
      "approve(address,uint256)": {
        "details": "See `IERC20.approve`.     * Requirements:     * - `spender` cannot be the zero address."
      },
      "balanceOf(address)": {
        "details": "See `IERC20.balanceOf`."
      },
      "decreaseAllowance(address,uint256)": {
        "details": "Atomically decreases the allowance granted to `spender` by the caller.     * This is an alternative to `approve` that can be used as a mitigation for problems described in `IERC20.approve`.     * Emits an `Approval` event indicating the updated allowance.     * Requirements:     * - `spender` cannot be the zero address. - `spender` must have allowance for the caller of at least `subtractedValue`."
      },
      "increaseAllowance(address,uint256)": {
        "details": "Atomically increases the allowance granted to `spender` by the caller.     * This is an alternative to `approve` that can be used as a mitigation for problems described in `IERC20.approve`.     * Emits an `Approval` event indicating the updated allowance.     * Requirements:     * - `spender` cannot be the zero address."
      },
      "totalSupply()": {
        "details": "See `IERC20.totalSupply`."
      },
      "transfer(address,uint256)": {
        "details": "See `IERC20.transfer`.     * Requirements:     * - `recipient` cannot be the zero address. - the caller must have a balance of at least `amount`."
      },
      "transferFrom(address,address,uint256)": {
        "details": "See `IERC20.transferFrom`.     * Emits an `Approval` event indicating the updated allowance. This is not required by the EIP. See the note at the beginning of `ERC20`;     * Requirements: - `sender` and `recipient` cannot be the zero address. - `sender` must have a balance of at least `value`. - the caller must have allowance for `sender`'s tokens of at least `amount`."
      }
    },
    "title": "Signal"
  },
  "userdoc": {
    "methods": {}
  }
}