{
  "contractName": "Signal",
  "abi": [
    {
      "constant": true,
      "inputs": [],
      "name": "name",
      "outputs": [
        {
          "name": "",
          "type": "string"
        }
      ],
      "payable": false,
      "stateMutability": "view",
      "type": "function"
    },
    {
      "constant": false,
      "inputs": [
        {
          "name": "spender",
          "type": "address"
        },
        {
          "name": "value",
          "type": "uint256"
        }
      ],
      "name": "approve",
      "outputs": [
        {
          "name": "",
          "type": "bool"
        }
      ],
      "payable": false,
      "stateMutability": "nonpayable",
      "type": "function"
    },
    {
      "constant": true,
      "inputs": [],
      "name": "totalSupply",
      "outputs": [
        {
          "name": "",
          "type": "uint256"
        }
      ],
      "payable": false,
      "stateMutability": "view",
      "type": "function"
    },
    {
      "constant": false,
      "inputs": [
        {
          "name": "sender",
          "type": "address"
        },
        {
          "name": "recipient",
          "type": "address"
        },
        {
          "name": "amount",
          "type": "uint256"
        }
      ],
      "name": "transferFrom",
      "outputs": [
        {
          "name": "",
          "type": "bool"
        }
      ],
      "payable": false,
      "stateMutability": "nonpayable",
      "type": "function"
    },
    {
      "constant": true,
      "inputs": [],
      "name": "decimals",
      "outputs": [
        {
          "name": "",
          "type": "uint8"
        }
      ],
      "payable": false,
      "stateMutability": "view",
      "type": "function"
    },
    {
      "constant": false,
      "inputs": [
        {
          "name": "spender",
          "type": "address"
        },
        {
          "name": "addedValue",
          "type": "uint256"
        }
      ],
      "name": "increaseAllowance",
      "outputs": [
        {
          "name": "",
          "type": "bool"
        }
      ],
      "payable": false,
      "stateMutability": "nonpayable",
      "type": "function"
    },
    {
      "constant": true,
      "inputs": [],
      "name": "version",
      "outputs": [
        {
          "name": "",
          "type": "string"
        }
      ],
      "payable": false,
      "stateMutability": "view",
      "type": "function"
    },
    {
      "constant": true,
      "inputs": [],
      "name": "governance",
      "outputs": [
        {
          "name": "",
          "type": "address"
        }
      ],
      "payable": false,
      "stateMutability": "view",
      "type": "function"
    },
    {
      "constant": true,
      "inputs": [],
      "name": "taxCommunityPool",
      "outputs": [
        {
          "name": "",
          "type": "address"
        }
      ],
      "payable": false,
      "stateMutability": "view",
      "type": "function"
    },
    {
      "constant": true,
      "inputs": [
        {
          "name": "account",
          "type": "address"
        }
      ],
      "name": "balanceOf",
      "outputs": [
        {
          "name": "",
          "type": "uint256"
        }
      ],
      "payable": false,
      "stateMutability": "view",
      "type": "function"
    },
    {
      "constant": true,
      "inputs": [],
      "name": "taxDevelopmentPool",
      "outputs": [
        {
          "name": "",
          "type": "address"
        }
      ],
      "payable": false,
      "stateMutability": "view",
      "type": "function"
    },
    {
      "constant": true,
      "inputs": [],
      "name": "symbol",
      "outputs": [
        {
          "name": "",
          "type": "string"
        }
      ],
      "payable": false,
      "stateMutability": "view",
      "type": "function"
    },
    {
      "constant": false,
      "inputs": [
        {
          "name": "spender",
          "type": "address"
        },
        {
          "name": "subtractedValue",
          "type": "uint256"
        }
      ],
      "name": "decreaseAllowance",
      "outputs": [
        {
          "name": "",
          "type": "bool"
        }
      ],
      "payable": false,
      "stateMutability": "nonpayable",
      "type": "function"
    },
    {
      "constant": false,
      "inputs": [
        {
          "name": "recipient",
          "type": "address"
        },
        {
          "name": "amount",
          "type": "uint256"
        }
      ],
      "name": "transfer",
      "outputs": [
        {
          "name": "",
          "type": "bool"
        }
      ],
      "payable": false,
      "stateMutability": "nonpayable",
      "type": "function"
    },
    {
      "constant": true,
      "inputs": [],
      "name": "taxRatePercent",
      "outputs": [
        {
          "name": "",
          "type": "uint8"
        }
      ],
      "payable": false,
      "stateMutability": "view",
      "type": "function"
    },
    {
      "constant": true,
      "inputs": [
        {
          "name": "owner",
          "type": "address"
        },
        {
          "name": "spender",
          "type": "address"
        }
      ],
      "name": "allowance",
      "outputs": [
        {
          "name": "",
          "type": "uint256"
        }
      ],
      "payable": false,
      "stateMutability": "view",
      "type": "function"
    },
    {
      "constant": true,
      "inputs": [],
      "name": "signalPerDai",
      "outputs": [
        {
          "name": "",
          "type": "uint8"
        }
      ],
      "payable": false,
      "stateMutability": "view",
      "type": "function"
    },
    {
      "constant": true,
      "inputs": [],
      "name": "dai",
      "outputs": [
        {
          "name": "",
          "type": "address"
        }
      ],
      "payable": false,
      "stateMutability": "view",
      "type": "function"
    },
    {
      "inputs": [
        {
          "name": "_governance",
          "type": "address"
        },
        {
          "name": "_taxRatePercent",
          "type": "uint8"
        },
        {
          "name": "_taxCommunityPool",
          "type": "address"
        },
        {
          "name": "_taxDevelopmentPool",
          "type": "address"
        },
        {
          "name": "_dai",
          "type": "address"
        },
        {
          "name": "_signalPerDai",
          "type": "uint8"
        }
      ],
      "payable": false,
      "stateMutability": "nonpayable",
      "type": "constructor"
    },
    {
      "anonymous": false,
      "inputs": [
        {
          "indexed": true,
          "name": "from",
          "type": "address"
        },
        {
          "indexed": true,
          "name": "to",
          "type": "address"
        },
        {
          "indexed": false,
          "name": "value",
          "type": "uint256"
        }
      ],
      "name": "Transfer",
      "type": "event"
    },
    {
      "anonymous": false,
      "inputs": [
        {
          "indexed": true,
          "name": "owner",
          "type": "address"
        },
        {
          "indexed": true,
          "name": "spender",
          "type": "address"
        },
        {
          "indexed": false,
          "name": "value",
          "type": "uint256"
        }
      ],
      "name": "Approval",
      "type": "event"
    },
    {
      "anonymous": false,
      "inputs": [
        {
          "indexed": true,
          "name": "sender",
          "type": "address"
        },
        {
          "indexed": false,
          "name": "taxAmount",
          "type": "uint256"
        }
      ],
      "name": "Tax",
      "type": "event"
    },
    {
      "constant": false,
      "inputs": [
        {
          "name": "signalValue",
          "type": "uint256"
        }
      ],
      "name": "mint",
      "outputs": [],
      "payable": false,
      "stateMutability": "nonpayable",
      "type": "function"
    },
    {
      "constant": false,
      "inputs": [
        {
          "name": "signalValue",
          "type": "uint256"
        }
      ],
      "name": "withdraw",
      "outputs": [],
      "payable": false,
      "stateMutability": "nonpayable",
      "type": "function"
    },
    {
      "constant": true,
      "inputs": [
        {
          "name": "_value",
          "type": "uint256"
        }
      ],
      "name": "getTaxedValue",
      "outputs": [
        {
          "name": "",
          "type": "uint256"
        }
      ],
      "payable": false,
      "stateMutability": "view",
      "type": "function"
    },
    {
      "constant": false,
      "inputs": [
        {
          "name": "_taxCommunityPool",
          "type": "address"
        }
      ],
      "name": "setTaxCommunityPool",
      "outputs": [],
      "payable": false,
      "stateMutability": "nonpayable",
      "type": "function"
    },
    {
      "constant": false,
      "inputs": [
        {
          "name": "_taxDevelopmentPool",
          "type": "address"
        }
      ],
      "name": "setTaxDevelopmentPool",
      "outputs": [],
      "payable": false,
      "stateMutability": "nonpayable",
      "type": "function"
    }
  ],
  "bytecode": "0x60806040526040518060400160405280600581526020017f302e302e3100000000000000000000000000000000000000000000000000000081525060079080519060200190620000519291906200030d565b503480156200005f57600080fd5b5060405160c08062003f138339810180604052620000819190810190620003fe565b85858585858585600460006101000a81548173ffffffffffffffffffffffffffffffffffffffff021916908373ffffffffffffffffffffffffffffffffffffffff16021790555084600660146101000a81548160ff021916908360ff16021790555083600560006101000a81548173ffffffffffffffffffffffffffffffffffffffff021916908373ffffffffffffffffffffffffffffffffffffffff16021790555082600660006101000a81548173ffffffffffffffffffffffffffffffffffffffff021916908373ffffffffffffffffffffffffffffffffffffffff16021790555081600360006101000a81548173ffffffffffffffffffffffffffffffffffffffff021916908373ffffffffffffffffffffffffffffffffffffffff16021790555080600660156101000a81548160ff021916908360ff16021790555050505050505085600960006101000a81548173ffffffffffffffffffffffffffffffffffffffff021916908373ffffffffffffffffffffffffffffffffffffffff16021790555084600860006101000a81548160ff021916908360ff16021790555083600a60006101000a81548173ffffffffffffffffffffffffffffffffffffffff021916908373ffffffffffffffffffffffffffffffffffffffff16021790555082600b60006101000a81548173ffffffffffffffffffffffffffffffffffffffff021916908373ffffffffffffffffffffffffffffffffffffffff16021790555081600860026101000a81548173ffffffffffffffffffffffffffffffffffffffff021916908373ffffffffffffffffffffffffffffffffffffffff16021790555080600860016101000a81548160ff021916908360ff160217905550505050505050620004e9565b828054600181600116156101000203166002900490600052602060002090601f016020900481019282601f106200035057805160ff191683800117855562000381565b8280016001018555821562000381579182015b828111156200038057825182559160200191906001019062000363565b5b50905062000390919062000394565b5090565b620003b991905b80821115620003b55760008160009055506001016200039b565b5090565b90565b6000620003ca825162000494565b905092915050565b6000620003e08251620004a8565b905092915050565b6000620003f68251620004dc565b905092915050565b60008060008060008060c087890312156200041857600080fd5b60006200042889828a01620003bc565b96505060206200043b89828a01620003e8565b95505060406200044e89828a01620003bc565b94505060606200046189828a01620003bc565b93505060806200047489828a01620003d2565b92505060a06200048789828a01620003e8565b9150509295509295509295565b6000620004a182620004bc565b9050919050565b6000620004b58262000494565b9050919050565b600073ffffffffffffffffffffffffffffffffffffffff82169050919050565b600060ff82169050919050565b613a1a80620004f96000396000f3fe608060405234801561001057600080fd5b506004361061016a576000357c0100000000000000000000000000000000000000000000000000000000900480636c3d00ff116100e0578063a9059cbb11610099578063a9059cbb146103d3578063b7220fc014610403578063dd62ed3e14610421578063e93bd53114610451578063ec667b2a1461046f578063f4b9fa751461048b5761016a565b80636c3d00ff146102fd57806370a082311461031b5780637811c8191461034b57806395d89b4114610369578063a0712d6814610387578063a457c2d7146103a35761016a565b80632e1a7d4d116101325780632e1a7d4d1461023b578063313ce5671461025757806339509351146102755780633f12d262146102a557806354fd4d50146102c15780635aa6e675146102df5761016a565b806306fdde031461016f578063095ea7b31461018d5780631141fdab146101bd57806318160ddd146101ed57806323b872dd1461020b575b600080fd5b6101776104a9565b6040516101849190613431565b60405180910390f35b6101a760048036036101a2919081019061227b565b6104e2565b6040516101b491906133fb565b60405180910390f35b6101d760048036036101d291908101906122e0565b6104f9565b6040516101e49190613853565b60405180910390f35b6101f5610634565b6040516102029190613853565b60405180910390f35b6102256004803603610220919081019061222c565b61063e565b60405161023291906133fb565b60405180910390f35b610255600480360361025091908101906122e0565b6106fd565b005b61025f610981565b60405161026c919061386e565b60405180910390f35b61028f600480360361028a919081019061227b565b610986565b60405161029c91906133fb565b60405180910390f35b6102bf60048036036102ba91908101906121c7565b610a2b565b005b6102c9610aff565b6040516102d69190613431565b60405180910390f35b6102e7610b9d565b6040516102f49190613357565b60405180910390f35b610305610bc3565b6040516103129190613357565b60405180910390f35b610335600480360361033091908101906121c7565b610be9565b6040516103429190613853565b60405180910390f35b610353610c31565b6040516103609190613357565b60405180910390f35b610371610c57565b60405161037e9190613431565b60405180910390f35b6103a1600480360361039c91908101906122e0565b610c90565b005b6103bd60048036036103b8919081019061227b565b611039565b6040516103ca91906133fb565b60405180910390f35b6103ed60048036036103e8919081019061227b565b6110de565b6040516103fa91906133fb565b60405180910390f35b61040b611103565b604051610418919061386e565b60405180910390f35b61043b600480360361043691908101906121f0565b611116565b6040516104489190613853565b60405180910390f35b61045961119d565b604051610466919061386e565b60405180910390f35b610489600480360361048491908101906121c7565b6111b0565b005b610493611284565b6040516104a09190613416565b60405180910390f35b6040518060400160405280600681526020017f5369676e616c000000000000000000000000000000000000000000000000000081525081565b60006104ef3384846112aa565b6001905092915050565b6000806105116127108461147590919063ffffffff16565b14610551576040517f08c379a0000000000000000000000000000000000000000000000000000000008152600401610548906135f3565b60405180910390fd5b600061058b606461057d600860009054906101000a900460ff1660ff16866114cc90919063ffffffff16565b61153c90919063ffffffff16565b9050600081116105d0576040517f08c379a00000000000000000000000000000000000000000000000000000000081526004016105c790613813565b60405180910390fd5b60006105e5828561159890919063ffffffff16565b90506000811161062a576040517f08c379a000000000000000000000000000000000000000000000000000000000815260040161062190613573565b60405180910390fd5b8092505050919050565b6000600254905090565b60008061064b85846115ee565b90506106588585836118a8565b6106f185336106ec86600160008b73ffffffffffffffffffffffffffffffffffffffff1673ffffffffffffffffffffffffffffffffffffffff16815260200190815260200160002060003373ffffffffffffffffffffffffffffffffffffffff1673ffffffffffffffffffffffffffffffffffffffff1681526020019081526020016000205461159890919063ffffffff16565b6112aa565b60019150509392505050565b60006107146127108361147590919063ffffffff16565b14610754576040517f08c379a000000000000000000000000000000000000000000000000000000000815260040161074b90613633565b60405180910390fd5b600073ffffffffffffffffffffffffffffffffffffffff163373ffffffffffffffffffffffffffffffffffffffff1614156107c4576040517f08c379a00000000000000000000000000000000000000000000000000000000081526004016107bb906137b3565b60405180910390fd5b60006107e1826107d333610be9565b61159890919063ffffffff16565b1015610822576040517f08c379a0000000000000000000000000000000000000000000000000000000008152600401610819906134f3565b60405180910390fd5b610847600860019054906101000a900460ff1660ff168261153c90919063ffffffff16565b600860029054906101000a900473ffffffffffffffffffffffffffffffffffffffff1673ffffffffffffffffffffffffffffffffffffffff166370a08231306040518263ffffffff167c01000000000000000000000000000000000000000000000000000000000281526004016108be9190613357565b60206040518083038186803b1580156108d657600080fd5b505afa1580156108ea573d6000803e3d6000fd5b505050506040513d601f19601f8201168201806040525061090e9190810190612309565b101561094f576040517f08c379a000000000000000000000000000000000000000000000000000000000815260040161094690613733565b60405180910390fd5b61097e33610978600860019054906101000a900460ff1660ff168461153c90919063ffffffff16565b83611b18565b50565b601281565b6000610a213384610a1c85600160003373ffffffffffffffffffffffffffffffffffffffff1673ffffffffffffffffffffffffffffffffffffffff16815260200190815260200160002060008973ffffffffffffffffffffffffffffffffffffffff1673ffffffffffffffffffffffffffffffffffffffff16815260200190815260200160002054611d6490919063ffffffff16565b6112aa565b6001905092915050565b600960009054906101000a900473ffffffffffffffffffffffffffffffffffffffff1673ffffffffffffffffffffffffffffffffffffffff163373ffffffffffffffffffffffffffffffffffffffff1614610abb576040517f08c379a0000000000000000000000000000000000000000000000000000000008152600401610ab290613553565b60405180910390fd5b80600a60006101000a81548173ffffffffffffffffffffffffffffffffffffffff021916908373ffffffffffffffffffffffffffffffffffffffff16021790555050565b60078054600181600116156101000203166002900480601f016020809104026020016040519081016040528092919081815260200182805460018160011615610100020316600290048015610b955780601f10610b6a57610100808354040283529160200191610b95565b820191906000526020600020905b815481529060010190602001808311610b7857829003601f168201915b505050505081565b600960009054906101000a900473ffffffffffffffffffffffffffffffffffffffff1681565b600a60009054906101000a900473ffffffffffffffffffffffffffffffffffffffff1681565b60008060008373ffffffffffffffffffffffffffffffffffffffff1673ffffffffffffffffffffffffffffffffffffffff168152602001908152602001600020549050919050565b600b60009054906101000a900473ffffffffffffffffffffffffffffffffffffffff1681565b6040518060400160405280600281526020017f644200000000000000000000000000000000000000000000000000000000000081525081565b6000610ca76127108361147590919063ffffffff16565b14610ce7576040517f08c379a0000000000000000000000000000000000000000000000000000000008152600401610cde90613593565b60405180910390fd5b6000610d0382610cf5610634565b611d6490919063ffffffff16565b11610d43576040517f08c379a0000000000000000000000000000000000000000000000000000000008152600401610d3a90613833565b60405180910390fd5b610d68600860019054906101000a900460ff1660ff168261153c90919063ffffffff16565b600860029054906101000a900473ffffffffffffffffffffffffffffffffffffffff1673ffffffffffffffffffffffffffffffffffffffff1663dd62ed3e33306040518363ffffffff167c0100000000000000000000000000000000000000000000000000000000028152600401610de1929190613372565b60206040518083038186803b158015610df957600080fd5b505afa158015610e0d573d6000803e3d6000fd5b505050506040513d601f19601f82011682018060405250610e319190810190612309565b1015610e72576040517f08c379a0000000000000000000000000000000000000000000000000000000008152600401610e6990613673565b60405180910390fd5b600860029054906101000a900473ffffffffffffffffffffffffffffffffffffffff1673ffffffffffffffffffffffffffffffffffffffff166323b872dd3330610ed7600860019054906101000a900460ff1660ff168661153c90919063ffffffff16565b6040518463ffffffff167c0100000000000000000000000000000000000000000000000000000000028152600401610f119392919061339b565b602060405180830381600087803b158015610f2b57600080fd5b505af1158015610f3f573d6000803e3d6000fd5b505050506040513d601f19601f82011682018060405250610f6391908101906122b7565b610fa2576040517f08c379a0000000000000000000000000000000000000000000000000000000008152600401610f99906136b3565b60405180910390fd5b80610fec600860019054906101000a900460ff1660ff16610fde600860019054906101000a900460ff1660ff168561153c90919063ffffffff16565b6114cc90919063ffffffff16565b1461102c576040517f08c379a0000000000000000000000000000000000000000000000000000000008152600401611023906135d3565b60405180910390fd5b6110363382611db9565b50565b60006110d433846110cf85600160003373ffffffffffffffffffffffffffffffffffffffff1673ffffffffffffffffffffffffffffffffffffffff16815260200190815260200160002060008973ffffffffffffffffffffffffffffffffffffffff1673ffffffffffffffffffffffffffffffffffffffff1681526020019081526020016000205461159890919063ffffffff16565b6112aa565b6001905092915050565b6000806110eb33846115ee565b90506110f83385836118a8565b600191505092915050565b600860009054906101000a900460ff1681565b6000600160008473ffffffffffffffffffffffffffffffffffffffff1673ffffffffffffffffffffffffffffffffffffffff16815260200190815260200160002060008373ffffffffffffffffffffffffffffffffffffffff1673ffffffffffffffffffffffffffffffffffffffff16815260200190815260200160002054905092915050565b600860019054906101000a900460ff1681565b600960009054906101000a900473ffffffffffffffffffffffffffffffffffffffff1673ffffffffffffffffffffffffffffffffffffffff163373ffffffffffffffffffffffffffffffffffffffff1614611240576040517f08c379a000000000000000000000000000000000000000000000000000000000815260040161123790613653565b60405180910390fd5b80600b60006101000a81548173ffffffffffffffffffffffffffffffffffffffff021916908373ffffffffffffffffffffffffffffffffffffffff16021790555050565b600860029054906101000a900473ffffffffffffffffffffffffffffffffffffffff1681565b600073ffffffffffffffffffffffffffffffffffffffff168373ffffffffffffffffffffffffffffffffffffffff16141561131a576040517f08c379a000000000000000000000000000000000000000000000000000000000815260040161131190613713565b60405180910390fd5b600073ffffffffffffffffffffffffffffffffffffffff168273ffffffffffffffffffffffffffffffffffffffff16141561138a576040517f08c379a000000000000000000000000000000000000000000000000000000000815260040161138190613513565b60405180910390fd5b80600160008573ffffffffffffffffffffffffffffffffffffffff1673ffffffffffffffffffffffffffffffffffffffff16815260200190815260200160002060008473ffffffffffffffffffffffffffffffffffffffff1673ffffffffffffffffffffffffffffffffffffffff168152602001908152602001600020819055508173ffffffffffffffffffffffffffffffffffffffff168373ffffffffffffffffffffffffffffffffffffffff167f8c5be1e5ebec7d5bd14f71427d1e84f3dd0314c0f7b2291e5b200ac8c7c3b925836040516114689190613853565b60405180910390a3505050565b6000808214156114ba576040517f08c379a00000000000000000000000000000000000000000000000000000000081526004016114b1906137d3565b60405180910390fd5b8183816114c357fe5b06905092915050565b6000808314156114df5760009050611536565b60008284029050828482816114f057fe5b0414611531576040517f08c379a000000000000000000000000000000000000000000000000000000000815260040161152890613473565b60405180910390fd5b809150505b92915050565b6000808211611580576040517f08c379a000000000000000000000000000000000000000000000000000000000815260040161157790613793565b60405180910390fd5b600082848161158b57fe5b0490508091505092915050565b6000828211156115dd576040517f08c379a00000000000000000000000000000000000000000000000000000000081526004016115d490613533565b60405180910390fd5b600082840390508091505092915050565b6000806116066127108461147590919063ffffffff16565b14611646576040517f08c379a000000000000000000000000000000000000000000000000000000000815260040161163d906135b3565b60405180910390fd5b600061168060c8611672600660149054906101000a900460ff1660ff16866114cc90919063ffffffff16565b61153c90919063ffffffff16565b9050600081116116c5576040517f08c379a00000000000000000000000000000000000000000000000000000000081526004016116bc90613813565b60405180910390fd5b60006116db6002836114cc90919063ffffffff16565b905060006116f2828661159890919063ffffffff16565b905060008111611737576040517f08c379a000000000000000000000000000000000000000000000000000000000815260040161172e90613573565b60405180910390fd5b84611770600660149054906101000a900460ff1660ff166117626064866114cc90919063ffffffff16565b61153c90919063ffffffff16565b146117b0576040517f08c379a00000000000000000000000000000000000000000000000000000000081526004016117a7906134b3565b60405180910390fd5b84828201146117f4576040517f08c379a00000000000000000000000000000000000000000000000000000000081526004016117eb90613453565b60405180910390fd5b61182186600560009054906101000a900473ffffffffffffffffffffffffffffffffffffffff16856118a8565b61184e86600660009054906101000a900473ffffffffffffffffffffffffffffffffffffffff16856118a8565b8573ffffffffffffffffffffffffffffffffffffffff167f800f0710d5627fe1155e84a30f52e968a8b0df991b6f2538e4ab459786289a32836040516118949190613853565b60405180910390a280935050505092915050565b600073ffffffffffffffffffffffffffffffffffffffff168373ffffffffffffffffffffffffffffffffffffffff161415611918576040517f08c379a000000000000000000000000000000000000000000000000000000000815260040161190f906136f3565b60405180910390fd5b600073ffffffffffffffffffffffffffffffffffffffff168273ffffffffffffffffffffffffffffffffffffffff161415611988576040517f08c379a000000000000000000000000000000000000000000000000000000000815260040161197f90613493565b60405180910390fd5b6119d9816000808673ffffffffffffffffffffffffffffffffffffffff1673ffffffffffffffffffffffffffffffffffffffff1681526020019081526020016000205461159890919063ffffffff16565b6000808573ffffffffffffffffffffffffffffffffffffffff1673ffffffffffffffffffffffffffffffffffffffff16815260200190815260200160002081905550611a6c816000808573ffffffffffffffffffffffffffffffffffffffff1673ffffffffffffffffffffffffffffffffffffffff16815260200190815260200160002054611d6490919063ffffffff16565b6000808473ffffffffffffffffffffffffffffffffffffffff1673ffffffffffffffffffffffffffffffffffffffff168152602001908152602001600020819055508173ffffffffffffffffffffffffffffffffffffffff168373ffffffffffffffffffffffffffffffffffffffff167fddf252ad1be2c89b69c2b068fc378daa952ba7f163c4a11628f55a4df523b3ef83604051611b0b9190613853565b60405180910390a3505050565b600360009054906101000a900473ffffffffffffffffffffffffffffffffffffffff1673ffffffffffffffffffffffffffffffffffffffff1663a9059cbb84846040518363ffffffff167c0100000000000000000000000000000000000000000000000000000000028152600401611b919291906133d2565b602060405180830381600087803b158015611bab57600080fd5b505af1158015611bbf573d6000803e3d6000fd5b505050506040513d601f19601f82011682018060405250611be391908101906122b7565b611c22576040517f08c379a0000000000000000000000000000000000000000000000000000000008152600401611c1990613753565b60405180910390fd5b611c2c3382611f98565b611c34610634565b611d1f600660159054906101000a900460ff1660ff16600360009054906101000a900473ffffffffffffffffffffffffffffffffffffffff1673ffffffffffffffffffffffffffffffffffffffff166370a08231306040518263ffffffff167c0100000000000000000000000000000000000000000000000000000000028152600401611cc19190613357565b60206040518083038186803b158015611cd957600080fd5b505afa158015611ced573d6000803e3d6000fd5b505050506040513d601f19601f82011682018060405250611d119190810190612309565b6114cc90919063ffffffff16565b14611d5f576040517f08c379a0000000000000000000000000000000000000000000000000000000008152600401611d56906134d3565b60405180910390fd5b505050565b600080828401905083811015611daf576040517f08c379a0000000000000000000000000000000000000000000000000000000008152600401611da6906136d3565b60405180910390fd5b8091505092915050565b6000611dd06127108361147590919063ffffffff16565b14611e10576040517f08c379a0000000000000000000000000000000000000000000000000000000008152600401611e0790613773565b60405180910390fd5b600073ffffffffffffffffffffffffffffffffffffffff168273ffffffffffffffffffffffffffffffffffffffff161415611e80576040517f08c379a0000000000000000000000000000000000000000000000000000000008152600401611e77906137f3565b60405180910390fd5b611e9581600254611d6490919063ffffffff16565b600281905550611eec816000808573ffffffffffffffffffffffffffffffffffffffff1673ffffffffffffffffffffffffffffffffffffffff16815260200190815260200160002054611d6490919063ffffffff16565b6000808473ffffffffffffffffffffffffffffffffffffffff1673ffffffffffffffffffffffffffffffffffffffff168152602001908152602001600020819055508173ffffffffffffffffffffffffffffffffffffffff16600073ffffffffffffffffffffffffffffffffffffffff167fddf252ad1be2c89b69c2b068fc378daa952ba7f163c4a11628f55a4df523b3ef83604051611f8c9190613853565b60405180910390a35050565b6000611faf6127108361147590919063ffffffff16565b14611fef576040517f08c379a0000000000000000000000000000000000000000000000000000000008152600401611fe690613613565b60405180910390fd5b600073ffffffffffffffffffffffffffffffffffffffff168273ffffffffffffffffffffffffffffffffffffffff16141561205f576040517f08c379a000000000000000000000000000000000000000000000000000000000815260040161205690613693565b60405180910390fd5b6120748160025461159890919063ffffffff16565b6002819055506120cb816000808573ffffffffffffffffffffffffffffffffffffffff1673ffffffffffffffffffffffffffffffffffffffff1681526020019081526020016000205461159890919063ffffffff16565b6000808473ffffffffffffffffffffffffffffffffffffffff1673ffffffffffffffffffffffffffffffffffffffff16815260200190815260200160002081905550600073ffffffffffffffffffffffffffffffffffffffff168273ffffffffffffffffffffffffffffffffffffffff167fddf252ad1be2c89b69c2b068fc378daa952ba7f163c4a11628f55a4df523b3ef8360405161216b9190613853565b60405180910390a35050565b600061218382356138fa565b905092915050565b6000612197825161390c565b905092915050565b60006121ab8235613938565b905092915050565b60006121bf8251613938565b905092915050565b6000602082840312156121d957600080fd5b60006121e784828501612177565b91505092915050565b6000806040838503121561220357600080fd5b600061221185828601612177565b925050602061222285828601612177565b9150509250929050565b60008060006060848603121561224157600080fd5b600061224f86828701612177565b935050602061226086828701612177565b92505060406122718682870161219f565b9150509250925092565b6000806040838503121561228e57600080fd5b600061229c85828601612177565b92505060206122ad8582860161219f565b9150509250929050565b6000602082840312156122c957600080fd5b60006122d78482850161218b565b91505092915050565b6000602082840312156122f257600080fd5b60006123008482850161219f565b91505092915050565b60006020828403121561231b57600080fd5b6000612329848285016121b3565b91505092915050565b61233b81613942565b82525050565b61234a816138a5565b82525050565b612359816138b7565b82525050565b61236881613954565b82525050565b600061237982613889565b6123838185613894565b935061239381856020860161399c565b61239c816139cf565b840191505092915050565b60006123b4603983613894565b91507f5f7461783a207472616e73616374696f6e20746f6f20736d616c6c20746f207060008301527f7265736572766520696e746567657220696e74656772697479000000000000006020830152604082019050919050565b600061241a601f83613894565b91507f536166654d6174683a3a6d756c3a20496e7465676572206f766572666c6f77006000830152602082019050919050565b600061245a602383613894565b91507f45524332303a207472616e7366657220746f20746865207a65726f206164647260008301527f65737300000000000000000000000000000000000000000000000000000000006020830152604082019050919050565b60006124c0604183613894565b91507f45524332303a3a5f7461783a207472616e73616374696f6e2076616c7565207760008301527f6f756c6420636175736520636f6c6c61746f72616c69736174696f6e206c656160208301527f6b000000000000000000000000000000000000000000000000000000000000006040830152606082019050919050565b600061254c604883613894565b91507f45524332303a5f77697468647261773a20776974686472617720776f756c642060008301527f6361757365205369676e616c20756e646572636f6c6c61746f72616c6973617460208301527f696f6e206c65616b0000000000000000000000000000000000000000000000006040830152606082019050919050565b60006125d8605e83613894565b91507f5369676e616c3a3a77697468647261773a20576974686472617720616464726560008301527f737320646f6573206e6f7420686176652062616c616e6365207375666669636960208301527f656e7420746f2066756c66696c207769746864726177207265717565737400006040830152606082019050919050565b6000612664602283613894565b91507f45524332303a20617070726f766520746f20746865207a65726f20616464726560008301527f73730000000000000000000000000000000000000000000000000000000000006020830152604082019050919050565b60006126ca602083613894565b91507f536166654d6174683a3a7375623a20496e746567657220756e646572666c6f776000830152602082019050919050565b600061270a605a83613894565b91507f476f7665726e616e63653a3a736574546178436f6d6d756e697479506f6f6c3a60008301527f20436f6d6d756e6974792074617820706f6f6c20616464726573732063616e2060208301527f6f6e6c79206265207365742076696120676f7665726e616e63650000000000006040830152606082019050919050565b6000612796601b83613894565b91507f5f7461783a20706f696e746c657373207472616e73616374696f6e00000000006000830152602082019050919050565b60006127d6608a83613894565b91507f5369676e616c3a3a6d696e743a205369676e616c20696e7075742076616c756560008301527f206d75737420636f6e7461696e207a65726f20696e20746865206c617374203460208301527f20756e697473206f6620746865205369676e616c20616d6f756e74202870726560408301527f76656e7473205369676e616c20756e646572636f6c6c61746f72616c6973617460608301527f696f6e207269736b292e00000000000000000000000000000000000000000000608083015260a082019050919050565b60006128ae607883613894565b91507f45524332303a3a5f7461783a20616d6f756e74206d75737420636f6e7461696e60008301527f207a65726f20696e20746865206c617374203420756e697473206f662074686560208301527f2077656920756e6974202870726576656e7473205369676e616c20756e64657260408301527f636f6c6c61746f72616c69736174696f6e207269736b292e00000000000000006060830152608082019050919050565b6000612960606783613894565b91507f5369676e616c3a3a6d696e743a20205369676e616c20756e646572636f6c6c6160008301527f746f72616c69736174696f6e207269736b2028747279207573696e67206c657360208301527f732064656772656573206f6620707265636973696f6e2f646563696d616c207060408301527f6c61636573292e000000000000000000000000000000000000000000000000006060830152608082019050919050565b6000612a12607883613894565b91507f45524332303a3a5f7461783a205f76616c7565206d75737420636f6e7461696e60008301527f207a65726f20696e20746865206c617374203420756e697473206f662074686560208301527f2077656920756e6974202870726576656e7473205369676e616c20756e64657260408301527f636f6c6c61746f72616c69736174696f6e207269736b292e00000000000000006060830152608082019050919050565b6000612ac4608083613894565b91507f45524332303a2076616c7565206d75737420636f6e7461696e207a65726f206960008301527f6e20746865206c617374203420756e697473206f66207468652077656920756e60208301527f6974202870726563617574696f6e6172792073616665677561726420666f722060408301527f5369676e616c20756e6465722d636f6c6c61746f72616c69736174696f6e292e6060830152608082019050919050565b6000612b76608a83613894565b91507f5369676e616c3a3a5f77697468647261773a205369676e616c20696e7075742060008301527f76616c7565206d75737420636f6e7461696e207a65726f20696e20746865206c60208301527f617374203420756e697473206f66207468652077656920756e6974202870726560408301527f76656e7473205369676e616c20756e646572636f6c6c61746f72616c6973617460608301527f696f6e207269736b292e00000000000000000000000000000000000000000000608083015260a082019050919050565b6000612c4e605683613894565b91507f476f7665726e616e63653a3a736574546178446576656c6f706d656e74506f6f60008301527f6c3a20446576656c6f706d656e742074617820706f6f6c2063616e206f6e6c7960208301527f206265207365742076696120676f7665726e616e6365000000000000000000006040830152606082019050919050565b6000612cda605483613894565b91507f5369676e616c3a3a6d696e743a2044414920616c6c6f77616e6365206973206e60008301527f6f742073756666696369656e7420666f72206d696e74696e672072657175657360208301527f7465642076616c7565206f66205369676e616c2e0000000000000000000000006040830152606082019050919050565b6000612d66602183613894565b91507f45524332303a206275726e2066726f6d20746865207a65726f2061646472657360008301527f73000000000000000000000000000000000000000000000000000000000000006020830152604082019050919050565b6000612dcc606d83613894565b91507f5369676e616c3a3a6d696e743a20444149207472616e73666572206661696c6560008301527f642c206d616b652073757265204441492062616c616e6365206973207375666660208301527f696369656e7420666f72206d696e74696e67207265717565737465642076616c60408301527f7565206f66205369676e616c2e000000000000000000000000000000000000006060830152608082019050919050565b6000612e7e601f83613894565b91507f536166654d6174683a3a6164643a20496e7465676572206f766572666c6f77006000830152602082019050919050565b6000612ebe602583613894565b91507f45524332303a207472616e736665722066726f6d20746865207a65726f20616460008301527f64726573730000000000000000000000000000000000000000000000000000006020830152604082019050919050565b6000612f24602483613894565b91507f45524332303a20617070726f76652066726f6d20746865207a65726f2061646460008301527f72657373000000000000000000000000000000000000000000000000000000006020830152604082019050919050565b6000612f8a605183613894565b91507f5369676e616c3a3a77697468647261773a20444149207265736572766520697360008301527f206e6f74206c6172676520656e6f75676820746f2066756c66696c207468697360208301527f20776974686472617720726571756573740000000000000000000000000000006040830152606082019050919050565b6000613016603283613894565b91507f45524332303a3a5f77697468647261773a20776974686472617720444149207460008301527f72616e7366657246726f6d206661696c656400000000000000000000000000006020830152604082019050919050565b600061307c607983613894565b91507f45524332303a3a5f6d696e743a20616d6f756e74206d75737420636f6e74616960008301527f6e207a65726f20696e20746865206c617374203420756e697473206f6620746860208301527f652077656920756e6974202870726576656e7473205369676e616c20756e646560408301527f72636f6c6c61746f72616c69736174696f6e207269736b292e000000000000006060830152608082019050919050565b600061312e602383613894565b91507f536166654d6174683a3a6469763a20496e76616c69642064697669736f72207a60008301527f65726f00000000000000000000000000000000000000000000000000000000006020830152604082019050919050565b6000613194603a83613894565b91507f5369676e616c3a3a77697468647261773a20576974686472617720616464726560008301527f73732063616e206e6f7420626520766f696420616464726573730000000000006020830152604082019050919050565b60006131fa602383613894565b91507f536166654d6174683a3a6d6f643a20496e76616c69642064697669736f72207a60008301527f65726f00000000000000000000000000000000000000000000000000000000006020830152604082019050919050565b6000613260601f83613894565b91507f45524332303a206d696e7420746f20746865207a65726f2061646472657373006000830152602082019050919050565b60006132a0600d83613894565b91507f5f7461783a2061766572746564000000000000000000000000000000000000006000830152602082019050919050565b60006132e0603c83613894565b91507f5369676e616c3a3a6d696e743a20537570706c7920776f756c6420657863656560008301527f64206d6178696d756d20736166652075696e742028325e323536292e000000006020830152604082019050919050565b613342816138e3565b82525050565b613351816138ed565b82525050565b600060208201905061336c6000830184612341565b92915050565b60006040820190506133876000830185612332565b6133946020830184612341565b9392505050565b60006060820190506133b06000830186612332565b6133bd6020830185612341565b6133ca6040830184613339565b949350505050565b60006040820190506133e76000830185612341565b6133f46020830184613339565b9392505050565b60006020820190506134106000830184612350565b92915050565b600060208201905061342b600083018461235f565b92915050565b6000602082019050818103600083015261344b818461236e565b905092915050565b6000602082019050818103600083015261346c816123a7565b9050919050565b6000602082019050818103600083015261348c8161240d565b9050919050565b600060208201905081810360008301526134ac8161244d565b9050919050565b600060208201905081810360008301526134cc816124b3565b9050919050565b600060208201905081810360008301526134ec8161253f565b9050919050565b6000602082019050818103600083015261350c816125cb565b9050919050565b6000602082019050818103600083015261352c81612657565b9050919050565b6000602082019050818103600083015261354c816126bd565b9050919050565b6000602082019050818103600083015261356c816126fd565b9050919050565b6000602082019050818103600083015261358c81612789565b9050919050565b600060208201905081810360008301526135ac816127c9565b9050919050565b600060208201905081810360008301526135cc816128a1565b9050919050565b600060208201905081810360008301526135ec81612953565b9050919050565b6000602082019050818103600083015261360c81612a05565b9050919050565b6000602082019050818103600083015261362c81612ab7565b9050919050565b6000602082019050818103600083015261364c81612b69565b9050919050565b6000602082019050818103600083015261366c81612c41565b9050919050565b6000602082019050818103600083015261368c81612ccd565b9050919050565b600060208201905081810360008301526136ac81612d59565b9050919050565b600060208201905081810360008301526136cc81612dbf565b9050919050565b600060208201905081810360008301526136ec81612e71565b9050919050565b6000602082019050818103600083015261370c81612eb1565b9050919050565b6000602082019050818103600083015261372c81612f17565b9050919050565b6000602082019050818103600083015261374c81612f7d565b9050919050565b6000602082019050818103600083015261376c81613009565b9050919050565b6000602082019050818103600083015261378c8161306f565b9050919050565b600060208201905081810360008301526137ac81613121565b9050919050565b600060208201905081810360008301526137cc81613187565b9050919050565b600060208201905081810360008301526137ec816131ed565b9050919050565b6000602082019050818103600083015261380c81613253565b9050919050565b6000602082019050818103600083015261382c81613293565b9050919050565b6000602082019050818103600083015261384c816132d3565b9050919050565b60006020820190506138686000830184613339565b92915050565b60006020820190506138836000830184613348565b92915050565b600081519050919050565b600082825260208201905092915050565b60006138b0826138c3565b9050919050565b60008115159050919050565b600073ffffffffffffffffffffffffffffffffffffffff82169050919050565b6000819050919050565b600060ff82169050919050565b600061390582613918565b9050919050565b60008115159050919050565b600073ffffffffffffffffffffffffffffffffffffffff82169050919050565b6000819050919050565b600061394d82613978565b9050919050565b600061395f82613966565b9050919050565b6000613971826138c3565b9050919050565b60006139838261398a565b9050919050565b6000613995826138c3565b9050919050565b60005b838110156139ba57808201518184015260208101905061399f565b838111156139c9576000848401525b50505050565b6000601f19601f830116905091905056fea265627a7a7230582080b2d6650ab1f508a1ebf241924bfc26b88eb5d707a9df7839bb23451b6ad0d26c6578706572696d656e74616cf50037",
  "source": "pragma solidity 0.5.7;\npragma experimental ABIEncoderV2;\n\nimport { IERC20 } from \"./interface/IERC20.sol\";\nimport { ERC20Taxable } from \"./ERC20Taxable.sol\";\n\n\n/**\n * @title Signal\n * @dev ERC20Taxable Signal token can be used for constructive or destructive interference in harmony with other signals.\n */\ncontract Signal is ERC20Taxable {\n\n    string public version = \"0.0.1\";\n    string public constant name = \"Signal\";\n    string public constant symbol = \"dB\";\n\n    uint8 public constant decimals = 18;\n    uint8 public taxRatePercent;\n    uint8 public signalPerDai;\n\n    IERC20 public dai;\n    address public governance;\n    address public taxCommunityPool;\n    address public taxDevelopmentPool;\n\n    constructor(address _governance, uint8 _taxRatePercent, address _taxCommunityPool, address _taxDevelopmentPool, IERC20 _dai, uint8 _signalPerDai) public ERC20Taxable(_governance, _taxRatePercent, _taxCommunityPool, _taxDevelopmentPool, _dai, _signalPerDai) {\n        governance = _governance;\n        taxRatePercent = _taxRatePercent;\n        taxCommunityPool = _taxCommunityPool;\n        taxDevelopmentPool = _taxDevelopmentPool;\n        dai = _dai;\n        signalPerDai = _signalPerDai;\n    }\n\n    function mint(uint256 signalValue) public {\n        require(\n            signalValue.mod(10000) == 0,\n            \"Signal::mint: Signal input value must contain zero in the last 4 units of the Signal amount (prevents Signal undercollatoralisation risk).\"\n        );\n        require(\n            totalSupply().add(signalValue) > 0,\n            \"Signal::mint: Supply would exceed maximum safe uint (2^256).\"\n        );\n        require(\n            dai.allowance(msg.sender, address(this)) >= signalValue.div(signalPerDai),\n            \"Signal::mint: DAI allowance is not sufficient for minting requested value of Signal.\"\n        );\n        require(\n            dai.transferFrom(msg.sender, address(this), signalValue.div(signalPerDai)),\n            \"Signal::mint: DAI transfer failed, make sure DAI balance is sufficient for minting requested value of Signal.\"\n        );\n        require(\n            signalValue.div(signalPerDai).mul(signalPerDai) == signalValue,\n            \"Signal::mint:  Signal undercollatoralisation risk (try using less degrees of precision/decimal places).\"\n        );\n        _mint(msg.sender, signalValue);\n    }\n\n    function withdraw(uint256 signalValue) public {\n        require(\n            signalValue.mod(10000) == 0,\n            \"Signal::_withdraw: Signal input value must contain zero in the last 4 units of the wei unit (prevents Signal undercollatoralisation risk).\"\n        );\n        require(\n            msg.sender != 0x0000000000000000000000000000000000000000,\n            \"Signal::withdraw: Withdraw address can not be void address\"\n        );\n        require(\n            balanceOf(msg.sender).sub(signalValue) >= 0,\n            \"Signal::withdraw: Withdraw address does not have balance sufficient to fulfil withdraw request\"\n        );\n        require(\n            dai.balanceOf(address(this)) >= signalValue.div(signalPerDai),\n            \"Signal::withdraw: DAI reserve is not large enough to fulfil this withdraw request\"\n        );\n        _withdraw(msg.sender, signalValue.div(signalPerDai), signalValue);\n    }\n\n    function getTaxedValue(uint256 _value) public view returns(uint256) {\n        // This function simulates transaction taxation, the internal _tax function should be used for actual Signal taxation\n        require(\n            _value.mod(10000) == 0,\n            \"ERC20::_tax: _value must contain zero in the last 4 units of the wei unit (prevents Signal undercollatoralisation risk).\"\n        );\n        uint256 taxValue = _value.mul(taxRatePercent).div(100); // Whole value of taxable _value\n        require(taxValue > 0, \"_tax: averted\");\n        uint256 amountMinusTax = _value.sub(taxValue); // Total transfer minus tax\n        require(amountMinusTax > 0, \"_tax: pointless transaction\");\n        return amountMinusTax;\n    }\n\n    function setTaxCommunityPool(address _taxCommunityPool) public {\n        require(msg.sender == governance, \"Governance::setTaxCommunityPool: Community tax pool address can only be set via governance\");\n        taxCommunityPool = _taxCommunityPool;\n    }\n\n    function setTaxDevelopmentPool(address _taxDevelopmentPool) public {\n        require(msg.sender == governance, \"Governance::setTaxDevelopmentPool: Development tax pool can only be set via governance\");\n        taxDevelopmentPool = _taxDevelopmentPool;\n    }\n\n}\n",
  "sourcePath": "/Users/jaywelsh/GitHub/society0x/ethereum/contracts/Signal.sol",
  "compiler": {
    "name": "solc",
    "version": "0.5.7+commit.6da8b019.Emscripten.clang"
  },
  "schemaVersion": "3.0.16",
  "updatedAt": "2020-01-04T19:22:40.770Z",
  "devdoc": {
    "details": "ERC20Taxable Signal token can be used for constructive or destructive interference in harmony with other signals.",
    "methods": {
      "allowance(address,address)": {
        "details": "See `IERC20.allowance`."
      },
      "approve(address,uint256)": {
        "details": "See `IERC20.approve`.     * Requirements:     * - `spender` cannot be the zero address."
      },
      "balanceOf(address)": {
        "details": "See `IERC20.balanceOf`."
      },
      "decreaseAllowance(address,uint256)": {
        "details": "Atomically decreases the allowance granted to `spender` by the caller.     * This is an alternative to `approve` that can be used as a mitigation for problems described in `IERC20.approve`.     * Emits an `Approval` event indicating the updated allowance.     * Requirements:     * - `spender` cannot be the zero address. - `spender` must have allowance for the caller of at least `subtractedValue`."
      },
      "increaseAllowance(address,uint256)": {
        "details": "Atomically increases the allowance granted to `spender` by the caller.     * This is an alternative to `approve` that can be used as a mitigation for problems described in `IERC20.approve`.     * Emits an `Approval` event indicating the updated allowance.     * Requirements:     * - `spender` cannot be the zero address."
      },
      "totalSupply()": {
        "details": "See `IERC20.totalSupply`."
      },
      "transfer(address,uint256)": {
        "details": "See `IERC20.transfer`.     * Requirements:     * - `recipient` cannot be the zero address. - the caller must have a balance of at least `amount`."
      },
      "transferFrom(address,address,uint256)": {
        "details": "See `IERC20.transferFrom`.     * Emits an `Approval` event indicating the updated allowance. This is not required by the EIP. See the note at the beginning of `ERC20`;     * Requirements: - `sender` and `recipient` cannot be the zero address. - `sender` must have a balance of at least `value`. - the caller must have allowance for `sender`'s tokens of at least `amount`."
      }
    },
    "title": "Signal"
  },
  "userdoc": {
    "methods": {}
  }
}