{
  "contractName": "Society0x",
  "abi": [
    {
      "constant": true,
      "inputs": [
        {
          "name": "",
          "type": "uint256"
        }
      ],
      "name": "discoveryIndex",
      "outputs": [
        {
          "name": "",
          "type": "address"
        }
      ],
      "payable": false,
      "stateMutability": "view",
      "type": "function"
    },
    {
      "constant": true,
      "inputs": [
        {
          "name": "",
          "type": "address"
        },
        {
          "name": "",
          "type": "address"
        }
      ],
      "name": "pendingConnections",
      "outputs": [
        {
          "name": "",
          "type": "bool"
        }
      ],
      "payable": false,
      "stateMutability": "view",
      "type": "function"
    },
    {
      "constant": true,
      "inputs": [],
      "name": "interactionFee",
      "outputs": [
        {
          "name": "",
          "type": "uint256"
        }
      ],
      "payable": false,
      "stateMutability": "view",
      "type": "function"
    },
    {
      "constant": true,
      "inputs": [],
      "name": "signal",
      "outputs": [
        {
          "name": "",
          "type": "address"
        }
      ],
      "payable": false,
      "stateMutability": "view",
      "type": "function"
    },
    {
      "constant": true,
      "inputs": [
        {
          "name": "",
          "type": "address"
        },
        {
          "name": "",
          "type": "address"
        }
      ],
      "name": "connections",
      "outputs": [
        {
          "name": "",
          "type": "bool"
        }
      ],
      "payable": false,
      "stateMutability": "view",
      "type": "function"
    },
    {
      "constant": true,
      "inputs": [],
      "name": "signalCount",
      "outputs": [
        {
          "name": "",
          "type": "uint256"
        }
      ],
      "payable": false,
      "stateMutability": "view",
      "type": "function"
    },
    {
      "constant": true,
      "inputs": [],
      "name": "profileCount",
      "outputs": [
        {
          "name": "",
          "type": "uint256"
        }
      ],
      "payable": false,
      "stateMutability": "view",
      "type": "function"
    },
    {
      "inputs": [
        {
          "name": "_signal",
          "type": "address"
        }
      ],
      "payable": false,
      "stateMutability": "nonpayable",
      "type": "constructor"
    },
    {
      "constant": true,
      "inputs": [],
      "name": "getDiscoveryIndexForMsgSender",
      "outputs": [
        {
          "name": "",
          "type": "uint256"
        }
      ],
      "payable": false,
      "stateMutability": "view",
      "type": "function"
    },
    {
      "constant": true,
      "inputs": [],
      "name": "getDiscoveryIndexLength",
      "outputs": [
        {
          "name": "",
          "type": "uint256"
        }
      ],
      "payable": false,
      "stateMutability": "view",
      "type": "function"
    },
    {
      "constant": false,
      "inputs": [],
      "name": "joinDiscoveryIndex",
      "outputs": [
        {
          "name": "",
          "type": "bool"
        }
      ],
      "payable": false,
      "stateMutability": "nonpayable",
      "type": "function"
    },
    {
      "constant": false,
      "inputs": [],
      "name": "leaveDiscoveryIndex",
      "outputs": [
        {
          "name": "",
          "type": "bool"
        }
      ],
      "payable": false,
      "stateMutability": "nonpayable",
      "type": "function"
    },
    {
      "constant": false,
      "inputs": [
        {
          "name": "_profileName",
          "type": "string"
        },
        {
          "name": "_profileMetaIpfsHash",
          "type": "string"
        }
      ],
      "name": "registerProfile",
      "outputs": [],
      "payable": false,
      "stateMutability": "nonpayable",
      "type": "function"
    },
    {
      "constant": false,
      "inputs": [
        {
          "name": "_profilePictureIpfsHash",
          "type": "string"
        }
      ],
      "name": "editProfileImage",
      "outputs": [
        {
          "name": "",
          "type": "address"
        },
        {
          "name": "",
          "type": "string"
        },
        {
          "name": "",
          "type": "string"
        },
        {
          "name": "",
          "type": "string"
        },
        {
          "name": "",
          "type": "string"
        },
        {
          "name": "",
          "type": "uint256"
        },
        {
          "name": "",
          "type": "uint256"
        },
        {
          "name": "",
          "type": "uint8"
        },
        {
          "name": "",
          "type": "uint256"
        },
        {
          "name": "",
          "type": "uint256"
        }
      ],
      "payable": false,
      "stateMutability": "nonpayable",
      "type": "function"
    },
    {
      "constant": false,
      "inputs": [
        {
          "name": "_coverPictureIpfsHash",
          "type": "string"
        }
      ],
      "name": "editCoverImage",
      "outputs": [
        {
          "name": "",
          "type": "address"
        },
        {
          "name": "",
          "type": "string"
        },
        {
          "name": "",
          "type": "string"
        },
        {
          "name": "",
          "type": "string"
        },
        {
          "name": "",
          "type": "string"
        },
        {
          "name": "",
          "type": "uint256"
        },
        {
          "name": "",
          "type": "uint256"
        },
        {
          "name": "",
          "type": "uint8"
        },
        {
          "name": "",
          "type": "uint256"
        },
        {
          "name": "",
          "type": "uint256"
        }
      ],
      "payable": false,
      "stateMutability": "nonpayable",
      "type": "function"
    },
    {
      "constant": true,
      "inputs": [
        {
          "name": "_address",
          "type": "address"
        }
      ],
      "name": "fetchProfileNameFromAddress",
      "outputs": [
        {
          "name": "",
          "type": "string"
        }
      ],
      "payable": false,
      "stateMutability": "view",
      "type": "function"
    },
    {
      "constant": true,
      "inputs": [
        {
          "name": "_address",
          "type": "address"
        }
      ],
      "name": "fetchProfileFromAddress",
      "outputs": [
        {
          "name": "",
          "type": "address"
        },
        {
          "name": "",
          "type": "string"
        },
        {
          "name": "",
          "type": "string"
        },
        {
          "name": "",
          "type": "string"
        },
        {
          "name": "",
          "type": "string"
        },
        {
          "name": "",
          "type": "uint256"
        },
        {
          "name": "",
          "type": "uint256"
        },
        {
          "name": "",
          "type": "uint8"
        },
        {
          "name": "",
          "type": "uint256"
        },
        {
          "name": "",
          "type": "uint256"
        }
      ],
      "payable": false,
      "stateMutability": "view",
      "type": "function"
    },
    {
      "constant": false,
      "inputs": [
        {
          "name": "_requestConnectionFromAddress",
          "type": "address"
        }
      ],
      "name": "createConnectionRequest",
      "outputs": [
        {
          "name": "",
          "type": "bool"
        }
      ],
      "payable": false,
      "stateMutability": "nonpayable",
      "type": "function"
    },
    {
      "constant": false,
      "inputs": [
        {
          "name": "_acceptConnectionFromAddress",
          "type": "address"
        }
      ],
      "name": "acceptConnectionRequest",
      "outputs": [
        {
          "name": "",
          "type": "bool"
        }
      ],
      "payable": false,
      "stateMutability": "nonpayable",
      "type": "function"
    },
    {
      "constant": false,
      "inputs": [
        {
          "name": "_declineConnectionFromAddress",
          "type": "address"
        }
      ],
      "name": "declineConnectionRequest",
      "outputs": [
        {
          "name": "",
          "type": "bool"
        }
      ],
      "payable": false,
      "stateMutability": "nonpayable",
      "type": "function"
    },
    {
      "constant": false,
      "inputs": [
        {
          "name": "_terminateConnectionToAddress",
          "type": "address"
        }
      ],
      "name": "terminateConnection",
      "outputs": [
        {
          "name": "",
          "type": "bool"
        }
      ],
      "payable": false,
      "stateMutability": "nonpayable",
      "type": "function"
    },
    {
      "constant": true,
      "inputs": [
        {
          "name": "_targetAddress",
          "type": "address"
        }
      ],
      "name": "isEstablishedConnection",
      "outputs": [
        {
          "name": "",
          "type": "bool"
        }
      ],
      "payable": false,
      "stateMutability": "view",
      "type": "function"
    },
    {
      "constant": true,
      "inputs": [
        {
          "name": "_incomingCheckAddress",
          "type": "address"
        }
      ],
      "name": "isPendingIncomingConnection",
      "outputs": [
        {
          "name": "",
          "type": "bool"
        }
      ],
      "payable": false,
      "stateMutability": "view",
      "type": "function"
    },
    {
      "constant": true,
      "inputs": [
        {
          "name": "_outgoingCheckAddress",
          "type": "address"
        }
      ],
      "name": "isPendingOutgoingConnection",
      "outputs": [
        {
          "name": "",
          "type": "bool"
        }
      ],
      "payable": false,
      "stateMutability": "view",
      "type": "function"
    },
    {
      "constant": true,
      "inputs": [
        {
          "name": "_profileName",
          "type": "string"
        }
      ],
      "name": "fetchProfileFromProfileName",
      "outputs": [
        {
          "name": "",
          "type": "address"
        },
        {
          "name": "",
          "type": "string"
        },
        {
          "name": "",
          "type": "string"
        },
        {
          "name": "",
          "type": "string"
        },
        {
          "name": "",
          "type": "string"
        },
        {
          "name": "",
          "type": "uint256"
        },
        {
          "name": "",
          "type": "uint256"
        },
        {
          "name": "",
          "type": "uint8"
        },
        {
          "name": "",
          "type": "uint256"
        },
        {
          "name": "",
          "type": "uint256"
        }
      ],
      "payable": false,
      "stateMutability": "view",
      "type": "function"
    },
    {
      "constant": true,
      "inputs": [
        {
          "name": "_profileName",
          "type": "string"
        }
      ],
      "name": "fetchAddressFromProfileName",
      "outputs": [
        {
          "name": "",
          "type": "address"
        }
      ],
      "payable": false,
      "stateMutability": "view",
      "type": "function"
    },
    {
      "constant": true,
      "inputs": [
        {
          "name": "_address",
          "type": "address"
        }
      ],
      "name": "isRegisteredAddress",
      "outputs": [
        {
          "name": "",
          "type": "bool"
        }
      ],
      "payable": false,
      "stateMutability": "view",
      "type": "function"
    },
    {
      "constant": true,
      "inputs": [
        {
          "name": "_address",
          "type": "address"
        }
      ],
      "name": "isNotRegisteredAddress",
      "outputs": [
        {
          "name": "",
          "type": "bool"
        }
      ],
      "payable": false,
      "stateMutability": "view",
      "type": "function"
    },
    {
      "constant": true,
      "inputs": [
        {
          "name": "_profileName",
          "type": "string"
        }
      ],
      "name": "isRegisteredName",
      "outputs": [
        {
          "name": "",
          "type": "bool"
        }
      ],
      "payable": false,
      "stateMutability": "view",
      "type": "function"
    }
  ],
  "bytecode": "0x60806040523480156200001157600080fd5b5060405160208062005f8b8339810180604052620000339190810190620000af565b60006001819055506000600281905550806000806101000a81548173ffffffffffffffffffffffffffffffffffffffff021916908373ffffffffffffffffffffffffffffffffffffffff160217905550670de0b6b3a76400006003819055505062000123565b6000620000a78251620000ef565b905092915050565b600060208284031215620000c257600080fd5b6000620000d28482850162000099565b91505092915050565b6000620000e88262000103565b9050919050565b6000620000fc82620000db565b9050919050565b600073ffffffffffffffffffffffffffffffffffffffff82169050919050565b615e5880620001336000396000f3fe608060405234801561001057600080fd5b50600436106101e1576000357c010000000000000000000000000000000000000000000000000000000090048063883aca1e11610116578063db0c7ca8116100b4578063f9b199101161008e578063f9b19910146105f8578063fa5f487614610616578063fac61f7c1461064f578063fcf53da71461066d576101e1565b8063db0c7ca81461058c578063e83967fa146105bc578063ef43acef146105da576101e1565b8063b105844b116100f0578063b105844b146104c3578063bb37f908146104f3578063c21de2471461052c578063d79ee02b1461055c576101e1565b8063883aca1e146104455780639674cf8414610475578063ae0041aa146104a5576101e1565b8063640d090b11610183578063764092a31161015d578063764092a31461038e578063769c9636146103c75780637829c2f0146103f75780638640ed8c14610427576101e1565b8063640d090b146103105780636987569e1461032e57806374d9bb6c1461035e576101e1565b806320354b13116101bf57806320354b131461026257806349552e0f146102925780634e4263eb146102c25780635eb97a8e146102e0576101e1565b80631191201e146101e65780631758a101146102165780631b4886a314610246575b600080fd5b61020060048036036101fb91908101906148eb565b6106a6565b60405161020d919061572e565b60405180910390f35b610230600480360361022b91908101906147b0565b6106e2565b60405161023d9190615861565b60405180910390f35b610260600480360361025b919081019061487f565b610815565b005b61027c600480360361027791908101906147b0565b610d83565b6040516102899190615897565b60405180910390f35b6102ac60048036036102a791908101906147d9565b610eaf565b6040516102b99190615861565b60405180910390f35b6102ca610ede565b6040516102d79190615c39565b60405180910390f35b6102fa60048036036102f591908101906147b0565b610ee4565b6040516103079190615861565b60405180910390f35b6103186113f8565b604051610325919061587c565b60405180910390f35b610348600480360361034391908101906147b0565b61141d565b6040516103559190615861565b60405180910390f35b610378600480360361037391908101906147b0565b611888565b6040516103859190615861565b60405180910390f35b6103a860048036036103a3919081019061483e565b611caa565b6040516103be9a999897969594939291906157a9565b60405180910390f35b6103e160048036036103dc91908101906147b0565b612542565b6040516103ee9190615861565b60405180910390f35b610411600480360361040c91908101906147b0565b612ad7565b60405161041e9190615861565b60405180910390f35b61042f612c0a565b60405161043c9190615c39565b60405180910390f35b61045f600480360361045a91908101906147d9565b612c17565b60405161046c9190615861565b60405180910390f35b61048f600480360361048a919081019061483e565b612c46565b60405161049c9190615861565b60405180910390f35b6104ad612d01565b6040516104ba9190615c39565b60405180910390f35b6104dd60048036036104d891908101906147b0565b612d07565b6040516104ea9190615861565b60405180910390f35b61050d6004803603610508919081019061483e565b612da1565b6040516105239a999897969594939291906157a9565b60405180910390f35b6105466004803603610541919081019061483e565b612e61565b604051610553919061572e565b60405180910390f35b610576600480360361057191908101906147b0565b612ef7565b6040516105839190615861565b60405180910390f35b6105a660048036036105a191908101906147b0565b613072565b6040516105b39190615861565b60405180910390f35b6105c461310d565b6040516105d19190615861565b60405180910390f35b6105e26134d4565b6040516105ef9190615c39565b60405180910390f35b6106006134da565b60405161060d9190615861565b60405180910390f35b610630600480360361062b919081019061483e565b6138ea565b6040516106469a999897969594939291906157a9565b60405180910390f35b610657614182565b6040516106649190615c39565b60405180910390f35b610687600480360361068291908101906147b0565b6141c9565b60405161069d9a999897969594939291906157a9565b60405180910390f35b600481815481106106b357fe5b906000526020600020016000915054906101000a900473ffffffffffffffffffffffffffffffffffffffff1681565b60006106ed33613072565b61072c576040517f08c379a000000000000000000000000000000000000000000000000000000000815260040161072390615ad9565b60405180910390fd5b61073582613072565b610774576040517f08c379a000000000000000000000000000000000000000000000000000000000815260040161076b906159b9565b60405180910390fd5b600660003373ffffffffffffffffffffffffffffffffffffffff1673ffffffffffffffffffffffffffffffffffffffff16815260200190815260200160002060008373ffffffffffffffffffffffffffffffffffffffff1673ffffffffffffffffffffffffffffffffffffffff16815260200190815260200160002060009054906101000a900460ff1661080b5760009050610810565b600190505b919050565b6003546000809054906101000a900473ffffffffffffffffffffffffffffffffffffffff1673ffffffffffffffffffffffffffffffffffffffff1663dd62ed3e33306040518363ffffffff167c0100000000000000000000000000000000000000000000000000000000028152600401610890929190615749565b60206040518083038186803b1580156108a857600080fd5b505afa1580156108bc573d6000803e3d6000fd5b505050506040513d601f19601f820116820180604052506108e09190810190614914565b1015610921576040517f08c379a0000000000000000000000000000000000000000000000000000000008152600401610918906159f9565b60405180910390fd5b6000809054906101000a900473ffffffffffffffffffffffffffffffffffffffff1673ffffffffffffffffffffffffffffffffffffffff166323b872dd33306003546040518463ffffffff167c010000000000000000000000000000000000000000000000000000000002815260040161099d93929190615772565b602060405180830381600087803b1580156109b757600080fd5b505af11580156109cb573d6000803e3d6000fd5b505050506040513d601f19601f820116820180604052506109ef9190810190614815565b610a2e576040517f08c379a0000000000000000000000000000000000000000000000000000000008152600401610a2590615b39565b60405180910390fd5b610a3733613072565b15610a77576040517f08c379a0000000000000000000000000000000000000000000000000000000008152600401610a6e90615af9565b60405180910390fd5b610a8082612c46565b15610ac0576040517f08c379a0000000000000000000000000000000000000000000000000000000008152600401610ab7906158d9565b60405180910390fd5b6000825111610b04576040517f08c379a0000000000000000000000000000000000000000000000000000000008152600401610afb90615bb9565b60405180910390fd5b6000815111610b48576040517f08c379a0000000000000000000000000000000000000000000000000000000008152600401610b3f90615ab9565b60405180910390fd5b6040518061014001604052803373ffffffffffffffffffffffffffffffffffffffff1681526020018381526020016040518060200160405280600081525081526020016040518060200160405280600081525081526020018281526020016000815260200160008152602001600060ff16815260200142815260200142815250600960003373ffffffffffffffffffffffffffffffffffffffff1673ffffffffffffffffffffffffffffffffffffffff16815260200190815260200160002060008201518160000160006101000a81548173ffffffffffffffffffffffffffffffffffffffff021916908373ffffffffffffffffffffffffffffffffffffffff1602179055506020820151816001019080519060200190610c6a9291906145fb565b506040820151816002019080519060200190610c879291906145fb565b506060820151816003019080519060200190610ca49291906145fb565b506080820151816004019080519060200190610cc19291906145fb565b5060a0820151816005015560c0820151816006015560e08201518160070160006101000a81548160ff021916908360ff1602179055506101008201518160080155610120820151816009015590505033600883604051610d219190615717565b908152602001604051809103902060006101000a81548173ffffffffffffffffffffffffffffffffffffffff021916908373ffffffffffffffffffffffffffffffffffffffff1602179055506002600081548092919060010191905055505050565b6060610d8e82613072565b610dcd576040517f08c379a0000000000000000000000000000000000000000000000000000000008152600401610dc490615b79565b60405180910390fd5b600960008373ffffffffffffffffffffffffffffffffffffffff1673ffffffffffffffffffffffffffffffffffffffff1681526020019081526020016000206001018054600181600116156101000203166002900480601f016020809104026020016040519081016040528092919081815260200182805460018160011615610100020316600290048015610ea35780601f10610e7857610100808354040283529160200191610ea3565b820191906000526020600020905b815481529060010190602001808311610e8657829003601f168201915b50505050509050919050565b60066020528160005260406000206020528060005260406000206000915091509054906101000a900460ff1681565b60035481565b60006003546000809054906101000a900473ffffffffffffffffffffffffffffffffffffffff1673ffffffffffffffffffffffffffffffffffffffff1663dd62ed3e33306040518363ffffffff167c0100000000000000000000000000000000000000000000000000000000028152600401610f61929190615749565b60206040518083038186803b158015610f7957600080fd5b505afa158015610f8d573d6000803e3d6000fd5b505050506040513d601f19601f82011682018060405250610fb19190810190614914565b1015610ff2576040517f08c379a0000000000000000000000000000000000000000000000000000000008152600401610fe9906159f9565b60405180910390fd5b6000809054906101000a900473ffffffffffffffffffffffffffffffffffffffff1673ffffffffffffffffffffffffffffffffffffffff166323b872dd33306003546040518463ffffffff167c010000000000000000000000000000000000000000000000000000000002815260040161106e93929190615772565b602060405180830381600087803b15801561108857600080fd5b505af115801561109c573d6000803e3d6000fd5b505050506040513d601f19601f820116820180604052506110c09190810190614815565b6110ff576040517f08c379a00000000000000000000000000000000000000000000000000000000081526004016110f690615b39565b60405180910390fd5b61110833613072565b611147576040517f08c379a000000000000000000000000000000000000000000000000000000000815260040161113e90615ad9565b60405180910390fd5b61115082613072565b61118f576040517f08c379a000000000000000000000000000000000000000000000000000000000815260040161118690615bf9565b60405180910390fd5b611198826106e2565b156111d8576040517f08c379a00000000000000000000000000000000000000000000000000000000081526004016111cf906158b9565b60405180910390fd5b6111e182612ef7565b15611221576040517f08c379a000000000000000000000000000000000000000000000000000000000815260040161121890615c19565b60405180910390fd5b61122a82612ad7565b6112c8576001600660003373ffffffffffffffffffffffffffffffffffffffff1673ffffffffffffffffffffffffffffffffffffffff16815260200190815260200160002060008473ffffffffffffffffffffffffffffffffffffffff1673ffffffffffffffffffffffffffffffffffffffff16815260200190815260200160002060006101000a81548160ff0219169083151502179055506113f3565b6001600760008473ffffffffffffffffffffffffffffffffffffffff1673ffffffffffffffffffffffffffffffffffffffff16815260200190815260200160002060003373ffffffffffffffffffffffffffffffffffffffff1673ffffffffffffffffffffffffffffffffffffffff16815260200190815260200160002060006101000a81548160ff0219169083151502179055506001600760003373ffffffffffffffffffffffffffffffffffffffff1673ffffffffffffffffffffffffffffffffffffffff16815260200190815260200160002060008473ffffffffffffffffffffffffffffffffffffffff1673ffffffffffffffffffffffffffffffffffffffff16815260200190815260200160002060006101000a81548160ff0219169083151502179055505b919050565b6000809054906101000a900473ffffffffffffffffffffffffffffffffffffffff1681565b60006003546000809054906101000a900473ffffffffffffffffffffffffffffffffffffffff1673ffffffffffffffffffffffffffffffffffffffff1663dd62ed3e33306040518363ffffffff167c010000000000000000000000000000000000000000000000000000000002815260040161149a929190615749565b60206040518083038186803b1580156114b257600080fd5b505afa1580156114c6573d6000803e3d6000fd5b505050506040513d601f19601f820116820180604052506114ea9190810190614914565b101561152b576040517f08c379a0000000000000000000000000000000000000000000000000000000008152600401611522906159f9565b60405180910390fd5b6000809054906101000a900473ffffffffffffffffffffffffffffffffffffffff1673ffffffffffffffffffffffffffffffffffffffff166323b872dd33306003546040518463ffffffff167c01000000000000000000000000000000000000000000000000000000000281526004016115a793929190615772565b602060405180830381600087803b1580156115c157600080fd5b505af11580156115d5573d6000803e3d6000fd5b505050506040513d601f19601f820116820180604052506115f99190810190614815565b611638576040517f08c379a000000000000000000000000000000000000000000000000000000000815260040161162f90615b39565b60405180910390fd5b61164133613072565b611680576040517f08c379a000000000000000000000000000000000000000000000000000000000815260040161167790615ad9565b60405180910390fd5b61168982613072565b6116c8576040517f08c379a00000000000000000000000000000000000000000000000000000000081526004016116bf90615b99565b60405180910390fd5b6116d182612ad7565b611710576040517f08c379a000000000000000000000000000000000000000000000000000000000815260040161170790615939565b60405180910390fd5b61171982612ef7565b15611759576040517f08c379a000000000000000000000000000000000000000000000000000000000815260040161175090615999565b60405180910390fd5b6000600660008473ffffffffffffffffffffffffffffffffffffffff1673ffffffffffffffffffffffffffffffffffffffff16815260200190815260200160002060003373ffffffffffffffffffffffffffffffffffffffff1673ffffffffffffffffffffffffffffffffffffffff16815260200190815260200160002060006101000a81548160ff0219169083151502179055506000600660003373ffffffffffffffffffffffffffffffffffffffff1673ffffffffffffffffffffffffffffffffffffffff16815260200190815260200160002060008473ffffffffffffffffffffffffffffffffffffffff1673ffffffffffffffffffffffffffffffffffffffff16815260200190815260200160002060006101000a81548160ff021916908315150217905550919050565b60006003546000809054906101000a900473ffffffffffffffffffffffffffffffffffffffff1673ffffffffffffffffffffffffffffffffffffffff1663dd62ed3e33306040518363ffffffff167c0100000000000000000000000000000000000000000000000000000000028152600401611905929190615749565b60206040518083038186803b15801561191d57600080fd5b505afa158015611931573d6000803e3d6000fd5b505050506040513d601f19601f820116820180604052506119559190810190614914565b1015611996576040517f08c379a000000000000000000000000000000000000000000000000000000000815260040161198d906159f9565b60405180910390fd5b6000809054906101000a900473ffffffffffffffffffffffffffffffffffffffff1673ffffffffffffffffffffffffffffffffffffffff166323b872dd33306003546040518463ffffffff167c0100000000000000000000000000000000000000000000000000000000028152600401611a1293929190615772565b602060405180830381600087803b158015611a2c57600080fd5b505af1158015611a40573d6000803e3d6000fd5b505050506040513d601f19601f82011682018060405250611a649190810190614815565b611aa3576040517f08c379a0000000000000000000000000000000000000000000000000000000008152600401611a9a90615b39565b60405180910390fd5b611aac33613072565b611aeb576040517f08c379a0000000000000000000000000000000000000000000000000000000008152600401611ae290615ad9565b60405180910390fd5b611af482613072565b611b33576040517f08c379a0000000000000000000000000000000000000000000000000000000008152600401611b2a90615979565b60405180910390fd5b611b3c82612ef7565b611b7b576040517f08c379a0000000000000000000000000000000000000000000000000000000008152600401611b7290615a79565b60405180910390fd5b6000600760008473ffffffffffffffffffffffffffffffffffffffff1673ffffffffffffffffffffffffffffffffffffffff16815260200190815260200160002060003373ffffffffffffffffffffffffffffffffffffffff1673ffffffffffffffffffffffffffffffffffffffff16815260200190815260200160002060006101000a81548160ff0219169083151502179055506000600760003373ffffffffffffffffffffffffffffffffffffffff1673ffffffffffffffffffffffffffffffffffffffff16815260200190815260200160002060008473ffffffffffffffffffffffffffffffffffffffff1673ffffffffffffffffffffffffffffffffffffffff16815260200190815260200160002060006101000a81548160ff021916908315150217905550919050565b600060608060608060008060008060006003546000809054906101000a900473ffffffffffffffffffffffffffffffffffffffff1673ffffffffffffffffffffffffffffffffffffffff1663dd62ed3e33306040518363ffffffff167c0100000000000000000000000000000000000000000000000000000000028152600401611d35929190615749565b60206040518083038186803b158015611d4d57600080fd5b505afa158015611d61573d6000803e3d6000fd5b505050506040513d601f19601f82011682018060405250611d859190810190614914565b1015611dc6576040517f08c379a0000000000000000000000000000000000000000000000000000000008152600401611dbd906159f9565b60405180910390fd5b6000809054906101000a900473ffffffffffffffffffffffffffffffffffffffff1673ffffffffffffffffffffffffffffffffffffffff166323b872dd33306003546040518463ffffffff167c0100000000000000000000000000000000000000000000000000000000028152600401611e4293929190615772565b602060405180830381600087803b158015611e5c57600080fd5b505af1158015611e70573d6000803e3d6000fd5b505050506040513d601f19601f82011682018060405250611e949190810190614815565b611ed3576040517f08c379a0000000000000000000000000000000000000000000000000000000008152600401611eca90615b39565b60405180910390fd5b611edc33613072565b611f1b576040517f08c379a0000000000000000000000000000000000000000000000000000000008152600401611f1290615ad9565b60405180910390fd5b611f2433613072565b611f63576040517f08c379a0000000000000000000000000000000000000000000000000000000008152600401611f5a90615b79565b60405180910390fd5b60008b5111611fa7576040517f08c379a0000000000000000000000000000000000000000000000000000000008152600401611f9e90615a39565b60405180910390fd5b611faf61467b565b600960003373ffffffffffffffffffffffffffffffffffffffff1673ffffffffffffffffffffffffffffffffffffffff168152602001908152602001600020604051806101400160405290816000820160009054906101000a900473ffffffffffffffffffffffffffffffffffffffff1673ffffffffffffffffffffffffffffffffffffffff1673ffffffffffffffffffffffffffffffffffffffff168152602001600182018054600181600116156101000203166002900480601f0160208091040260200160405190810160405280929190818152602001828054600181600116156101000203166002900480156120e95780601f106120be576101008083540402835291602001916120e9565b820191906000526020600020905b8154815290600101906020018083116120cc57829003601f168201915b50505050508152602001600282018054600181600116156101000203166002900480601f01602080910402602001604051908101604052809291908181526020018280546001816001161561010002031660029004801561218b5780601f106121605761010080835404028352916020019161218b565b820191906000526020600020905b81548152906001019060200180831161216e57829003601f168201915b50505050508152602001600382018054600181600116156101000203166002900480601f01602080910402602001604051908101604052809291908181526020018280546001816001161561010002031660029004801561222d5780601f106122025761010080835404028352916020019161222d565b820191906000526020600020905b81548152906001019060200180831161221057829003601f168201915b50505050508152602001600482018054600181600116156101000203166002900480601f0160208091040260200160405190810160405280929190818152602001828054600181600116156101000203166002900480156122cf5780601f106122a4576101008083540402835291602001916122cf565b820191906000526020600020905b8154815290600101906020018083116122b257829003601f168201915b5050505050815260200160058201548152602001600682015481526020016007820160009054906101000a900460ff1660ff1660ff168152602001600882015481526020016009820154815250509050604051806101400160405280826000015173ffffffffffffffffffffffffffffffffffffffff168152602001826020015181526020018d815260200182606001518152602001826080015181526020018260a0015181526020018260c0015181526020018260e0015160ff168152602001428152602001826101200151815250600960003373ffffffffffffffffffffffffffffffffffffffff1673ffffffffffffffffffffffffffffffffffffffff16815260200190815260200160002060008201518160000160006101000a81548173ffffffffffffffffffffffffffffffffffffffff021916908373ffffffffffffffffffffffffffffffffffffffff16021790555060208201518160010190805190602001906124419291906145fb565b50604082015181600201908051906020019061245e9291906145fb565b50606082015181600301908051906020019061247b9291906145fb565b5060808201518160040190805190602001906124989291906145fb565b5060a0820151816005015560c0820151816006015560e08201518160070160006101000a81548160ff021916908360ff16021790555061010082015181600801556101208201518160090155905050806000015181602001518d836060015184608001518560a001518660c001518760e001518861010001518961012001518898508696508595509a509a509a509a509a509a509a509a509a509a50509193959799509193959799565b60006003546000809054906101000a900473ffffffffffffffffffffffffffffffffffffffff1673ffffffffffffffffffffffffffffffffffffffff1663dd62ed3e33306040518363ffffffff167c01000000000000000000000000000000000000000000000000000000000281526004016125bf929190615749565b60206040518083038186803b1580156125d757600080fd5b505afa1580156125eb573d6000803e3d6000fd5b505050506040513d601f19601f8201168201806040525061260f9190810190614914565b1015612650576040517f08c379a0000000000000000000000000000000000000000000000000000000008152600401612647906159f9565b60405180910390fd5b6000809054906101000a900473ffffffffffffffffffffffffffffffffffffffff1673ffffffffffffffffffffffffffffffffffffffff166323b872dd33306003546040518463ffffffff167c01000000000000000000000000000000000000000000000000000000000281526004016126cc93929190615772565b602060405180830381600087803b1580156126e657600080fd5b505af11580156126fa573d6000803e3d6000fd5b505050506040513d601f19601f8201168201806040525061271e9190810190614815565b61275d576040517f08c379a000000000000000000000000000000000000000000000000000000000815260040161275490615b39565b60405180910390fd5b61276633613072565b6127a5576040517f08c379a000000000000000000000000000000000000000000000000000000000815260040161279c90615ad9565b60405180910390fd5b6127ae82613072565b6127ed576040517f08c379a00000000000000000000000000000000000000000000000000000000081526004016127e4906159d9565b60405180910390fd5b6127f682612ad7565b612835576040517f08c379a000000000000000000000000000000000000000000000000000000000815260040161282c906158f9565b60405180910390fd5b61283e82612ef7565b1561287e576040517f08c379a000000000000000000000000000000000000000000000000000000000815260040161287590615a19565b60405180910390fd5b6000600660008473ffffffffffffffffffffffffffffffffffffffff1673ffffffffffffffffffffffffffffffffffffffff16815260200190815260200160002060003373ffffffffffffffffffffffffffffffffffffffff1673ffffffffffffffffffffffffffffffffffffffff16815260200190815260200160002060006101000a81548160ff0219169083151502179055506000600660003373ffffffffffffffffffffffffffffffffffffffff1673ffffffffffffffffffffffffffffffffffffffff16815260200190815260200160002060008473ffffffffffffffffffffffffffffffffffffffff1673ffffffffffffffffffffffffffffffffffffffff16815260200190815260200160002060006101000a81548160ff0219169083151502179055506001600760008473ffffffffffffffffffffffffffffffffffffffff1673ffffffffffffffffffffffffffffffffffffffff16815260200190815260200160002060003373ffffffffffffffffffffffffffffffffffffffff1673ffffffffffffffffffffffffffffffffffffffff16815260200190815260200160002060006101000a81548160ff0219169083151502179055506001600760003373ffffffffffffffffffffffffffffffffffffffff1673ffffffffffffffffffffffffffffffffffffffff16815260200190815260200160002060008473ffffffffffffffffffffffffffffffffffffffff1673ffffffffffffffffffffffffffffffffffffffff16815260200190815260200160002060006101000a81548160ff021916908315150217905550919050565b6000612ae233613072565b612b21576040517f08c379a0000000000000000000000000000000000000000000000000000000008152600401612b1890615ad9565b60405180910390fd5b612b2a82613072565b612b69576040517f08c379a0000000000000000000000000000000000000000000000000000000008152600401612b6090615bd9565b60405180910390fd5b600660008373ffffffffffffffffffffffffffffffffffffffff1673ffffffffffffffffffffffffffffffffffffffff16815260200190815260200160002060003373ffffffffffffffffffffffffffffffffffffffff1673ffffffffffffffffffffffffffffffffffffffff16815260200190815260200160002060009054906101000a900460ff16612c005760009050612c05565b600190505b919050565b6000600480549050905090565b60076020528160005260406000206020528060005260406000206000915091509054906101000a900460ff1681565b600080825111612c8b576040517f08c379a0000000000000000000000000000000000000000000000000000000008152600401612c8290615b19565b60405180910390fd5b600073ffffffffffffffffffffffffffffffffffffffff16600883604051612cb39190615717565b908152602001604051809103902060009054906101000a900473ffffffffffffffffffffffffffffffffffffffff1673ffffffffffffffffffffffffffffffffffffffff1614159050919050565b60015481565b60008073ffffffffffffffffffffffffffffffffffffffff16600960008473ffffffffffffffffffffffffffffffffffffffff1673ffffffffffffffffffffffffffffffffffffffff16815260200190815260200160002060000160009054906101000a900473ffffffffffffffffffffffffffffffffffffffff1673ffffffffffffffffffffffffffffffffffffffff16149050919050565b60006060806060806000806000806000612dba8b612c46565b612df9576040517f08c379a0000000000000000000000000000000000000000000000000000000008152600401612df090615b59565b60405180910390fd5b612e4060088c604051612e0c9190615717565b908152602001604051809103902060009054906101000a900473ffffffffffffffffffffffffffffffffffffffff166141c9565b99509950995099509950995099509950995099509193959799509193959799565b6000612e6c82612c46565b612eab576040517f08c379a0000000000000000000000000000000000000000000000000000000008152600401612ea290615b59565b60405180910390fd5b6000600883604051612ebd9190615717565b908152602001604051809103902060009054906101000a900473ffffffffffffffffffffffffffffffffffffffff16905080915050919050565b6000612f0233613072565b612f41576040517f08c379a0000000000000000000000000000000000000000000000000000000008152600401612f3890615ad9565b60405180910390fd5b60011515600760003373ffffffffffffffffffffffffffffffffffffffff1673ffffffffffffffffffffffffffffffffffffffff16815260200190815260200160002060008473ffffffffffffffffffffffffffffffffffffffff1673ffffffffffffffffffffffffffffffffffffffff16815260200190815260200160002060009054906101000a900460ff16151514801561306b575060011515600760008473ffffffffffffffffffffffffffffffffffffffff1673ffffffffffffffffffffffffffffffffffffffff16815260200190815260200160002060003373ffffffffffffffffffffffffffffffffffffffff1673ffffffffffffffffffffffffffffffffffffffff16815260200190815260200160002060009054906101000a900460ff161515145b9050919050565b60008073ffffffffffffffffffffffffffffffffffffffff16600960008473ffffffffffffffffffffffffffffffffffffffff1673ffffffffffffffffffffffffffffffffffffffff16815260200190815260200160002060000160009054906101000a900473ffffffffffffffffffffffffffffffffffffffff1673ffffffffffffffffffffffffffffffffffffffff1614159050919050565b600061311833613072565b613157576040517f08c379a000000000000000000000000000000000000000000000000000000000815260040161314e90615ad9565b60405180910390fd5b6003546000809054906101000a900473ffffffffffffffffffffffffffffffffffffffff1673ffffffffffffffffffffffffffffffffffffffff1663dd62ed3e33306040518363ffffffff167c01000000000000000000000000000000000000000000000000000000000281526004016131d2929190615749565b60206040518083038186803b1580156131ea57600080fd5b505afa1580156131fe573d6000803e3d6000fd5b505050506040513d601f19601f820116820180604052506132229190810190614914565b1015613263576040517f08c379a000000000000000000000000000000000000000000000000000000000815260040161325a906159f9565b60405180910390fd5b6000809054906101000a900473ffffffffffffffffffffffffffffffffffffffff1673ffffffffffffffffffffffffffffffffffffffff166323b872dd33306003546040518463ffffffff167c01000000000000000000000000000000000000000000000000000000000281526004016132df93929190615772565b602060405180830381600087803b1580156132f957600080fd5b505af115801561330d573d6000803e3d6000fd5b505050506040513d601f19601f820116820180604052506133319190810190614815565b613370576040517f08c379a000000000000000000000000000000000000000000000000000000000815260040161336790615b39565b60405180910390fd5b3373ffffffffffffffffffffffffffffffffffffffff166004600560003373ffffffffffffffffffffffffffffffffffffffff1673ffffffffffffffffffffffffffffffffffffffff16815260200190815260200160002054815481106133d357fe5b9060005260206000200160009054906101000a900473ffffffffffffffffffffffffffffffffffffffff1673ffffffffffffffffffffffffffffffffffffffff1614613454576040517f08c379a000000000000000000000000000000000000000000000000000000000815260040161344b90615959565b60405180910390fd5b6004600560003373ffffffffffffffffffffffffffffffffffffffff1673ffffffffffffffffffffffffffffffffffffffff16815260200190815260200160002054815481106134a057fe5b9060005260206000200160006101000a81549073ffffffffffffffffffffffffffffffffffffffff02191690556001905090565b60025481565b60006134e533613072565b613524576040517f08c379a000000000000000000000000000000000000000000000000000000000815260040161351b90615ad9565b60405180910390fd5b6003546000809054906101000a900473ffffffffffffffffffffffffffffffffffffffff1673ffffffffffffffffffffffffffffffffffffffff1663dd62ed3e33306040518363ffffffff167c010000000000000000000000000000000000000000000000000000000002815260040161359f929190615749565b60206040518083038186803b1580156135b757600080fd5b505afa1580156135cb573d6000803e3d6000fd5b505050506040513d601f19601f820116820180604052506135ef9190810190614914565b1015613630576040517f08c379a0000000000000000000000000000000000000000000000000000000008152600401613627906159f9565b60405180910390fd5b6000809054906101000a900473ffffffffffffffffffffffffffffffffffffffff1673ffffffffffffffffffffffffffffffffffffffff166323b872dd33306003546040518463ffffffff167c01000000000000000000000000000000000000000000000000000000000281526004016136ac93929190615772565b602060405180830381600087803b1580156136c657600080fd5b505af11580156136da573d6000803e3d6000fd5b505050506040513d601f19601f820116820180604052506136fe9190810190614815565b61373d576040517f08c379a000000000000000000000000000000000000000000000000000000000815260040161373490615b39565b60405180910390fd5b6000600560003373ffffffffffffffffffffffffffffffffffffffff1673ffffffffffffffffffffffffffffffffffffffff168152602001908152602001600020549050600060048054905014806137f857503373ffffffffffffffffffffffffffffffffffffffff16600482815481106137b457fe5b9060005260206000200160009054906101000a900473ffffffffffffffffffffffffffffffffffffffff1673ffffffffffffffffffffffffffffffffffffffff1614155b613837576040517f08c379a000000000000000000000000000000000000000000000000000000000815260040161382e90615a99565b60405180910390fd5b600160043390806001815401808255809150509060018203906000526020600020016000909192909190916101000a81548173ffffffffffffffffffffffffffffffffffffffff021916908373ffffffffffffffffffffffffffffffffffffffff16021790555003600560003373ffffffffffffffffffffffffffffffffffffffff1673ffffffffffffffffffffffffffffffffffffffff16815260200190815260200160002081905550600191505090565b600060608060608060008060008060006003546000809054906101000a900473ffffffffffffffffffffffffffffffffffffffff1673ffffffffffffffffffffffffffffffffffffffff1663dd62ed3e33306040518363ffffffff167c0100000000000000000000000000000000000000000000000000000000028152600401613975929190615749565b60206040518083038186803b15801561398d57600080fd5b505afa1580156139a1573d6000803e3d6000fd5b505050506040513d601f19601f820116820180604052506139c59190810190614914565b1015613a06576040517f08c379a00000000000000000000000000000000000000000000000000000000081526004016139fd906159f9565b60405180910390fd5b6000809054906101000a900473ffffffffffffffffffffffffffffffffffffffff1673ffffffffffffffffffffffffffffffffffffffff166323b872dd33306003546040518463ffffffff167c0100000000000000000000000000000000000000000000000000000000028152600401613a8293929190615772565b602060405180830381600087803b158015613a9c57600080fd5b505af1158015613ab0573d6000803e3d6000fd5b505050506040513d601f19601f82011682018060405250613ad49190810190614815565b613b13576040517f08c379a0000000000000000000000000000000000000000000000000000000008152600401613b0a90615b39565b60405180910390fd5b613b1c33613072565b613b5b576040517f08c379a0000000000000000000000000000000000000000000000000000000008152600401613b5290615ad9565b60405180910390fd5b613b6433613072565b613ba3576040517f08c379a0000000000000000000000000000000000000000000000000000000008152600401613b9a90615b79565b60405180910390fd5b60008b5111613be7576040517f08c379a0000000000000000000000000000000000000000000000000000000008152600401613bde90615a59565b60405180910390fd5b613bef61467b565b600960003373ffffffffffffffffffffffffffffffffffffffff1673ffffffffffffffffffffffffffffffffffffffff168152602001908152602001600020604051806101400160405290816000820160009054906101000a900473ffffffffffffffffffffffffffffffffffffffff1673ffffffffffffffffffffffffffffffffffffffff1673ffffffffffffffffffffffffffffffffffffffff168152602001600182018054600181600116156101000203166002900480601f016020809104026020016040519081016040528092919081815260200182805460018160011615610100020316600290048015613d295780601f10613cfe57610100808354040283529160200191613d29565b820191906000526020600020905b815481529060010190602001808311613d0c57829003601f168201915b50505050508152602001600282018054600181600116156101000203166002900480601f016020809104026020016040519081016040528092919081815260200182805460018160011615610100020316600290048015613dcb5780601f10613da057610100808354040283529160200191613dcb565b820191906000526020600020905b815481529060010190602001808311613dae57829003601f168201915b50505050508152602001600382018054600181600116156101000203166002900480601f016020809104026020016040519081016040528092919081815260200182805460018160011615610100020316600290048015613e6d5780601f10613e4257610100808354040283529160200191613e6d565b820191906000526020600020905b815481529060010190602001808311613e5057829003601f168201915b50505050508152602001600482018054600181600116156101000203166002900480601f016020809104026020016040519081016040528092919081815260200182805460018160011615610100020316600290048015613f0f5780601f10613ee457610100808354040283529160200191613f0f565b820191906000526020600020905b815481529060010190602001808311613ef257829003601f168201915b5050505050815260200160058201548152602001600682015481526020016007820160009054906101000a900460ff1660ff1660ff168152602001600882015481526020016009820154815250509050604051806101400160405280826000015173ffffffffffffffffffffffffffffffffffffffff16815260200182602001518152602001826040015181526020018d8152602001826080015181526020018260a0015181526020018260c0015181526020018260e0015160ff168152602001428152602001826101200151815250600960003373ffffffffffffffffffffffffffffffffffffffff1673ffffffffffffffffffffffffffffffffffffffff16815260200190815260200160002060008201518160000160006101000a81548173ffffffffffffffffffffffffffffffffffffffff021916908373ffffffffffffffffffffffffffffffffffffffff16021790555060208201518160010190805190602001906140819291906145fb565b50604082015181600201908051906020019061409e9291906145fb565b5060608201518160030190805190602001906140bb9291906145fb565b5060808201518160040190805190602001906140d89291906145fb565b5060a0820151816005015560c0820151816006015560e08201518160070160006101000a81548160ff021916908360ff160217905550610100820151816008015561012082015181600901559050508060000151816020015182604001518e84608001518560a001518660c001518760e001518861010001518961012001518898508797508595509a509a509a509a509a509a509a509a509a509a50509193959799509193959799565b6000600560003373ffffffffffffffffffffffffffffffffffffffff1673ffffffffffffffffffffffffffffffffffffffff16815260200190815260200160002054905090565b600060608060608060008060008060006141e28b613072565b614221576040517f08c379a000000000000000000000000000000000000000000000000000000000815260040161421890615919565b60405180910390fd5b61422961467b565b600960008d73ffffffffffffffffffffffffffffffffffffffff1673ffffffffffffffffffffffffffffffffffffffff168152602001908152602001600020604051806101400160405290816000820160009054906101000a900473ffffffffffffffffffffffffffffffffffffffff1673ffffffffffffffffffffffffffffffffffffffff1673ffffffffffffffffffffffffffffffffffffffff168152602001600182018054600181600116156101000203166002900480601f0160208091040260200160405190810160405280929190818152602001828054600181600116156101000203166002900480156143635780601f1061433857610100808354040283529160200191614363565b820191906000526020600020905b81548152906001019060200180831161434657829003601f168201915b50505050508152602001600282018054600181600116156101000203166002900480601f0160208091040260200160405190810160405280929190818152602001828054600181600116156101000203166002900480156144055780601f106143da57610100808354040283529160200191614405565b820191906000526020600020905b8154815290600101906020018083116143e857829003601f168201915b50505050508152602001600382018054600181600116156101000203166002900480601f0160208091040260200160405190810160405280929190818152602001828054600181600116156101000203166002900480156144a75780601f1061447c576101008083540402835291602001916144a7565b820191906000526020600020905b81548152906001019060200180831161448a57829003601f168201915b50505050508152602001600482018054600181600116156101000203166002900480601f0160208091040260200160405190810160405280929190818152602001828054600181600116156101000203166002900480156145495780601f1061451e57610100808354040283529160200191614549565b820191906000526020600020905b81548152906001019060200180831161452c57829003601f168201915b5050505050815260200160058201548152602001600682015481526020016007820160009054906101000a900460ff1660ff1660ff168152602001600882015481526020016009820154815250509050806000015181602001518260400151836060015184608001518560a001518660c001518760e001518861010001518961012001518898508797508696508595509a509a509a509a509a509a509a509a509a509a50509193959799509193959799565b828054600181600116156101000203166002900490600052602060002090601f016020900481019282601f1061463c57805160ff191683800117855561466a565b8280016001018555821561466a579182015b8281111561466957825182559160200191906001019061464e565b5b50905061467791906146e7565b5090565b604051806101400160405280600073ffffffffffffffffffffffffffffffffffffffff168152602001606081526020016060815260200160608152602001606081526020016000815260200160008152602001600060ff16815260200160008152602001600081525090565b61470991905b808211156147055760008160009055506001016146ed565b5090565b90565b60006147188235615d29565b905092915050565b600061472c8251615d3b565b905092915050565b600082601f83011261474557600080fd5b813561475861475382615c81565b615c54565b9150808252602083016020830185838301111561477457600080fd5b61477f838284615dcb565b50505092915050565b60006147948235615d67565b905092915050565b60006147a88251615d67565b905092915050565b6000602082840312156147c257600080fd5b60006147d08482850161470c565b91505092915050565b600080604083850312156147ec57600080fd5b60006147fa8582860161470c565b925050602061480b8582860161470c565b9150509250929050565b60006020828403121561482757600080fd5b600061483584828501614720565b91505092915050565b60006020828403121561485057600080fd5b600082013567ffffffffffffffff81111561486a57600080fd5b61487684828501614734565b91505092915050565b6000806040838503121561489257600080fd5b600083013567ffffffffffffffff8111156148ac57600080fd5b6148b885828601614734565b925050602083013567ffffffffffffffff8111156148d557600080fd5b6148e185828601614734565b9150509250929050565b6000602082840312156148fd57600080fd5b600061490b84828501614788565b91505092915050565b60006020828403121561492657600080fd5b60006149348482850161479c565b91505092915050565b61494681615d71565b82525050565b61495581615cd4565b82525050565b61496481615ce6565b82525050565b61497381615d83565b82525050565b600061498482615cad565b61498e8185615cb8565b935061499e818560208601615dda565b6149a781615e0d565b840191505092915050565b60006149bd82615cad565b6149c78185615cc9565b93506149d7818560208601615dda565b80840191505092915050565b60006149f0604e83615cb8565b91507f536f636965747930783a3a637265617465436f6e6e656374696f6e526571756560008301527f73743a204f7574676f696e6720436f6e6e656374696f6e20526571756573742060208301527f416c7265616479204578697374730000000000000000000000000000000000006040830152606082019050919050565b6000614a7c601a83615cb8565b91507f497320526567697374657265642050726f66696c65204e616d650000000000006000830152602082019050919050565b6000614abc604e83615cb8565b91507f536f636965747930783a3a616363657074436f6e6e656374696f6e526571756560008301527f73743a2050656e64696e6720496e636f6d696e6720436f6e6e656374696f6e2060208301527f446f6573204e6f742045786973740000000000000000000000000000000000006040830152606082019050919050565b6000614b48604883615cb8565b91507f536f636965747930783a3a666574636850726f66696c6546726f6d416464726560008301527f73733a205f61646472657373206973206e6f742061207265676973746572656460208301527f20616464726573730000000000000000000000000000000000000000000000006040830152606082019050919050565b6000614bd4604f83615cb8565b91507f536f636965747930783a3a6465636c696e65436f6e6e656374696f6e5265717560008301527f6573743a2050656e64696e6720496e636f6d696e6720436f6e6e656374696f6e60208301527f20446f6573204e6f7420457869737400000000000000000000000000000000006040830152606082019050919050565b6000614c60603683615cb8565b91507f536f636965747930783a3a6c65617665446973636f76657279496e6465783a2060008301527f4e6f74206f6e20446973636f7665727920496e646578000000000000000000006020830152604082019050919050565b6000614cc6605983615cb8565b91507f536f636965747930783a3a7465726d696e617465436f6e6e656374696f6e3a2060008301527f5f7465726d696e617465436f6e6e656374696f6e546f4164647265737320697360208301527f206e6f74206120726567697374657265642061646472657373000000000000006040830152606082019050919050565b6000614d52604a83615cb8565b91507f536f636965747930783a3a6465636c696e65436f6e6e656374696f6e5265717560008301527f6573743a2045737461626c697368656420436f6e6e656374696f6e20416c726560208301527f61647920457869737473000000000000000000000000000000000000000000006040830152606082019050919050565b6000614dde604f83615cb8565b91507f536f636965747930783a3a697350656e64696e674f7574676f696e67436f6e6e60008301527f656374696f6e3a205f6f7574676f696e67436865636b4164647265737320697360208301527f206e6f74207265676973746572656400000000000000000000000000000000006040830152606082019050919050565b6000614e6a605d83615cb8565b91507f536f636965747930783a3a616363657074436f6e6e656374696f6e526571756560008301527f73743a205f72657175657374436f6e6e656374696f6e46726f6d41646472657360208301527f73206973206e6f742061207265676973746572656420616464726573730000006040830152606082019050919050565b6000614ef6604e83615cb8565b91507f536f636965747930783a3a726567697374657250726f66696c653a205369676e60008301527f616c20616c6c6f77616e6365206973206e6f74206d6f7265207468616e20696e60208301527f746572616374696f6e206665652e0000000000000000000000000000000000006040830152606082019050919050565b6000614f82604983615cb8565b91507f536f636965747930783a3a616363657074436f6e6e656374696f6e526571756560008301527f73743a2045737461626c697368656420436f6e6e656374696f6e20416c72656160208301527f64792045786973747300000000000000000000000000000000000000000000006040830152606082019050919050565b600061500e602483615cb8565b91507f5f70726f66696c65506963747572654970667348617368204e6f742050726f7660008301527f69646564000000000000000000000000000000000000000000000000000000006020830152604082019050919050565b6000615074602283615cb8565b91507f5f636f766572506963747572654970667348617368204e6f742050726f76696460008301527f65640000000000000000000000000000000000000000000000000000000000006020830152604082019050919050565b60006150da604d83615cb8565b91507f536f636965747930783a3a7465726d696e617465436f6e6e656374696f6e3a2060008301527f436f6e6e656374696f6e204973204e6f742045737461626c697368656420466f60208301527f72205465726d696e6174696f6e000000000000000000000000000000000000006040830152606082019050919050565b6000615166603983615cb8565b91507f536f636965747930783a3a6a6f696e446973636f76657279496e6465783a204160008301527f6c7265616479206f6e20446973636f7665727920496e646578000000000000006020830152604082019050919050565b60006151cc603583615cb8565b91507f726567697374657250726f66696c653a2050726f66696c65204d65746120446160008301527f74612048617368204e6f742050726f76696465642e00000000000000000000006020830152604082019050919050565b6000615232603c83615cb8565b91507f536f636965747930783a3a6973526567697374657265644d657373616765536560008301527f6e6465723a2041646472657373206e6f742072656769737465726564000000006020830152604082019050919050565b6000615298601583615cb8565b91507f49732052656769737465726564204164647265737300000000000000000000006000830152602082019050919050565b60006152d8602783615cb8565b91507f50726f66696c65204e616d6520526571756972656420427574204e6f7420507260008301527f6f76696465642e000000000000000000000000000000000000000000000000006020830152604082019050919050565b600061533e606383615cb8565b91507f536f636965747930783a3a726567697374657250726f66696c653a205369676e60008301527f616c207472616e73666572206661696c65642c206d616b65207375726520536960208301527f676e616c2062616c616e6365206578636565647320696e746572616374696f6e60408301527f46656500000000000000000000000000000000000000000000000000000000006060830152608082019050919050565b60006153f0601e83615cb8565b91507f4973204e6f7420526567697374657265642050726f66696c65204e616d6500006000830152602082019050919050565b6000615430601983615cb8565b91507f4973204e6f7420526567697374657265642041646472657373000000000000006000830152602082019050919050565b6000615470605e83615cb8565b91507f536f636965747930783a3a6465636c696e65436f6e6e656374696f6e5265717560008301527f6573743a205f72657175657374436f6e6e656374696f6e46726f6d416464726560208301527f7373206973206e6f7420612072656769737465726564206164647265737300006040830152606082019050919050565b60006154fc603083615cb8565b91507f726567697374657250726f66696c653a2050726f66696c652050736575646f6e60008301527f796d204e6f742050726f76696465642e000000000000000000000000000000006020830152604082019050919050565b6000615562604f83615cb8565b91507f536f636965747930783a3a697350656e64696e67496e636f6d696e67436f6e6e60008301527f656374696f6e3a205f696e636f6d696e67436865636b4164647265737320697360208301527f206e6f74207265676973746572656400000000000000000000000000000000006040830152606082019050919050565b60006155ee605d83615cb8565b91507f536f636965747930783a3a637265617465436f6e6e656374696f6e526571756560008301527f73743a205f72657175657374436f6e6e656374696f6e46726f6d41646472657360208301527f73206973206e6f742061207265676973746572656420616464726573730000006040830152606082019050919050565b600061567a604983615cb8565b91507f536f636965747930783a3a637265617465436f6e6e656374696f6e526571756560008301527f73743a2045737461626c697368656420436f6e6e656374696f6e20416c72656160208301527f64792045786973747300000000000000000000000000000000000000000000006040830152606082019050919050565b61570281615d12565b82525050565b61571181615d1c565b82525050565b600061572382846149b2565b915081905092915050565b6000602082019050615743600083018461494c565b92915050565b600060408201905061575e600083018561493d565b61576b602083018461494c565b9392505050565b6000606082019050615787600083018661493d565b615794602083018561494c565b6157a160408301846156f9565b949350505050565b6000610140820190506157bf600083018d61494c565b81810360208301526157d1818c614979565b905081810360408301526157e5818b614979565b905081810360608301526157f9818a614979565b9050818103608083015261580d8189614979565b905061581c60a08301886156f9565b61582960c08301876156f9565b61583660e0830186615708565b6158446101008301856156f9565b6158526101208301846156f9565b9b9a5050505050505050505050565b6000602082019050615876600083018461495b565b92915050565b6000602082019050615891600083018461496a565b92915050565b600060208201905081810360008301526158b18184614979565b905092915050565b600060208201905081810360008301526158d2816149e3565b9050919050565b600060208201905081810360008301526158f281614a6f565b9050919050565b6000602082019050818103600083015261591281614aaf565b9050919050565b6000602082019050818103600083015261593281614b3b565b9050919050565b6000602082019050818103600083015261595281614bc7565b9050919050565b6000602082019050818103600083015261597281614c53565b9050919050565b6000602082019050818103600083015261599281614cb9565b9050919050565b600060208201905081810360008301526159b281614d45565b9050919050565b600060208201905081810360008301526159d281614dd1565b9050919050565b600060208201905081810360008301526159f281614e5d565b9050919050565b60006020820190508181036000830152615a1281614ee9565b9050919050565b60006020820190508181036000830152615a3281614f75565b9050919050565b60006020820190508181036000830152615a5281615001565b9050919050565b60006020820190508181036000830152615a7281615067565b9050919050565b60006020820190508181036000830152615a92816150cd565b9050919050565b60006020820190508181036000830152615ab281615159565b9050919050565b60006020820190508181036000830152615ad2816151bf565b9050919050565b60006020820190508181036000830152615af281615225565b9050919050565b60006020820190508181036000830152615b128161528b565b9050919050565b60006020820190508181036000830152615b32816152cb565b9050919050565b60006020820190508181036000830152615b5281615331565b9050919050565b60006020820190508181036000830152615b72816153e3565b9050919050565b60006020820190508181036000830152615b9281615423565b9050919050565b60006020820190508181036000830152615bb281615463565b9050919050565b60006020820190508181036000830152615bd2816154ef565b9050919050565b60006020820190508181036000830152615bf281615555565b9050919050565b60006020820190508181036000830152615c12816155e1565b9050919050565b60006020820190508181036000830152615c328161566d565b9050919050565b6000602082019050615c4e60008301846156f9565b92915050565b6000604051905081810181811067ffffffffffffffff82111715615c7757600080fd5b8060405250919050565b600067ffffffffffffffff821115615c9857600080fd5b601f19601f8301169050602081019050919050565b600081519050919050565b600082825260208201905092915050565b600081905092915050565b6000615cdf82615cf2565b9050919050565b60008115159050919050565b600073ffffffffffffffffffffffffffffffffffffffff82169050919050565b6000819050919050565b600060ff82169050919050565b6000615d3482615d47565b9050919050565b60008115159050919050565b600073ffffffffffffffffffffffffffffffffffffffff82169050919050565b6000819050919050565b6000615d7c82615da7565b9050919050565b6000615d8e82615d95565b9050919050565b6000615da082615cf2565b9050919050565b6000615db282615db9565b9050919050565b6000615dc482615cf2565b9050919050565b82818337600083830152505050565b60005b83811015615df8578082015181840152602081019050615ddd565b83811115615e07576000848401525b50505050565b6000601f19601f830116905091905056fea265627a7a723058202ca0cb98658508641529e1ae0e83824d1efdc5c1ef011e5f72311f51372d46266c6578706572696d656e74616cf50037",
  "source": "pragma solidity 0.5.7;\npragma experimental ABIEncoderV2;\n\nimport { IERC20 } from \"openzeppelin-solidity/contracts/token/ERC20/IERC20.sol\";\n\ncontract Society0x {\n\n    struct Profile {\n        address id;\n        string pseudonym;\n        string profilePictureIpfsHash;\n        string coverPictureIpfsHash;\n        string profileMetaIpfsHash;\n        uint256 signalReceived;\n        uint256 signalGiven;\n        uint8 accountMode;\n        uint256 updatedTimestamp;\n        uint256 createdTimestamp;\n    }\n    \n    struct Signal {\n        address receiver;\n        address giver;\n        uint256 amount;\n        uint256 time;\n    }\n    \n    IERC20 public signal;\n    uint public signalCount;\n    uint public profileCount;\n    uint public interactionFee;\n    address[] public discoveryIndex;\n    mapping (address => uint256) private discoveryAddressIndex;\n    mapping (address => mapping(address => bool)) public pendingConnections;\n    mapping (address => mapping(address => bool)) public connections;\n    mapping (string => address) private profileNameToAddress;\n    mapping (address => Profile) private addressToProfile;\n    \n    constructor(IERC20 _signal) public {\n        signalCount = 0;\n        profileCount = 0;\n        signal = _signal;\n        interactionFee = 1000000000000000000; // 1 SIGNAL (dB)\n    }\n\n    modifier isRegisteredMessageSender {\n        require(\n            isRegisteredAddress(msg.sender),\n            \"Society0x::isRegisteredMessageSender: Address not registered\"\n        );\n        _;\n    }\n\n    modifier processInteractionFee {\n        require(\n            signal.allowance(msg.sender, address(this)) >= interactionFee,\n            \"Society0x::registerProfile: Signal allowance is not more than interaction fee.\"\n        );\n        require(\n            signal.transferFrom(msg.sender, address(this), interactionFee),\n            \"Society0x::registerProfile: Signal transfer failed, make sure Signal balance exceeds interactionFee\"\n        );\n        _;\n    }\n\n    function getDiscoveryIndexForMsgSender() public view returns (uint256) {\n        return discoveryAddressIndex[msg.sender];\n    }\n\n    function getDiscoveryIndexLength() public view returns (uint) {\n        return discoveryIndex.length;\n    }\n\n    function joinDiscoveryIndex() public isRegisteredMessageSender processInteractionFee returns(bool) {\n        uint256 addressIndex = discoveryAddressIndex[msg.sender];\n        require(\n            discoveryIndex.length == 0 || discoveryIndex[addressIndex] != msg.sender,\n            \"Society0x::joinDiscoveryIndex: Already on Discovery Index\"\n        );\n        discoveryAddressIndex[msg.sender] = discoveryIndex.push(msg.sender) - 1;\n        return true;\n    }\n\n    function leaveDiscoveryIndex() public isRegisteredMessageSender processInteractionFee returns(bool) {\n        require(\n            discoveryIndex[discoveryAddressIndex[msg.sender]] == msg.sender,\n            \"Society0x::leaveDiscoveryIndex: Not on Discovery Index\"\n        );\n        delete discoveryIndex[discoveryAddressIndex[msg.sender]];\n        return true;\n    }\n    \n    function registerProfile(string memory _profileName, string memory _profileMetaIpfsHash) public processInteractionFee {\n        require(\n            !isRegisteredAddress(msg.sender),\n            \"Is Registered Address\"\n        );\n        require(\n            !isRegisteredName(_profileName),\n            \"Is Registered Profile Name\"\n        );\n        require(\n            (bytes(_profileName).length > 0),\n            \"registerProfile: Profile Pseudonym Not Provided.\"\n        );\n        require(\n            (bytes(_profileMetaIpfsHash).length > 0),\n            \"registerProfile: Profile Meta Data Hash Not Provided.\"\n        );\n\n        addressToProfile[msg.sender] = Profile(\n            msg.sender,\n            _profileName,\n            \"\",\n            \"\",\n            _profileMetaIpfsHash,\n            0,\n            0,\n            0,\n            block.timestamp,\n            block.timestamp\n        );\n\n        profileNameToAddress[_profileName] = msg.sender;\n        profileCount++;\n    }\n\n    function editProfileImage(string memory _profilePictureIpfsHash) public processInteractionFee isRegisteredMessageSender returns(address, string memory, string memory, string memory, string memory, uint256, uint256, uint8, uint256, uint256) {\n        require(\n            isRegisteredAddress(msg.sender),\n            \"Is Not Registered Address\"\n        );\n        require(\n            bytes(_profilePictureIpfsHash).length > 0,\n            \"_profilePictureIpfsHash Not Provided\"\n        );\n        Profile memory c = addressToProfile[msg.sender];\n        addressToProfile[msg.sender] = Profile(\n            c.id,\n            c.pseudonym,\n            _profilePictureIpfsHash,\n            c.coverPictureIpfsHash,\n            c.profileMetaIpfsHash,\n            c.signalReceived,\n            c.signalGiven,\n            c.accountMode,\n            block.timestamp,\n            c.createdTimestamp\n        );\n        return (\n            c.id,\n            c.pseudonym,\n            _profilePictureIpfsHash,\n            c.coverPictureIpfsHash,\n            c.profileMetaIpfsHash,\n            c.signalReceived,\n            c.signalGiven,\n            c.accountMode,\n            c.updatedTimestamp,\n            c.createdTimestamp\n        );\n    }\n\n    function editCoverImage(string memory _coverPictureIpfsHash) public processInteractionFee isRegisteredMessageSender returns(address, string memory, string memory, string memory, string memory, uint256, uint256, uint8, uint256, uint256) {\n        require(\n            isRegisteredAddress(msg.sender),\n            \"Is Not Registered Address\"\n        );\n        require(\n            bytes(_coverPictureIpfsHash).length > 0,\n            \"_coverPictureIpfsHash Not Provided\"\n        );\n        Profile memory c = addressToProfile[msg.sender];\n        addressToProfile[msg.sender] = Profile(\n            c.id,\n            c.pseudonym,\n            c.profilePictureIpfsHash,\n            _coverPictureIpfsHash,\n            c.profileMetaIpfsHash,\n            c.signalReceived,\n            c.signalGiven,\n            c.accountMode,\n            block.timestamp,\n            c.createdTimestamp\n        );\n        return (\n            c.id,\n            c.pseudonym,\n            c.profilePictureIpfsHash,\n            _coverPictureIpfsHash,\n            c.profileMetaIpfsHash,\n            c.signalReceived,\n            c.signalGiven,\n            c.accountMode,\n            c.updatedTimestamp,\n            c.createdTimestamp\n        );\n    }\n\n    function fetchProfileNameFromAddress(address _address) public view returns(string memory) {\n        require(\n            isRegisteredAddress(_address),\n            \"Is Not Registered Address\"\n        );\n        return addressToProfile[_address].pseudonym;\n    }\n\n    function fetchProfileFromAddress(address _address) public view returns(address, string memory, string memory, string memory, string memory, uint256, uint256, uint8, uint256, uint256) {\n        require(\n            isRegisteredAddress(_address),\n            \"Society0x::fetchProfileFromAddress: _address is not a registered address\"\n        );\n        Profile memory c = addressToProfile[_address];\n        return (\n            c.id,\n            c.pseudonym,\n            c.profilePictureIpfsHash,\n            c.coverPictureIpfsHash,\n            c.profileMetaIpfsHash,\n            c.signalReceived,\n            c.signalGiven,\n            c.accountMode,\n            c.updatedTimestamp,\n            c.createdTimestamp\n        );\n    }\n\n    function createConnectionRequest(address _requestConnectionFromAddress) public processInteractionFee isRegisteredMessageSender returns (bool) {\n        require(\n            isRegisteredAddress(_requestConnectionFromAddress),\n            \"Society0x::createConnectionRequest: _requestConnectionFromAddress is not a registered address\"\n        );\n        require(\n            !isPendingOutgoingConnection(_requestConnectionFromAddress),\n            \"Society0x::createConnectionRequest: Outgoing Connection Request Already Exists\"\n        );\n        require(\n            !isEstablishedConnection(_requestConnectionFromAddress),\n            \"Society0x::createConnectionRequest: Established Connection Already Exists\"\n        );\n        if(!isPendingIncomingConnection(_requestConnectionFromAddress)){\n            pendingConnections[msg.sender][_requestConnectionFromAddress] = true;\n        }else{\n            connections[_requestConnectionFromAddress][msg.sender] = true;\n            connections[msg.sender][_requestConnectionFromAddress] = true;\n        }\n    }\n\n    function acceptConnectionRequest(address _acceptConnectionFromAddress) public processInteractionFee isRegisteredMessageSender returns (bool) {\n        require(\n            isRegisteredAddress(_acceptConnectionFromAddress),\n            \"Society0x::acceptConnectionRequest: _requestConnectionFromAddress is not a registered address\"\n        );\n        require(\n            isPendingIncomingConnection(_acceptConnectionFromAddress),\n            \"Society0x::acceptConnectionRequest: Pending Incoming Connection Does Not Exist\"\n        );\n        require(\n            !isEstablishedConnection(_acceptConnectionFromAddress),\n            \"Society0x::acceptConnectionRequest: Established Connection Already Exists\"\n        );\n        pendingConnections[_acceptConnectionFromAddress][msg.sender] = false;\n        pendingConnections[msg.sender][_acceptConnectionFromAddress] = false;\n        connections[_acceptConnectionFromAddress][msg.sender] = true;\n        connections[msg.sender][_acceptConnectionFromAddress] = true;\n    }\n\n    function declineConnectionRequest(address _declineConnectionFromAddress) public processInteractionFee isRegisteredMessageSender returns (bool) {\n        require(\n            isRegisteredAddress(_declineConnectionFromAddress),\n            \"Society0x::declineConnectionRequest: _requestConnectionFromAddress is not a registered address\"\n        );\n        require(\n            isPendingIncomingConnection(_declineConnectionFromAddress),\n            \"Society0x::declineConnectionRequest: Pending Incoming Connection Does Not Exist\"\n        );\n        require(\n            !isEstablishedConnection(_declineConnectionFromAddress),\n            \"Society0x::declineConnectionRequest: Established Connection Already Exists\"\n        );\n        pendingConnections[_declineConnectionFromAddress][msg.sender] = false;\n        pendingConnections[msg.sender][_declineConnectionFromAddress] = false;\n    }\n\n    function terminateConnection(address _terminateConnectionToAddress) public processInteractionFee isRegisteredMessageSender returns (bool) {\n        require(\n            isRegisteredAddress(_terminateConnectionToAddress),\n            \"Society0x::terminateConnection: _terminateConnectionToAddress is not a registered address\"\n        );\n        require(\n            isEstablishedConnection(_terminateConnectionToAddress),\n            \"Society0x::terminateConnection: Connection Is Not Established For Termination\"\n        );\n        connections[_terminateConnectionToAddress][msg.sender] = false;\n        connections[msg.sender][_terminateConnectionToAddress] = false;\n    }\n\n    function isEstablishedConnection(address _targetAddress) public view isRegisteredMessageSender returns (bool) {\n       return (connections[msg.sender][_targetAddress] == true) && (connections[_targetAddress][msg.sender] == true);\n    }\n\n    function isPendingIncomingConnection(address _incomingCheckAddress) public view isRegisteredMessageSender returns (bool) {\n        require(\n            isRegisteredAddress(_incomingCheckAddress),\n            \"Society0x::isPendingIncomingConnection: _incomingCheckAddress is not registered\"\n        );\n        if(!pendingConnections[_incomingCheckAddress][msg.sender]){\n            return false;\n        }else{\n            return true;\n        }\n    }\n\n    function isPendingOutgoingConnection(address _outgoingCheckAddress) public view isRegisteredMessageSender returns (bool) {\n        require(\n            isRegisteredAddress(_outgoingCheckAddress),\n            \"Society0x::isPendingOutgoingConnection: _outgoingCheckAddress is not registered\"\n        );\n        if(!pendingConnections[msg.sender][_outgoingCheckAddress]){\n            return false;\n        }else{\n            return true;\n        }\n    }\n\n    function fetchProfileFromProfileName(string memory _profileName) public view returns(address, string memory, string memory, string memory, string memory, uint256, uint256, uint8, uint256, uint256) {\n        require(\n            isRegisteredName(_profileName),\n            \"Is Not Registered Profile Name\"\n        );\n        return fetchProfileFromAddress(profileNameToAddress[_profileName]);\n    }\n\n    function fetchAddressFromProfileName(string memory _profileName) public view returns(address) {\n        require(\n            isRegisteredName(_profileName),\n            \"Is Not Registered Profile Name\"\n        );\n        address _profileAddress = profileNameToAddress[_profileName];\n        return _profileAddress;\n    }\n\n    function isRegisteredAddress(address _address) public view returns(bool) {\n        return addressToProfile[_address].id != 0x0000000000000000000000000000000000000000;\n    }\n\n    function isNotRegisteredAddress(address _address) public view returns(bool) {\n        return addressToProfile[_address].id == 0x0000000000000000000000000000000000000000;\n    }\n\n    function isRegisteredName(string memory _profileName) public view returns(bool) {\n        require(\n            (bytes(_profileName).length > 0),\n            \"Profile Name Required But Not Provided.\"\n        );\n        return profileNameToAddress[_profileName] != 0x0000000000000000000000000000000000000000;\n    }\n}",
  "sourcePath": "/Users/jaywelsh/GitHub/society0x/ethereum/contracts/Society0x.sol",
  "compiler": {
    "name": "solc",
    "version": "0.5.7+commit.6da8b019.Emscripten.clang"
  },
  "schemaVersion": "3.0.9",
  "updatedAt": "2019-09-14T08:11:29.492Z",
  "devdoc": {
    "methods": {}
  },
  "userdoc": {
    "methods": {}
  }
}