{
  "contractName": "Society0x",
  "abi": [
    {
      "constant": true,
      "inputs": [],
      "name": "memberCount",
      "outputs": [
        {
          "name": "",
          "type": "uint256"
        }
      ],
      "payable": false,
      "stateMutability": "view",
      "type": "function"
    },
    {
      "constant": true,
      "inputs": [],
      "name": "tipCount",
      "outputs": [
        {
          "name": "",
          "type": "uint256"
        }
      ],
      "payable": false,
      "stateMutability": "view",
      "type": "function"
    },
    {
      "inputs": [],
      "payable": false,
      "stateMutability": "nonpayable",
      "type": "constructor"
    },
    {
      "constant": false,
      "inputs": [
        {
          "name": "_memberName",
          "type": "string"
        },
        {
          "name": "_profilePictureIpfsHash",
          "type": "string"
        },
        {
          "name": "_coverPictureIpfsHash",
          "type": "string"
        }
      ],
      "name": "registerMember",
      "outputs": [],
      "payable": false,
      "stateMutability": "nonpayable",
      "type": "function"
    },
    {
      "constant": true,
      "inputs": [
        {
          "name": "_address",
          "type": "address"
        }
      ],
      "name": "fetchMemberNameFromAddress",
      "outputs": [
        {
          "name": "",
          "type": "string"
        }
      ],
      "payable": false,
      "stateMutability": "view",
      "type": "function"
    },
    {
      "constant": true,
      "inputs": [
        {
          "name": "_address",
          "type": "address"
        }
      ],
      "name": "fetchMemberFromAddress",
      "outputs": [
        {
          "name": "",
          "type": "address"
        },
        {
          "name": "",
          "type": "string"
        },
        {
          "name": "",
          "type": "string"
        },
        {
          "name": "",
          "type": "string"
        },
        {
          "name": "",
          "type": "uint256"
        },
        {
          "name": "",
          "type": "uint256"
        },
        {
          "name": "",
          "type": "uint256"
        },
        {
          "name": "",
          "type": "uint8"
        }
      ],
      "payable": false,
      "stateMutability": "view",
      "type": "function"
    },
    {
      "constant": true,
      "inputs": [
        {
          "name": "_memberName",
          "type": "string"
        }
      ],
      "name": "fetchMemberFromMemberName",
      "outputs": [
        {
          "name": "",
          "type": "address"
        },
        {
          "name": "",
          "type": "string"
        },
        {
          "name": "",
          "type": "string"
        },
        {
          "name": "",
          "type": "string"
        },
        {
          "name": "",
          "type": "uint256"
        },
        {
          "name": "",
          "type": "uint256"
        },
        {
          "name": "",
          "type": "uint256"
        },
        {
          "name": "",
          "type": "uint8"
        }
      ],
      "payable": false,
      "stateMutability": "view",
      "type": "function"
    },
    {
      "constant": true,
      "inputs": [
        {
          "name": "_memberName",
          "type": "string"
        }
      ],
      "name": "fetchAddressFromMemberName",
      "outputs": [
        {
          "name": "",
          "type": "address"
        }
      ],
      "payable": false,
      "stateMutability": "view",
      "type": "function"
    }
  ],
  "bytecode": "0x608060405234801561001057600080fd5b50600080819055506000600181905550611a218061002f6000396000f3fe608060405234801561001057600080fd5b506004361061009a576000357c01000000000000000000000000000000000000000000000000000000009004806349c81cc51161007857806349c81cc5146102755780637c78ab8f1461045e578063c1052e3914610648578063e31e9c90146108a95761009a565b80630eec29f91461009f5780630f4f19c31461015c57806311aee38014610257575b600080fd5b6100e1600480360360208110156100b557600080fd5b81019080803573ffffffffffffffffffffffffffffffffffffffff1690602001909291905050506108c7565b6040518080602001828103825283818151815260200191508051906020019080838360005b83811015610121578082015181840152602081019050610106565b50505050905090810190601f16801561014e5780820380516001836020036101000a031916815260200191505b509250505060405180910390f35b6102156004803603602081101561017257600080fd5b810190808035906020019064010000000081111561018f57600080fd5b8201836020820111156101a157600080fd5b803590602001918460018302840111640100000000831117156101c357600080fd5b91908080601f016020809104026020016040519081016040528093929190818152602001838380828437600081840152601f19601f820116905080830192505050505050509192919290505050610ab2565b604051808273ffffffffffffffffffffffffffffffffffffffff1673ffffffffffffffffffffffffffffffffffffffff16815260200191505060405180910390f35b61025f610c79565b6040518082815260200191505060405180910390f35b61045c6004803603606081101561028b57600080fd5b81019080803590602001906401000000008111156102a857600080fd5b8201836020820111156102ba57600080fd5b803590602001918460018302840111640100000000831117156102dc57600080fd5b91908080601f016020809104026020016040519081016040528093929190818152602001838380828437600081840152601f19601f8201169050808301925050505050505091929192908035906020019064010000000081111561033f57600080fd5b82018360208201111561035157600080fd5b8035906020019184600183028401116401000000008311171561037357600080fd5b91908080601f016020809104026020016040519081016040528093929190818152602001838380828437600081840152601f19601f820116905080830192505050505050509192919290803590602001906401000000008111156103d657600080fd5b8201836020820111156103e857600080fd5b8035906020019184600183028401116401000000008311171561040a57600080fd5b91908080601f016020809104026020016040519081016040528093929190818152602001838380828437600081840152601f19601f820116905080830192505050505050509192919290505050610c7f565b005b6104a06004803603602081101561047457600080fd5b81019080803573ffffffffffffffffffffffffffffffffffffffff169060200190929190505050611287565b604051808973ffffffffffffffffffffffffffffffffffffffff1673ffffffffffffffffffffffffffffffffffffffff1681526020018060200180602001806020018881526020018781526020018681526020018560ff1660ff16815260200184810384528b818151815260200191508051906020019080838360005b8381101561053857808201518184015260208101905061051d565b50505050905090810190601f1680156105655780820380516001836020036101000a031916815260200191505b5084810383528a818151815260200191508051906020019080838360005b8381101561059e578082015181840152602081019050610583565b50505050905090810190601f1680156105cb5780820380516001836020036101000a031916815260200191505b50848103825289818151815260200191508051906020019080838360005b838110156106045780820151818401526020810190506105e9565b50505050905090810190601f1680156106315780820380516001836020036101000a031916815260200191505b509b50505050505050505050505060405180910390f35b6107016004803603602081101561065e57600080fd5b810190808035906020019064010000000081111561067b57600080fd5b82018360208201111561068d57600080fd5b803590602001918460018302840111640100000000831117156106af57600080fd5b91908080601f016020809104026020016040519081016040528093929190818152602001838380828437600081840152601f19601f8201169050808301925050505050505091929192905050506116b4565b604051808973ffffffffffffffffffffffffffffffffffffffff1673ffffffffffffffffffffffffffffffffffffffff1681526020018060200180602001806020018881526020018781526020018681526020018560ff1660ff16815260200184810384528b818151815260200191508051906020019080838360005b8381101561079957808201518184015260208101905061077e565b50505050905090810190601f1680156107c65780820380516001836020036101000a031916815260200191505b5084810383528a818151815260200191508051906020019080838360005b838110156107ff5780820151818401526020810190506107e4565b50505050905090810190601f16801561082c5780820380516001836020036101000a031916815260200191505b50848103825289818151815260200191508051906020019080838360005b8381101561086557808201518184015260208101905061084a565b50505050905090810190601f1680156108925780820380516001836020036101000a031916815260200191505b509b50505050505050505050505060405180910390f35b6108b16118a2565b6040518082815260200191505060405180910390f35b606081600073ffffffffffffffffffffffffffffffffffffffff16600360008373ffffffffffffffffffffffffffffffffffffffff1673ffffffffffffffffffffffffffffffffffffffff16815260200190815260200160002060000160009054906101000a900473ffffffffffffffffffffffffffffffffffffffff1673ffffffffffffffffffffffffffffffffffffffff1614156109cf576040517f08c379a00000000000000000000000000000000000000000000000000000000081526004018080602001828103825260198152602001807f41646472657373204973204e6f7420526567697374657265640000000000000081525060200191505060405180910390fd5b600360008473ffffffffffffffffffffffffffffffffffffffff1673ffffffffffffffffffffffffffffffffffffffff1681526020019081526020016000206001018054600181600116156101000203166002900480601f016020809104026020016040519081016040528092919081815260200182805460018160011615610100020316600290048015610aa55780601f10610a7a57610100808354040283529160200191610aa5565b820191906000526020600020905b815481529060010190602001808311610a8857829003601f168201915b5050505050915050919050565b600081600073ffffffffffffffffffffffffffffffffffffffff166002826040518082805190602001908083835b60208310610b035780518252602082019150602081019050602083039250610ae0565b6001836020036101000a038019825116818451168082178552505050505050905001915050908152602001604051809103902060009054906101000a900473ffffffffffffffffffffffffffffffffffffffff1673ffffffffffffffffffffffffffffffffffffffff161415610be1576040517f08c379a000000000000000000000000000000000000000000000000000000000815260040180806020018281038252601d8152602001807f4d656d626572204e616d65204973204e6f74205265676973746572656400000081525060200191505060405180910390fd5b60006002846040518082805190602001908083835b60208310610c195780518252602082019150602081019050602083039250610bf6565b6001836020036101000a038019825116818451168082178552505050505050905001915050908152602001604051809103902060009054906101000a900473ffffffffffffffffffffffffffffffffffffffff1690508092505050919050565b60015481565b826000815111610cda576040517f08c379a00000000000000000000000000000000000000000000000000000000081526004018080602001828103825260268152602001806119d06026913960400191505060405180910390fd5b600073ffffffffffffffffffffffffffffffffffffffff16600360003373ffffffffffffffffffffffffffffffffffffffff1673ffffffffffffffffffffffffffffffffffffffff16815260200190815260200160002060000160009054906101000a900473ffffffffffffffffffffffffffffffffffffffff1673ffffffffffffffffffffffffffffffffffffffff1614610dc1576040517f08c379a00000000000000000000000000000000000000000000000000000000081526004018080602001828103825260248152602001806119ac6024913960400191505060405180910390fd5b600073ffffffffffffffffffffffffffffffffffffffff166002826040518082805190602001908083835b60208310610e0f5780518252602082019150602081019050602083039250610dec565b6001836020036101000a038019825116818451168082178552505050505050905001915050908152602001604051809103902060009054906101000a900473ffffffffffffffffffffffffffffffffffffffff1673ffffffffffffffffffffffffffffffffffffffff1614610eec576040517f08c379a000000000000000000000000000000000000000000000000000000000815260040180806020018281038252601f8152602001807f4d656d626572204e616d6520416c726561647920526567697374657265642e0081525060200191505060405180910390fd5b6000845111610f63576040517f08c379a00000000000000000000000000000000000000000000000000000000081526004018080602001828103825260198152602001807f4d656d626572204e616d65204e6f742050726f76696465642e0000000000000081525060200191505060405180910390fd5b6000835111610fda576040517f08c379a000000000000000000000000000000000000000000000000000000000815260040180806020018281038252601e8152602001807f50726f66696c65205069632048617368204e6f742050726f76696465642e000081525060200191505060405180910390fd5b6000825111611051576040517f08c379a000000000000000000000000000000000000000000000000000000000815260040180806020018281038252601c8152602001807f436f766572205069632048617368204e6f742050726f76696465642e0000000081525060200191505060405180910390fd5b6040518061010001604052803373ffffffffffffffffffffffffffffffffffffffff168152602001858152602001848152602001838152602001600081526020016000815260200160008152602001600060ff16815250600360003373ffffffffffffffffffffffffffffffffffffffff1673ffffffffffffffffffffffffffffffffffffffff16815260200190815260200160002060008201518160000160006101000a81548173ffffffffffffffffffffffffffffffffffffffff021916908373ffffffffffffffffffffffffffffffffffffffff160217905550602082015181600101908051906020019061114a9291906118a8565b5060408201518160020190805190602001906111679291906118a8565b5060608201518160030190805190602001906111849291906118a8565b506080820151816004015560a0820151816005015560c0820151816006015560e08201518160070160006101000a81548160ff021916908360ff160217905550905050336002856040518082805190602001908083835b602083106111fe57805182526020820191506020810190506020830392506111db565b6001836020036101000a038019825116818451168082178552505050505050905001915050908152602001604051809103902060006101000a81548173ffffffffffffffffffffffffffffffffffffffff021916908373ffffffffffffffffffffffffffffffffffffffff16021790555060016000815480929190600101919050555050505050565b6000606080606060008060008088600073ffffffffffffffffffffffffffffffffffffffff16600360008373ffffffffffffffffffffffffffffffffffffffff1673ffffffffffffffffffffffffffffffffffffffff16815260200190815260200160002060000160009054906101000a900473ffffffffffffffffffffffffffffffffffffffff1673ffffffffffffffffffffffffffffffffffffffff16141561139a576040517f08c379a00000000000000000000000000000000000000000000000000000000081526004018080602001828103825260198152602001807f41646472657373204973204e6f7420526567697374657265640000000000000081525060200191505060405180910390fd5b6113a2611928565b600360008c73ffffffffffffffffffffffffffffffffffffffff1673ffffffffffffffffffffffffffffffffffffffff168152602001908152602001600020604051806101000160405290816000820160009054906101000a900473ffffffffffffffffffffffffffffffffffffffff1673ffffffffffffffffffffffffffffffffffffffff1673ffffffffffffffffffffffffffffffffffffffff168152602001600182018054600181600116156101000203166002900480601f0160208091040260200160405190810160405280929190818152602001828054600181600116156101000203166002900480156114dc5780601f106114b1576101008083540402835291602001916114dc565b820191906000526020600020905b8154815290600101906020018083116114bf57829003601f168201915b50505050508152602001600282018054600181600116156101000203166002900480601f01602080910402602001604051908101604052809291908181526020018280546001816001161561010002031660029004801561157e5780601f106115535761010080835404028352916020019161157e565b820191906000526020600020905b81548152906001019060200180831161156157829003601f168201915b50505050508152602001600382018054600181600116156101000203166002900480601f0160208091040260200160405190810160405280929190818152602001828054600181600116156101000203166002900480156116205780601f106115f557610100808354040283529160200191611620565b820191906000526020600020905b81548152906001019060200180831161160357829003601f168201915b505050505081526020016004820154815260200160058201548152602001600682015481526020016007820160009054906101000a900460ff1660ff1660ff16815250509050806000015181602001518260400151836060015184608001518560a001518660c001518760e00151869650859550849450995099509950995099509950995099505050919395975091939597565b6000606080606060008060008088600073ffffffffffffffffffffffffffffffffffffffff166002826040518082805190602001908083835b6020831061171057805182526020820191506020810190506020830392506116ed565b6001836020036101000a038019825116818451168082178552505050505050905001915050908152602001604051809103902060009054906101000a900473ffffffffffffffffffffffffffffffffffffffff1673ffffffffffffffffffffffffffffffffffffffff1614156117ee576040517f08c379a000000000000000000000000000000000000000000000000000000000815260040180806020018281038252601d8152602001807f4d656d626572204e616d65204973204e6f74205265676973746572656400000081525060200191505060405180910390fd5b600060028b6040518082805190602001908083835b602083106118265780518252602082019150602081019050602083039250611803565b6001836020036101000a038019825116818451168082178552505050505050905001915050908152602001604051809103902060009054906101000a900473ffffffffffffffffffffffffffffffffffffffff16905061188581611287565b995099509950995099509950995099505050919395975091939597565b60005481565b828054600181600116156101000203166002900490600052602060002090601f016020900481019282601f106118e957805160ff1916838001178555611917565b82800160010185558215611917579182015b828111156119165782518255916020019190600101906118fb565b5b5090506119249190611986565b5090565b604051806101000160405280600073ffffffffffffffffffffffffffffffffffffffff168152602001606081526020016060815260200160608152602001600081526020016000815260200160008152602001600060ff1681525090565b6119a891905b808211156119a457600081600090555060010161198c565b5090565b9056fe457468657265756d204164647265737320416c726561647920526567697374657265642e4d656d626572204e616d6520526571756972656420427574204e6f742050726f76696465642ea165627a7a72305820b60f72a90370a9c6fb9bfd83af38e553894c8798bea2b09daaaff9c4ef402df10029",
  "source": "pragma solidity >=0.4.22 <0.6.0;\n\ncontract Society0x {\n    \n    struct Member {\n        address id;\n        string name;\n        string profilePictureIpfsHash;\n        string coverPictureIpfsHash;\n        uint256 tipReceived;\n        uint256 tipGiven;\n        uint256 reputation;\n        uint8 accountMode;\n    }\n    \n    struct Tip {\n        address receiver;\n        address giver;\n        uint256 amount;\n        uint256 time;\n    }\n    \n    uint public tipCount;\n    uint public memberCount;\n    mapping (string => address) private memberNameToAddress;\n    mapping (address => Member) private addressToMember;\n    \n    constructor() public {\n        tipCount = 0;\n        memberCount = 0;\n    }\n    \n    function registerMember(string memory _memberName, string memory _profilePictureIpfsHash, string memory _coverPictureIpfsHash) public isNewMemberAddressAndName(_memberName) {\n        require(\n            (bytes(_memberName).length > 0),\n            \"Member Name Not Provided.\"\n        );\n        require(\n            (bytes(_profilePictureIpfsHash).length > 0),\n            \"Profile Pic Hash Not Provided.\"\n        );\n        require(\n            (bytes(_coverPictureIpfsHash).length > 0),\n            \"Cover Pic Hash Not Provided.\"\n        );\n        addressToMember[msg.sender] = Member(msg.sender, _memberName, _profilePictureIpfsHash, _coverPictureIpfsHash, 0, 0, 0, 0);\n        memberNameToAddress[_memberName] = msg.sender;\n        memberCount++;\n    }\n\n    function fetchMemberNameFromAddress(address _address) public view isRegisteredAddress(_address) returns(string memory) {\n        return addressToMember[_address].name;\n    }\n\n    function fetchMemberFromAddress(address _address) public view isRegisteredAddress(_address) returns(address, string memory, string memory, string memory, uint256, uint256, uint256, uint8) {\n        Member memory m = addressToMember[_address];\n        return (\n            m.id,\n            m.name,\n            m.profilePictureIpfsHash,\n            m.coverPictureIpfsHash,\n            m.tipReceived,\n            m.tipGiven,\n            m.reputation,\n            m.accountMode\n        );\n    }\n\n    function fetchMemberFromMemberName(string memory _memberName) public view isRegisteredName(_memberName) returns(address, string memory, string memory, string memory, uint256, uint256, uint256, uint8) {\n        address _memberAddress = memberNameToAddress[_memberName];\n        return fetchMemberFromAddress(_memberAddress);\n    }\n\n    function fetchAddressFromMemberName(string memory _memberName) public view isRegisteredName(_memberName) returns(address) {\n        address _memberAddress = memberNameToAddress[_memberName];\n        return _memberAddress;\n    }\n\n    modifier isRegisteredAddress(address _address) {\n        require(\n            (addressToMember[_address].id != 0x0000000000000000000000000000000000000000),\n            \"Address Is Not Registered\"\n        );\n        _;\n    }\n\n    modifier isRegisteredName(string memory _memberName) {\n        require(\n            (memberNameToAddress[_memberName] != 0x0000000000000000000000000000000000000000),\n            \"Member Name Is Not Registered\"\n        );\n        _;\n    }\n    \n    modifier isNewMemberAddressAndName(string memory _memberName) {\n        require(\n            (bytes(_memberName).length > 0),\n            \"Member Name Required But Not Provided.\"\n        );\n        require(\n            (addressToMember[msg.sender].id == 0x0000000000000000000000000000000000000000),\n            \"Ethereum Address Already Registered.\"\n        );\n        require(\n            (memberNameToAddress[_memberName] == 0x0000000000000000000000000000000000000000),\n            \"Member Name Already Registered.\"\n        );\n        _;\n    }\n    \n}",
  "sourcePath": "/Users/jaywelsh/GitHub/society0x/ethereum/contracts/Social0x.sol",
  "compiler": {
    "name": "solc",
    "version": "0.5.7+commit.6da8b019.Emscripten.clang"
  },
  "schemaVersion": "3.0.9",
  "updatedAt": "2019-06-01T13:06:25.390Z",
  "devdoc": {
    "methods": {}
  },
  "userdoc": {
    "methods": {}
  }
}