{
  "contractName": "Society0xDonation",
  "abi": [
    {
      "constant": true,
      "inputs": [],
      "name": "beneficiary",
      "outputs": [
        {
          "name": "",
          "type": "address"
        }
      ],
      "payable": false,
      "stateMutability": "view",
      "type": "function"
    },
    {
      "constant": true,
      "inputs": [
        {
          "name": "",
          "type": "uint256"
        }
      ],
      "name": "milestonesWithdrawn",
      "outputs": [
        {
          "name": "",
          "type": "uint256"
        }
      ],
      "payable": false,
      "stateMutability": "view",
      "type": "function"
    },
    {
      "constant": true,
      "inputs": [],
      "name": "coverPictureIpfsHash",
      "outputs": [
        {
          "name": "",
          "type": "string"
        }
      ],
      "payable": false,
      "stateMutability": "view",
      "type": "function"
    },
    {
      "constant": true,
      "inputs": [],
      "name": "createdBlockTimestamp",
      "outputs": [
        {
          "name": "",
          "type": "uint256"
        }
      ],
      "payable": false,
      "stateMutability": "view",
      "type": "function"
    },
    {
      "constant": true,
      "inputs": [
        {
          "name": "",
          "type": "uint256"
        }
      ],
      "name": "pledges",
      "outputs": [
        {
          "name": "id",
          "type": "uint256"
        },
        {
          "name": "pledgerAddress",
          "type": "address"
        },
        {
          "name": "pledgeToMilestone",
          "type": "uint256"
        },
        {
          "name": "daiValue",
          "type": "uint256"
        },
        {
          "name": "blockNumber",
          "type": "uint256"
        },
        {
          "name": "blockTimestamp",
          "type": "uint256"
        }
      ],
      "payable": false,
      "stateMutability": "view",
      "type": "function"
    },
    {
      "constant": true,
      "inputs": [],
      "name": "daiReceived",
      "outputs": [
        {
          "name": "",
          "type": "uint256"
        }
      ],
      "payable": false,
      "stateMutability": "view",
      "type": "function"
    },
    {
      "constant": true,
      "inputs": [
        {
          "name": "",
          "type": "uint256"
        }
      ],
      "name": "milestonesReached",
      "outputs": [
        {
          "name": "",
          "type": "uint256"
        }
      ],
      "payable": false,
      "stateMutability": "view",
      "type": "function"
    },
    {
      "constant": true,
      "inputs": [
        {
          "name": "",
          "type": "uint256"
        }
      ],
      "name": "milestones",
      "outputs": [
        {
          "name": "",
          "type": "uint256"
        }
      ],
      "payable": false,
      "stateMutability": "view",
      "type": "function"
    },
    {
      "constant": true,
      "inputs": [],
      "name": "dai",
      "outputs": [
        {
          "name": "",
          "type": "address"
        }
      ],
      "payable": false,
      "stateMutability": "view",
      "type": "function"
    },
    {
      "inputs": [
        {
          "name": "_dai",
          "type": "address"
        },
        {
          "name": "_beneficiary",
          "type": "address"
        },
        {
          "name": "_coverPictureIpfsHash",
          "type": "string"
        }
      ],
      "payable": false,
      "stateMutability": "nonpayable",
      "type": "constructor"
    },
    {
      "anonymous": false,
      "inputs": [
        {
          "indexed": false,
          "name": "daiPledgeValue",
          "type": "uint256"
        },
        {
          "indexed": false,
          "name": "daiTotal",
          "type": "uint256"
        },
        {
          "indexed": false,
          "name": "blockNumber",
          "type": "uint256"
        },
        {
          "indexed": false,
          "name": "blockTimestamp",
          "type": "uint256"
        }
      ],
      "name": "PledgeEvent",
      "type": "event"
    },
    {
      "constant": true,
      "inputs": [],
      "name": "getFundMetaData",
      "outputs": [
        {
          "name": "",
          "type": "uint256"
        },
        {
          "name": "",
          "type": "uint256"
        },
        {
          "name": "",
          "type": "string"
        },
        {
          "name": "",
          "type": "address"
        }
      ],
      "payable": false,
      "stateMutability": "view",
      "type": "function"
    },
    {
      "constant": false,
      "inputs": [
        {
          "name": "_daiValue",
          "type": "uint256"
        },
        {
          "name": "_pseudonym",
          "type": "string"
        }
      ],
      "name": "donate",
      "outputs": [
        {
          "name": "",
          "type": "bool"
        }
      ],
      "payable": false,
      "stateMutability": "nonpayable",
      "type": "function"
    },
    {
      "constant": false,
      "inputs": [],
      "name": "forwardToBeneficiary",
      "outputs": [
        {
          "name": "",
          "type": "bool"
        }
      ],
      "payable": false,
      "stateMutability": "nonpayable",
      "type": "function"
    },
    {
      "constant": true,
      "inputs": [],
      "name": "getPledgeCount",
      "outputs": [
        {
          "name": "",
          "type": "uint256"
        }
      ],
      "payable": false,
      "stateMutability": "view",
      "type": "function"
    },
    {
      "constant": true,
      "inputs": [],
      "name": "getMilestoneCount",
      "outputs": [
        {
          "name": "",
          "type": "uint256"
        }
      ],
      "payable": false,
      "stateMutability": "view",
      "type": "function"
    },
    {
      "constant": true,
      "inputs": [
        {
          "name": "_pledgeIndex",
          "type": "uint256"
        }
      ],
      "name": "getPledgeByPledgeId",
      "outputs": [
        {
          "name": "",
          "type": "uint256"
        },
        {
          "name": "",
          "type": "address"
        },
        {
          "name": "",
          "type": "uint256"
        },
        {
          "name": "",
          "type": "uint256"
        },
        {
          "name": "",
          "type": "uint256"
        },
        {
          "name": "",
          "type": "uint256"
        }
      ],
      "payable": false,
      "stateMutability": "view",
      "type": "function"
    }
  ],
  "bytecode": "0x60806040523480156200001157600080fd5b506040516200206538038062002065833981018060405262000037919081019062000283565b826000806101000a81548173ffffffffffffffffffffffffffffffffffffffff021916908373ffffffffffffffffffffffffffffffffffffffff16021790555081600160006101000a81548173ffffffffffffffffffffffffffffffffffffffff021916908373ffffffffffffffffffffffffffffffffffffffff1602179055506003600090806001815401808255809150509060018203906000526020600020016000909192909190915055506003690878678326eac90000009080600181540180825580915050906001820390600052602060002001600090919290919091505550600060068190555080600790805190602001906200013b9291906200014c565b5042600881905550505050620003cb565b828054600181600116156101000203166002900490600052602060002090601f016020900481019282601f106200018f57805160ff1916838001178555620001c0565b82800160010185558215620001c0579182015b82811115620001bf578251825591602001919060010190620001a2565b5b509050620001cf9190620001d3565b5090565b620001f891905b80821115620001f4576000816000905550600101620001da565b5090565b90565b60006200020982516200034d565b905092915050565b60006200021f825162000361565b905092915050565b600082601f8301126200023957600080fd5b8151620002506200024a8262000320565b620002f2565b915080825260208301602083018583830111156200026d57600080fd5b6200027a83828462000395565b50505092915050565b6000806000606084860312156200029957600080fd5b6000620002a98682870162000211565b9350506020620002bc86828701620001fb565b925050604084015167ffffffffffffffff811115620002da57600080fd5b620002e88682870162000227565b9150509250925092565b6000604051905081810181811067ffffffffffffffff821117156200031657600080fd5b8060405250919050565b600067ffffffffffffffff8211156200033857600080fd5b601f19601f8301169050602081019050919050565b60006200035a8262000375565b9050919050565b60006200036e826200034d565b9050919050565b600073ffffffffffffffffffffffffffffffffffffffff82169050919050565b60005b83811015620003b557808201518184015260208101905062000398565b83811115620003c5576000848401525b50505050565b611c8a80620003db6000396000f3fe608060405234801561001057600080fd5b5060043610610112576000357c010000000000000000000000000000000000000000000000000000000090048063abb6ac1e116100b4578063e1609a6611610083578063e1609a66146102b6578063e89e4ed6146102e6578063ef1ae95714610316578063f4b9fa751461033457610112565b8063abb6ac1e14610210578063ac1240811461022e578063b09f0b0914610263578063d76ce1ec1461029857610112565b80638d59d1f1116100f05780638d59d1f1146101865780638f4cf247146101b6578063970b9a0a146101d457806398b3d6de146101f257610112565b8063075c878b1461011757806338af3eed14610138578063393bf85014610156575b600080fd5b61011f610352565b60405161012f9493929190611a34565b60405180910390f35b61014061042e565b60405161014d919061175c565b60405180910390f35b610170600480360361016b91908101906110ff565b610454565b60405161017d91906119b8565b60405180910390f35b6101a0600480360361019b9190810190611151565b610475565b6040516101ad9190611800565b60405180910390f35b6101be6108d0565b6040516101cb91906119b8565b60405180910390f35b6101dc6108dd565b6040516101e991906119b8565b60405180910390f35b6101fa6108ea565b6040516102079190611836565b60405180910390f35b610218610988565b60405161022591906119b8565b60405180910390f35b610248600480360361024391908101906110ff565b61098e565b60405161025a969594939291906119d3565b60405180910390f35b61027d600480360361027891908101906110ff565b6109f7565b60405161028f969594939291906119d3565b60405180910390f35b6102a0610be2565b6040516102ad91906119b8565b60405180910390f35b6102d060048036036102cb91908101906110ff565b610be8565b6040516102dd91906119b8565b60405180910390f35b61030060048036036102fb91908101906110ff565b610c09565b60405161030d91906119b8565b60405180910390f35b61031e610c2a565b60405161032b9190611800565b60405180910390f35b61033c610f2a565b604051610349919061181b565b60405180910390f35b600080606060006006546008546007600160009054906101000a900473ffffffffffffffffffffffffffffffffffffffff16818054600181600116156101000203166002900480601f0160208091040260200160405190810160405280929190818152602001828054600181600116156101000203166002900480156104195780601f106103ee57610100808354040283529160200191610419565b820191906000526020600020905b8154815290600101906020018083116103fc57829003601f168201915b50505050509150935093509350935090919293565b600160009054906101000a900473ffffffffffffffffffffffffffffffffffffffff1681565b6004818154811061046157fe5b906000526020600020016000915090505481565b60008083116104b9576040517f08c379a00000000000000000000000000000000000000000000000000000000081526004016104b090611938565b60405180910390fd5b826000809054906101000a900473ffffffffffffffffffffffffffffffffffffffff1673ffffffffffffffffffffffffffffffffffffffff1663dd62ed3e33306040518363ffffffff167c0100000000000000000000000000000000000000000000000000000000028152600401610532929190611777565b60206040518083038186803b15801561054a57600080fd5b505afa15801561055e573d6000803e3d6000fd5b505050506040513d601f19601f820116820180604052506105829190810190611128565b10156105c3576040517f08c379a00000000000000000000000000000000000000000000000000000000081526004016105ba906118b8565b60405180910390fd5b6000809054906101000a900473ffffffffffffffffffffffffffffffffffffffff1673ffffffffffffffffffffffffffffffffffffffff166323b872dd3330866040518463ffffffff167c010000000000000000000000000000000000000000000000000000000002815260040161063d939291906117a0565b602060405180830381600087803b15801561065757600080fd5b505af115801561066b573d6000803e3d6000fd5b505050506040513d601f19601f8201168201806040525061068f91908101906110d6565b6106ce576040517f08c379a00000000000000000000000000000000000000000000000000000000081526004016106c590611918565b60405180910390fd5b60006106e584600654610f4f90919063ffffffff16565b905080600681905550600060036005805490508154811061070257fe5b9060005260206000200154118015610736575060036005805490508154811061072757fe5b90600052602060002001548110155b1561076c576005808054905090806001815401808255809150509060018203906000526020600020016000909192909190915055505b610774610ffa565b6040518060c0016040528060028054905081526020013373ffffffffffffffffffffffffffffffffffffffff1681526020016003600160038054905003815481106107bb57fe5b90600052602060002001548152602001868152602001438152602001428152509050600281908060018154018082558091505090600182039060005260206000209060060201600090919290919091506000820151816000015560208201518160010160006101000a81548173ffffffffffffffffffffffffffffffffffffffff021916908373ffffffffffffffffffffffffffffffffffffffff16021790555060408201518160020155606082015181600301556080820151816004015560a082015181600501555050507ff713b272e54bcdd6d63bf8be129ec2afb0d3d4ad222e5b3fecf145effcaab42d858343426040516108bc9493929190611a80565b60405180910390a160019250505092915050565b6000600380549050905090565b6000600280549050905090565b60078054600181600116156101000203166002900480601f0160208091040260200160405190810160405280929190818152602001828054600181600116156101000203166002900480156109805780601f1061095557610100808354040283529160200191610980565b820191906000526020600020905b81548152906001019060200180831161096357829003601f168201915b505050505081565b60085481565b6002818154811061099b57fe5b90600052602060002090600602016000915090508060000154908060010160009054906101000a900473ffffffffffffffffffffffffffffffffffffffff16908060020154908060030154908060040154908060050154905086565b600080600080600080600060028054905011610a48576040517f08c379a0000000000000000000000000000000000000000000000000000000008152600401610a3f90611858565b60405180910390fd5b600073ffffffffffffffffffffffffffffffffffffffff1660028881548110610a6d57fe5b906000526020600020906006020160010160009054906101000a900473ffffffffffffffffffffffffffffffffffffffff1673ffffffffffffffffffffffffffffffffffffffff161415610af6576040517f08c379a0000000000000000000000000000000000000000000000000000000008152600401610aed90611958565b60405180910390fd5b610afe610ffa565b60028881548110610b0b57fe5b90600052602060002090600602016040518060c0016040529081600082015481526020016001820160009054906101000a900473ffffffffffffffffffffffffffffffffffffffff1673ffffffffffffffffffffffffffffffffffffffff1673ffffffffffffffffffffffffffffffffffffffff1681526020016002820154815260200160038201548152602001600482015481526020016005820154815250509050806000015181602001518260400151836060015184608001518560a001519650965096509650965096505091939550919395565b60065481565b60058181548110610bf557fe5b906000526020600020016000915090505481565b60038181548110610c1657fe5b906000526020600020016000915090505481565b60008060038054905011610c73576040517f08c379a0000000000000000000000000000000000000000000000000000000008152600401610c6a90611898565b60405180910390fd5b6003610c8e6001600380549050610fa490919063ffffffff16565b81548110610c9857fe5b90600052602060002001546006541015610ce7576040517f08c379a0000000000000000000000000000000000000000000000000000000008152600401610cde906118d8565b60405180910390fd5b600080905060016003805490501115610d7257610d6b6003610d186002600380549050610fa490919063ffffffff16565b81548110610d2257fe5b90600052602060002001546003610d486001600380549050610fa490919063ffffffff16565b81548110610d5257fe5b9060005260206000200154610fa490919063ffffffff16565b9050610db4565b60016003805490501415610db3576003610d9b6001600380549050610fa490919063ffffffff16565b81548110610da557fe5b906000526020600020015490505b5b60008111610df7576040517f08c379a0000000000000000000000000000000000000000000000000000000008152600401610dee90611978565b60405180910390fd5b6000809054906101000a900473ffffffffffffffffffffffffffffffffffffffff1673ffffffffffffffffffffffffffffffffffffffff1663a9059cbb600160009054906101000a900473ffffffffffffffffffffffffffffffffffffffff16836040518363ffffffff167c0100000000000000000000000000000000000000000000000000000000028152600401610e919291906117d7565b602060405180830381600087803b158015610eab57600080fd5b505af1158015610ebf573d6000803e3d6000fd5b505050506040513d601f19601f82011682018060405250610ee391908101906110d6565b610f22576040517f08c379a0000000000000000000000000000000000000000000000000000000008152600401610f1990611998565b60405180910390fd5b600191505090565b6000809054906101000a900473ffffffffffffffffffffffffffffffffffffffff1681565b600080828401905083811015610f9a576040517f08c379a0000000000000000000000000000000000000000000000000000000008152600401610f91906118f8565b60405180910390fd5b8091505092915050565b600082821115610fe9576040517f08c379a0000000000000000000000000000000000000000000000000000000008152600401610fe090611878565b60405180910390fd5b600082840390508091505092915050565b6040518060c0016040528060008152602001600073ffffffffffffffffffffffffffffffffffffffff168152602001600081526020016000815260200160008152602001600081525090565b60006110528251611b8d565b905092915050565b600082601f83011261106b57600080fd5b813561107e61107982611af2565b611ac5565b9150808252602083016020830185838301111561109a57600080fd5b6110a5838284611bfd565b50505092915050565b60006110ba8235611b99565b905092915050565b60006110ce8251611b99565b905092915050565b6000602082840312156110e857600080fd5b60006110f684828501611046565b91505092915050565b60006020828403121561111157600080fd5b600061111f848285016110ae565b91505092915050565b60006020828403121561113a57600080fd5b6000611148848285016110c2565b91505092915050565b6000806040838503121561116457600080fd5b6000611172858286016110ae565b925050602083013567ffffffffffffffff81111561118f57600080fd5b61119b8582860161105a565b9150509250929050565b6111ae81611ba3565b82525050565b6111bd81611b45565b82525050565b6111cc81611b57565b82525050565b6111db81611bb5565b82525050565b60006111ec82611b29565b6111f68185611b34565b9350611206818560208601611c0c565b61120f81611c3f565b840191505092915050565b600061122582611b1e565b61122f8185611b34565b935061123f818560208601611c0c565b61124881611c3f565b840191505092915050565b6000611260603983611b34565b91507f536f63696574793078446f6e6174696f6e3a3a676574506c656467654279506c60008301527f6564676549643a204e6f20506c65646765732045786973742e000000000000006020830152604082019050919050565b60006112c6602083611b34565b91507f536166654d6174683a3a7375623a20496e746567657220756e646572666c6f776000830152602082019050919050565b6000611306603a83611b34565b91507f536f63696574793078446f6e6174696f6e3a3a666f7277617264546f42656e6560008301527f666963696172793a204e6f206d696c6573746f6e65207365742e0000000000006020830152604082019050919050565b600061136c605483611b34565b91507f536f63696574793078446f6e6174696f6e3a3a646f6e6174653a20444149206160008301527f6c6c6f77616e6365206973206e6f742073756666696369656e7420666f72206d60208301527f616b696e67207468697320646f6e6174696f6e2e0000000000000000000000006040830152606082019050919050565b60006113f8604b83611b34565b91507f536f63696574793078446f6e6174696f6e3a3a666f7277617264546f42656e6560008301527f666963696172793a20646169526563656976656420686173206e6f74206d657460208301527f206d696c6573746f6e652e0000000000000000000000000000000000000000006040830152606082019050919050565b6000611484601f83611b34565b91507f536166654d6174683a3a6164643a20496e7465676572206f766572666c6f77006000830152602082019050919050565b60006114c4605483611b34565b91507f536f63696574793078446f6e6174696f6e3a3a646f6e6174653a20444149207460008301527f72616e73666572206661696c65642c206d616b6520737572652044414920626160208301527f6c616e63652069732073756666696369656e742e0000000000000000000000006040830152606082019050919050565b6000611550603c83611b34565b91507f536f63696574793078446f6e6174696f6e3a3a646f6e6174653a20444149207660008301527f616c7565206d757374206265206d6f7265207468616e207a65726f2e000000006020830152604082019050919050565b60006115b6604183611b34565b91507f536f63696574793078446f6e6174696f6e3a3a676574506c656467654279506c60008301527f6564676549643a20506c6564676520494420446f6573204e6f7420457869737460208301527f2e000000000000000000000000000000000000000000000000000000000000006040830152606082019050919050565b6000611642604b83611b34565b91507f536f63696574793078446f6e6174696f6e3a3a666f7277617264546f42656e6560008301527f666963696172793a204661696c7572652066726f6d20666f7277617264696e6760208301527f56616c7565206f6620302e0000000000000000000000000000000000000000006040830152606082019050919050565b60006116ce604983611b34565b91507f536f63696574793078446f6e6174696f6e3a3a666f7277617264546f42656e6560008301527f666963696172793a20666f7277617264696e6756616c7565207472616e73666560208301527f72206661696c65642e00000000000000000000000000000000000000000000006040830152606082019050919050565b61175681611b83565b82525050565b600060208201905061177160008301846111b4565b92915050565b600060408201905061178c60008301856111a5565b61179960208301846111b4565b9392505050565b60006060820190506117b560008301866111a5565b6117c260208301856111b4565b6117cf604083018461174d565b949350505050565b60006040820190506117ec60008301856111b4565b6117f9602083018461174d565b9392505050565b600060208201905061181560008301846111c3565b92915050565b600060208201905061183060008301846111d2565b92915050565b60006020820190508181036000830152611850818461121a565b905092915050565b6000602082019050818103600083015261187181611253565b9050919050565b60006020820190508181036000830152611891816112b9565b9050919050565b600060208201905081810360008301526118b1816112f9565b9050919050565b600060208201905081810360008301526118d18161135f565b9050919050565b600060208201905081810360008301526118f1816113eb565b9050919050565b6000602082019050818103600083015261191181611477565b9050919050565b60006020820190508181036000830152611931816114b7565b9050919050565b6000602082019050818103600083015261195181611543565b9050919050565b60006020820190508181036000830152611971816115a9565b9050919050565b6000602082019050818103600083015261199181611635565b9050919050565b600060208201905081810360008301526119b1816116c1565b9050919050565b60006020820190506119cd600083018461174d565b92915050565b600060c0820190506119e8600083018961174d565b6119f560208301886111b4565b611a02604083018761174d565b611a0f606083018661174d565b611a1c608083018561174d565b611a2960a083018461174d565b979650505050505050565b6000608082019050611a49600083018761174d565b611a56602083018661174d565b8181036040830152611a6881856111e1565b9050611a7760608301846111b4565b95945050505050565b6000608082019050611a95600083018761174d565b611aa2602083018661174d565b611aaf604083018561174d565b611abc606083018461174d565b95945050505050565b6000604051905081810181811067ffffffffffffffff82111715611ae857600080fd5b8060405250919050565b600067ffffffffffffffff821115611b0957600080fd5b601f19601f8301169050602081019050919050565b600081519050919050565b600081519050919050565b600082825260208201905092915050565b6000611b5082611b63565b9050919050565b60008115159050919050565b600073ffffffffffffffffffffffffffffffffffffffff82169050919050565b6000819050919050565b60008115159050919050565b6000819050919050565b6000611bae82611bd9565b9050919050565b6000611bc082611bc7565b9050919050565b6000611bd282611b63565b9050919050565b6000611be482611beb565b9050919050565b6000611bf682611b63565b9050919050565b82818337600083830152505050565b60005b83811015611c2a578082015181840152602081019050611c0f565b83811115611c39576000848401525b50505050565b6000601f19601f830116905091905056fea265627a7a72305820552fe09265b63ec41706cef3b0a282d4e212180f99dc2dba334e2a966c61662a6c6578706572696d656e74616cf50037",
  "source": "pragma solidity 0.5.7;\npragma experimental ABIEncoderV2;\n\nimport { IERC20 } from \"./interface/IERC20.sol\";\nimport { ERC20Taxable } from \"./ERC20Taxable.sol\";\nimport { SafeMath } from \"openzeppelin-solidity/contracts/math/SafeMath.sol\";\n\n/**\n * @title Society0xDonation\n * @dev This smart contract serves the purpose of bootstrapping the full-time development of society0x\n */\ncontract Society0xDonation {\n\n    using SafeMath for uint256;\n\n    struct Donor {\n        address id;\n        uint256[] donations;\n        string pseudonym;\n    }\n\n    struct Pledge {\n        uint256 id;\n        address pledgerAddress;\n        uint256 pledgeToMilestone;\n        uint256 daiValue;\n        uint256 blockNumber;\n        uint256 blockTimestamp;\n    }\n\n    struct FundMetaData {\n        uint256 daiReceived;\n        uint256 createdBlockTimestamp;\n        string coverPictureIpfsHash;\n        address beneficiary;\n    }\n\n    event PledgeEvent (\n        uint256 daiPledgeValue,\n        uint256 daiTotal,\n        uint256 blockNumber,\n        uint256 blockTimestamp\n    );\n\n    IERC20 public dai;\n    address public beneficiary;\n    Pledge[] public pledges;\n    uint256[] public milestones;\n    uint256[] public milestonesWithdrawn;\n    uint256[] public milestonesReached;\n    uint256 public daiReceived;\n    string public coverPictureIpfsHash;\n    uint256 public createdBlockTimestamp;\n\n    constructor(IERC20 _dai, address _beneficiary, string memory _coverPictureIpfsHash) public  {\n        dai = _dai;\n        beneficiary = _beneficiary;\n        milestones.push(0);\n        milestones.push(40000000000000000000000);\n        daiReceived = 0;\n        coverPictureIpfsHash = _coverPictureIpfsHash;\n        createdBlockTimestamp = block.timestamp;\n    }\n\n    function getFundMetaData() public view returns(uint256, uint256, string memory, address) {\n        return (\n            daiReceived,\n            createdBlockTimestamp,\n            coverPictureIpfsHash,\n            beneficiary\n        );\n    }\n\n    function donate(uint256 _daiValue, string memory _pseudonym) public returns (bool) {\n        require(\n            (_daiValue > 0),\n            \"Society0xDonation::donate: DAI value must be more than zero.\"\n        );\n        require(\n            dai.allowance(msg.sender, address(this)) >= _daiValue,\n            \"Society0xDonation::donate: DAI allowance is not sufficient for making this donation.\"\n        );\n        require(\n            dai.transferFrom(msg.sender, address(this), _daiValue),\n            \"Society0xDonation::donate: DAI transfer failed, make sure DAI balance is sufficient.\"\n        );\n        uint256 newBalance = daiReceived.add(_daiValue);\n        daiReceived = newBalance;\n        if((milestones[milestonesReached.length] > 0) && (newBalance >= milestones[milestonesReached.length])){\n            milestonesReached.push(milestonesReached.length);\n        }\n        Pledge memory pledge = Pledge(\n            pledges.length,\n            msg.sender,\n            milestones[milestones.length - 1],\n            _daiValue,\n            block.number,\n            block.timestamp\n        );\n        pledges.push(pledge);\n        emit PledgeEvent(_daiValue, newBalance, block.number, block.timestamp);\n        return true;\n    }\n\n    function forwardToBeneficiary() public returns(bool) {\n        require(\n            milestones.length > 0,\n            \"Society0xDonation::forwardToBeneficiary: No milestone set.\"\n        );\n        require(\n            daiReceived >= milestones[milestones.length.sub(1)],\n            \"Society0xDonation::forwardToBeneficiary: daiReceived has not met milestone.\"\n        );\n        uint256 forwardingValue = 0;\n        if(milestones.length > 1){\n            //Current milestone value minus previous milestone value\n            forwardingValue = milestones[milestones.length.sub(1)].sub(milestones[milestones.length.sub(2)]);\n        }else if(milestones.length == 1){\n            //Current milestone value\n            forwardingValue = milestones[milestones.length.sub(1)];\n        }\n        require(\n            forwardingValue > 0,\n            \"Society0xDonation::forwardToBeneficiary: Failure from forwardingValue of 0.\"\n        );\n        require(\n            dai.transfer(beneficiary, forwardingValue),\n            \"Society0xDonation::forwardToBeneficiary: forwardingValue transfer failed.\"\n        );\n        return true;\n    }\n\n    function getPledgeCount() public view returns(uint256) {\n        return pledges.length;\n    }\n\n    function getMilestoneCount() public view returns(uint256) {\n        return milestones.length;\n    }\n\n    function getPledgeByPledgeId(uint256 _pledgeIndex) public view returns(\n        uint256,\n        address,\n        uint256,\n        uint256,\n        uint256,\n        uint256\n    ) {\n        require(\n            (pledges.length > 0),\n            \"Society0xDonation::getPledgeByPledgeId: No Pledges Exist.\"\n        );\n        require(\n            (pledges[_pledgeIndex].pledgerAddress != 0x0000000000000000000000000000000000000000),\n            \"Society0xDonation::getPledgeByPledgeId: Pledge ID Does Not Exist.\"\n        );\n        Pledge memory pledge = pledges[_pledgeIndex];\n        return(\n            pledge.id,\n            pledge.pledgerAddress,\n            pledge.pledgeToMilestone,\n            pledge.daiValue,\n            pledge.blockNumber,\n            pledge.blockTimestamp\n        );\n    }\n\n}",
  "sourcePath": "/Users/jaywelsh/GitHub/society0x/ethereum/contracts/Society0xDonation.sol",
  "compiler": {
    "name": "solc",
    "version": "0.5.7+commit.6da8b019.Emscripten.clang"
  },
  "schemaVersion": "3.0.16",
  "updatedAt": "2020-01-04T19:22:41.213Z",
  "devdoc": {
    "details": "This smart contract serves the purpose of bootstrapping the full-time development of society0x",
    "methods": {},
    "title": "Society0xDonation"
  },
  "userdoc": {
    "methods": {}
  }
}