{
  "contractName": "Society0xFunds",
  "abi": [
    {
      "constant": true,
      "inputs": [
        {
          "name": "",
          "type": "uint256"
        }
      ],
      "name": "fundIdToUrlSlug",
      "outputs": [
        {
          "name": "",
          "type": "string"
        }
      ],
      "payable": false,
      "stateMutability": "view",
      "type": "function"
    },
    {
      "constant": true,
      "inputs": [
        {
          "name": "",
          "type": "uint256"
        }
      ],
      "name": "fundIdToMilestoneCount",
      "outputs": [
        {
          "name": "",
          "type": "uint256"
        }
      ],
      "payable": false,
      "stateMutability": "view",
      "type": "function"
    },
    {
      "constant": true,
      "inputs": [],
      "name": "signal",
      "outputs": [
        {
          "name": "",
          "type": "address"
        }
      ],
      "payable": false,
      "stateMutability": "view",
      "type": "function"
    },
    {
      "constant": true,
      "inputs": [
        {
          "name": "",
          "type": "address"
        },
        {
          "name": "",
          "type": "uint256"
        }
      ],
      "name": "creatorToFunds",
      "outputs": [
        {
          "name": "",
          "type": "uint256"
        }
      ],
      "payable": false,
      "stateMutability": "view",
      "type": "function"
    },
    {
      "constant": true,
      "inputs": [],
      "name": "society0x",
      "outputs": [
        {
          "name": "",
          "type": "address"
        }
      ],
      "payable": false,
      "stateMutability": "view",
      "type": "function"
    },
    {
      "constant": true,
      "inputs": [
        {
          "name": "",
          "type": "address"
        },
        {
          "name": "",
          "type": "uint256"
        },
        {
          "name": "",
          "type": "uint256"
        }
      ],
      "name": "pledgerToFundIdToMiletoneToCommittedFunds",
      "outputs": [
        {
          "name": "",
          "type": "uint256"
        }
      ],
      "payable": false,
      "stateMutability": "view",
      "type": "function"
    },
    {
      "constant": true,
      "inputs": [
        {
          "name": "",
          "type": "uint256"
        },
        {
          "name": "",
          "type": "uint256"
        }
      ],
      "name": "fundIdToPledges",
      "outputs": [
        {
          "name": "id",
          "type": "uint256"
        },
        {
          "name": "pledgerAddress",
          "type": "address"
        },
        {
          "name": "pledgeToMilestone",
          "type": "uint256"
        },
        {
          "name": "fundId",
          "type": "uint256"
        },
        {
          "name": "signalValue",
          "type": "uint256"
        },
        {
          "name": "blockNumber",
          "type": "uint256"
        },
        {
          "name": "blockTimestamp",
          "type": "uint256"
        },
        {
          "name": "incoming",
          "type": "bool"
        }
      ],
      "payable": false,
      "stateMutability": "view",
      "type": "function"
    },
    {
      "constant": true,
      "inputs": [
        {
          "name": "",
          "type": "uint256"
        }
      ],
      "name": "funds",
      "outputs": [
        {
          "name": "id",
          "type": "uint256"
        },
        {
          "name": "fundName",
          "type": "string"
        },
        {
          "name": "urlSlug",
          "type": "string"
        },
        {
          "name": "coverPictureIpfsHash",
          "type": "string"
        },
        {
          "name": "recipient",
          "type": "address"
        },
        {
          "name": "fundManager",
          "type": "address"
        },
        {
          "name": "signalReceived",
          "type": "uint256"
        },
        {
          "name": "signalWithdrawn",
          "type": "uint256"
        },
        {
          "name": "updatedBlockNumber",
          "type": "uint256"
        },
        {
          "name": "createdBlockNumber",
          "type": "uint256"
        },
        {
          "name": "createdBlockTimestamp",
          "type": "uint256"
        }
      ],
      "payable": false,
      "stateMutability": "view",
      "type": "function"
    },
    {
      "constant": true,
      "inputs": [
        {
          "name": "",
          "type": "uint256"
        },
        {
          "name": "",
          "type": "uint256"
        }
      ],
      "name": "fundIdToMilestones",
      "outputs": [
        {
          "name": "",
          "type": "uint256"
        }
      ],
      "payable": false,
      "stateMutability": "view",
      "type": "function"
    },
    {
      "constant": true,
      "inputs": [
        {
          "name": "",
          "type": "uint256"
        }
      ],
      "name": "pledges",
      "outputs": [
        {
          "name": "id",
          "type": "uint256"
        },
        {
          "name": "pledgerAddress",
          "type": "address"
        },
        {
          "name": "pledgeToMilestone",
          "type": "uint256"
        },
        {
          "name": "fundId",
          "type": "uint256"
        },
        {
          "name": "signalValue",
          "type": "uint256"
        },
        {
          "name": "blockNumber",
          "type": "uint256"
        },
        {
          "name": "blockTimestamp",
          "type": "uint256"
        },
        {
          "name": "incoming",
          "type": "bool"
        }
      ],
      "payable": false,
      "stateMutability": "view",
      "type": "function"
    },
    {
      "constant": true,
      "inputs": [
        {
          "name": "",
          "type": "address"
        },
        {
          "name": "",
          "type": "uint256"
        }
      ],
      "name": "pledgerToPledges",
      "outputs": [
        {
          "name": "",
          "type": "uint256"
        }
      ],
      "payable": false,
      "stateMutability": "view",
      "type": "function"
    },
    {
      "constant": true,
      "inputs": [
        {
          "name": "",
          "type": "uint256"
        },
        {
          "name": "",
          "type": "uint256"
        }
      ],
      "name": "fundIdToMilestoneValueToCommittedFunds",
      "outputs": [
        {
          "name": "",
          "type": "uint256"
        }
      ],
      "payable": false,
      "stateMutability": "view",
      "type": "function"
    },
    {
      "constant": true,
      "inputs": [
        {
          "name": "",
          "type": "string"
        }
      ],
      "name": "urlSlugToFundId",
      "outputs": [
        {
          "name": "",
          "type": "uint256"
        }
      ],
      "payable": false,
      "stateMutability": "view",
      "type": "function"
    },
    {
      "inputs": [
        {
          "name": "_society0x",
          "type": "address"
        },
        {
          "name": "_signal",
          "type": "address"
        }
      ],
      "payable": false,
      "stateMutability": "nonpayable",
      "type": "constructor"
    },
    {
      "anonymous": false,
      "inputs": [
        {
          "indexed": false,
          "name": "fundId",
          "type": "uint256"
        },
        {
          "indexed": false,
          "name": "signalPledgeValue",
          "type": "uint256"
        },
        {
          "indexed": false,
          "name": "signalTotal",
          "type": "uint256"
        },
        {
          "indexed": false,
          "name": "blockNumber",
          "type": "uint256"
        },
        {
          "indexed": false,
          "name": "blockTimestamp",
          "type": "uint256"
        },
        {
          "indexed": false,
          "name": "incoming",
          "type": "bool"
        }
      ],
      "name": "PledgeEvent",
      "type": "event"
    },
    {
      "constant": false,
      "inputs": [
        {
          "name": "_fundName",
          "type": "string"
        },
        {
          "name": "_urlSlug",
          "type": "string"
        },
        {
          "name": "_coverPictureIpfsHash",
          "type": "string"
        },
        {
          "name": "_initialMilestone",
          "type": "uint256"
        },
        {
          "name": "_fundCreator",
          "type": "address"
        },
        {
          "name": "_fundRecipient",
          "type": "address"
        }
      ],
      "name": "createSociety0xFund",
      "outputs": [
        {
          "name": "",
          "type": "bool"
        }
      ],
      "payable": false,
      "stateMutability": "nonpayable",
      "type": "function"
    },
    {
      "constant": true,
      "inputs": [
        {
          "name": "_fundId",
          "type": "uint256"
        },
        {
          "name": "_milestoneValue",
          "type": "uint256"
        }
      ],
      "name": "getFundsCommittedToMilestone",
      "outputs": [
        {
          "name": "",
          "type": "uint256"
        }
      ],
      "payable": false,
      "stateMutability": "view",
      "type": "function"
    },
    {
      "constant": true,
      "inputs": [
        {
          "name": "_urlSlug",
          "type": "string"
        }
      ],
      "name": "fetchFundIdFromUrlSlug",
      "outputs": [
        {
          "name": "",
          "type": "uint256"
        }
      ],
      "payable": false,
      "stateMutability": "view",
      "type": "function"
    },
    {
      "constant": true,
      "inputs": [
        {
          "name": "_urlSlug",
          "type": "string"
        }
      ],
      "name": "fetchFundFromUrlSlug",
      "outputs": [
        {
          "name": "",
          "type": "uint256"
        },
        {
          "name": "",
          "type": "string"
        },
        {
          "name": "",
          "type": "string"
        },
        {
          "name": "",
          "type": "string"
        },
        {
          "name": "",
          "type": "address"
        },
        {
          "name": "",
          "type": "address"
        },
        {
          "name": "",
          "type": "uint256"
        },
        {
          "name": "",
          "type": "uint256"
        },
        {
          "name": "",
          "type": "uint256"
        },
        {
          "name": "",
          "type": "uint256"
        },
        {
          "name": "",
          "type": "uint256"
        }
      ],
      "payable": false,
      "stateMutability": "view",
      "type": "function"
    },
    {
      "constant": true,
      "inputs": [
        {
          "name": "_fundId",
          "type": "uint256"
        }
      ],
      "name": "fetchFundFromFundId",
      "outputs": [
        {
          "name": "",
          "type": "uint256"
        },
        {
          "name": "",
          "type": "string"
        },
        {
          "name": "",
          "type": "string"
        },
        {
          "name": "",
          "type": "string"
        },
        {
          "name": "",
          "type": "address"
        },
        {
          "name": "",
          "type": "address"
        },
        {
          "name": "",
          "type": "uint256"
        },
        {
          "name": "",
          "type": "uint256"
        },
        {
          "name": "",
          "type": "uint256"
        },
        {
          "name": "",
          "type": "uint256"
        },
        {
          "name": "",
          "type": "uint256"
        }
      ],
      "payable": false,
      "stateMutability": "view",
      "type": "function"
    },
    {
      "constant": true,
      "inputs": [
        {
          "name": "_fundId",
          "type": "uint256"
        }
      ],
      "name": "getFundSignalReceived",
      "outputs": [
        {
          "name": "",
          "type": "uint256"
        }
      ],
      "payable": false,
      "stateMutability": "view",
      "type": "function"
    },
    {
      "constant": true,
      "inputs": [],
      "name": "getFundListLength",
      "outputs": [
        {
          "name": "",
          "type": "uint256"
        }
      ],
      "payable": false,
      "stateMutability": "view",
      "type": "function"
    },
    {
      "constant": false,
      "inputs": [
        {
          "name": "_fundId",
          "type": "uint256"
        },
        {
          "name": "_signalValue",
          "type": "uint256"
        },
        {
          "name": "_pledgerAddress",
          "type": "address"
        }
      ],
      "name": "pledgeSignalToFund",
      "outputs": [
        {
          "name": "",
          "type": "bool"
        }
      ],
      "payable": false,
      "stateMutability": "nonpayable",
      "type": "function"
    },
    {
      "constant": false,
      "inputs": [
        {
          "name": "_fundId",
          "type": "uint256"
        },
        {
          "name": "_signalValue",
          "type": "uint256"
        },
        {
          "name": "_pledgerAddress",
          "type": "address"
        }
      ],
      "name": "unpledgeSignalFromFund",
      "outputs": [
        {
          "name": "",
          "type": "bool"
        }
      ],
      "payable": false,
      "stateMutability": "nonpayable",
      "type": "function"
    },
    {
      "constant": true,
      "inputs": [
        {
          "name": "_fundId",
          "type": "uint256"
        }
      ],
      "name": "valueForwardableToBeneficiary",
      "outputs": [
        {
          "name": "",
          "type": "uint256"
        }
      ],
      "payable": false,
      "stateMutability": "view",
      "type": "function"
    },
    {
      "constant": true,
      "inputs": [
        {
          "name": "_fundId",
          "type": "uint256"
        }
      ],
      "name": "isFundOverLatestMilestone",
      "outputs": [
        {
          "name": "",
          "type": "bool"
        }
      ],
      "payable": false,
      "stateMutability": "view",
      "type": "function"
    },
    {
      "constant": false,
      "inputs": [
        {
          "name": "_fundId",
          "type": "uint256"
        },
        {
          "name": "_forwarderAddress",
          "type": "address"
        }
      ],
      "name": "forwardFundsToBeneficiary",
      "outputs": [
        {
          "name": "",
          "type": "bool"
        }
      ],
      "payable": false,
      "stateMutability": "nonpayable",
      "type": "function"
    },
    {
      "constant": false,
      "inputs": [
        {
          "name": "_fundId",
          "type": "uint256"
        },
        {
          "name": "_newMilestone",
          "type": "uint256"
        },
        {
          "name": "_milestoneSetter",
          "type": "address"
        }
      ],
      "name": "setNewMilestone",
      "outputs": [
        {
          "name": "",
          "type": "bool"
        }
      ],
      "payable": false,
      "stateMutability": "nonpayable",
      "type": "function"
    },
    {
      "constant": true,
      "inputs": [
        {
          "name": "_checkAddress",
          "type": "address"
        },
        {
          "name": "_fundId",
          "type": "uint256"
        }
      ],
      "name": "isFundManager",
      "outputs": [
        {
          "name": "",
          "type": "bool"
        }
      ],
      "payable": false,
      "stateMutability": "view",
      "type": "function"
    },
    {
      "constant": true,
      "inputs": [
        {
          "name": "_fundId",
          "type": "uint256"
        }
      ],
      "name": "getFundPledgeCount",
      "outputs": [
        {
          "name": "",
          "type": "uint256"
        }
      ],
      "payable": false,
      "stateMutability": "view",
      "type": "function"
    },
    {
      "constant": true,
      "inputs": [
        {
          "name": "_fundId",
          "type": "uint256"
        },
        {
          "name": "_pledgeIndex",
          "type": "uint256"
        }
      ],
      "name": "getFundPledgeByPledgeId",
      "outputs": [
        {
          "name": "",
          "type": "uint256"
        },
        {
          "name": "",
          "type": "address"
        },
        {
          "name": "",
          "type": "uint256"
        },
        {
          "name": "",
          "type": "uint256"
        },
        {
          "name": "",
          "type": "uint256"
        },
        {
          "name": "",
          "type": "uint256"
        },
        {
          "name": "",
          "type": "uint256"
        },
        {
          "name": "",
          "type": "bool"
        }
      ],
      "payable": false,
      "stateMutability": "view",
      "type": "function"
    },
    {
      "constant": true,
      "inputs": [
        {
          "name": "_fundId",
          "type": "uint256"
        },
        {
          "name": "_pledger",
          "type": "address"
        }
      ],
      "name": "getPledgerFundsWithdrawable",
      "outputs": [
        {
          "name": "",
          "type": "uint256"
        }
      ],
      "payable": false,
      "stateMutability": "view",
      "type": "function"
    },
    {
      "constant": true,
      "inputs": [
        {
          "name": "_urlSlug",
          "type": "string"
        }
      ],
      "name": "isRegisteredUrlSlug",
      "outputs": [
        {
          "name": "",
          "type": "bool"
        }
      ],
      "payable": false,
      "stateMutability": "view",
      "type": "function"
    }
  ],
  "bytecode": "0x60806040523480156200001157600080fd5b506040516040806200597a8339810180604052620000339190810190620000e8565b816000806101000a81548173ffffffffffffffffffffffffffffffffffffffff021916908373ffffffffffffffffffffffffffffffffffffffff16021790555080600360006101000a81548173ffffffffffffffffffffffffffffffffffffffff021916908373ffffffffffffffffffffffffffffffffffffffff160217905550505062000171565b6000620000ca825162000129565b905092915050565b6000620000e082516200013d565b905092915050565b60008060408385031215620000fc57600080fd5b60006200010c85828601620000bc565b92505060206200011f85828601620000d2565b9150509250929050565b6000620001368262000151565b9050919050565b60006200014a8262000129565b9050919050565b600073ffffffffffffffffffffffffffffffffffffffff82169050919050565b6157f980620001816000396000f3fe608060405234801561001057600080fd5b5060043610610202576000357c0100000000000000000000000000000000000000000000000000000000900480637b8e88951161012c578063aa2f4b27116100bf578063bff1f0451161008e578063bff1f0451461070d578063cf7bd95414610744578063cfd56e0d14610774578063f3c4aedf146107a457610202565b8063aa2f4b2714610646578063ac12408114610676578063b99b94d4146106ad578063be20091f146106dd57610202565b806397196511116100fb57806397196511146105985780639e6ea3c0146105c8578063a0d59d02146105e6578063a971cf6f1461061657610202565b80637b8e8895146104ba5780638cbecf37146104f4578063917611321461052e578063965af5801461055e57610202565b806342a1fb3f116101a4578063686af4f511610173578063686af4f5146104055780636eea84411461042357806375e295a0146104535780637886214a1461048357610202565b806342a1fb3f146103575780635f594c9514610387578063640d090b146103b757806367f100d1146103d557610202565b8063197f682e116101e0578063197f682e1461029757806326519f1f146102c757806327b8d49b146102f757806341d32fd11461032757610202565b8063024ba8fe146102075780630478391d1461023757806310d3bd9714610267575b600080fd5b610221600480360361021c9190810190613cf6565b6107d4565b60405161022e9190615375565b60405180910390f35b610251600480360361024c9190810190613d1f565b6107f4565b60405161025e9190614f3d565b60405180910390f35b610281600480360361027c9190810190613d97565b61089a565b60405161028e9190614f3d565b60405180910390f35b6102b160048036036102ac9190810190613cf6565b610fc8565b6040516102be9190614f73565b60405180910390f35b6102e160048036036102dc9190810190613d1f565b611078565b6040516102ee9190615375565b60405180910390f35b610311600480360361030c9190810190613cf6565b611275565b60405161031e9190615375565b60405180910390f35b610341600480360361033c9190810190613c25565b61128d565b60405161034e9190614f3d565b60405180910390f35b610371600480360361036c9190810190613d97565b6117e3565b60405161037e9190614f3d565b60405180910390f35b6103a1600480360361039c9190810190613aef565b611b09565b6040516103ae9190614f3d565b60405180910390f35b6103bf611b80565b6040516103cc9190614f58565b60405180910390f35b6103ef60048036036103ea9190810190613aef565b611ba6565b6040516103fc9190615375565b60405180910390f35b61040d611bd4565b60405161041a9190614ef9565b60405180910390f35b61043d60048036036104389190810190613b2b565b611bf9565b60405161044a9190615375565b60405180910390f35b61046d60048036036104689190810190613be4565b611c2b565b60405161047a9190615375565b60405180910390f35b61049d60048036036104989190810190613d5b565b611c9b565b6040516104b1989796959493929190615390565b60405180910390f35b6104d460048036036104cf9190810190613cf6565b611d2a565b6040516104eb9b9a999897969594939291906154ce565b60405180910390f35b61050e60048036036105099190810190613cf6565b611f99565b6040516105259b9a9998979695949392919061540e565b60405180910390f35b61054860048036036105439190810190613be4565b612408565b6040516105559190614f3d565b60405180910390f35b61057860048036036105739190810190613be4565b612513565b60405161058f9b9a9998979695949392919061540e565b60405180910390f35b6105b260048036036105ad9190810190613cf6565b612560565b6040516105bf9190615375565b60405180910390f35b6105d0612623565b6040516105dd9190615375565b60405180910390f35b61060060048036036105fb9190810190613cf6565b612630565b60405161060d9190614f3d565b60405180910390f35b610630600480360361062b9190810190613d97565b6127be565b60405161063d9190614f3d565b60405180910390f35b610660600480360361065b9190810190613d5b565b612fd8565b60405161066d9190615375565b60405180910390f35b610690600480360361068b9190810190613cf6565b613006565b6040516106a4989796959493929190615390565b60405180910390f35b6106c760048036036106c29190810190613cf6565b613088565b6040516106d49190615375565b60405180910390f35b6106f760048036036106f29190810190613aef565b6131a5565b6040516107049190615375565b60405180910390f35b61072760048036036107229190810190613d5b565b6131d3565b60405161073b989796959493929190615390565b60405180910390f35b61075e60048036036107599190810190613d5b565b61342c565b60405161076b9190615375565b60405180910390f35b61078e60048036036107899190810190613d5b565b613508565b60405161079b9190615375565b60405180910390f35b6107be60048036036107b99190810190613ba3565b61352d565b6040516107cb9190615375565b60405180910390f35b6000600a6000838152602001908152602001600020805490509050919050565b60008060009054906101000a900473ffffffffffffffffffffffffffffffffffffffff1673ffffffffffffffffffffffffffffffffffffffff163373ffffffffffffffffffffffffffffffffffffffff1614610885576040517f08c379a000000000000000000000000000000000000000000000000000000000815260040161087c90615295565b60405180910390fd5b61088f838361355b565b506001905092915050565b60008060009054906101000a900473ffffffffffffffffffffffffffffffffffffffff1673ffffffffffffffffffffffffffffffffffffffff163373ffffffffffffffffffffffffffffffffffffffff161461092b576040517f08c379a000000000000000000000000000000000000000000000000000000000815260040161092290615295565b60405180910390fd5b600060018054905011610973576040517f08c379a000000000000000000000000000000000000000000000000000000000815260040161096a90615175565b60405180910390fd5b600073ffffffffffffffffffffffffffffffffffffffff166001858154811061099857fe5b90600052602060002090600b020160040160009054906101000a900473ffffffffffffffffffffffffffffffffffffffff1673ffffffffffffffffffffffffffffffffffffffff161415610a21576040517f08c379a0000000000000000000000000000000000000000000000000000000008152600401610a1890615215565b60405180910390fd5b60008311610a64576040517f08c379a0000000000000000000000000000000000000000000000000000000008152600401610a5b90615315565b60405180910390fd5b600060018581548110610a7357fe5b90600052602060002090600b020190506000610a9c85836006015461375890919063ffffffff16565b9050600060076000888152602001908152602001600020610add6001600760008b8152602001908152602001600020805490506137ad90919063ffffffff16565b81548110610ae757fe5b906000526020600020015490506000600b600089815260200190815260200160002060008381526020019081526020016000205490506000600c60008873ffffffffffffffffffffffffffffffffffffffff1673ffffffffffffffffffffffffffffffffffffffff16815260200190815260200160002060008a81526020019081526020016000206000848152602001908152602001600020549050838560060181905550610b94613803565b60405180610100016040528060028054905081526020018973ffffffffffffffffffffffffffffffffffffffff1681526020018581526020018b81526020018a8152602001438152602001428152602001600115158152509050600281908060018154018082558091505090600182039060005260206000209060080201600090919290919091506000820151816000015560208201518160010160006101000a81548173ffffffffffffffffffffffffffffffffffffffff021916908373ffffffffffffffffffffffffffffffffffffffff16021790555060408201518160020155606082015181600301556080820151816004015560a0820151816005015560c0820151816006015560e08201518160070160006101000a81548160ff021916908315150217905550505050600a60008b815260200190815260200160002081908060018154018082558091505090600182039060005260206000209060080201600090919290919091506000820151816000015560208201518160010160006101000a81548173ffffffffffffffffffffffffffffffffffffffff021916908373ffffffffffffffffffffffffffffffffffffffff16021790555060408201518160020155606082015181600301556080820151816004015560a0820151816005015560c0820151816006015560e08201518160070160006101000a81548160ff021916908315150217905550505050600960008973ffffffffffffffffffffffffffffffffffffffff1673ffffffffffffffffffffffffffffffffffffffff16815260200190815260200160002060028054905090806001815401808255809150509060018203906000526020600020016000909192909190915055506000821115610e9b57610e31898361375890919063ffffffff16565b600c60008a73ffffffffffffffffffffffffffffffffffffffff1673ffffffffffffffffffffffffffffffffffffffff16815260200190815260200160002060008c8152602001908152602001600020600086815260200190815260200160002081905550610f02565b88600c60008a73ffffffffffffffffffffffffffffffffffffffff1673ffffffffffffffffffffffffffffffffffffffff16815260200190815260200160002060008c81526020019081526020016000206000868152602001908152602001600020819055505b6000831115610f4b57610f1e898461375890919063ffffffff16565b600b60008c8152602001908152602001600020600086815260200190815260200160002081905550610f75565b88600b60008c81526020019081526020016000206000868152602001908152602001600020819055505b7fff0bb824b4c6266ca9ab8bb696d71e0fdf07e7ec2120ae728d1e4b00ece5a9238a8a8743426001604051610faf9695949392919061558e565b60405180910390a1600196505050505050509392505050565b60046020528060005260406000206000915090508054600181600116156101000203166002900480601f0160208091040260200160405190810160405280929190818152602001828054600181600116156101000203166002900480156110705780601f1061104557610100808354040283529160200191611070565b820191906000526020600020905b81548152906001019060200180831161105357829003601f168201915b505050505081565b600080600180549050116110c1576040517f08c379a00000000000000000000000000000000000000000000000000000000081526004016110b8906150f5565b60405180910390fd5b600073ffffffffffffffffffffffffffffffffffffffff16600184815481106110e657fe5b90600052602060002090600b020160040160009054906101000a900473ffffffffffffffffffffffffffffffffffffffff1673ffffffffffffffffffffffffffffffffffffffff16141561116f576040517f08c379a0000000000000000000000000000000000000000000000000000000008152600401611166906151b5565b60405180910390fd5b6000600760008581526020019081526020016000206111ae600160076000888152602001908152602001600020805490506137ad90919063ffffffff16565b815481106111b857fe5b906000526020600020015490506000600185815481106111d457fe5b90600052602060002090600b0201905060008160060154905080831115611267576000600c60008773ffffffffffffffffffffffffffffffffffffffff1673ffffffffffffffffffffffffffffffffffffffff168152602001908152602001600020600088815260200190815260200160002060008581526020019081526020016000205490508094505050505061126f565b600093505050505b92915050565b60086020528060005260406000206000915090505481565b60008060009054906101000a900473ffffffffffffffffffffffffffffffffffffffff1673ffffffffffffffffffffffffffffffffffffffff163373ffffffffffffffffffffffffffffffffffffffff161461131e576040517f08c379a000000000000000000000000000000000000000000000000000000000815260040161131590615295565b60405180910390fd5b61132786612408565b15611367576040517f08c379a000000000000000000000000000000000000000000000000000000000815260040161135e906151f5565b60405180910390fd5b600084116113aa576040517f08c379a00000000000000000000000000000000000000000000000000000000081526004016113a190615095565b60405180910390fd5b600073ffffffffffffffffffffffffffffffffffffffff168373ffffffffffffffffffffffffffffffffffffffff16141561141a576040517f08c379a000000000000000000000000000000000000000000000000000000000815260040161141190615335565b60405180910390fd5b600073ffffffffffffffffffffffffffffffffffffffff168273ffffffffffffffffffffffffffffffffffffffff16141561148a576040517f08c379a000000000000000000000000000000000000000000000000000000000815260040161148190615235565b60405180910390fd5b6000600180549050905060016040518061016001604052808381526020018a81526020018981526020018881526020018573ffffffffffffffffffffffffffffffffffffffff1681526020018673ffffffffffffffffffffffffffffffffffffffff1681526020016000815260200160008152602001438152602001438152602001428152509080600181540180825580915050906001820390600052602060002090600b020160009091929091909150600082015181600001556020820151816001019080519060200190611561929190613860565b50604082015181600201908051906020019061157e929190613860565b50606082015181600301908051906020019061159b929190613860565b5060808201518160040160006101000a81548173ffffffffffffffffffffffffffffffffffffffff021916908373ffffffffffffffffffffffffffffffffffffffff16021790555060a08201518160050160006101000a81548173ffffffffffffffffffffffffffffffffffffffff021916908373ffffffffffffffffffffffffffffffffffffffff16021790555060c0820151816006015560e082015181600701556101008201518160080155610120820151816009015561014082015181600a0155505050600760008281526020019081526020016000206000908060018154018082558091505090600182039060005260206000200160009091929091909150555060076000828152602001908152602001600020859080600181540180825580915050906001820390600052602060002001600090919290919091505550866004600083815260200190815260200160002090805190602001906117049291906138e0565b50806005886040516117169190614ecb565b908152602001604051809103902081905550600660008573ffffffffffffffffffffffffffffffffffffffff1673ffffffffffffffffffffffffffffffffffffffff168152602001908152602001600020819080600181540180825580915050906001820390600052602060002001600090919290919091505550600260086000838152602001908152602001600020819055506000600b600083815260200190815260200160002060008781526020019081526020016000208190555060019150509695505050505050565b60008060009054906101000a900473ffffffffffffffffffffffffffffffffffffffff1673ffffffffffffffffffffffffffffffffffffffff163373ffffffffffffffffffffffffffffffffffffffff1614611874576040517f08c379a000000000000000000000000000000000000000000000000000000000815260040161186b90615295565b60405180910390fd5b61187d84612630565b6118bc576040517f08c379a00000000000000000000000000000000000000000000000000000000081526004016118b3906150d5565b60405180910390fd5b6118c68285611b09565b611905576040517f08c379a00000000000000000000000000000000000000000000000000000000081526004016118fc90615055565b60405180910390fd5b60076000858152602001908152602001600020611942600160076000888152602001908152602001600020805490506137ad90919063ffffffff16565b8154811061194c57fe5b90600052602060002001548311611998576040517f08c379a000000000000000000000000000000000000000000000000000000000815260040161198f90615255565b60405180910390fd5b600184815481106119a557fe5b90600052602060002090600b02016006015483116119f8576040517f08c379a00000000000000000000000000000000000000000000000000000000081526004016119ef906151d5565b60405180910390fd5b6000611a0385612560565b90506000811115611a5857611a18858461355b565b611a57576040517f08c379a0000000000000000000000000000000000000000000000000000000008152600401611a4e90615135565b60405180910390fd5b5b60076000868152602001908152602001600020849080600181540180825580915050906001820390600052602060002001600090919290919091505550611abc6001600860008881526020019081526020016000205461375890919063ffffffff16565b60086000878152602001908152602001600020819055506000600b600087815260200190815260200160002060008681526020019081526020016000208190555060019150509392505050565b600060018281548110611b1857fe5b90600052602060002090600b020160050160009054906101000a900473ffffffffffffffffffffffffffffffffffffffff1673ffffffffffffffffffffffffffffffffffffffff168373ffffffffffffffffffffffffffffffffffffffff1614905092915050565b600360009054906101000a900473ffffffffffffffffffffffffffffffffffffffff1681565b60066020528160005260406000208181548110611bbf57fe5b90600052602060002001600091509150505481565b6000809054906101000a900473ffffffffffffffffffffffffffffffffffffffff1681565b600c60205282600052604060002060205281600052604060002060205280600052604060002060009250925050505481565b6000611c3682612408565b611c75576040517f08c379a0000000000000000000000000000000000000000000000000000000008152600401611c6c90615355565b60405180910390fd5b600582604051611c859190614ecb565b9081526020016040518091039020549050919050565b600a6020528160005260406000208181548110611cb457fe5b9060005260206000209060080201600091509150508060000154908060010160009054906101000a900473ffffffffffffffffffffffffffffffffffffffff16908060020154908060030154908060040154908060050154908060060154908060070160009054906101000a900460ff16905088565b60018181548110611d3757fe5b90600052602060002090600b0201600091509050806000015490806001018054600181600116156101000203166002900480601f016020809104026020016040519081016040528092919081815260200182805460018160011615610100020316600290048015611de95780601f10611dbe57610100808354040283529160200191611de9565b820191906000526020600020905b815481529060010190602001808311611dcc57829003601f168201915b505050505090806002018054600181600116156101000203166002900480601f016020809104026020016040519081016040528092919081815260200182805460018160011615610100020316600290048015611e875780601f10611e5c57610100808354040283529160200191611e87565b820191906000526020600020905b815481529060010190602001808311611e6a57829003601f168201915b505050505090806003018054600181600116156101000203166002900480601f016020809104026020016040519081016040528092919081815260200182805460018160011615610100020316600290048015611f255780601f10611efa57610100808354040283529160200191611f25565b820191906000526020600020905b815481529060010190602001808311611f0857829003601f168201915b5050505050908060040160009054906101000a900473ffffffffffffffffffffffffffffffffffffffff16908060050160009054906101000a900473ffffffffffffffffffffffffffffffffffffffff169080600601549080600701549080600801549080600901549080600a015490508b565b6000606080606060008060008060008060008060018054905011611ff2576040517f08c379a0000000000000000000000000000000000000000000000000000000008152600401611fe990615155565b60405180910390fd5b600073ffffffffffffffffffffffffffffffffffffffff1660018d8154811061201757fe5b90600052602060002090600b020160040160009054906101000a900473ffffffffffffffffffffffffffffffffffffffff1673ffffffffffffffffffffffffffffffffffffffff1614156120a0576040517f08c379a000000000000000000000000000000000000000000000000000000000815260040161209790615275565b60405180910390fd5b6120a8613960565b60018d815481106120b557fe5b90600052602060002090600b02016040518061016001604052908160008201548152602001600182018054600181600116156101000203166002900480601f0160208091040260200160405190810160405280929190818152602001828054600181600116156101000203166002900480156121725780601f1061214757610100808354040283529160200191612172565b820191906000526020600020905b81548152906001019060200180831161215557829003601f168201915b50505050508152602001600282018054600181600116156101000203166002900480601f0160208091040260200160405190810160405280929190818152602001828054600181600116156101000203166002900480156122145780601f106121e957610100808354040283529160200191612214565b820191906000526020600020905b8154815290600101906020018083116121f757829003601f168201915b50505050508152602001600382018054600181600116156101000203166002900480601f0160208091040260200160405190810160405280929190818152602001828054600181600116156101000203166002900480156122b65780601f1061228b576101008083540402835291602001916122b6565b820191906000526020600020905b81548152906001019060200180831161229957829003601f168201915b505050505081526020016004820160009054906101000a900473ffffffffffffffffffffffffffffffffffffffff1673ffffffffffffffffffffffffffffffffffffffff1673ffffffffffffffffffffffffffffffffffffffff1681526020016005820160009054906101000a900473ffffffffffffffffffffffffffffffffffffffff1673ffffffffffffffffffffffffffffffffffffffff1673ffffffffffffffffffffffffffffffffffffffff16815260200160068201548152602001600782015481526020016008820154815260200160098201548152602001600a820154815250509050806000015181602001518260400151836060015184608001518560a001518660c001518760e001518861010001518961012001518a61014001518999508898508797509b509b509b509b509b509b509b509b509b509b509b505091939597999b90929496989a50565b60008082511161244d576040517f08c379a0000000000000000000000000000000000000000000000000000000008152600401612444906150b5565b60405180910390fd5b600060058360405161245f9190614ecb565b90815260200160405180910390205414156125095760006001805490501180156124f25750816040516020016124959190614ecb565b6040516020818303038152906040528051906020012060016000815481106124b957fe5b90600052602060002090600b02016002016040516020016124da9190614ee2565b60405160208183030381529060405280519060200120145b15612500576001905061250e565b6000905061250e565b600190505b919050565b6000606080606060008060008060008060008061252f8d611c2b565b905061253a81611f99565b9b509b509b509b509b509b509b509b509b509b509b505091939597999b90929496989a50565b60008061256c83612630565b905060006001848154811061257d57fe5b90600052602060002090600b02016007015490506000600760008681526020019081526020016000206125d0600160076000898152602001908152602001600020805490506137ad90919063ffffffff16565b815481106125da57fe5b906000526020600020015490508280156125f45750600081115b156126165761260c82826137ad90919063ffffffff16565b935050505061261e565b600093505050505b919050565b6000600180549050905090565b60008060018054905011612679576040517f08c379a000000000000000000000000000000000000000000000000000000000815260040161267090615155565b60405180910390fd5b600073ffffffffffffffffffffffffffffffffffffffff166001838154811061269e57fe5b90600052602060002090600b020160040160009054906101000a900473ffffffffffffffffffffffffffffffffffffffff1673ffffffffffffffffffffffffffffffffffffffff161415612727576040517f08c379a000000000000000000000000000000000000000000000000000000000815260040161271e90615275565b60405180910390fd5b600060076000848152602001908152602001600020612766600160076000878152602001908152602001600020805490506137ad90919063ffffffff16565b8154811061277057fe5b9060005260206000200154905060006001848154811061278c57fe5b90600052602060002090600b02016006015490508181106127b2576001925050506127b9565b6000925050505b919050565b60008060009054906101000a900473ffffffffffffffffffffffffffffffffffffffff1673ffffffffffffffffffffffffffffffffffffffff163373ffffffffffffffffffffffffffffffffffffffff161461284f576040517f08c379a000000000000000000000000000000000000000000000000000000000815260040161284690615295565b60405180910390fd5b60008311612892576040517f08c379a000000000000000000000000000000000000000000000000000000000815260040161288990614fb5565b60405180910390fd5b600061289e8584611078565b9050600081116128e3576040517f08c379a00000000000000000000000000000000000000000000000000000000081526004016128da90615075565b60405180910390fd5b83811015612926576040517f08c379a000000000000000000000000000000000000000000000000000000000815260040161291d90615195565b60405180910390fd5b60006001868154811061293557fe5b90600052602060002090600b02019050600061295e8683600601546137ad90919063ffffffff16565b905060006007600089815260200190815260200160002061299f6001600760008c8152602001908152602001600020805490506137ad90919063ffffffff16565b815481106129a957fe5b906000526020600020015490506000600b60008a815260200190815260200160002060008381526020019081526020016000205490506000600c60008973ffffffffffffffffffffffffffffffffffffffff1673ffffffffffffffffffffffffffffffffffffffff16815260200190815260200160002060008b8152602001908152602001600020600084815260200190815260200160002054905060008111612a88576040517f08c379a0000000000000000000000000000000000000000000000000000000008152600401612a7f906152d5565b60405180910390fd5b838560060181905550612a99613803565b60405180610100016040528060028054905081526020018a73ffffffffffffffffffffffffffffffffffffffff1681526020018581526020018c81526020018b8152602001438152602001428152602001600015158152509050600281908060018154018082558091505090600182039060005260206000209060080201600090919290919091506000820151816000015560208201518160010160006101000a81548173ffffffffffffffffffffffffffffffffffffffff021916908373ffffffffffffffffffffffffffffffffffffffff16021790555060408201518160020155606082015181600301556080820151816004015560a0820151816005015560c0820151816006015560e08201518160070160006101000a81548160ff021916908315150217905550505050600a60008c815260200190815260200160002081908060018154018082558091505090600182039060005260206000209060080201600090919290919091506000820151816000015560208201518160010160006101000a81548173ffffffffffffffffffffffffffffffffffffffff021916908373ffffffffffffffffffffffffffffffffffffffff16021790555060408201518160020155606082015181600301556080820151816004015560a0820151816005015560c0820151816006015560e08201518160070160006101000a81548160ff021916908315150217905550505050600960008a73ffffffffffffffffffffffffffffffffffffffff1673ffffffffffffffffffffffffffffffffffffffff16815260200190815260200160002060028054905090806001815401808255809150509060018203906000526020600020016000909192909190915055506000821115612da057612d368a836137ad90919063ffffffff16565b600c60008b73ffffffffffffffffffffffffffffffffffffffff1673ffffffffffffffffffffffffffffffffffffffff16815260200190815260200160002060008d8152602001908152602001600020600086815260200190815260200160002081905550612e07565b89600c60008b73ffffffffffffffffffffffffffffffffffffffff1673ffffffffffffffffffffffffffffffffffffffff16815260200190815260200160002060008d81526020019081526020016000206000868152602001908152602001600020819055505b6000831115612e5057612e238a846137ad90919063ffffffff16565b600b60008d8152602001908152602001600020600086815260200190815260200160002081905550612e7a565b89600b60008d81526020019081526020016000206000868152602001908152602001600020819055505b600360009054906101000a900473ffffffffffffffffffffffffffffffffffffffff1673ffffffffffffffffffffffffffffffffffffffff1663a9059cbb8a8c6040518363ffffffff167c0100000000000000000000000000000000000000000000000000000000028152600401612ef3929190614f14565b602060405180830381600087803b158015612f0d57600080fd5b505af1158015612f21573d6000803e3d6000fd5b505050506040513d601f19601f82011682018060405250612f459190810190613b7a565b612f84576040517f08c379a0000000000000000000000000000000000000000000000000000000008152600401612f7b906152f5565b60405180910390fd5b7fff0bb824b4c6266ca9ab8bb696d71e0fdf07e7ec2120ae728d1e4b00ece5a9238b8b8743426000604051612fbe9695949392919061558e565b60405180910390a160019750505050505050509392505050565b60076020528160005260406000208181548110612ff157fe5b90600052602060002001600091509150505481565b6002818154811061301357fe5b90600052602060002090600802016000915090508060000154908060010160009054906101000a900473ffffffffffffffffffffffffffffffffffffffff16908060020154908060030154908060040154908060050154908060060154908060070160009054906101000a900460ff16905088565b600080600180549050116130d1576040517f08c379a00000000000000000000000000000000000000000000000000000000081526004016130c890615155565b60405180910390fd5b600073ffffffffffffffffffffffffffffffffffffffff16600183815481106130f657fe5b90600052602060002090600b020160040160009054906101000a900473ffffffffffffffffffffffffffffffffffffffff1673ffffffffffffffffffffffffffffffffffffffff16141561317f576040517f08c379a000000000000000000000000000000000000000000000000000000000815260040161317690615275565b60405180910390fd5b6001828154811061318c57fe5b90600052602060002090600b0201600601549050919050565b600960205281600052604060002081815481106131be57fe5b90600052602060002001600091509150505481565b6000806000806000806000806000600a60008c81526020019081526020016000208054905011613238576040517f08c379a000000000000000000000000000000000000000000000000000000000815260040161322f90614f95565b60405180910390fd5b600073ffffffffffffffffffffffffffffffffffffffff16600a60008c81526020019081526020016000208a8154811061326e57fe5b906000526020600020906008020160010160009054906101000a900473ffffffffffffffffffffffffffffffffffffffff1673ffffffffffffffffffffffffffffffffffffffff1614156132f7576040517f08c379a00000000000000000000000000000000000000000000000000000000081526004016132ee90615035565b60405180910390fd5b6132ff613803565b600a60008c81526020019081526020016000208a8154811061331d57fe5b906000526020600020906008020160405180610100016040529081600082015481526020016001820160009054906101000a900473ffffffffffffffffffffffffffffffffffffffff1673ffffffffffffffffffffffffffffffffffffffff1673ffffffffffffffffffffffffffffffffffffffff16815260200160028201548152602001600382015481526020016004820154815260200160058201548152602001600682015481526020016007820160009054906101000a900460ff1615151515815250509050806000015181602001518260400151836060015184608001518560a001518660c001518760e0015198509850985098509850985098509850509295985092959890939650565b60008073ffffffffffffffffffffffffffffffffffffffff166001848154811061345257fe5b90600052602060002090600b020160040160009054906101000a900473ffffffffffffffffffffffffffffffffffffffff1673ffffffffffffffffffffffffffffffffffffffff1614156134db576040517f08c379a00000000000000000000000000000000000000000000000000000000081526004016134d290614fd5565b60405180910390fd5b600b6000848152602001908152602001600020600083815260200190815260200160002054905092915050565b600b602052816000526040600020602052806000526040600020600091509150505481565b6005818051602081018201805184825260208301602085012081835280955050505050506000915090505481565b60008061356784612560565b9050600081116135ac576040517f08c379a00000000000000000000000000000000000000000000000000000000081526004016135a390615115565b60405180910390fd5b6000600185815481106135bb57fe5b90600052602060002090600b020160040160009054906101000a900473ffffffffffffffffffffffffffffffffffffffff169050600360009054906101000a900473ffffffffffffffffffffffffffffffffffffffff1673ffffffffffffffffffffffffffffffffffffffff1663a9059cbb82846040518363ffffffff167c0100000000000000000000000000000000000000000000000000000000028152600401613668929190614f14565b602060405180830381600087803b15801561368257600080fd5b505af1158015613696573d6000803e3d6000fd5b505050506040513d601f19601f820116820180604052506136ba9190810190613b7a565b6136f9576040517f08c379a00000000000000000000000000000000000000000000000000000000081526004016136f090614ff5565b60405180910390fd5b61372a826001878154811061370a57fe5b90600052602060002090600b02016007015461375890919063ffffffff16565b6001868154811061373757fe5b90600052602060002090600b02016007018190555060019250505092915050565b6000808284019050838110156137a3576040517f08c379a000000000000000000000000000000000000000000000000000000000815260040161379a906152b5565b60405180910390fd5b8091505092915050565b6000828211156137f2576040517f08c379a00000000000000000000000000000000000000000000000000000000081526004016137e990615015565b60405180910390fd5b600082840390508091505092915050565b60405180610100016040528060008152602001600073ffffffffffffffffffffffffffffffffffffffff16815260200160008152602001600081526020016000815260200160008152602001600081526020016000151581525090565b828054600181600116156101000203166002900490600052602060002090601f016020900481019282601f106138a157805160ff19168380011785556138cf565b828001600101855582156138cf579182015b828111156138ce5782518255916020019190600101906138b3565b5b5090506138dc91906139e6565b5090565b828054600181600116156101000203166002900490600052602060002090601f016020900481019282601f1061392157805160ff191683800117855561394f565b8280016001018555821561394f579182015b8281111561394e578251825591602001919060010190613933565b5b50905061395c91906139e6565b5090565b60405180610160016040528060008152602001606081526020016060815260200160608152602001600073ffffffffffffffffffffffffffffffffffffffff168152602001600073ffffffffffffffffffffffffffffffffffffffff16815260200160008152602001600081526020016000815260200160008152602001600081525090565b613a0891905b80821115613a045760008160009055506001016139ec565b5090565b90565b6000613a178235615700565b905092915050565b6000613a2b8251615712565b905092915050565b600082601f830112613a4457600080fd5b8135613a57613a528261561c565b6155ef565b91508082526020830160208301858383011115613a7357600080fd5b613a7e83828461576c565b50505092915050565b600082601f830112613a9857600080fd5b8135613aab613aa682615648565b6155ef565b91508082526020830160208301858383011115613ac757600080fd5b613ad283828461576c565b50505092915050565b6000613ae7823561573e565b905092915050565b60008060408385031215613b0257600080fd5b6000613b1085828601613a0b565b9250506020613b2185828601613adb565b9150509250929050565b600080600060608486031215613b4057600080fd5b6000613b4e86828701613a0b565b9350506020613b5f86828701613adb565b9250506040613b7086828701613adb565b9150509250925092565b600060208284031215613b8c57600080fd5b6000613b9a84828501613a1f565b91505092915050565b600060208284031215613bb557600080fd5b600082013567ffffffffffffffff811115613bcf57600080fd5b613bdb84828501613a33565b91505092915050565b600060208284031215613bf657600080fd5b600082013567ffffffffffffffff811115613c1057600080fd5b613c1c84828501613a87565b91505092915050565b60008060008060008060c08789031215613c3e57600080fd5b600087013567ffffffffffffffff811115613c5857600080fd5b613c6489828a01613a87565b965050602087013567ffffffffffffffff811115613c8157600080fd5b613c8d89828a01613a87565b955050604087013567ffffffffffffffff811115613caa57600080fd5b613cb689828a01613a87565b9450506060613cc789828a01613adb565b9350506080613cd889828a01613a0b565b92505060a0613ce989828a01613a0b565b9150509295509295509295565b600060208284031215613d0857600080fd5b6000613d1684828501613adb565b91505092915050565b60008060408385031215613d3257600080fd5b6000613d4085828601613adb565b9250506020613d5185828601613a0b565b9150509250929050565b60008060408385031215613d6e57600080fd5b6000613d7c85828601613adb565b9250506020613d8d85828601613adb565b9150509250929050565b600080600060608486031215613dac57600080fd5b6000613dba86828701613adb565b9350506020613dcb86828701613adb565b9250506040613ddc86828701613a0b565b9150509250925092565b613def816156b8565b82525050565b613dfe816156ca565b82525050565b613e0d81615748565b82525050565b6000613e1e82615691565b613e28818561569c565b9350613e3881856020860161577b565b613e41816157ae565b840191505092915050565b6000613e5782615691565b613e6181856156ad565b9350613e7181856020860161577b565b80840191505092915050565b6000613e8882615686565b613e92818561569c565b9350613ea281856020860161577b565b613eab816157ae565b840191505092915050565b600081546001811660008114613ed35760018114613ef857613f3c565b607f6002830416613ee481876156ad565b955060ff1983168652808601935050613f3c565b60028204613f0681876156ad565b9550613f1185615674565b60005b82811015613f3357815481890152600182019150602081019050613f14565b82880195505050505b505092915050565b6000613f5160428361569c565b91507f536f6369657479307846756e64733a3a67657446756e64506c6564676542795060008301527f6c6564676549643a204e6f20506c656467657320457869737420466f7220467560208301527f6e640000000000000000000000000000000000000000000000000000000000006040830152606082019050919050565b6000613fdd60428361569c565b91507f536f6369657479307846756e64733a3a756e706c656467655369676e616c467260008301527f6f6d46756e643a2043616e2774207769746864726177207a65726f205369676e60208301527f616c0000000000000000000000000000000000000000000000000000000000006040830152606082019050919050565b6000614069603d8361569c565b91507f536f6369657479307846756e64733a3a67657446756e6473436f6d6d6974746560008301527f64546f4d696c6573746f6e653a20696e76616c6964205f66756e6449640000006020830152604082019050919050565b60006140cf60508361569c565b91507f536f6369657479307846756e64733a3a666f727761726446756e6473546f426560008301527f6e65666963696172793a205369676e616c207472616e7366657220746f20626560208301527f6e6566696369617279206661696c6564000000000000000000000000000000006040830152606082019050919050565b600061415b60208361569c565b91507f536166654d6174683a3a7375623a20496e746567657220756e646572666c6f776000830152602082019050919050565b600061419b604a8361569c565b91507f536f6369657479307846756e64733a3a67657446756e64506c6564676542795060008301527f6c6564676549643a20506c6564676520494420446f6573204e6f74204578697360208301527f7420466f722046756e64000000000000000000000000000000000000000000006040830152606082019050919050565b6000614227604d8361569c565b91507f536f6369657479307846756e64733a7365744e65774d696c6573746f6e653a3a60008301527f205f6d696c6573746f6e65536574746572206973206e6f7420657175616c207460208301527f6f2066756e644d616e61676572000000000000000000000000000000000000006040830152606082019050919050565b60006142b360498361569c565b91507f536f6369657479307846756e64733a3a756e706c656467655369676e616c467260008301527f6f6d46756e643a204e6f20617661696c61626c652066756e647320666f72207760208301527f69746864726177616c00000000000000000000000000000000000000000000006040830152606082019050919050565b600061433f60548361569c565b91507f536f6369657479307846756e64733a3a637265617465536f636965747930784660008301527f756e643a20496e697469616c205369676e616c204d696c6573746f6e65204d7560208301527f7374204265204d6f7265205468616e205a65726f0000000000000000000000006040830152606082019050919050565b60006143cb60238361569c565b91507f55726c20536c756720526571756972656420427574204e6f742050726f76696460008301527f65642e00000000000000000000000000000000000000000000000000000000006020830152604082019050919050565b600061443160428361569c565b91507f536f6369657479307846756e64733a7365744e65774d696c6573746f6e653a3a60008301527f2046756e64206973206e6f74206f766572206c6174657374206d696c6573746f60208301527f6e650000000000000000000000000000000000000000000000000000000000006040830152606082019050919050565b60006144bd603b8361569c565b91507f536f6369657479307846756e64733a3a676574506c656467657246756e64735760008301527f6974686472617761626c653a204e6f2046756e647320457869737400000000006020830152604082019050919050565b600061452360518361569c565b91507f536f6369657479307846756e64733a3a666f727761726446756e6473546f426560008301527f6e65666963696172793a20466f727761726461626c652062616c616e6365206e60208301527f6f74206d6f7265207468616e207a65726f0000000000000000000000000000006040830152606082019050919050565b60006145af60478361569c565b91507f536f6369657479307846756e64733a3a7365744e65774d696c6573746f6e653a60008301527f20466f7277617264696e672046756e647320546f2042656e656669636961727960208301527f204661696c6564000000000000000000000000000000000000000000000000006040830152606082019050919050565b600061463b60338361569c565b91507f536f6369657479307846756e64733a3a666574636846756e6446726f6d46756e60008301527f6449643a204e6f2046756e6473204578697374000000000000000000000000006020830152604082019050919050565b60006146a160328361569c565b91507f536f6369657479307846756e64733a3a706c656467655369676e616c546f467560008301527f6e643a204e6f2046756e647320457869737400000000000000000000000000006020830152604082019050919050565b6000614707605b8361569c565b91507f536f636965747930783a3a756e706c656467655369676e616c46726f6d46756e60008301527f643a20526571756573746564207769746864726177616c20616d6f756e74206560208301527f78636565647320617661696c61626c6520616c6c6f636174696f6e00000000006040830152606082019050919050565b600061479360518361569c565b91507f536f6369657479307846756e64733a3a676574506c656467657246756e64735760008301527f6974686472617761626c653a2046756e6420576974682050726f76696465642060208301527f494420446f6573204e6f742045786973740000000000000000000000000000006040830152606082019050919050565b600061481f60518361569c565b91507f536f6369657479307846756e64733a7365744e65774d696c6573746f6e653a3a60008301527f205f6e65774d696c6573746f6e65206973206e6f74206772656174657220746860208301527f616e207369676e616c52656365697665640000000000000000000000000000006040830152606082019050919050565b60006148ab60438361569c565b91507f536f6369657479307846756e64733a3a637265617465536f636965747930784660008301527f756e643a2055726c20536c756720497320416c7265616479205265676973746560208301527f72656400000000000000000000000000000000000000000000000000000000006040830152606082019050919050565b600061493760488361569c565b91507f536f6369657479307846756e64733a3a706c656467655369676e616c546f467560008301527f6e643a2046756e6420576974682050726f766964656420494420446f6573204e60208301527f6f742045786973740000000000000000000000000000000000000000000000006040830152606082019050919050565b60006149c360498361569c565b91507f536f6369657479307846756e64733a3a637265617465536f636965747930784660008301527f756e643a205f66756e64526563697069656e742063616e277420626520766f6960208301527f64206164647265737300000000000000000000000000000000000000000000006040830152606082019050919050565b6000614a4f60538361569c565b91507f536f6369657479307846756e64733a7365744e65774d696c6573746f6e653a3a60008301527f205f6e65774d696c6573746f6e65206973206e6f74206772656174657220746860208301527f616e206c6174657374206d696c6573746f6e65000000000000000000000000006040830152606082019050919050565b6000614adb60498361569c565b91507f536f6369657479307846756e64733a3a666574636846756e6446726f6d46756e60008301527f6449643a2046756e6420576974682050726f766964656420494420446f65732060208301527f4e6f7420457869737400000000000000000000000000000000000000000000006040830152606082019050919050565b6000614b6760468361569c565b91507f536f6369657479307846756e64733a3a697343616c6c65644279536f6369657460008301527f7930783a204f6e6c7920736f636965747930782063616e2063616c6c2074686960208301527f732066756e6300000000000000000000000000000000000000000000000000006040830152606082019050919050565b6000614bf3601f8361569c565b91507f536166654d6174683a3a6164643a20496e7465676572206f766572666c6f77006000830152602082019050919050565b6000614c3360608361569c565b91507f536f6369657479307846756e64733a3a756e706c656467655369676e616c467260008301527f6f6d46756e643a2063757272656e74506c65646765724d696c6573746f6e654360208301527f6f6d6d69746d656e74206d757374206265206d6f7265207468616e207a65726f6040830152606082019050919050565b6000614cbf60348361569c565b91507f536f636965747930783a3a756e706c656467655369676e616c46726f6d46756e60008301527f643a205769746864726177616c206661696c65640000000000000000000000006020830152604082019050919050565b6000614d25604a8361569c565b91507f536f6369657479307846756e64733a3a706c656467655369676e616c546f467560008301527f6e643a205369676e616c207175616e74697479206d757374206265206d6f726560208301527f207468616e207a65726f000000000000000000000000000000000000000000006040830152606082019050919050565b6000614db160478361569c565b91507f536f6369657479307846756e64733a3a637265617465536f636965747930784660008301527f756e643a205f66756e6443726561746f722063616e277420626520766f69642060208301527f61646472657373000000000000000000000000000000000000000000000000006040830152606082019050919050565b6000614e3d60428361569c565b91507f536f6369657479307846756e64733a3a666574636846756e64496446726f6d5560008301527f726c536c75673a204973204e6f7420526567697374657265642055726c20536c60208301527f75670000000000000000000000000000000000000000000000000000000000006040830152606082019050919050565b614ec5816156f6565b82525050565b6000614ed78284613e4c565b915081905092915050565b6000614eee8284613eb6565b915081905092915050565b6000602082019050614f0e6000830184613de6565b92915050565b6000604082019050614f296000830185613de6565b614f366020830184614ebc565b9392505050565b6000602082019050614f526000830184613df5565b92915050565b6000602082019050614f6d6000830184613e04565b92915050565b60006020820190508181036000830152614f8d8184613e7d565b905092915050565b60006020820190508181036000830152614fae81613f44565b9050919050565b60006020820190508181036000830152614fce81613fd0565b9050919050565b60006020820190508181036000830152614fee8161405c565b9050919050565b6000602082019050818103600083015261500e816140c2565b9050919050565b6000602082019050818103600083015261502e8161414e565b9050919050565b6000602082019050818103600083015261504e8161418e565b9050919050565b6000602082019050818103600083015261506e8161421a565b9050919050565b6000602082019050818103600083015261508e816142a6565b9050919050565b600060208201905081810360008301526150ae81614332565b9050919050565b600060208201905081810360008301526150ce816143be565b9050919050565b600060208201905081810360008301526150ee81614424565b9050919050565b6000602082019050818103600083015261510e816144b0565b9050919050565b6000602082019050818103600083015261512e81614516565b9050919050565b6000602082019050818103600083015261514e816145a2565b9050919050565b6000602082019050818103600083015261516e8161462e565b9050919050565b6000602082019050818103600083015261518e81614694565b9050919050565b600060208201905081810360008301526151ae816146fa565b9050919050565b600060208201905081810360008301526151ce81614786565b9050919050565b600060208201905081810360008301526151ee81614812565b9050919050565b6000602082019050818103600083015261520e8161489e565b9050919050565b6000602082019050818103600083015261522e8161492a565b9050919050565b6000602082019050818103600083015261524e816149b6565b9050919050565b6000602082019050818103600083015261526e81614a42565b9050919050565b6000602082019050818103600083015261528e81614ace565b9050919050565b600060208201905081810360008301526152ae81614b5a565b9050919050565b600060208201905081810360008301526152ce81614be6565b9050919050565b600060208201905081810360008301526152ee81614c26565b9050919050565b6000602082019050818103600083015261530e81614cb2565b9050919050565b6000602082019050818103600083015261532e81614d18565b9050919050565b6000602082019050818103600083015261534e81614da4565b9050919050565b6000602082019050818103600083015261536e81614e30565b9050919050565b600060208201905061538a6000830184614ebc565b92915050565b6000610100820190506153a6600083018b614ebc565b6153b3602083018a613de6565b6153c06040830189614ebc565b6153cd6060830188614ebc565b6153da6080830187614ebc565b6153e760a0830186614ebc565b6153f460c0830185614ebc565b61540160e0830184613df5565b9998505050505050505050565b600061016082019050615424600083018e614ebc565b8181036020830152615436818d613e13565b9050818103604083015261544a818c613e13565b9050818103606083015261545e818b613e13565b905061546d608083018a613de6565b61547a60a0830189613de6565b61548760c0830188614ebc565b61549460e0830187614ebc565b6154a2610100830186614ebc565b6154b0610120830185614ebc565b6154be610140830184614ebc565b9c9b505050505050505050505050565b6000610160820190506154e4600083018e614ebc565b81810360208301526154f6818d613e7d565b9050818103604083015261550a818c613e7d565b9050818103606083015261551e818b613e7d565b905061552d608083018a613de6565b61553a60a0830189613de6565b61554760c0830188614ebc565b61555460e0830187614ebc565b615562610100830186614ebc565b615570610120830185614ebc565b61557e610140830184614ebc565b9c9b505050505050505050505050565b600060c0820190506155a36000830189614ebc565b6155b06020830188614ebc565b6155bd6040830187614ebc565b6155ca6060830186614ebc565b6155d76080830185614ebc565b6155e460a0830184613df5565b979650505050505050565b6000604051905081810181811067ffffffffffffffff8211171561561257600080fd5b8060405250919050565b600067ffffffffffffffff82111561563357600080fd5b601f19601f8301169050602081019050919050565b600067ffffffffffffffff82111561565f57600080fd5b601f19601f8301169050602081019050919050565b60008160005260206000209050919050565b600081519050919050565b600081519050919050565b600082825260208201905092915050565b600081905092915050565b60006156c3826156d6565b9050919050565b60008115159050919050565b600073ffffffffffffffffffffffffffffffffffffffff82169050919050565b6000819050919050565b600061570b8261571e565b9050919050565b60008115159050919050565b600073ffffffffffffffffffffffffffffffffffffffff82169050919050565b6000819050919050565b60006157538261575a565b9050919050565b6000615765826156d6565b9050919050565b82818337600083830152505050565b60005b8381101561579957808201518184015260208101905061577e565b838111156157a8576000848401525b50505050565b6000601f19601f830116905091905056fea265627a7a7230582094d356551d54460e207e1a24936772e7f93b6796bae5fdc523a7e0c9c468a4686c6578706572696d656e74616cf50037",
  "source": "pragma solidity 0.5.7;\npragma experimental ABIEncoderV2;\n\nimport { SafeMath } from \"openzeppelin-solidity/contracts/math/SafeMath.sol\";\nimport { ISignal } from \"./interface/ISignal.sol\";\n\ncontract Society0xFunds {\n    using SafeMath for uint256;\n\n    struct Fund {\n        uint256 id;\n        string fundName;\n        string urlSlug;\n        string coverPictureIpfsHash;\n        address recipient;\n        address fundManager;\n        uint256 signalReceived;\n        uint256 signalWithdrawn;\n        uint256 updatedBlockNumber;\n        uint256 createdBlockNumber;\n        uint256 createdBlockTimestamp;\n    }\n\n    struct Pledge {\n        uint256 id;\n        address pledgerAddress;\n        uint256 pledgeToMilestone;\n        uint256 fundId;\n        uint256 signalValue;\n        uint256 blockNumber;\n        uint256 blockTimestamp;\n        bool incoming;\n    }\n\n    event PledgeEvent (\n        uint256 fundId,\n        uint256 signalPledgeValue,\n        uint256 signalTotal,\n        uint256 blockNumber,\n        uint256 blockTimestamp,\n        bool incoming\n    );\n\n    address public society0x;\n    Fund[] public funds;\n    Pledge[] public pledges;\n    ISignal public signal;\n    mapping (uint256 => string) public fundIdToUrlSlug;\n    mapping (string => uint256) public urlSlugToFundId;\n    mapping (address => uint256[]) public creatorToFunds;\n    mapping (uint256 => uint256[]) public fundIdToMilestones;\n    mapping (uint256 => uint256) public fundIdToMilestoneCount;\n    mapping (address => uint256[]) public pledgerToPledges;\n    mapping (uint256 => Pledge[]) public fundIdToPledges;\n    mapping (uint256 => mapping(uint256 => uint256)) public fundIdToMilestoneValueToCommittedFunds;\n    mapping (address => mapping(uint256 => mapping(uint256 => uint256))) public pledgerToFundIdToMiletoneToCommittedFunds;\n    \n    constructor(address _society0x, ISignal _signal) public {\n        society0x = _society0x;\n        signal = _signal;\n    }\n\n    modifier isCalledBySociety0x {\n        require(\n            msg.sender == society0x,\n            \"Society0xFunds::isCalledBySociety0x: Only society0x can call this func\"\n        );\n        _;\n    }\n\n    function createSociety0xFund(\n        string memory _fundName,\n        string memory _urlSlug,\n        string memory _coverPictureIpfsHash,\n        uint256 _initialMilestone,\n        address _fundCreator,\n        address _fundRecipient\n    ) public isCalledBySociety0x returns (bool) {\n        require(\n            !isRegisteredUrlSlug(_urlSlug),\n            \"Society0xFunds::createSociety0xFund: Url Slug Is Already Registered\"\n        );\n        require(\n            _initialMilestone > 0,\n            \"Society0xFunds::createSociety0xFund: Initial Signal Milestone Must Be More Than Zero\"\n        );\n        require(\n            _fundCreator != 0x0000000000000000000000000000000000000000,\n            \"Society0xFunds::createSociety0xFund: _fundCreator can't be void address\"\n        );\n        require(\n            _fundRecipient != 0x0000000000000000000000000000000000000000,\n            \"Society0xFunds::createSociety0xFund: _fundRecipient can't be void address\"\n        );\n        uint256 fundId = funds.length;\n        funds.push(Fund(\n            fundId,\n            _fundName,\n            _urlSlug,\n            _coverPictureIpfsHash,\n            _fundRecipient,\n            _fundCreator,\n            0,\n            0,\n            block.number,\n            block.number,\n            block.timestamp\n        ));\n        fundIdToMilestones[fundId].push(0);\n        fundIdToMilestones[fundId].push(_initialMilestone);\n        fundIdToUrlSlug[fundId] = _urlSlug;\n        urlSlugToFundId[_urlSlug] = fundId;\n        creatorToFunds[_fundCreator].push(fundId);\n        fundIdToMilestoneCount[fundId] = 2;\n        fundIdToMilestoneValueToCommittedFunds[fundId][_initialMilestone] = 0;\n        return true;\n    }\n\n    function getFundsCommittedToMilestone(uint256 _fundId, uint256 _milestoneValue) public view returns (uint256) {\n        require(\n            (funds[_fundId].recipient != 0x0000000000000000000000000000000000000000),\n            \"Society0xFunds::getFundsCommittedToMilestone: invalid _fundId\"\n        );\n        return fundIdToMilestoneValueToCommittedFunds[_fundId][_milestoneValue];\n    }\n\n    function fetchFundIdFromUrlSlug(string memory _urlSlug) public view returns(uint256) {\n        require(\n            isRegisteredUrlSlug(_urlSlug),\n            \"Society0xFunds::fetchFundIdFromUrlSlug: Is Not Registered Url Slug\"\n        );\n        return urlSlugToFundId[_urlSlug];\n    }\n\n    function fetchFundFromUrlSlug(string memory _urlSlug) public view returns (\n        uint256,\n        string memory,\n        string memory,\n        string memory,\n        address,\n        address,\n        uint256,\n        uint256,\n        uint256,\n        uint256,\n        uint256\n    ) {\n        uint256 fundId = fetchFundIdFromUrlSlug(_urlSlug);\n        return fetchFundFromFundId(fundId);\n    }\n\n    function fetchFundFromFundId(uint256 _fundId) public view returns (\n        uint256,\n        string memory,\n        string memory,\n        string memory,\n        address,\n        address,\n        uint256,\n        uint256,\n        uint256,\n        uint256,\n        uint256\n    ) {\n        require(\n            (funds.length > 0),\n            \"Society0xFunds::fetchFundFromFundId: No Funds Exist\"\n        );\n        require(\n            (funds[_fundId].recipient != 0x0000000000000000000000000000000000000000),\n            \"Society0xFunds::fetchFundFromFundId: Fund With Provided ID Does Not Exist\"\n        );\n        Fund memory fund = funds[_fundId];\n        return(\n            fund.id,\n            fund.fundName,\n            fund.urlSlug,\n            fund.coverPictureIpfsHash,\n            fund.recipient,\n            fund.fundManager,\n            fund.signalReceived,\n            fund.signalWithdrawn,\n            fund.updatedBlockNumber,\n            fund.createdBlockNumber,\n            fund.createdBlockTimestamp\n        );\n    }\n\n    function getFundSignalReceived(uint256 _fundId) public view returns (uint256) {\n        require(\n            (funds.length > 0),\n            \"Society0xFunds::fetchFundFromFundId: No Funds Exist\"\n        );\n        require(\n            (funds[_fundId].recipient != 0x0000000000000000000000000000000000000000),\n            \"Society0xFunds::fetchFundFromFundId: Fund With Provided ID Does Not Exist\"\n        );\n        return funds[_fundId].signalReceived;\n    }\n\n    function getFundListLength() public view returns (uint256) {\n        return funds.length;\n    }\n\n    function pledgeSignalToFund(\n        uint256 _fundId,\n        uint256 _signalValue,\n        address _pledgerAddress\n    ) public isCalledBySociety0x returns(\n        bool\n    ) {\n        require(\n            (funds.length > 0),\n            \"Society0xFunds::pledgeSignalToFund: No Funds Exist\"\n        );\n        require(\n            (funds[_fundId].recipient != 0x0000000000000000000000000000000000000000),\n            \"Society0xFunds::pledgeSignalToFund: Fund With Provided ID Does Not Exist\"\n        );\n        require(\n            (_signalValue > 0),\n            \"Society0xFunds::pledgeSignalToFund: Signal quantity must be more than zero\"\n        );\n        Fund storage fund = funds[_fundId];\n        uint256 newBalance = fund.signalReceived.add(_signalValue);\n        uint256 pledgeToMilestone = fundIdToMilestones[_fundId][fundIdToMilestones[_fundId].length.sub(1)];\n        uint256 currentMilestoneCommitment = fundIdToMilestoneValueToCommittedFunds[_fundId][pledgeToMilestone];\n        uint256 currentPledgerMilestoneCommitment = pledgerToFundIdToMiletoneToCommittedFunds[_pledgerAddress][_fundId][pledgeToMilestone];\n        fund.signalReceived = newBalance;\n        Pledge memory pledge = Pledge(\n            pledges.length,\n            _pledgerAddress,\n            pledgeToMilestone,\n            _fundId,\n            _signalValue,\n            block.number,\n            block.timestamp,\n            true\n        );\n        pledges.push(pledge);\n        fundIdToPledges[_fundId].push(pledge);\n        pledgerToPledges[_pledgerAddress].push(pledges.length);\n        if(currentPledgerMilestoneCommitment > 0){\n            pledgerToFundIdToMiletoneToCommittedFunds[_pledgerAddress][_fundId][pledgeToMilestone] = currentPledgerMilestoneCommitment.add(_signalValue);\n        } else {\n            pledgerToFundIdToMiletoneToCommittedFunds[_pledgerAddress][_fundId][pledgeToMilestone] = _signalValue;\n        }\n        if(currentMilestoneCommitment > 0){\n            fundIdToMilestoneValueToCommittedFunds[_fundId][pledgeToMilestone] = currentMilestoneCommitment.add(_signalValue);\n        }else{\n            fundIdToMilestoneValueToCommittedFunds[_fundId][pledgeToMilestone] = _signalValue;\n        }\n        emit PledgeEvent(_fundId, _signalValue, newBalance, block.number, block.timestamp, true);\n        return true;\n    }\n\n    function unpledgeSignalFromFund(\n        uint256 _fundId,\n        uint256 _signalValue,\n        address _pledgerAddress\n    ) public isCalledBySociety0x returns(\n        bool\n    ) {\n        require(\n            _signalValue > 0,\n            \"Society0xFunds::unpledgeSignalFromFund: Can't withdraw zero Signal\"\n        );\n        uint256 fundsAvailableForWithdrawal = getPledgerFundsWithdrawable(_fundId, _pledgerAddress);\n        require(\n            fundsAvailableForWithdrawal > 0,\n            \"Society0xFunds::unpledgeSignalFromFund: No available funds for withdrawal\"\n        );\n        require(\n            fundsAvailableForWithdrawal >= _signalValue,\n            \"Society0x::unpledgeSignalFromFund: Requested withdrawal amount exceeds available allocation\"\n        );\n        Fund storage fund = funds[_fundId];\n        uint256 newBalance = fund.signalReceived.sub(_signalValue);\n        uint256 unpledgeFromMilestone = fundIdToMilestones[_fundId][fundIdToMilestones[_fundId].length.sub(1)];\n        uint256 currentMilestoneCommitment = fundIdToMilestoneValueToCommittedFunds[_fundId][unpledgeFromMilestone];\n        uint256 currentPledgerMilestoneCommitment = pledgerToFundIdToMiletoneToCommittedFunds[_pledgerAddress][_fundId][unpledgeFromMilestone];\n        require(\n            (currentPledgerMilestoneCommitment > 0),\n            \"Society0xFunds::unpledgeSignalFromFund: currentPledgerMilestoneCommitment must be more than zero\"\n        );\n        fund.signalReceived = newBalance;\n        Pledge memory pledge = Pledge(\n            pledges.length,\n            _pledgerAddress,\n            unpledgeFromMilestone,\n            _fundId,\n            _signalValue,\n            block.number,\n            block.timestamp,\n            false\n        );\n        pledges.push(pledge);\n        fundIdToPledges[_fundId].push(pledge);\n        pledgerToPledges[_pledgerAddress].push(pledges.length);\n        if(currentPledgerMilestoneCommitment > 0){\n            pledgerToFundIdToMiletoneToCommittedFunds[_pledgerAddress][_fundId][unpledgeFromMilestone] = currentPledgerMilestoneCommitment.sub(_signalValue);\n        } else {\n            pledgerToFundIdToMiletoneToCommittedFunds[_pledgerAddress][_fundId][unpledgeFromMilestone] = _signalValue;\n        }\n        if(currentMilestoneCommitment > 0){\n            fundIdToMilestoneValueToCommittedFunds[_fundId][unpledgeFromMilestone] = currentMilestoneCommitment.sub(_signalValue);\n        }else{\n            fundIdToMilestoneValueToCommittedFunds[_fundId][unpledgeFromMilestone] = _signalValue;\n        }\n        require(\n            signal.transfer(_pledgerAddress, _signalValue),\n            \"Society0x::unpledgeSignalFromFund: Withdrawal failed\"\n        );\n        emit PledgeEvent(_fundId, _signalValue, newBalance, block.number, block.timestamp, false);\n        return true;\n    }\n\n    function valueForwardableToBeneficiary(uint256 _fundId) public view returns(uint256) {\n        bool isFundOverLatestMilestone = isFundOverLatestMilestone(_fundId);\n        uint256 fundSignalWithdrawn = funds[_fundId].signalWithdrawn;\n        uint256 latestMilestone = fundIdToMilestones[_fundId][fundIdToMilestones[_fundId].length.sub(1)];\n        if(isFundOverLatestMilestone && (latestMilestone > 0)) {\n            return latestMilestone.sub(fundSignalWithdrawn);\n        }else{\n            return 0;\n        }\n    }\n\n    function isFundOverLatestMilestone(uint256 _fundId) public view returns (bool) {\n        require(\n            (funds.length > 0),\n            \"Society0xFunds::fetchFundFromFundId: No Funds Exist\"\n        );\n        require(\n            (funds[_fundId].recipient != 0x0000000000000000000000000000000000000000),\n            \"Society0xFunds::fetchFundFromFundId: Fund With Provided ID Does Not Exist\"\n        );\n        uint256 latestMilestone = fundIdToMilestones[_fundId][fundIdToMilestones[_fundId].length.sub(1)];\n        uint256 fundSignalReceived = funds[_fundId].signalReceived;\n        if(fundSignalReceived >= latestMilestone) {\n            return true;\n        }else{\n            return false;\n        }\n    }\n\n    function forwardFundsToBeneficiary(uint256 _fundId, address _forwarderAddress) public isCalledBySociety0x returns (bool) {\n        _forwardFundsToBeneficiary(_fundId, _forwarderAddress);\n        return true;\n    }\n\n    function _forwardFundsToBeneficiary(uint256 _fundId, address _forwarderAddress) internal returns (bool) {\n        uint256 valueForwardable = valueForwardableToBeneficiary(_fundId);\n        require(\n            valueForwardable > 0,\n            \"Society0xFunds::forwardFundsToBeneficiary: Forwardable balance not more than zero\"\n        );\n        address beneficiary = funds[_fundId].recipient;\n        require(\n            signal.transfer(beneficiary, valueForwardable),\n            \"Society0xFunds::forwardFundsToBeneficiary: Signal transfer to beneficiary failed\"\n        );\n        funds[_fundId].signalWithdrawn = funds[_fundId].signalWithdrawn.add(valueForwardable);\n        return true;\n    }\n\n    function setNewMilestone(uint256 _fundId, uint256 _newMilestone, address _milestoneSetter) public isCalledBySociety0x returns (bool) {\n        require(\n            isFundOverLatestMilestone(_fundId),\n            \"Society0xFunds:setNewMilestone:: Fund is not over latest milestone\"\n        );\n        require(\n            isFundManager(_milestoneSetter, _fundId),\n            \"Society0xFunds:setNewMilestone:: _milestoneSetter is not equal to fundManager\"\n        );\n        require(\n            _newMilestone > fundIdToMilestones[_fundId][fundIdToMilestones[_fundId].length.sub(1)],\n            \"Society0xFunds:setNewMilestone:: _newMilestone is not greater than latest milestone\"\n        );\n        require(\n            _newMilestone > funds[_fundId].signalReceived,\n            \"Society0xFunds:setNewMilestone:: _newMilestone is not greater than signalReceived\"\n        );\n        uint256 valueForwardable = valueForwardableToBeneficiary(_fundId);\n        if(valueForwardable > 0) {\n            require(\n                _forwardFundsToBeneficiary(_fundId, _milestoneSetter),\n                \"Society0xFunds::setNewMilestone: Forwarding Funds To Beneficiary Failed\"\n            );\n        }\n        fundIdToMilestones[_fundId].push(_newMilestone);\n        fundIdToMilestoneCount[_fundId] = fundIdToMilestoneCount[_fundId].add(1);\n        fundIdToMilestoneValueToCommittedFunds[_fundId][_newMilestone] = 0;\n        return true;\n    }\n\n    function isFundManager(address _checkAddress, uint256 _fundId) public view returns(bool) {\n        return _checkAddress == funds[_fundId].fundManager;\n    }\n\n    function getFundPledgeCount(uint256 _fundId) public view returns(uint256) {\n        return fundIdToPledges[_fundId].length;\n    }\n\n    function getFundPledgeByPledgeId(uint256 _fundId, uint256 _pledgeIndex) public view returns(\n        uint256,\n        address,\n        uint256,\n        uint256,\n        uint256,\n        uint256,\n        uint256,\n        bool\n    ) {\n        require(\n            (fundIdToPledges[_fundId].length > 0),\n            \"Society0xFunds::getFundPledgeByPledgeId: No Pledges Exist For Fund\"\n        );\n        require(\n            (fundIdToPledges[_fundId][_pledgeIndex].pledgerAddress != 0x0000000000000000000000000000000000000000),\n            \"Society0xFunds::getFundPledgeByPledgeId: Pledge ID Does Not Exist For Fund\"\n        );\n        Pledge memory pledge = fundIdToPledges[_fundId][_pledgeIndex];\n        return(\n            pledge.id,\n            pledge.pledgerAddress,\n            pledge.pledgeToMilestone,\n            pledge.fundId,\n            pledge.signalValue,\n            pledge.blockNumber,\n            pledge.blockTimestamp,\n            pledge.incoming\n        );\n    }\n\n    function getPledgerFundsWithdrawable(uint256 _fundId, address _pledger) public view returns(uint256) {\n        require(\n            (funds.length > 0),\n            \"Society0xFunds::getPledgerFundsWithdrawable: No Funds Exist\"\n        );\n        require(\n            (funds[_fundId].recipient != 0x0000000000000000000000000000000000000000),\n            \"Society0xFunds::getPledgerFundsWithdrawable: Fund With Provided ID Does Not Exist\"\n        );\n        uint256 latestMilestone = fundIdToMilestones[_fundId][fundIdToMilestones[_fundId].length.sub(1)];\n        Fund storage fund = funds[_fundId];\n        uint256 currentFundSignalBalance = fund.signalReceived;\n        if(latestMilestone > currentFundSignalBalance) {\n            uint256 currentPledgerMilestoneCommitment = pledgerToFundIdToMiletoneToCommittedFunds[_pledger][_fundId][latestMilestone];\n            return currentPledgerMilestoneCommitment;\n        }else{\n            return 0;\n        }\n    }\n\n    function isRegisteredUrlSlug(string memory _urlSlug) public view returns(bool) {\n        require(\n            (bytes(_urlSlug).length > 0),\n            \"Url Slug Required But Not Provided.\"\n        );\n        if(urlSlugToFundId[_urlSlug] == 0) {\n            if((funds.length > 0) && (keccak256(abi.encodePacked(funds[0].urlSlug)) == keccak256(abi.encodePacked(_urlSlug)))){\n                return true;\n            }else{\n                return false;\n            }\n        }else{\n            return true;\n        }\n    }\n}",
  "sourcePath": "/Users/jaywelsh/GitHub/society0x/ethereum/contracts/Society0xFunds.sol",
  "compiler": {
    "name": "solc",
    "version": "0.5.7+commit.6da8b019.Emscripten.clang"
  },
  "schemaVersion": "3.0.16",
  "updatedAt": "2020-01-04T19:22:41.145Z",
  "devdoc": {
    "methods": {}
  },
  "userdoc": {
    "methods": {}
  }
}