{
  "contractName": "Society0x",
  "abi": [
    {
      "constant": true,
      "inputs": [
        {
          "name": "",
          "type": "uint256"
        }
      ],
      "name": "discoveryIndex",
      "outputs": [
        {
          "name": "",
          "type": "address"
        }
      ],
      "payable": false,
      "stateMutability": "view",
      "type": "function"
    },
    {
      "constant": true,
      "inputs": [],
      "name": "society0xFunds",
      "outputs": [
        {
          "name": "",
          "type": "address"
        }
      ],
      "payable": false,
      "stateMutability": "view",
      "type": "function"
    },
    {
      "constant": true,
      "inputs": [],
      "name": "interactionFee",
      "outputs": [
        {
          "name": "",
          "type": "uint256"
        }
      ],
      "payable": false,
      "stateMutability": "view",
      "type": "function"
    },
    {
      "constant": true,
      "inputs": [],
      "name": "signal",
      "outputs": [
        {
          "name": "",
          "type": "address"
        }
      ],
      "payable": false,
      "stateMutability": "view",
      "type": "function"
    },
    {
      "constant": true,
      "inputs": [],
      "name": "signalCount",
      "outputs": [
        {
          "name": "",
          "type": "uint256"
        }
      ],
      "payable": false,
      "stateMutability": "view",
      "type": "function"
    },
    {
      "constant": true,
      "inputs": [],
      "name": "deploymentTimestamp",
      "outputs": [
        {
          "name": "",
          "type": "uint256"
        }
      ],
      "payable": false,
      "stateMutability": "view",
      "type": "function"
    },
    {
      "constant": true,
      "inputs": [],
      "name": "society0xPersona",
      "outputs": [
        {
          "name": "",
          "type": "address"
        }
      ],
      "payable": false,
      "stateMutability": "view",
      "type": "function"
    },
    {
      "inputs": [
        {
          "name": "_signal",
          "type": "address"
        },
        {
          "name": "_society0xFunds",
          "type": "address"
        },
        {
          "name": "_society0xPersona",
          "type": "address"
        }
      ],
      "payable": false,
      "stateMutability": "nonpayable",
      "type": "constructor"
    },
    {
      "constant": true,
      "inputs": [],
      "name": "getInteractionFee",
      "outputs": [
        {
          "name": "",
          "type": "uint256"
        }
      ],
      "payable": false,
      "stateMutability": "view",
      "type": "function"
    },
    {
      "constant": true,
      "inputs": [],
      "name": "getDiscoveryIndexForMsgSender",
      "outputs": [
        {
          "name": "",
          "type": "uint256"
        }
      ],
      "payable": false,
      "stateMutability": "view",
      "type": "function"
    },
    {
      "constant": true,
      "inputs": [],
      "name": "getDiscoveryIndexLength",
      "outputs": [
        {
          "name": "",
          "type": "uint256"
        }
      ],
      "payable": false,
      "stateMutability": "view",
      "type": "function"
    },
    {
      "constant": false,
      "inputs": [],
      "name": "joinDiscoveryIndex",
      "outputs": [
        {
          "name": "",
          "type": "bool"
        }
      ],
      "payable": false,
      "stateMutability": "nonpayable",
      "type": "function"
    },
    {
      "constant": false,
      "inputs": [],
      "name": "leaveDiscoveryIndex",
      "outputs": [
        {
          "name": "",
          "type": "bool"
        }
      ],
      "payable": false,
      "stateMutability": "nonpayable",
      "type": "function"
    },
    {
      "constant": false,
      "inputs": [
        {
          "name": "_fundName",
          "type": "string"
        },
        {
          "name": "_urlSlug",
          "type": "string"
        },
        {
          "name": "_coverPictureIpfsHash",
          "type": "string"
        },
        {
          "name": "_initialMilestone",
          "type": "uint256"
        }
      ],
      "name": "createSociety0xFund",
      "outputs": [
        {
          "name": "",
          "type": "bool"
        }
      ],
      "payable": false,
      "stateMutability": "nonpayable",
      "type": "function"
    },
    {
      "constant": false,
      "inputs": [
        {
          "name": "_fundId",
          "type": "uint256"
        },
        {
          "name": "_newMilestone",
          "type": "uint256"
        }
      ],
      "name": "setNewMilestone",
      "outputs": [
        {
          "name": "",
          "type": "bool"
        }
      ],
      "payable": false,
      "stateMutability": "nonpayable",
      "type": "function"
    },
    {
      "constant": false,
      "inputs": [
        {
          "name": "_fundId",
          "type": "uint256"
        },
        {
          "name": "_signalValue",
          "type": "uint256"
        }
      ],
      "name": "pledgeSignalToFund",
      "outputs": [
        {
          "name": "",
          "type": "bool"
        }
      ],
      "payable": false,
      "stateMutability": "nonpayable",
      "type": "function"
    },
    {
      "constant": false,
      "inputs": [
        {
          "name": "_fundId",
          "type": "uint256"
        },
        {
          "name": "_signalValue",
          "type": "uint256"
        }
      ],
      "name": "unpledgeSignalFromFund",
      "outputs": [
        {
          "name": "",
          "type": "bool"
        }
      ],
      "payable": false,
      "stateMutability": "nonpayable",
      "type": "function"
    },
    {
      "constant": false,
      "inputs": [
        {
          "name": "_fundId",
          "type": "uint256"
        }
      ],
      "name": "forwardFundsToBeneficiary",
      "outputs": [
        {
          "name": "",
          "type": "bool"
        }
      ],
      "payable": false,
      "stateMutability": "nonpayable",
      "type": "function"
    },
    {
      "constant": false,
      "inputs": [
        {
          "name": "_profileName",
          "type": "string"
        }
      ],
      "name": "registerProfile",
      "outputs": [],
      "payable": false,
      "stateMutability": "nonpayable",
      "type": "function"
    },
    {
      "constant": false,
      "inputs": [
        {
          "name": "_profilePictureIpfsHash",
          "type": "string"
        }
      ],
      "name": "editProfileImage",
      "outputs": [
        {
          "name": "",
          "type": "address"
        },
        {
          "name": "",
          "type": "string"
        },
        {
          "name": "",
          "type": "string"
        },
        {
          "name": "",
          "type": "string"
        },
        {
          "name": "",
          "type": "string"
        },
        {
          "name": "",
          "type": "uint256"
        },
        {
          "name": "",
          "type": "uint256"
        },
        {
          "name": "",
          "type": "uint8"
        },
        {
          "name": "",
          "type": "uint256"
        },
        {
          "name": "",
          "type": "uint256"
        }
      ],
      "payable": false,
      "stateMutability": "nonpayable",
      "type": "function"
    },
    {
      "constant": false,
      "inputs": [
        {
          "name": "_coverPictureIpfsHash",
          "type": "string"
        }
      ],
      "name": "editCoverImage",
      "outputs": [
        {
          "name": "",
          "type": "address"
        },
        {
          "name": "",
          "type": "string"
        },
        {
          "name": "",
          "type": "string"
        },
        {
          "name": "",
          "type": "string"
        },
        {
          "name": "",
          "type": "string"
        },
        {
          "name": "",
          "type": "uint256"
        },
        {
          "name": "",
          "type": "uint256"
        },
        {
          "name": "",
          "type": "uint8"
        },
        {
          "name": "",
          "type": "uint256"
        },
        {
          "name": "",
          "type": "uint256"
        }
      ],
      "payable": false,
      "stateMutability": "nonpayable",
      "type": "function"
    },
    {
      "constant": false,
      "inputs": [
        {
          "name": "_requestConnectionFromAddress",
          "type": "address"
        }
      ],
      "name": "createConnectionRequest",
      "outputs": [
        {
          "name": "",
          "type": "bool"
        }
      ],
      "payable": false,
      "stateMutability": "nonpayable",
      "type": "function"
    },
    {
      "constant": false,
      "inputs": [
        {
          "name": "_cancelConnectionToAddress",
          "type": "address"
        }
      ],
      "name": "cancelOutgoingConnectionRequest",
      "outputs": [
        {
          "name": "",
          "type": "bool"
        }
      ],
      "payable": false,
      "stateMutability": "nonpayable",
      "type": "function"
    },
    {
      "constant": false,
      "inputs": [
        {
          "name": "_acceptConnectionFromAddress",
          "type": "address"
        }
      ],
      "name": "acceptConnectionRequest",
      "outputs": [
        {
          "name": "",
          "type": "bool"
        }
      ],
      "payable": false,
      "stateMutability": "nonpayable",
      "type": "function"
    },
    {
      "constant": false,
      "inputs": [
        {
          "name": "_declineConnectionFromAddress",
          "type": "address"
        }
      ],
      "name": "declineConnectionRequest",
      "outputs": [
        {
          "name": "",
          "type": "bool"
        }
      ],
      "payable": false,
      "stateMutability": "nonpayable",
      "type": "function"
    },
    {
      "constant": false,
      "inputs": [
        {
          "name": "_terminateConnectionToAddress",
          "type": "address"
        }
      ],
      "name": "terminateConnection",
      "outputs": [
        {
          "name": "",
          "type": "bool"
        }
      ],
      "payable": false,
      "stateMutability": "nonpayable",
      "type": "function"
    },
    {
      "constant": true,
      "inputs": [
        {
          "name": "_targetAddress",
          "type": "address"
        }
      ],
      "name": "isEstablishedConnection",
      "outputs": [
        {
          "name": "",
          "type": "bool"
        }
      ],
      "payable": false,
      "stateMutability": "view",
      "type": "function"
    },
    {
      "constant": true,
      "inputs": [
        {
          "name": "_incomingCheckAddress",
          "type": "address"
        }
      ],
      "name": "isPendingIncomingConnection",
      "outputs": [
        {
          "name": "",
          "type": "bool"
        }
      ],
      "payable": false,
      "stateMutability": "view",
      "type": "function"
    },
    {
      "constant": true,
      "inputs": [
        {
          "name": "_outgoingCheckAddress",
          "type": "address"
        }
      ],
      "name": "isPendingOutgoingConnection",
      "outputs": [
        {
          "name": "",
          "type": "bool"
        }
      ],
      "payable": false,
      "stateMutability": "view",
      "type": "function"
    }
  ],
  "bytecode": "0x60806040523480156200001157600080fd5b50604051606080620059db83398101806040526200003391908101906200015e565b6000600381905550826000806101000a81548173ffffffffffffffffffffffffffffffffffffffff021916908373ffffffffffffffffffffffffffffffffffffffff16021790555081600160006101000a81548173ffffffffffffffffffffffffffffffffffffffff021916908373ffffffffffffffffffffffffffffffffffffffff16021790555080600260006101000a81548173ffffffffffffffffffffffffffffffffffffffff021916908373ffffffffffffffffffffffffffffffffffffffff160217905550670de0b6b3a76400006004819055504260058190555050505062000224565b60006200012a8251620001c8565b905092915050565b6000620001408251620001dc565b905092915050565b6000620001568251620001f0565b905092915050565b6000806000606084860312156200017457600080fd5b600062000184868287016200011c565b9350506020620001978682870162000132565b9250506040620001aa8682870162000148565b9150509250925092565b6000620001c18262000204565b9050919050565b6000620001d582620001b4565b9050919050565b6000620001e982620001b4565b9050919050565b6000620001fd82620001b4565b9050919050565b600073ffffffffffffffffffffffffffffffffffffffff82169050919050565b6157a780620002346000396000f3fe608060405234801561001057600080fd5b50600436106101e1576000357c0100000000000000000000000000000000000000000000000000000000900480637829c2f011610116578063c492007e116100b4578063f6ad03741161008e578063f6ad0374146105b9578063f9b19910146105e9578063fa5f487614610607578063fac61f7c14610640576101e1565b8063c492007e1461054d578063d79ee02b1461056b578063e83967fa1461059b576101e1565b80639c3ad310116100f05780639c3ad310146104c3578063ae0041aa146104f3578063b8ff04fe14610511578063bfc12c051461052f576101e1565b80637829c2f0146104455780638640ed8c146104755780638e3e22de14610493576101e1565b80635eb97a8e1161018357806374d9bb6c1161015d57806374d9bb6c1461037c578063764092a3146103ac578063769c9636146103e5578063769d850514610415576101e1565b80635eb97a8e146102fe578063640d090b1461032e5780636987569e1461034c576101e1565b806334f22a6e116101bf57806334f22a6e146102765780633fc90920146102945780634e4263eb146102b0578063528f0e28146102ce576101e1565b80631191201e146101e65780631758a101146102165780632482860314610246575b600080fd5b61020060048036036101fb9190810190614a70565b61065e565b60405161020d91906150f5565b60405180910390f35b610230600480360361022b91908101906147f7565b61069a565b60405161023d919061526c565b60405180910390f35b610260600480360361025b91908101906149c5565b610872565b60405161026d919061526c565b60405180910390f35b61027e610c73565b60405161028b91906152a2565b60405180910390f35b6102ae60048036036102a99190810190614984565b610c99565b005b6102b8610f60565b6040516102c591906154de565b60405180910390f35b6102e860048036036102e39190810190614a70565b610f66565b6040516102f5919061526c565b60405180910390f35b610318600480360361031391908101906147f7565b611181565b604051610325919061526c565b60405180910390f35b610336611574565b6040516103439190615287565b60405180910390f35b610366600480360361036191908101906147f7565b611599565b604051610373919061526c565b60405180910390f35b610396600480360361039191908101906147f7565b61198c565b6040516103a3919061526c565b60405180910390f35b6103c660048036036103c19190810190614984565b611d7f565b6040516103dc9a999897969594939291906151b4565b60405180910390f35b6103ff60048036036103fa91908101906147f7565b61219f565b60405161040c919061526c565b60405180910390f35b61042f600480360361042a9190810190614ac2565b612592565b60405161043c919061526c565b60405180910390f35b61045f600480360361045a91908101906147f7565b61298b565b60405161046c919061526c565b60405180910390f35b61047d612b63565b60405161048a91906154de565b60405180910390f35b6104ad60048036036104a891908101906147f7565b612b70565b6040516104ba919061526c565b60405180910390f35b6104dd60048036036104d89190810190614ac2565b612f63565b6040516104ea919061526c565b60405180910390f35b6104fb613485565b60405161050891906154de565b60405180910390f35b61051961348b565b60405161052691906154de565b60405180910390f35b610537613495565b60405161054491906154de565b60405180910390f35b61055561349b565b60405161056291906152bd565b60405180910390f35b610585600480360361058091908101906147f7565b6134c1565b604051610592919061526c565b60405180910390f35b6105a3613699565b6040516105b0919061526c565b60405180910390f35b6105d360048036036105ce9190810190614ac2565b613b1e565b6040516105e0919061526c565b60405180910390f35b6105f1613d3c565b6040516105fe919061526c565b60405180910390f35b610621600480360361061c9190810190614984565b61421a565b6040516106379a999897969594939291906151b4565b60405180910390f35b61064861463a565b60405161065591906154de565b60405180910390f35b6006818154811061066b57fe5b906000526020600020016000915054906101000a900473ffffffffffffffffffffffffffffffffffffffff1681565b6000600260009054906101000a900473ffffffffffffffffffffffffffffffffffffffff1673ffffffffffffffffffffffffffffffffffffffff1663db0c7ca8336040518263ffffffff167c01000000000000000000000000000000000000000000000000000000000281526004016107139190615110565b60206040518083038186803b15801561072b57600080fd5b505afa15801561073f573d6000803e3d6000fd5b505050506040513d601f19601f82011682018060405250610763919081019061495b565b6107a2576040517f08c379a00000000000000000000000000000000000000000000000000000000081526004016107999061543e565b60405180910390fd5b600260009054906101000a900473ffffffffffffffffffffffffffffffffffffffff1673ffffffffffffffffffffffffffffffffffffffff16638b78046983336040518363ffffffff167c010000000000000000000000000000000000000000000000000000000002815260040161081b92919061518b565b60206040518083038186803b15801561083357600080fd5b505afa158015610847573d6000803e3d6000fd5b505050506040513d601f19601f8201168201806040525061086b919081019061495b565b9050919050565b60006004546000809054906101000a900473ffffffffffffffffffffffffffffffffffffffff1673ffffffffffffffffffffffffffffffffffffffff1663dd62ed3e33306040518363ffffffff167c01000000000000000000000000000000000000000000000000000000000281526004016108ef92919061512b565b60206040518083038186803b15801561090757600080fd5b505afa15801561091b573d6000803e3d6000fd5b505050506040513d601f19601f8201168201806040525061093f9190810190614a99565b1015610980576040517f08c379a00000000000000000000000000000000000000000000000000000000081526004016109779061547e565b60405180910390fd5b6000809054906101000a900473ffffffffffffffffffffffffffffffffffffffff1673ffffffffffffffffffffffffffffffffffffffff166323b872dd33306004546040518463ffffffff167c01000000000000000000000000000000000000000000000000000000000281526004016109fc93929190615154565b602060405180830381600087803b158015610a1657600080fd5b505af1158015610a2a573d6000803e3d6000fd5b505050506040513d601f19601f82011682018060405250610a4e919081019061495b565b610a8d576040517f08c379a0000000000000000000000000000000000000000000000000000000008152600401610a84906153be565b60405180910390fd5b600260009054906101000a900473ffffffffffffffffffffffffffffffffffffffff1673ffffffffffffffffffffffffffffffffffffffff1663db0c7ca8336040518263ffffffff167c0100000000000000000000000000000000000000000000000000000000028152600401610b049190615110565b60206040518083038186803b158015610b1c57600080fd5b505afa158015610b30573d6000803e3d6000fd5b505050506040513d601f19601f82011682018060405250610b54919081019061495b565b610b93576040517f08c379a0000000000000000000000000000000000000000000000000000000008152600401610b8a9061543e565b60405180910390fd5b600160009054906101000a900473ffffffffffffffffffffffffffffffffffffffff1673ffffffffffffffffffffffffffffffffffffffff166341d32fd18686868633336040518763ffffffff167c0100000000000000000000000000000000000000000000000000000000028152600401610c1496959493929190615308565b602060405180830381600087803b158015610c2e57600080fd5b505af1158015610c42573d6000803e3d6000fd5b505050506040513d601f19601f82011682018060405250610c66919081019061495b565b5060019050949350505050565b600160009054906101000a900473ffffffffffffffffffffffffffffffffffffffff1681565b6004546000809054906101000a900473ffffffffffffffffffffffffffffffffffffffff1673ffffffffffffffffffffffffffffffffffffffff1663dd62ed3e33306040518363ffffffff167c0100000000000000000000000000000000000000000000000000000000028152600401610d1492919061512b565b60206040518083038186803b158015610d2c57600080fd5b505afa158015610d40573d6000803e3d6000fd5b505050506040513d601f19601f82011682018060405250610d649190810190614a99565b1015610da5576040517f08c379a0000000000000000000000000000000000000000000000000000000008152600401610d9c9061547e565b60405180910390fd5b6000809054906101000a900473ffffffffffffffffffffffffffffffffffffffff1673ffffffffffffffffffffffffffffffffffffffff166323b872dd33306004546040518463ffffffff167c0100000000000000000000000000000000000000000000000000000000028152600401610e2193929190615154565b602060405180830381600087803b158015610e3b57600080fd5b505af1158015610e4f573d6000803e3d6000fd5b505050506040513d601f19601f82011682018060405250610e73919081019061495b565b610eb2576040517f08c379a0000000000000000000000000000000000000000000000000000000008152600401610ea9906153be565b60405180910390fd5b600260009054906101000a900473ffffffffffffffffffffffffffffffffffffffff1673ffffffffffffffffffffffffffffffffffffffff16639dd9861b82336040518363ffffffff167c0100000000000000000000000000000000000000000000000000000000028152600401610f2b9291906152d8565b600060405180830381600087803b158015610f4557600080fd5b505af1158015610f59573d6000803e3d6000fd5b5050505050565b60045481565b6000600260009054906101000a900473ffffffffffffffffffffffffffffffffffffffff1673ffffffffffffffffffffffffffffffffffffffff1663db0c7ca8336040518263ffffffff167c0100000000000000000000000000000000000000000000000000000000028152600401610fdf9190615110565b60206040518083038186803b158015610ff757600080fd5b505afa15801561100b573d6000803e3d6000fd5b505050506040513d601f19601f8201168201806040525061102f919081019061495b565b61106e576040517f08c379a00000000000000000000000000000000000000000000000000000000081526004016110659061543e565b60405180910390fd5b600160009054906101000a900473ffffffffffffffffffffffffffffffffffffffff1673ffffffffffffffffffffffffffffffffffffffff16630478391d83336040518363ffffffff167c01000000000000000000000000000000000000000000000000000000000281526004016110e79291906154f9565b602060405180830381600087803b15801561110157600080fd5b505af1158015611115573d6000803e3d6000fd5b505050506040513d601f19601f82011682018060405250611139919081019061495b565b611178576040517f08c379a000000000000000000000000000000000000000000000000000000000815260040161116f906154be565b60405180910390fd5b60019050919050565b60006004546000809054906101000a900473ffffffffffffffffffffffffffffffffffffffff1673ffffffffffffffffffffffffffffffffffffffff1663dd62ed3e33306040518363ffffffff167c01000000000000000000000000000000000000000000000000000000000281526004016111fe92919061512b565b60206040518083038186803b15801561121657600080fd5b505afa15801561122a573d6000803e3d6000fd5b505050506040513d601f19601f8201168201806040525061124e9190810190614a99565b101561128f576040517f08c379a00000000000000000000000000000000000000000000000000000000081526004016112869061547e565b60405180910390fd5b6000809054906101000a900473ffffffffffffffffffffffffffffffffffffffff1673ffffffffffffffffffffffffffffffffffffffff166323b872dd33306004546040518463ffffffff167c010000000000000000000000000000000000000000000000000000000002815260040161130b93929190615154565b602060405180830381600087803b15801561132557600080fd5b505af1158015611339573d6000803e3d6000fd5b505050506040513d601f19601f8201168201806040525061135d919081019061495b565b61139c576040517f08c379a0000000000000000000000000000000000000000000000000000000008152600401611393906153be565b60405180910390fd5b600260009054906101000a900473ffffffffffffffffffffffffffffffffffffffff1673ffffffffffffffffffffffffffffffffffffffff1663db0c7ca8336040518263ffffffff167c01000000000000000000000000000000000000000000000000000000000281526004016114139190615110565b60206040518083038186803b15801561142b57600080fd5b505afa15801561143f573d6000803e3d6000fd5b505050506040513d601f19601f82011682018060405250611463919081019061495b565b6114a2576040517f08c379a00000000000000000000000000000000000000000000000000000000081526004016114999061543e565b60405180910390fd5b600260009054906101000a900473ffffffffffffffffffffffffffffffffffffffff1673ffffffffffffffffffffffffffffffffffffffff16639fc55f3283336040518363ffffffff167c010000000000000000000000000000000000000000000000000000000002815260040161151b92919061518b565b602060405180830381600087803b15801561153557600080fd5b505af1158015611549573d6000803e3d6000fd5b505050506040513d601f19601f8201168201806040525061156d919081019061495b565b9050919050565b6000809054906101000a900473ffffffffffffffffffffffffffffffffffffffff1681565b60006004546000809054906101000a900473ffffffffffffffffffffffffffffffffffffffff1673ffffffffffffffffffffffffffffffffffffffff1663dd62ed3e33306040518363ffffffff167c010000000000000000000000000000000000000000000000000000000002815260040161161692919061512b565b60206040518083038186803b15801561162e57600080fd5b505afa158015611642573d6000803e3d6000fd5b505050506040513d601f19601f820116820180604052506116669190810190614a99565b10156116a7576040517f08c379a000000000000000000000000000000000000000000000000000000000815260040161169e9061547e565b60405180910390fd5b6000809054906101000a900473ffffffffffffffffffffffffffffffffffffffff1673ffffffffffffffffffffffffffffffffffffffff166323b872dd33306004546040518463ffffffff167c010000000000000000000000000000000000000000000000000000000002815260040161172393929190615154565b602060405180830381600087803b15801561173d57600080fd5b505af1158015611751573d6000803e3d6000fd5b505050506040513d601f19601f82011682018060405250611775919081019061495b565b6117b4576040517f08c379a00000000000000000000000000000000000000000000000000000000081526004016117ab906153be565b60405180910390fd5b600260009054906101000a900473ffffffffffffffffffffffffffffffffffffffff1673ffffffffffffffffffffffffffffffffffffffff1663db0c7ca8336040518263ffffffff167c010000000000000000000000000000000000000000000000000000000002815260040161182b9190615110565b60206040518083038186803b15801561184357600080fd5b505afa158015611857573d6000803e3d6000fd5b505050506040513d601f19601f8201168201806040525061187b919081019061495b565b6118ba576040517f08c379a00000000000000000000000000000000000000000000000000000000081526004016118b19061543e565b60405180910390fd5b600260009054906101000a900473ffffffffffffffffffffffffffffffffffffffff1673ffffffffffffffffffffffffffffffffffffffff1663a5ab326083336040518363ffffffff167c010000000000000000000000000000000000000000000000000000000002815260040161193392919061518b565b602060405180830381600087803b15801561194d57600080fd5b505af1158015611961573d6000803e3d6000fd5b505050506040513d601f19601f82011682018060405250611985919081019061495b565b9050919050565b60006004546000809054906101000a900473ffffffffffffffffffffffffffffffffffffffff1673ffffffffffffffffffffffffffffffffffffffff1663dd62ed3e33306040518363ffffffff167c0100000000000000000000000000000000000000000000000000000000028152600401611a0992919061512b565b60206040518083038186803b158015611a2157600080fd5b505afa158015611a35573d6000803e3d6000fd5b505050506040513d601f19601f82011682018060405250611a599190810190614a99565b1015611a9a576040517f08c379a0000000000000000000000000000000000000000000000000000000008152600401611a919061547e565b60405180910390fd5b6000809054906101000a900473ffffffffffffffffffffffffffffffffffffffff1673ffffffffffffffffffffffffffffffffffffffff166323b872dd33306004546040518463ffffffff167c0100000000000000000000000000000000000000000000000000000000028152600401611b1693929190615154565b602060405180830381600087803b158015611b3057600080fd5b505af1158015611b44573d6000803e3d6000fd5b505050506040513d601f19601f82011682018060405250611b68919081019061495b565b611ba7576040517f08c379a0000000000000000000000000000000000000000000000000000000008152600401611b9e906153be565b60405180910390fd5b600260009054906101000a900473ffffffffffffffffffffffffffffffffffffffff1673ffffffffffffffffffffffffffffffffffffffff1663db0c7ca8336040518263ffffffff167c0100000000000000000000000000000000000000000000000000000000028152600401611c1e9190615110565b60206040518083038186803b158015611c3657600080fd5b505afa158015611c4a573d6000803e3d6000fd5b505050506040513d601f19601f82011682018060405250611c6e919081019061495b565b611cad576040517f08c379a0000000000000000000000000000000000000000000000000000000008152600401611ca49061543e565b60405180910390fd5b600260009054906101000a900473ffffffffffffffffffffffffffffffffffffffff1673ffffffffffffffffffffffffffffffffffffffff1663ac822e7883336040518363ffffffff167c0100000000000000000000000000000000000000000000000000000000028152600401611d2692919061518b565b602060405180830381600087803b158015611d4057600080fd5b505af1158015611d54573d6000803e3d6000fd5b505050506040513d601f19601f82011682018060405250611d78919081019061495b565b9050919050565b600060608060608060008060008060006004546000809054906101000a900473ffffffffffffffffffffffffffffffffffffffff1673ffffffffffffffffffffffffffffffffffffffff1663dd62ed3e33306040518363ffffffff167c0100000000000000000000000000000000000000000000000000000000028152600401611e0a92919061512b565b60206040518083038186803b158015611e2257600080fd5b505afa158015611e36573d6000803e3d6000fd5b505050506040513d601f19601f82011682018060405250611e5a9190810190614a99565b1015611e9b576040517f08c379a0000000000000000000000000000000000000000000000000000000008152600401611e929061547e565b60405180910390fd5b6000809054906101000a900473ffffffffffffffffffffffffffffffffffffffff1673ffffffffffffffffffffffffffffffffffffffff166323b872dd33306004546040518463ffffffff167c0100000000000000000000000000000000000000000000000000000000028152600401611f1793929190615154565b602060405180830381600087803b158015611f3157600080fd5b505af1158015611f45573d6000803e3d6000fd5b505050506040513d601f19601f82011682018060405250611f69919081019061495b565b611fa8576040517f08c379a0000000000000000000000000000000000000000000000000000000008152600401611f9f906153be565b60405180910390fd5b600260009054906101000a900473ffffffffffffffffffffffffffffffffffffffff1673ffffffffffffffffffffffffffffffffffffffff1663db0c7ca8336040518263ffffffff167c010000000000000000000000000000000000000000000000000000000002815260040161201f9190615110565b60206040518083038186803b15801561203757600080fd5b505afa15801561204b573d6000803e3d6000fd5b505050506040513d601f19601f8201168201806040525061206f919081019061495b565b6120ae576040517f08c379a00000000000000000000000000000000000000000000000000000000081526004016120a59061543e565b60405180910390fd5b600260009054906101000a900473ffffffffffffffffffffffffffffffffffffffff1673ffffffffffffffffffffffffffffffffffffffff16632bee6bc88c336040518363ffffffff167c01000000000000000000000000000000000000000000000000000000000281526004016121279291906152d8565b600060405180830381600087803b15801561214157600080fd5b505af1158015612155573d6000803e3d6000fd5b505050506040513d6000823e3d601f19601f8201168201806040525061217e9190810190614820565b99509950995099509950995099509950995099509193959799509193959799565b60006004546000809054906101000a900473ffffffffffffffffffffffffffffffffffffffff1673ffffffffffffffffffffffffffffffffffffffff1663dd62ed3e33306040518363ffffffff167c010000000000000000000000000000000000000000000000000000000002815260040161221c92919061512b565b60206040518083038186803b15801561223457600080fd5b505afa158015612248573d6000803e3d6000fd5b505050506040513d601f19601f8201168201806040525061226c9190810190614a99565b10156122ad576040517f08c379a00000000000000000000000000000000000000000000000000000000081526004016122a49061547e565b60405180910390fd5b6000809054906101000a900473ffffffffffffffffffffffffffffffffffffffff1673ffffffffffffffffffffffffffffffffffffffff166323b872dd33306004546040518463ffffffff167c010000000000000000000000000000000000000000000000000000000002815260040161232993929190615154565b602060405180830381600087803b15801561234357600080fd5b505af1158015612357573d6000803e3d6000fd5b505050506040513d601f19601f8201168201806040525061237b919081019061495b565b6123ba576040517f08c379a00000000000000000000000000000000000000000000000000000000081526004016123b1906153be565b60405180910390fd5b600260009054906101000a900473ffffffffffffffffffffffffffffffffffffffff1673ffffffffffffffffffffffffffffffffffffffff1663db0c7ca8336040518263ffffffff167c01000000000000000000000000000000000000000000000000000000000281526004016124319190615110565b60206040518083038186803b15801561244957600080fd5b505afa15801561245d573d6000803e3d6000fd5b505050506040513d601f19601f82011682018060405250612481919081019061495b565b6124c0576040517f08c379a00000000000000000000000000000000000000000000000000000000081526004016124b79061543e565b60405180910390fd5b600260009054906101000a900473ffffffffffffffffffffffffffffffffffffffff1673ffffffffffffffffffffffffffffffffffffffff166361b1198b83336040518363ffffffff167c010000000000000000000000000000000000000000000000000000000002815260040161253992919061518b565b602060405180830381600087803b15801561255357600080fd5b505af1158015612567573d6000803e3d6000fd5b505050506040513d601f19601f8201168201806040525061258b919081019061495b565b9050919050565b60006004546000809054906101000a900473ffffffffffffffffffffffffffffffffffffffff1673ffffffffffffffffffffffffffffffffffffffff1663dd62ed3e33306040518363ffffffff167c010000000000000000000000000000000000000000000000000000000002815260040161260f92919061512b565b60206040518083038186803b15801561262757600080fd5b505afa15801561263b573d6000803e3d6000fd5b505050506040513d601f19601f8201168201806040525061265f9190810190614a99565b10156126a0576040517f08c379a00000000000000000000000000000000000000000000000000000000081526004016126979061547e565b60405180910390fd5b6000809054906101000a900473ffffffffffffffffffffffffffffffffffffffff1673ffffffffffffffffffffffffffffffffffffffff166323b872dd33306004546040518463ffffffff167c010000000000000000000000000000000000000000000000000000000002815260040161271c93929190615154565b602060405180830381600087803b15801561273657600080fd5b505af115801561274a573d6000803e3d6000fd5b505050506040513d601f19601f8201168201806040525061276e919081019061495b565b6127ad576040517f08c379a00000000000000000000000000000000000000000000000000000000081526004016127a4906153be565b60405180910390fd5b600260009054906101000a900473ffffffffffffffffffffffffffffffffffffffff1673ffffffffffffffffffffffffffffffffffffffff1663db0c7ca8336040518263ffffffff167c01000000000000000000000000000000000000000000000000000000000281526004016128249190615110565b60206040518083038186803b15801561283c57600080fd5b505afa158015612850573d6000803e3d6000fd5b505050506040513d601f19601f82011682018060405250612874919081019061495b565b6128b3576040517f08c379a00000000000000000000000000000000000000000000000000000000081526004016128aa9061543e565b60405180910390fd5b600160009054906101000a900473ffffffffffffffffffffffffffffffffffffffff1673ffffffffffffffffffffffffffffffffffffffff166342a1fb3f8484336040518463ffffffff167c010000000000000000000000000000000000000000000000000000000002815260040161292e93929190615522565b602060405180830381600087803b15801561294857600080fd5b505af115801561295c573d6000803e3d6000fd5b505050506040513d601f19601f82011682018060405250612980919081019061495b565b506001905092915050565b6000600260009054906101000a900473ffffffffffffffffffffffffffffffffffffffff1673ffffffffffffffffffffffffffffffffffffffff1663db0c7ca8336040518263ffffffff167c0100000000000000000000000000000000000000000000000000000000028152600401612a049190615110565b60206040518083038186803b158015612a1c57600080fd5b505afa158015612a30573d6000803e3d6000fd5b505050506040513d601f19601f82011682018060405250612a54919081019061495b565b612a93576040517f08c379a0000000000000000000000000000000000000000000000000000000008152600401612a8a9061543e565b60405180910390fd5b600260009054906101000a900473ffffffffffffffffffffffffffffffffffffffff1673ffffffffffffffffffffffffffffffffffffffff16632edda78083336040518363ffffffff167c0100000000000000000000000000000000000000000000000000000000028152600401612b0c92919061518b565b60206040518083038186803b158015612b2457600080fd5b505afa158015612b38573d6000803e3d6000fd5b505050506040513d601f19601f82011682018060405250612b5c919081019061495b565b9050919050565b6000600680549050905090565b60006004546000809054906101000a900473ffffffffffffffffffffffffffffffffffffffff1673ffffffffffffffffffffffffffffffffffffffff1663dd62ed3e33306040518363ffffffff167c0100000000000000000000000000000000000000000000000000000000028152600401612bed92919061512b565b60206040518083038186803b158015612c0557600080fd5b505afa158015612c19573d6000803e3d6000fd5b505050506040513d601f19601f82011682018060405250612c3d9190810190614a99565b1015612c7e576040517f08c379a0000000000000000000000000000000000000000000000000000000008152600401612c759061547e565b60405180910390fd5b6000809054906101000a900473ffffffffffffffffffffffffffffffffffffffff1673ffffffffffffffffffffffffffffffffffffffff166323b872dd33306004546040518463ffffffff167c0100000000000000000000000000000000000000000000000000000000028152600401612cfa93929190615154565b602060405180830381600087803b158015612d1457600080fd5b505af1158015612d28573d6000803e3d6000fd5b505050506040513d601f19601f82011682018060405250612d4c919081019061495b565b612d8b576040517f08c379a0000000000000000000000000000000000000000000000000000000008152600401612d82906153be565b60405180910390fd5b600260009054906101000a900473ffffffffffffffffffffffffffffffffffffffff1673ffffffffffffffffffffffffffffffffffffffff1663db0c7ca8336040518263ffffffff167c0100000000000000000000000000000000000000000000000000000000028152600401612e029190615110565b60206040518083038186803b158015612e1a57600080fd5b505afa158015612e2e573d6000803e3d6000fd5b505050506040513d601f19601f82011682018060405250612e52919081019061495b565b612e91576040517f08c379a0000000000000000000000000000000000000000000000000000000008152600401612e889061543e565b60405180910390fd5b600260009054906101000a900473ffffffffffffffffffffffffffffffffffffffff1673ffffffffffffffffffffffffffffffffffffffff166323fed54683336040518363ffffffff167c0100000000000000000000000000000000000000000000000000000000028152600401612f0a92919061518b565b602060405180830381600087803b158015612f2457600080fd5b505af1158015612f38573d6000803e3d6000fd5b505050506040513d601f19601f82011682018060405250612f5c919081019061495b565b9050919050565b6000600260009054906101000a900473ffffffffffffffffffffffffffffffffffffffff1673ffffffffffffffffffffffffffffffffffffffff1663db0c7ca8336040518263ffffffff167c0100000000000000000000000000000000000000000000000000000000028152600401612fdc9190615110565b60206040518083038186803b158015612ff457600080fd5b505afa158015613008573d6000803e3d6000fd5b505050506040513d601f19601f8201168201806040525061302c919081019061495b565b61306b576040517f08c379a00000000000000000000000000000000000000000000000000000000081526004016130629061543e565b60405180910390fd5b816000809054906101000a900473ffffffffffffffffffffffffffffffffffffffff1673ffffffffffffffffffffffffffffffffffffffff1663dd62ed3e33306040518363ffffffff167c01000000000000000000000000000000000000000000000000000000000281526004016130e492919061512b565b60206040518083038186803b1580156130fc57600080fd5b505afa158015613110573d6000803e3d6000fd5b505050506040513d601f19601f820116820180604052506131349190810190614a99565b1015613175576040517f08c379a000000000000000000000000000000000000000000000000000000000815260040161316c9061537e565b60405180910390fd5b6000809054906101000a900473ffffffffffffffffffffffffffffffffffffffff1673ffffffffffffffffffffffffffffffffffffffff166323b872dd33600160009054906101000a900473ffffffffffffffffffffffffffffffffffffffff16856040518463ffffffff167c010000000000000000000000000000000000000000000000000000000002815260040161321193929190615154565b602060405180830381600087803b15801561322b57600080fd5b505af115801561323f573d6000803e3d6000fd5b505050506040513d601f19601f82011682018060405250613263919081019061495b565b6132a2576040517f08c379a00000000000000000000000000000000000000000000000000000000081526004016132999061545e565b60405180910390fd5b60008060009054906101000a900473ffffffffffffffffffffffffffffffffffffffff1673ffffffffffffffffffffffffffffffffffffffff16631141fdab846040518263ffffffff167c010000000000000000000000000000000000000000000000000000000002815260040161331a91906154de565b602060405180830381600087803b15801561333457600080fd5b505af1158015613348573d6000803e3d6000fd5b505050506040513d601f19601f8201168201806040525061336c9190810190614a99565b9050600160009054906101000a900473ffffffffffffffffffffffffffffffffffffffff1673ffffffffffffffffffffffffffffffffffffffff166310d3bd978583336040518463ffffffff167c01000000000000000000000000000000000000000000000000000000000281526004016133e993929190615522565b602060405180830381600087803b15801561340357600080fd5b505af1158015613417573d6000803e3d6000fd5b505050506040513d601f19601f8201168201806040525061343b919081019061495b565b61347a576040517f08c379a00000000000000000000000000000000000000000000000000000000081526004016134719061539e565b60405180910390fd5b600191505092915050565b60035481565b6000600454905090565b60055481565b600260009054906101000a900473ffffffffffffffffffffffffffffffffffffffff1681565b6000600260009054906101000a900473ffffffffffffffffffffffffffffffffffffffff1673ffffffffffffffffffffffffffffffffffffffff1663db0c7ca8336040518263ffffffff167c010000000000000000000000000000000000000000000000000000000002815260040161353a9190615110565b60206040518083038186803b15801561355257600080fd5b505afa158015613566573d6000803e3d6000fd5b505050506040513d601f19601f8201168201806040525061358a919081019061495b565b6135c9576040517f08c379a00000000000000000000000000000000000000000000000000000000081526004016135c09061543e565b60405180910390fd5b600260009054906101000a900473ffffffffffffffffffffffffffffffffffffffff1673ffffffffffffffffffffffffffffffffffffffff16638651b8f583336040518363ffffffff167c010000000000000000000000000000000000000000000000000000000002815260040161364292919061518b565b60206040518083038186803b15801561365a57600080fd5b505afa15801561366e573d6000803e3d6000fd5b505050506040513d601f19601f82011682018060405250613692919081019061495b565b9050919050565b6000600260009054906101000a900473ffffffffffffffffffffffffffffffffffffffff1673ffffffffffffffffffffffffffffffffffffffff1663db0c7ca8336040518263ffffffff167c01000000000000000000000000000000000000000000000000000000000281526004016137129190615110565b60206040518083038186803b15801561372a57600080fd5b505afa15801561373e573d6000803e3d6000fd5b505050506040513d601f19601f82011682018060405250613762919081019061495b565b6137a1576040517f08c379a00000000000000000000000000000000000000000000000000000000081526004016137989061543e565b60405180910390fd5b6004546000809054906101000a900473ffffffffffffffffffffffffffffffffffffffff1673ffffffffffffffffffffffffffffffffffffffff1663dd62ed3e33306040518363ffffffff167c010000000000000000000000000000000000000000000000000000000002815260040161381c92919061512b565b60206040518083038186803b15801561383457600080fd5b505afa158015613848573d6000803e3d6000fd5b505050506040513d601f19601f8201168201806040525061386c9190810190614a99565b10156138ad576040517f08c379a00000000000000000000000000000000000000000000000000000000081526004016138a49061547e565b60405180910390fd5b6000809054906101000a900473ffffffffffffffffffffffffffffffffffffffff1673ffffffffffffffffffffffffffffffffffffffff166323b872dd33306004546040518463ffffffff167c010000000000000000000000000000000000000000000000000000000002815260040161392993929190615154565b602060405180830381600087803b15801561394357600080fd5b505af1158015613957573d6000803e3d6000fd5b505050506040513d601f19601f8201168201806040525061397b919081019061495b565b6139ba576040517f08c379a00000000000000000000000000000000000000000000000000000000081526004016139b1906153be565b60405180910390fd5b3373ffffffffffffffffffffffffffffffffffffffff166006600760003373ffffffffffffffffffffffffffffffffffffffff1673ffffffffffffffffffffffffffffffffffffffff1681526020019081526020016000205481548110613a1d57fe5b9060005260206000200160009054906101000a900473ffffffffffffffffffffffffffffffffffffffff1673ffffffffffffffffffffffffffffffffffffffff1614613a9e576040517f08c379a0000000000000000000000000000000000000000000000000000000008152600401613a95906153fe565b60405180910390fd5b6006600760003373ffffffffffffffffffffffffffffffffffffffff1673ffffffffffffffffffffffffffffffffffffffff1681526020019081526020016000205481548110613aea57fe5b9060005260206000200160006101000a81549073ffffffffffffffffffffffffffffffffffffffff02191690556001905090565b6000600260009054906101000a900473ffffffffffffffffffffffffffffffffffffffff1673ffffffffffffffffffffffffffffffffffffffff1663db0c7ca8336040518263ffffffff167c0100000000000000000000000000000000000000000000000000000000028152600401613b979190615110565b60206040518083038186803b158015613baf57600080fd5b505afa158015613bc3573d6000803e3d6000fd5b505050506040513d601f19601f82011682018060405250613be7919081019061495b565b613c26576040517f08c379a0000000000000000000000000000000000000000000000000000000008152600401613c1d9061543e565b60405180910390fd5b600160009054906101000a900473ffffffffffffffffffffffffffffffffffffffff1673ffffffffffffffffffffffffffffffffffffffff1663a971cf6f8484336040518463ffffffff167c0100000000000000000000000000000000000000000000000000000000028152600401613ca193929190615522565b602060405180830381600087803b158015613cbb57600080fd5b505af1158015613ccf573d6000803e3d6000fd5b505050506040513d601f19601f82011682018060405250613cf3919081019061495b565b613d32576040517f08c379a0000000000000000000000000000000000000000000000000000000008152600401613d299061549e565b60405180910390fd5b6001905092915050565b6000600260009054906101000a900473ffffffffffffffffffffffffffffffffffffffff1673ffffffffffffffffffffffffffffffffffffffff1663db0c7ca8336040518263ffffffff167c0100000000000000000000000000000000000000000000000000000000028152600401613db59190615110565b60206040518083038186803b158015613dcd57600080fd5b505afa158015613de1573d6000803e3d6000fd5b505050506040513d601f19601f82011682018060405250613e05919081019061495b565b613e44576040517f08c379a0000000000000000000000000000000000000000000000000000000008152600401613e3b9061543e565b60405180910390fd5b6004546000809054906101000a900473ffffffffffffffffffffffffffffffffffffffff1673ffffffffffffffffffffffffffffffffffffffff1663dd62ed3e33306040518363ffffffff167c0100000000000000000000000000000000000000000000000000000000028152600401613ebf92919061512b565b60206040518083038186803b158015613ed757600080fd5b505afa158015613eeb573d6000803e3d6000fd5b505050506040513d601f19601f82011682018060405250613f0f9190810190614a99565b1015613f50576040517f08c379a0000000000000000000000000000000000000000000000000000000008152600401613f479061547e565b60405180910390fd5b6000809054906101000a900473ffffffffffffffffffffffffffffffffffffffff1673ffffffffffffffffffffffffffffffffffffffff166323b872dd33306004546040518463ffffffff167c0100000000000000000000000000000000000000000000000000000000028152600401613fcc93929190615154565b602060405180830381600087803b158015613fe657600080fd5b505af1158015613ffa573d6000803e3d6000fd5b505050506040513d601f19601f8201168201806040525061401e919081019061495b565b61405d576040517f08c379a0000000000000000000000000000000000000000000000000000000008152600401614054906153be565b60405180910390fd5b6000600760003373ffffffffffffffffffffffffffffffffffffffff1673ffffffffffffffffffffffffffffffffffffffff1681526020019081526020016000205490506000600680549050148061411857503373ffffffffffffffffffffffffffffffffffffffff16600682815481106140d457fe5b9060005260206000200160009054906101000a900473ffffffffffffffffffffffffffffffffffffffff1673ffffffffffffffffffffffffffffffffffffffff1614155b614157576040517f08c379a000000000000000000000000000000000000000000000000000000000815260040161414e9061541e565b60405180910390fd5b6141cf600160063390806001815401808255809150509060018203906000526020600020016000909192909190916101000a81548173ffffffffffffffffffffffffffffffffffffffff021916908373ffffffffffffffffffffffffffffffffffffffff16021790555061468190919063ffffffff16565b600760003373ffffffffffffffffffffffffffffffffffffffff1673ffffffffffffffffffffffffffffffffffffffff16815260200190815260200160002081905550600191505090565b600060608060608060008060008060006004546000809054906101000a900473ffffffffffffffffffffffffffffffffffffffff1673ffffffffffffffffffffffffffffffffffffffff1663dd62ed3e33306040518363ffffffff167c01000000000000000000000000000000000000000000000000000000000281526004016142a592919061512b565b60206040518083038186803b1580156142bd57600080fd5b505afa1580156142d1573d6000803e3d6000fd5b505050506040513d601f19601f820116820180604052506142f59190810190614a99565b1015614336576040517f08c379a000000000000000000000000000000000000000000000000000000000815260040161432d9061547e565b60405180910390fd5b6000809054906101000a900473ffffffffffffffffffffffffffffffffffffffff1673ffffffffffffffffffffffffffffffffffffffff166323b872dd33306004546040518463ffffffff167c01000000000000000000000000000000000000000000000000000000000281526004016143b293929190615154565b602060405180830381600087803b1580156143cc57600080fd5b505af11580156143e0573d6000803e3d6000fd5b505050506040513d601f19601f82011682018060405250614404919081019061495b565b614443576040517f08c379a000000000000000000000000000000000000000000000000000000000815260040161443a906153be565b60405180910390fd5b600260009054906101000a900473ffffffffffffffffffffffffffffffffffffffff1673ffffffffffffffffffffffffffffffffffffffff1663db0c7ca8336040518263ffffffff167c01000000000000000000000000000000000000000000000000000000000281526004016144ba9190615110565b60206040518083038186803b1580156144d257600080fd5b505afa1580156144e6573d6000803e3d6000fd5b505050506040513d601f19601f8201168201806040525061450a919081019061495b565b614549576040517f08c379a00000000000000000000000000000000000000000000000000000000081526004016145409061543e565b60405180910390fd5b600260009054906101000a900473ffffffffffffffffffffffffffffffffffffffff1673ffffffffffffffffffffffffffffffffffffffff1663f18486a18c336040518363ffffffff167c01000000000000000000000000000000000000000000000000000000000281526004016145c29291906152d8565b600060405180830381600087803b1580156145dc57600080fd5b505af11580156145f0573d6000803e3d6000fd5b505050506040513d6000823e3d601f19601f820116820180604052506146199190810190614820565b99509950995099509950995099509950995099509193959799509193959799565b6000600760003373ffffffffffffffffffffffffffffffffffffffff1673ffffffffffffffffffffffffffffffffffffffff16815260200190815260200160002054905090565b6000828211156146c6576040517f08c379a00000000000000000000000000000000000000000000000000000000081526004016146bd906153de565b60405180910390fd5b600082840390508091505092915050565b60006146e38235615623565b905092915050565b60006146f78251615623565b905092915050565b600061470b8251615635565b905092915050565b600082601f83011261472457600080fd5b813561473761473282615586565b615559565b9150808252602083016020830185838301111561475357600080fd5b61475e83828461571a565b50505092915050565b600082601f83011261477857600080fd5b815161478b61478682615586565b615559565b915080825260208301602083018583830111156147a757600080fd5b6147b2838284615729565b50505092915050565b60006147c78235615661565b905092915050565b60006147db8251615661565b905092915050565b60006147ef825161566b565b905092915050565b60006020828403121561480957600080fd5b6000614817848285016146d7565b91505092915050565b6000806000806000806000806000806101408b8d03121561484057600080fd5b600061484e8d828e016146eb565b9a505060208b015167ffffffffffffffff81111561486b57600080fd5b6148778d828e01614767565b99505060408b015167ffffffffffffffff81111561489457600080fd5b6148a08d828e01614767565b98505060608b015167ffffffffffffffff8111156148bd57600080fd5b6148c98d828e01614767565b97505060808b015167ffffffffffffffff8111156148e657600080fd5b6148f28d828e01614767565b96505060a06149038d828e016147cf565b95505060c06149148d828e016147cf565b94505060e06149258d828e016147e3565b9350506101006149378d828e016147cf565b9250506101206149498d828e016147cf565b9150509295989b9194979a5092959850565b60006020828403121561496d57600080fd5b600061497b848285016146ff565b91505092915050565b60006020828403121561499657600080fd5b600082013567ffffffffffffffff8111156149b057600080fd5b6149bc84828501614713565b91505092915050565b600080600080608085870312156149db57600080fd5b600085013567ffffffffffffffff8111156149f557600080fd5b614a0187828801614713565b945050602085013567ffffffffffffffff811115614a1e57600080fd5b614a2a87828801614713565b935050604085013567ffffffffffffffff811115614a4757600080fd5b614a5387828801614713565b9250506060614a64878288016147bb565b91505092959194509250565b600060208284031215614a8257600080fd5b6000614a90848285016147bb565b91505092915050565b600060208284031215614aab57600080fd5b6000614ab9848285016147cf565b91505092915050565b60008060408385031215614ad557600080fd5b6000614ae3858286016147bb565b9250506020614af4858286016147bb565b9150509250929050565b614b0781615678565b82525050565b614b16816155ce565b82525050565b614b25816155e0565b82525050565b614b348161568a565b82525050565b614b43816156ae565b82525050565b614b52816156d2565b82525050565b6000614b63826155b2565b614b6d81856155bd565b9350614b7d818560208601615729565b614b868161575c565b840191505092915050565b6000614b9e6044836155bd565b91507f536f636965747930783a3a706c656467655369676e616c546f46756e643a206460008301527f4220616c6c6f77616e6365206c657373207468616e20706c6564676520616d6f60208301527f756e742e000000000000000000000000000000000000000000000000000000006040830152606082019050919050565b6000614c2a6048836155bd565b91507f536f636965747930783a3a706c656467655369676e616c546f46756e643a207360008301527f6f6369657479307846756e64732e706c656467655369676e616c546f46756e6460208301527f206661696c65642e0000000000000000000000000000000000000000000000006040830152606082019050919050565b6000614cb6604a836155bd565b91507f536f636965747930783a3a70726f63657373496e746572616374696f6e46656560008301527f3a205369676e616c207472616e73666572206661696c65642c20636865636b2060208301527f616c6c6f77616e63652e000000000000000000000000000000000000000000006040830152606082019050919050565b6000614d426020836155bd565b91507f536166654d6174683a3a7375623a20496e746567657220756e646572666c6f776000830152602082019050919050565b6000614d826036836155bd565b91507f536f636965747930783a3a6c65617665446973636f76657279496e6465783a2060008301527f4e6f74206f6e20446973636f7665727920496e646578000000000000000000006020830152604082019050919050565b6000614de86039836155bd565b91507f536f636965747930783a3a6a6f696e446973636f76657279496e6465783a204160008301527f6c7265616479206f6e20446973636f7665727920496e646578000000000000006020830152604082019050919050565b6000614e4e603c836155bd565b91507f536f636965747930783a3a6973526567697374657265644d657373616765536560008301527f6e6465723a2041646472657373206e6f742072656769737465726564000000006020830152604082019050919050565b6000614eb46047836155bd565b91507f536f636965747930783a3a706c656467655369676e616c546f46756e643a205360008301527f69676e616c207472616e73666572206661696c65642c20636865636b20616c6c60208301527f6f77616e63652e000000000000000000000000000000000000000000000000006040830152606082019050919050565b6000614f406049836155bd565b91507f536f636965747930783a3a70726f63657373496e746572616374696f6e46656560008301527f3a20644220616c6c6f77616e6365206c657373207468616e20696e746572616360208301527f74696f6e206665652e00000000000000000000000000000000000000000000006040830152606082019050919050565b6000614fcc604b836155bd565b91507f536f636965747930783a3a70726f63657373496e746572616374696f6e46656560008301527f3a20736f6369657479307846756e64732e706c656467655369676e616c546f4660208301527f756e64206661696c65642e0000000000000000000000000000000000000000006040830152606082019050919050565b60006150586056836155bd565b91507f536f636965747930783a3a666f727761726446756e6473546f42656e6566696360008301527f696172793a20736f6369657479307846756e64732e666f727761726446756e6460208301527f73546f42656e6566696369617279206661696c65642e000000000000000000006040830152606082019050919050565b6150e08161560c565b82525050565b6150ef81615616565b82525050565b600060208201905061510a6000830184614b0d565b92915050565b60006020820190506151256000830184614afe565b92915050565b60006040820190506151406000830185614afe565b61514d6020830184614b0d565b9392505050565b60006060820190506151696000830186614afe565b6151766020830185614b0d565b61518360408301846150d7565b949350505050565b60006040820190506151a06000830185614b0d565b6151ad6020830184614afe565b9392505050565b6000610140820190506151ca600083018d614b0d565b81810360208301526151dc818c614b58565b905081810360408301526151f0818b614b58565b90508181036060830152615204818a614b58565b905081810360808301526152188189614b58565b905061522760a08301886150d7565b61523460c08301876150d7565b61524160e08301866150e6565b61524f6101008301856150d7565b61525d6101208301846150d7565b9b9a5050505050505050505050565b60006020820190506152816000830184614b1c565b92915050565b600060208201905061529c6000830184614b2b565b92915050565b60006020820190506152b76000830184614b3a565b92915050565b60006020820190506152d26000830184614b49565b92915050565b600060408201905081810360008301526152f28185614b58565b90506153016020830184614afe565b9392505050565b600060c08201905081810360008301526153228189614b58565b905081810360208301526153368188614b58565b9050818103604083015261534a8187614b58565b905061535960608301866150d7565b6153666080830185614afe565b61537360a0830184614afe565b979650505050505050565b6000602082019050818103600083015261539781614b91565b9050919050565b600060208201905081810360008301526153b781614c1d565b9050919050565b600060208201905081810360008301526153d781614ca9565b9050919050565b600060208201905081810360008301526153f781614d35565b9050919050565b6000602082019050818103600083015261541781614d75565b9050919050565b6000602082019050818103600083015261543781614ddb565b9050919050565b6000602082019050818103600083015261545781614e41565b9050919050565b6000602082019050818103600083015261547781614ea7565b9050919050565b6000602082019050818103600083015261549781614f33565b9050919050565b600060208201905081810360008301526154b781614fbf565b9050919050565b600060208201905081810360008301526154d78161504b565b9050919050565b60006020820190506154f360008301846150d7565b92915050565b600060408201905061550e60008301856150d7565b61551b6020830184614afe565b9392505050565b600060608201905061553760008301866150d7565b61554460208301856150d7565b6155516040830184614afe565b949350505050565b6000604051905081810181811067ffffffffffffffff8211171561557c57600080fd5b8060405250919050565b600067ffffffffffffffff82111561559d57600080fd5b601f19601f8301169050602081019050919050565b600081519050919050565b600082825260208201905092915050565b60006155d9826155ec565b9050919050565b60008115159050919050565b600073ffffffffffffffffffffffffffffffffffffffff82169050919050565b6000819050919050565b600060ff82169050919050565b600061562e82615641565b9050919050565b60008115159050919050565b600073ffffffffffffffffffffffffffffffffffffffff82169050919050565b6000819050919050565b600060ff82169050919050565b6000615683826156f6565b9050919050565b60006156958261569c565b9050919050565b60006156a7826155ec565b9050919050565b60006156b9826156c0565b9050919050565b60006156cb826155ec565b9050919050565b60006156dd826156e4565b9050919050565b60006156ef826155ec565b9050919050565b600061570182615708565b9050919050565b6000615713826155ec565b9050919050565b82818337600083830152505050565b60005b8381101561574757808201518184015260208101905061572c565b83811115615756576000848401525b50505050565b6000601f19601f830116905091905056fea265627a7a72305820f9ab99a9ff742392d3a3b1c5eedd6a11d609a2fd2cfb22d03fe2021b04673e806c6578706572696d656e74616cf50037",
  "source": "pragma solidity 0.5.7;\npragma experimental ABIEncoderV2;\n\nimport { ISignal } from \"./interface/ISignal.sol\";\nimport { ISociety0xFunds } from \"./interface/ISociety0xFunds.sol\";\nimport { ISociety0xPersona } from \"./interface/ISociety0xPersona.sol\";\nimport { SafeMath } from \"openzeppelin-solidity/contracts/math/SafeMath.sol\";\n\ncontract Society0x {\n    using SafeMath for uint256;\n    \n    struct Signal {\n        address receiver;\n        address giver;\n        uint256 amount;\n        uint256 time;\n    }\n    \n    ISignal public signal;\n    ISociety0xFunds public society0xFunds;\n    ISociety0xPersona public society0xPersona;\n    uint256 public signalCount;\n    uint256 public interactionFee;\n    uint256 public deploymentTimestamp;\n    address[] public discoveryIndex;\n    mapping (address => uint256) private discoveryAddressIndex;\n\n    constructor(ISignal _signal, ISociety0xFunds _society0xFunds, ISociety0xPersona _society0xPersona) public {\n        signalCount = 0;\n        signal = _signal;\n        society0xFunds = _society0xFunds;\n        society0xPersona = _society0xPersona;\n        interactionFee = 1000000000000000000; // 1 SIGNAL (dB)\n        deploymentTimestamp = block.timestamp;\n    }\n\n    modifier isRegisteredMessageSender {\n        require(\n            society0xPersona.isRegisteredAddress(msg.sender),\n            \"Society0x::isRegisteredMessageSender: Address not registered\"\n        );\n        _;\n    }\n\n    modifier processInteractionFee {\n        require(\n            signal.allowance(msg.sender, address(this)) >= interactionFee,\n            \"Society0x::processInteractionFee: dB allowance less than interaction fee.\"\n        );\n        require(\n            signal.transferFrom(msg.sender, address(this), interactionFee),\n            \"Society0x::processInteractionFee: Signal transfer failed, check allowance.\"\n        );\n        _;\n    }\n\n    function getInteractionFee() public view returns (uint256) {\n        return interactionFee;\n    }\n\n    function getDiscoveryIndexForMsgSender() public view returns (uint256) {\n        return discoveryAddressIndex[msg.sender];\n    }\n\n    function getDiscoveryIndexLength() public view returns (uint) {\n        return discoveryIndex.length;\n    }\n\n    function joinDiscoveryIndex() public isRegisteredMessageSender processInteractionFee returns(bool) {\n        uint256 addressIndex = discoveryAddressIndex[msg.sender];\n        require(\n            discoveryIndex.length == 0 || discoveryIndex[addressIndex] != msg.sender,\n            \"Society0x::joinDiscoveryIndex: Already on Discovery Index\"\n        );\n        discoveryAddressIndex[msg.sender] = discoveryIndex.push(msg.sender).sub(1);\n        return true;\n    }\n\n    function leaveDiscoveryIndex() public isRegisteredMessageSender processInteractionFee returns(bool) {\n        require(\n            discoveryIndex[discoveryAddressIndex[msg.sender]] == msg.sender,\n            \"Society0x::leaveDiscoveryIndex: Not on Discovery Index\"\n        );\n        delete discoveryIndex[discoveryAddressIndex[msg.sender]];\n        return true;\n    }\n\n    function createSociety0xFund(\n        string memory _fundName,\n        string memory _urlSlug,\n        string memory _coverPictureIpfsHash,\n        uint256 _initialMilestone\n    ) public processInteractionFee isRegisteredMessageSender returns (bool) {\n        society0xFunds.createSociety0xFund(_fundName, _urlSlug, _coverPictureIpfsHash, _initialMilestone, msg.sender, msg.sender);\n        return true;\n    }\n\n    function setNewMilestone(\n        uint256 _fundId,\n        uint256 _newMilestone\n    ) public processInteractionFee isRegisteredMessageSender returns (bool) {\n        society0xFunds.setNewMilestone(_fundId, _newMilestone, msg.sender);\n        return true;\n    }\n\n    function pledgeSignalToFund(\n        uint256 _fundId,\n        uint256 _signalValue\n    ) public isRegisteredMessageSender returns (bool) {\n        require(\n            signal.allowance(msg.sender, address(this)) >= _signalValue,\n            \"Society0x::pledgeSignalToFund: dB allowance less than pledge amount.\"\n        );\n        require(\n            signal.transferFrom(msg.sender, address(society0xFunds), _signalValue),\n            \"Society0x::pledgeSignalToFund: Signal transfer failed, check allowance.\"\n        );\n        uint256 signalAfterTax = signal.getTaxedValue(_signalValue);\n        require(\n            society0xFunds.pledgeSignalToFund(_fundId, signalAfterTax, msg.sender),\n            \"Society0x::pledgeSignalToFund: society0xFunds.pledgeSignalToFund failed.\"\n        );\n        return true;\n    }\n\n    function unpledgeSignalFromFund(\n        uint256 _fundId,\n        uint256 _signalValue\n    ) public isRegisteredMessageSender returns (bool) {\n        require(\n            society0xFunds.unpledgeSignalFromFund(_fundId, _signalValue, msg.sender),\n            \"Society0x::processInteractionFee: society0xFunds.pledgeSignalToFund failed.\"\n        );\n        return true;\n    }\n\n    function forwardFundsToBeneficiary(\n        uint256 _fundId\n    ) public isRegisteredMessageSender returns (bool) {\n        require(\n            society0xFunds.forwardFundsToBeneficiary(_fundId, msg.sender),\n            \"Society0x::forwardFundsToBeneficiary: society0xFunds.forwardFundsToBeneficiary failed.\"\n        );\n        return true;\n    }\n\n    function registerProfile(string memory _profileName) public processInteractionFee {\n        society0xPersona.registerProfile(_profileName, msg.sender);\n    }\n\n    function editProfileImage(string memory _profilePictureIpfsHash) public processInteractionFee isRegisteredMessageSender returns(\n        address,\n        string memory,\n        string memory,\n        string memory,\n        string memory,\n        uint256,\n        uint256,\n        uint8,\n        uint256,\n        uint256\n    ) {\n        return society0xPersona.editProfileImage(_profilePictureIpfsHash, msg.sender);\n    }\n\n    function editCoverImage(string memory _coverPictureIpfsHash) public processInteractionFee isRegisteredMessageSender returns(\n        address,\n        string memory,\n        string memory,\n        string memory,\n        string memory,\n        uint256,\n        uint256,\n        uint8,\n        uint256,\n        uint256\n    ) {\n        return society0xPersona.editCoverImage(_coverPictureIpfsHash, msg.sender);\n    }\n\n    function createConnectionRequest(\n        address _requestConnectionFromAddress\n    ) public processInteractionFee isRegisteredMessageSender returns (bool) {\n        return society0xPersona.createConnectionRequest(_requestConnectionFromAddress, msg.sender);\n    }\n    \n    function cancelOutgoingConnectionRequest(\n        address _cancelConnectionToAddress\n    ) public processInteractionFee isRegisteredMessageSender returns (bool) {\n        return society0xPersona.cancelOutgoingConnectionRequest(_cancelConnectionToAddress, msg.sender);\n    }\n\n    function acceptConnectionRequest(\n        address _acceptConnectionFromAddress\n    ) public processInteractionFee isRegisteredMessageSender returns (bool) {\n        return society0xPersona.acceptConnectionRequest(_acceptConnectionFromAddress, msg.sender);\n    }\n\n    function declineConnectionRequest(\n        address _declineConnectionFromAddress\n    ) public processInteractionFee isRegisteredMessageSender returns (bool) {\n        return society0xPersona.declineConnectionRequest(_declineConnectionFromAddress, msg.sender);\n    }\n\n    function terminateConnection(address _terminateConnectionToAddress) public processInteractionFee isRegisteredMessageSender returns (bool) {\n        return society0xPersona.terminateConnection(_terminateConnectionToAddress, msg.sender);\n    }\n\n    function isEstablishedConnection(address _targetAddress) public view isRegisteredMessageSender returns (bool) {\n        return society0xPersona.isEstablishedConnection(_targetAddress, msg.sender);\n    }\n\n    function isPendingIncomingConnection(address _incomingCheckAddress) public view isRegisteredMessageSender returns (bool) {\n        return society0xPersona.isPendingIncomingConnection(_incomingCheckAddress, msg.sender);\n    }\n\n    function isPendingOutgoingConnection(address _outgoingCheckAddress) public view isRegisteredMessageSender returns (bool) {\n        return society0xPersona.isPendingOutgoingConnection(_outgoingCheckAddress, msg.sender);\n    }\n\n}",
  "sourcePath": "/Users/jaywelsh/GitHub/society0x/ethereum/contracts/Society0x.sol",
  "compiler": {
    "name": "solc",
    "version": "0.5.7+commit.6da8b019.Emscripten.clang"
  },
  "schemaVersion": "3.0.16",
  "updatedAt": "2020-01-04T19:22:41.022Z",
  "devdoc": {
    "methods": {}
  },
  "userdoc": {
    "methods": {}
  }
}