{
  "contractName": "Society0xFunds",
  "abi": [
    {
      "constant": true,
      "inputs": [
        {
          "name": "",
          "type": "uint256"
        }
      ],
      "name": "fundIdToUrlSlug",
      "outputs": [
        {
          "name": "",
          "type": "string"
        }
      ],
      "payable": false,
      "stateMutability": "view",
      "type": "function"
    },
    {
      "constant": true,
      "inputs": [
        {
          "name": "",
          "type": "uint256"
        }
      ],
      "name": "fundIdToMilestoneCount",
      "outputs": [
        {
          "name": "",
          "type": "uint256"
        }
      ],
      "payable": false,
      "stateMutability": "view",
      "type": "function"
    },
    {
      "constant": true,
      "inputs": [],
      "name": "signal",
      "outputs": [
        {
          "name": "",
          "type": "address"
        }
      ],
      "payable": false,
      "stateMutability": "view",
      "type": "function"
    },
    {
      "constant": true,
      "inputs": [
        {
          "name": "",
          "type": "address"
        },
        {
          "name": "",
          "type": "uint256"
        }
      ],
      "name": "creatorToFunds",
      "outputs": [
        {
          "name": "",
          "type": "uint256"
        }
      ],
      "payable": false,
      "stateMutability": "view",
      "type": "function"
    },
    {
      "constant": true,
      "inputs": [],
      "name": "society0x",
      "outputs": [
        {
          "name": "",
          "type": "address"
        }
      ],
      "payable": false,
      "stateMutability": "view",
      "type": "function"
    },
    {
      "constant": true,
      "inputs": [
        {
          "name": "",
          "type": "address"
        },
        {
          "name": "",
          "type": "uint256"
        },
        {
          "name": "",
          "type": "uint256"
        }
      ],
      "name": "pledgerToFundIdToMiletoneToCommittedFunds",
      "outputs": [
        {
          "name": "",
          "type": "uint256"
        }
      ],
      "payable": false,
      "stateMutability": "view",
      "type": "function"
    },
    {
      "constant": true,
      "inputs": [
        {
          "name": "",
          "type": "uint256"
        },
        {
          "name": "",
          "type": "uint256"
        }
      ],
      "name": "fundIdToPledges",
      "outputs": [
        {
          "name": "id",
          "type": "uint256"
        },
        {
          "name": "pledgerAddress",
          "type": "address"
        },
        {
          "name": "pledgeToMilestone",
          "type": "uint256"
        },
        {
          "name": "fundId",
          "type": "uint256"
        },
        {
          "name": "signalValue",
          "type": "uint256"
        },
        {
          "name": "blockNumber",
          "type": "uint256"
        },
        {
          "name": "blockTimestamp",
          "type": "uint256"
        },
        {
          "name": "incoming",
          "type": "bool"
        }
      ],
      "payable": false,
      "stateMutability": "view",
      "type": "function"
    },
    {
      "constant": true,
      "inputs": [
        {
          "name": "",
          "type": "uint256"
        }
      ],
      "name": "funds",
      "outputs": [
        {
          "name": "id",
          "type": "uint256"
        },
        {
          "name": "fundName",
          "type": "string"
        },
        {
          "name": "urlSlug",
          "type": "string"
        },
        {
          "name": "coverPictureIpfsHash",
          "type": "string"
        },
        {
          "name": "recipient",
          "type": "address"
        },
        {
          "name": "fundManager",
          "type": "address"
        },
        {
          "name": "signalReceived",
          "type": "uint256"
        },
        {
          "name": "signalWithdrawn",
          "type": "uint256"
        },
        {
          "name": "updatedBlockNumber",
          "type": "uint256"
        },
        {
          "name": "createdBlockNumber",
          "type": "uint256"
        },
        {
          "name": "createdBlockTimestamp",
          "type": "uint256"
        }
      ],
      "payable": false,
      "stateMutability": "view",
      "type": "function"
    },
    {
      "constant": true,
      "inputs": [
        {
          "name": "",
          "type": "uint256"
        },
        {
          "name": "",
          "type": "uint256"
        }
      ],
      "name": "fundIdToMilestones",
      "outputs": [
        {
          "name": "",
          "type": "uint256"
        }
      ],
      "payable": false,
      "stateMutability": "view",
      "type": "function"
    },
    {
      "constant": true,
      "inputs": [
        {
          "name": "",
          "type": "uint256"
        }
      ],
      "name": "pledges",
      "outputs": [
        {
          "name": "id",
          "type": "uint256"
        },
        {
          "name": "pledgerAddress",
          "type": "address"
        },
        {
          "name": "pledgeToMilestone",
          "type": "uint256"
        },
        {
          "name": "fundId",
          "type": "uint256"
        },
        {
          "name": "signalValue",
          "type": "uint256"
        },
        {
          "name": "blockNumber",
          "type": "uint256"
        },
        {
          "name": "blockTimestamp",
          "type": "uint256"
        },
        {
          "name": "incoming",
          "type": "bool"
        }
      ],
      "payable": false,
      "stateMutability": "view",
      "type": "function"
    },
    {
      "constant": true,
      "inputs": [
        {
          "name": "",
          "type": "address"
        },
        {
          "name": "",
          "type": "uint256"
        }
      ],
      "name": "pledgerToPledges",
      "outputs": [
        {
          "name": "",
          "type": "uint256"
        }
      ],
      "payable": false,
      "stateMutability": "view",
      "type": "function"
    },
    {
      "constant": true,
      "inputs": [
        {
          "name": "",
          "type": "uint256"
        },
        {
          "name": "",
          "type": "uint256"
        }
      ],
      "name": "fundIdToMilestoneValueToCommittedFunds",
      "outputs": [
        {
          "name": "",
          "type": "uint256"
        }
      ],
      "payable": false,
      "stateMutability": "view",
      "type": "function"
    },
    {
      "constant": true,
      "inputs": [
        {
          "name": "",
          "type": "string"
        }
      ],
      "name": "urlSlugToFundId",
      "outputs": [
        {
          "name": "",
          "type": "uint256"
        }
      ],
      "payable": false,
      "stateMutability": "view",
      "type": "function"
    },
    {
      "inputs": [
        {
          "name": "_society0x",
          "type": "address"
        },
        {
          "name": "_signal",
          "type": "address"
        }
      ],
      "payable": false,
      "stateMutability": "nonpayable",
      "type": "constructor"
    },
    {
      "anonymous": false,
      "inputs": [
        {
          "indexed": false,
          "name": "fundId",
          "type": "uint256"
        },
        {
          "indexed": false,
          "name": "signalPledgeValue",
          "type": "uint256"
        },
        {
          "indexed": false,
          "name": "signalTotal",
          "type": "uint256"
        },
        {
          "indexed": false,
          "name": "blockNumber",
          "type": "uint256"
        },
        {
          "indexed": false,
          "name": "blockTimestamp",
          "type": "uint256"
        },
        {
          "indexed": false,
          "name": "incoming",
          "type": "bool"
        }
      ],
      "name": "PledgeEvent",
      "type": "event"
    },
    {
      "constant": false,
      "inputs": [
        {
          "name": "_fundName",
          "type": "string"
        },
        {
          "name": "_urlSlug",
          "type": "string"
        },
        {
          "name": "_coverPictureIpfsHash",
          "type": "string"
        },
        {
          "name": "_initialMilestone",
          "type": "uint256"
        },
        {
          "name": "_fundCreator",
          "type": "address"
        },
        {
          "name": "_fundRecipient",
          "type": "address"
        }
      ],
      "name": "createSociety0xFund",
      "outputs": [
        {
          "name": "",
          "type": "bool"
        }
      ],
      "payable": false,
      "stateMutability": "nonpayable",
      "type": "function"
    },
    {
      "constant": true,
      "inputs": [
        {
          "name": "_fundId",
          "type": "uint256"
        },
        {
          "name": "_milestoneValue",
          "type": "uint256"
        }
      ],
      "name": "getFundsCommittedToMilestone",
      "outputs": [
        {
          "name": "",
          "type": "uint256"
        }
      ],
      "payable": false,
      "stateMutability": "view",
      "type": "function"
    },
    {
      "constant": true,
      "inputs": [
        {
          "name": "_urlSlug",
          "type": "string"
        }
      ],
      "name": "fetchFundIdFromUrlSlug",
      "outputs": [
        {
          "name": "",
          "type": "uint256"
        }
      ],
      "payable": false,
      "stateMutability": "view",
      "type": "function"
    },
    {
      "constant": true,
      "inputs": [
        {
          "name": "_urlSlug",
          "type": "string"
        }
      ],
      "name": "fetchFundFromUrlSlug",
      "outputs": [
        {
          "name": "",
          "type": "uint256"
        },
        {
          "name": "",
          "type": "string"
        },
        {
          "name": "",
          "type": "string"
        },
        {
          "name": "",
          "type": "string"
        },
        {
          "name": "",
          "type": "address"
        },
        {
          "name": "",
          "type": "address"
        },
        {
          "name": "",
          "type": "uint256"
        },
        {
          "name": "",
          "type": "uint256"
        },
        {
          "name": "",
          "type": "uint256"
        },
        {
          "name": "",
          "type": "uint256"
        },
        {
          "name": "",
          "type": "uint256"
        }
      ],
      "payable": false,
      "stateMutability": "view",
      "type": "function"
    },
    {
      "constant": true,
      "inputs": [
        {
          "name": "_fundId",
          "type": "uint256"
        }
      ],
      "name": "fetchFundFromFundId",
      "outputs": [
        {
          "name": "",
          "type": "uint256"
        },
        {
          "name": "",
          "type": "string"
        },
        {
          "name": "",
          "type": "string"
        },
        {
          "name": "",
          "type": "string"
        },
        {
          "name": "",
          "type": "address"
        },
        {
          "name": "",
          "type": "address"
        },
        {
          "name": "",
          "type": "uint256"
        },
        {
          "name": "",
          "type": "uint256"
        },
        {
          "name": "",
          "type": "uint256"
        },
        {
          "name": "",
          "type": "uint256"
        },
        {
          "name": "",
          "type": "uint256"
        }
      ],
      "payable": false,
      "stateMutability": "view",
      "type": "function"
    },
    {
      "constant": true,
      "inputs": [
        {
          "name": "_fundId",
          "type": "uint256"
        }
      ],
      "name": "getFundSignalReceived",
      "outputs": [
        {
          "name": "",
          "type": "uint256"
        }
      ],
      "payable": false,
      "stateMutability": "view",
      "type": "function"
    },
    {
      "constant": true,
      "inputs": [],
      "name": "getFundListLength",
      "outputs": [
        {
          "name": "",
          "type": "uint256"
        }
      ],
      "payable": false,
      "stateMutability": "view",
      "type": "function"
    },
    {
      "constant": false,
      "inputs": [
        {
          "name": "_fundId",
          "type": "uint256"
        },
        {
          "name": "_signalValue",
          "type": "uint256"
        },
        {
          "name": "_pledgerAddress",
          "type": "address"
        }
      ],
      "name": "pledgeSignalToFund",
      "outputs": [
        {
          "name": "",
          "type": "bool"
        }
      ],
      "payable": false,
      "stateMutability": "nonpayable",
      "type": "function"
    },
    {
      "constant": false,
      "inputs": [
        {
          "name": "_fundId",
          "type": "uint256"
        },
        {
          "name": "_signalValue",
          "type": "uint256"
        },
        {
          "name": "_pledgerAddress",
          "type": "address"
        }
      ],
      "name": "unpledgeSignalFromFund",
      "outputs": [
        {
          "name": "",
          "type": "bool"
        }
      ],
      "payable": false,
      "stateMutability": "nonpayable",
      "type": "function"
    },
    {
      "constant": true,
      "inputs": [
        {
          "name": "_fundId",
          "type": "uint256"
        }
      ],
      "name": "valueForwardableToBeneficiary",
      "outputs": [
        {
          "name": "",
          "type": "uint256"
        }
      ],
      "payable": false,
      "stateMutability": "view",
      "type": "function"
    },
    {
      "constant": true,
      "inputs": [
        {
          "name": "_fundId",
          "type": "uint256"
        }
      ],
      "name": "valueForwardedToBeneficiary",
      "outputs": [
        {
          "name": "",
          "type": "uint256"
        }
      ],
      "payable": false,
      "stateMutability": "view",
      "type": "function"
    },
    {
      "constant": true,
      "inputs": [
        {
          "name": "_fundId",
          "type": "uint256"
        }
      ],
      "name": "isFundOverLatestMilestone",
      "outputs": [
        {
          "name": "",
          "type": "bool"
        }
      ],
      "payable": false,
      "stateMutability": "view",
      "type": "function"
    },
    {
      "constant": false,
      "inputs": [
        {
          "name": "_fundId",
          "type": "uint256"
        },
        {
          "name": "_forwarderAddress",
          "type": "address"
        }
      ],
      "name": "forwardFundsToBeneficiary",
      "outputs": [
        {
          "name": "",
          "type": "bool"
        }
      ],
      "payable": false,
      "stateMutability": "nonpayable",
      "type": "function"
    },
    {
      "constant": false,
      "inputs": [
        {
          "name": "_fundId",
          "type": "uint256"
        },
        {
          "name": "_newMilestone",
          "type": "uint256"
        },
        {
          "name": "_milestoneSetter",
          "type": "address"
        }
      ],
      "name": "setNewMilestone",
      "outputs": [
        {
          "name": "",
          "type": "bool"
        }
      ],
      "payable": false,
      "stateMutability": "nonpayable",
      "type": "function"
    },
    {
      "constant": true,
      "inputs": [
        {
          "name": "_checkAddress",
          "type": "address"
        },
        {
          "name": "_fundId",
          "type": "uint256"
        }
      ],
      "name": "isFundManager",
      "outputs": [
        {
          "name": "",
          "type": "bool"
        }
      ],
      "payable": false,
      "stateMutability": "view",
      "type": "function"
    },
    {
      "constant": true,
      "inputs": [
        {
          "name": "_fundId",
          "type": "uint256"
        }
      ],
      "name": "getFundPledgeCount",
      "outputs": [
        {
          "name": "",
          "type": "uint256"
        }
      ],
      "payable": false,
      "stateMutability": "view",
      "type": "function"
    },
    {
      "constant": true,
      "inputs": [
        {
          "name": "_fundId",
          "type": "uint256"
        },
        {
          "name": "_pledgeIndex",
          "type": "uint256"
        }
      ],
      "name": "getFundPledgeByPledgeId",
      "outputs": [
        {
          "name": "",
          "type": "uint256"
        },
        {
          "name": "",
          "type": "address"
        },
        {
          "name": "",
          "type": "uint256"
        },
        {
          "name": "",
          "type": "uint256"
        },
        {
          "name": "",
          "type": "uint256"
        },
        {
          "name": "",
          "type": "uint256"
        },
        {
          "name": "",
          "type": "uint256"
        },
        {
          "name": "",
          "type": "bool"
        }
      ],
      "payable": false,
      "stateMutability": "view",
      "type": "function"
    },
    {
      "constant": true,
      "inputs": [
        {
          "name": "_fundId",
          "type": "uint256"
        },
        {
          "name": "_pledger",
          "type": "address"
        }
      ],
      "name": "getPledgerFundsWithdrawable",
      "outputs": [
        {
          "name": "",
          "type": "uint256"
        }
      ],
      "payable": false,
      "stateMutability": "view",
      "type": "function"
    },
    {
      "constant": true,
      "inputs": [
        {
          "name": "_urlSlug",
          "type": "string"
        }
      ],
      "name": "isRegisteredUrlSlug",
      "outputs": [
        {
          "name": "",
          "type": "bool"
        }
      ],
      "payable": false,
      "stateMutability": "view",
      "type": "function"
    }
  ],
  "bytecode": "0x60806040523480156200001157600080fd5b5060405160408062005d368339810180604052620000339190810190620000e8565b816000806101000a81548173ffffffffffffffffffffffffffffffffffffffff021916908373ffffffffffffffffffffffffffffffffffffffff16021790555080600360006101000a81548173ffffffffffffffffffffffffffffffffffffffff021916908373ffffffffffffffffffffffffffffffffffffffff160217905550505062000171565b6000620000ca825162000129565b905092915050565b6000620000e082516200013d565b905092915050565b60008060408385031215620000fc57600080fd5b60006200010c85828601620000bc565b92505060206200011f85828601620000d2565b9150509250929050565b6000620001368262000151565b9050919050565b60006200014a8262000129565b9050919050565b600073ffffffffffffffffffffffffffffffffffffffff82169050919050565b615bb580620001816000396000f3fe608060405234801561001057600080fd5b506004361061020d576000357c0100000000000000000000000000000000000000000000000000000000900480637b8e88951161012c578063aa2f4b27116100bf578063bff1f0451161008e578063bff1f04514610748578063cf7bd9541461077f578063cfd56e0d146107af578063f3c4aedf146107df5761020d565b8063aa2f4b2714610681578063ac124081146106b1578063b99b94d4146106e8578063be20091f146107185761020d565b806397196511116100fb57806397196511146105d35780639e6ea3c014610603578063a0d59d0214610621578063a971cf6f146106515761020d565b80637b8e8895146104f55780638cbecf371461052f5780639176113214610569578063965af580146105995761020d565b806342a1fb3f116101a4578063686af4f511610173578063686af4f5146104405780636eea84411461045e57806375e295a01461048e5780637886214a146104be5761020d565b806342a1fb3f146103925780635f594c95146103c2578063640d090b146103f257806367f100d1146104105761020d565b80631ef92494116101e05780631ef92494146102d257806326519f1f1461030257806327b8d49b1461033257806341d32fd1146103625761020d565b8063024ba8fe146102125780630478391d1461024257806310d3bd9714610272578063197f682e146102a2575b600080fd5b61022c60048036036102279190810190613e4e565b61080f565b6040516102399190615731565b60405180910390f35b61025c60048036036102579190810190613e77565b61082f565b6040516102699190615279565b60405180910390f35b61028c60048036036102879190810190613eef565b6108d5565b6040516102999190615279565b60405180910390f35b6102bc60048036036102b79190810190613e4e565b611003565b6040516102c991906152af565b60405180910390f35b6102ec60048036036102e79190810190613e4e565b6110b3565b6040516102f99190615731565b60405180910390f35b61031c60048036036103179190810190613e77565b6111d0565b6040516103299190615731565b60405180910390f35b61034c60048036036103479190810190613e4e565b6113cd565b6040516103599190615731565b60405180910390f35b61037c60048036036103779190810190613d7d565b6113e5565b6040516103899190615279565b60405180910390f35b6103ac60048036036103a79190810190613eef565b61193b565b6040516103b99190615279565b60405180910390f35b6103dc60048036036103d79190810190613c47565b611c61565b6040516103e99190615279565b60405180910390f35b6103fa611cd8565b6040516104079190615294565b60405180910390f35b61042a60048036036104259190810190613c47565b611cfe565b6040516104379190615731565b60405180910390f35b610448611d2c565b6040516104559190615235565b60405180910390f35b61047860048036036104739190810190613c83565b611d51565b6040516104859190615731565b60405180910390f35b6104a860048036036104a39190810190613d3c565b611d83565b6040516104b59190615731565b60405180910390f35b6104d860048036036104d39190810190613eb3565b611df3565b6040516104ec98979695949392919061574c565b60405180910390f35b61050f600480360361050a9190810190613e4e565b611e82565b6040516105269b9a9998979695949392919061588a565b60405180910390f35b61054960048036036105449190810190613e4e565b6120f1565b6040516105609b9a999897969594939291906157ca565b60405180910390f35b610583600480360361057e9190810190613d3c565b612560565b6040516105909190615279565b60405180910390f35b6105b360048036036105ae9190810190613d3c565b61266b565b6040516105ca9b9a999897969594939291906157ca565b60405180910390f35b6105ed60048036036105e89190810190613e4e565b6126b8565b6040516105fa9190615731565b60405180910390f35b61060b61277b565b6040516106189190615731565b60405180910390f35b61063b60048036036106369190810190613e4e565b612788565b6040516106489190615279565b60405180910390f35b61066b60048036036106669190810190613eef565b612916565b6040516106789190615279565b60405180910390f35b61069b60048036036106969190810190613eb3565b613130565b6040516106a89190615731565b60405180910390f35b6106cb60048036036106c69190810190613e4e565b61315e565b6040516106df98979695949392919061574c565b60405180910390f35b61070260048036036106fd9190810190613e4e565b6131e0565b60405161070f9190615731565b60405180910390f35b610732600480360361072d9190810190613c47565b6132fd565b60405161073f9190615731565b60405180910390f35b610762600480360361075d9190810190613eb3565b61332b565b60405161077698979695949392919061574c565b60405180910390f35b61079960048036036107949190810190613eb3565b613584565b6040516107a69190615731565b60405180910390f35b6107c960048036036107c49190810190613eb3565b613660565b6040516107d69190615731565b60405180910390f35b6107f960048036036107f49190810190613cfb565b613685565b6040516108069190615731565b60405180910390f35b6000600a6000838152602001908152602001600020805490509050919050565b60008060009054906101000a900473ffffffffffffffffffffffffffffffffffffffff1673ffffffffffffffffffffffffffffffffffffffff163373ffffffffffffffffffffffffffffffffffffffff16146108c0576040517f08c379a00000000000000000000000000000000000000000000000000000000081526004016108b790615631565b60405180910390fd5b6108ca83836136b3565b506001905092915050565b60008060009054906101000a900473ffffffffffffffffffffffffffffffffffffffff1673ffffffffffffffffffffffffffffffffffffffff163373ffffffffffffffffffffffffffffffffffffffff1614610966576040517f08c379a000000000000000000000000000000000000000000000000000000000815260040161095d90615631565b60405180910390fd5b6000600180549050116109ae576040517f08c379a00000000000000000000000000000000000000000000000000000000081526004016109a590615511565b60405180910390fd5b600073ffffffffffffffffffffffffffffffffffffffff16600185815481106109d357fe5b90600052602060002090600b020160040160009054906101000a900473ffffffffffffffffffffffffffffffffffffffff1673ffffffffffffffffffffffffffffffffffffffff161415610a5c576040517f08c379a0000000000000000000000000000000000000000000000000000000008152600401610a53906155b1565b60405180910390fd5b60008311610a9f576040517f08c379a0000000000000000000000000000000000000000000000000000000008152600401610a96906156b1565b60405180910390fd5b600060018581548110610aae57fe5b90600052602060002090600b020190506000610ad78583600601546138b090919063ffffffff16565b9050600060076000888152602001908152602001600020610b186001600760008b81526020019081526020016000208054905061390590919063ffffffff16565b81548110610b2257fe5b906000526020600020015490506000600b600089815260200190815260200160002060008381526020019081526020016000205490506000600c60008873ffffffffffffffffffffffffffffffffffffffff1673ffffffffffffffffffffffffffffffffffffffff16815260200190815260200160002060008a81526020019081526020016000206000848152602001908152602001600020549050838560060181905550610bcf61395b565b60405180610100016040528060028054905081526020018973ffffffffffffffffffffffffffffffffffffffff1681526020018581526020018b81526020018a8152602001438152602001428152602001600115158152509050600281908060018154018082558091505090600182039060005260206000209060080201600090919290919091506000820151816000015560208201518160010160006101000a81548173ffffffffffffffffffffffffffffffffffffffff021916908373ffffffffffffffffffffffffffffffffffffffff16021790555060408201518160020155606082015181600301556080820151816004015560a0820151816005015560c0820151816006015560e08201518160070160006101000a81548160ff021916908315150217905550505050600a60008b815260200190815260200160002081908060018154018082558091505090600182039060005260206000209060080201600090919290919091506000820151816000015560208201518160010160006101000a81548173ffffffffffffffffffffffffffffffffffffffff021916908373ffffffffffffffffffffffffffffffffffffffff16021790555060408201518160020155606082015181600301556080820151816004015560a0820151816005015560c0820151816006015560e08201518160070160006101000a81548160ff021916908315150217905550505050600960008973ffffffffffffffffffffffffffffffffffffffff1673ffffffffffffffffffffffffffffffffffffffff16815260200190815260200160002060028054905090806001815401808255809150509060018203906000526020600020016000909192909190915055506000821115610ed657610e6c89836138b090919063ffffffff16565b600c60008a73ffffffffffffffffffffffffffffffffffffffff1673ffffffffffffffffffffffffffffffffffffffff16815260200190815260200160002060008c8152602001908152602001600020600086815260200190815260200160002081905550610f3d565b88600c60008a73ffffffffffffffffffffffffffffffffffffffff1673ffffffffffffffffffffffffffffffffffffffff16815260200190815260200160002060008c81526020019081526020016000206000868152602001908152602001600020819055505b6000831115610f8657610f5989846138b090919063ffffffff16565b600b60008c8152602001908152602001600020600086815260200190815260200160002081905550610fb0565b88600b60008c81526020019081526020016000206000868152602001908152602001600020819055505b7fff0bb824b4c6266ca9ab8bb696d71e0fdf07e7ec2120ae728d1e4b00ece5a9238a8a8743426001604051610fea9695949392919061594a565b60405180910390a1600196505050505050509392505050565b60046020528060005260406000206000915090508054600181600116156101000203166002900480601f0160208091040260200160405190810160405280929190818152602001828054600181600116156101000203166002900480156110ab5780601f10611080576101008083540402835291602001916110ab565b820191906000526020600020905b81548152906001019060200180831161108e57829003601f168201915b505050505081565b600080600180549050116110fc576040517f08c379a00000000000000000000000000000000000000000000000000000000081526004016110f390615711565b60405180910390fd5b600073ffffffffffffffffffffffffffffffffffffffff166001838154811061112157fe5b90600052602060002090600b020160040160009054906101000a900473ffffffffffffffffffffffffffffffffffffffff1673ffffffffffffffffffffffffffffffffffffffff1614156111aa576040517f08c379a00000000000000000000000000000000000000000000000000000000081526004016111a1906153f1565b60405180910390fd5b600182815481106111b757fe5b90600052602060002090600b0201600701549050919050565b60008060018054905011611219576040517f08c379a000000000000000000000000000000000000000000000000000000000815260040161121090615491565b60405180910390fd5b600073ffffffffffffffffffffffffffffffffffffffff166001848154811061123e57fe5b90600052602060002090600b020160040160009054906101000a900473ffffffffffffffffffffffffffffffffffffffff1673ffffffffffffffffffffffffffffffffffffffff1614156112c7576040517f08c379a00000000000000000000000000000000000000000000000000000000081526004016112be90615551565b60405180910390fd5b6000600760008581526020019081526020016000206113066001600760008881526020019081526020016000208054905061390590919063ffffffff16565b8154811061131057fe5b9060005260206000200154905060006001858154811061132c57fe5b90600052602060002090600b02019050600081600601549050808311156113bf576000600c60008773ffffffffffffffffffffffffffffffffffffffff1673ffffffffffffffffffffffffffffffffffffffff16815260200190815260200160002060008881526020019081526020016000206000858152602001908152602001600020549050809450505050506113c7565b600093505050505b92915050565b60086020528060005260406000206000915090505481565b60008060009054906101000a900473ffffffffffffffffffffffffffffffffffffffff1673ffffffffffffffffffffffffffffffffffffffff163373ffffffffffffffffffffffffffffffffffffffff1614611476576040517f08c379a000000000000000000000000000000000000000000000000000000000815260040161146d90615631565b60405180910390fd5b61147f86612560565b156114bf576040517f08c379a00000000000000000000000000000000000000000000000000000000081526004016114b690615591565b60405180910390fd5b60008411611502576040517f08c379a00000000000000000000000000000000000000000000000000000000081526004016114f990615431565b60405180910390fd5b600073ffffffffffffffffffffffffffffffffffffffff168373ffffffffffffffffffffffffffffffffffffffff161415611572576040517f08c379a0000000000000000000000000000000000000000000000000000000008152600401611569906156d1565b60405180910390fd5b600073ffffffffffffffffffffffffffffffffffffffff168273ffffffffffffffffffffffffffffffffffffffff1614156115e2576040517f08c379a00000000000000000000000000000000000000000000000000000000081526004016115d9906155d1565b60405180910390fd5b6000600180549050905060016040518061016001604052808381526020018a81526020018981526020018881526020018573ffffffffffffffffffffffffffffffffffffffff1681526020018673ffffffffffffffffffffffffffffffffffffffff1681526020016000815260200160008152602001438152602001438152602001428152509080600181540180825580915050906001820390600052602060002090600b0201600090919290919091506000820151816000015560208201518160010190805190602001906116b99291906139b8565b5060408201518160020190805190602001906116d69291906139b8565b5060608201518160030190805190602001906116f39291906139b8565b5060808201518160040160006101000a81548173ffffffffffffffffffffffffffffffffffffffff021916908373ffffffffffffffffffffffffffffffffffffffff16021790555060a08201518160050160006101000a81548173ffffffffffffffffffffffffffffffffffffffff021916908373ffffffffffffffffffffffffffffffffffffffff16021790555060c0820151816006015560e082015181600701556101008201518160080155610120820151816009015561014082015181600a01555050506007600082815260200190815260200160002060009080600181540180825580915050906001820390600052602060002001600090919290919091505550600760008281526020019081526020016000208590806001815401808255809150509060018203906000526020600020016000909192909190915055508660046000838152602001908152602001600020908051906020019061185c929190613a38565b508060058860405161186e9190615207565b908152602001604051809103902081905550600660008573ffffffffffffffffffffffffffffffffffffffff1673ffffffffffffffffffffffffffffffffffffffff168152602001908152602001600020819080600181540180825580915050906001820390600052602060002001600090919290919091505550600260086000838152602001908152602001600020819055506000600b600083815260200190815260200160002060008781526020019081526020016000208190555060019150509695505050505050565b60008060009054906101000a900473ffffffffffffffffffffffffffffffffffffffff1673ffffffffffffffffffffffffffffffffffffffff163373ffffffffffffffffffffffffffffffffffffffff16146119cc576040517f08c379a00000000000000000000000000000000000000000000000000000000081526004016119c390615631565b60405180910390fd5b6119d584612788565b611a14576040517f08c379a0000000000000000000000000000000000000000000000000000000008152600401611a0b90615471565b60405180910390fd5b611a1e8285611c61565b611a5d576040517f08c379a0000000000000000000000000000000000000000000000000000000008152600401611a54906153d1565b60405180910390fd5b60076000858152602001908152602001600020611a9a6001600760008881526020019081526020016000208054905061390590919063ffffffff16565b81548110611aa457fe5b90600052602060002001548311611af0576040517f08c379a0000000000000000000000000000000000000000000000000000000008152600401611ae7906155f1565b60405180910390fd5b60018481548110611afd57fe5b90600052602060002090600b0201600601548311611b50576040517f08c379a0000000000000000000000000000000000000000000000000000000008152600401611b4790615571565b60405180910390fd5b6000611b5b856126b8565b90506000811115611bb057611b7085846136b3565b611baf576040517f08c379a0000000000000000000000000000000000000000000000000000000008152600401611ba6906154d1565b60405180910390fd5b5b60076000868152602001908152602001600020849080600181540180825580915050906001820390600052602060002001600090919290919091505550611c14600160086000888152602001908152602001600020546138b090919063ffffffff16565b60086000878152602001908152602001600020819055506000600b600087815260200190815260200160002060008681526020019081526020016000208190555060019150509392505050565b600060018281548110611c7057fe5b90600052602060002090600b020160050160009054906101000a900473ffffffffffffffffffffffffffffffffffffffff1673ffffffffffffffffffffffffffffffffffffffff168373ffffffffffffffffffffffffffffffffffffffff1614905092915050565b600360009054906101000a900473ffffffffffffffffffffffffffffffffffffffff1681565b60066020528160005260406000208181548110611d1757fe5b90600052602060002001600091509150505481565b6000809054906101000a900473ffffffffffffffffffffffffffffffffffffffff1681565b600c60205282600052604060002060205281600052604060002060205280600052604060002060009250925050505481565b6000611d8e82612560565b611dcd576040517f08c379a0000000000000000000000000000000000000000000000000000000008152600401611dc4906156f1565b60405180910390fd5b600582604051611ddd9190615207565b9081526020016040518091039020549050919050565b600a6020528160005260406000208181548110611e0c57fe5b9060005260206000209060080201600091509150508060000154908060010160009054906101000a900473ffffffffffffffffffffffffffffffffffffffff16908060020154908060030154908060040154908060050154908060060154908060070160009054906101000a900460ff16905088565b60018181548110611e8f57fe5b90600052602060002090600b0201600091509050806000015490806001018054600181600116156101000203166002900480601f016020809104026020016040519081016040528092919081815260200182805460018160011615610100020316600290048015611f415780601f10611f1657610100808354040283529160200191611f41565b820191906000526020600020905b815481529060010190602001808311611f2457829003601f168201915b505050505090806002018054600181600116156101000203166002900480601f016020809104026020016040519081016040528092919081815260200182805460018160011615610100020316600290048015611fdf5780601f10611fb457610100808354040283529160200191611fdf565b820191906000526020600020905b815481529060010190602001808311611fc257829003601f168201915b505050505090806003018054600181600116156101000203166002900480601f01602080910402602001604051908101604052809291908181526020018280546001816001161561010002031660029004801561207d5780601f106120525761010080835404028352916020019161207d565b820191906000526020600020905b81548152906001019060200180831161206057829003601f168201915b5050505050908060040160009054906101000a900473ffffffffffffffffffffffffffffffffffffffff16908060050160009054906101000a900473ffffffffffffffffffffffffffffffffffffffff169080600601549080600701549080600801549080600901549080600a015490508b565b600060608060606000806000806000806000806001805490501161214a576040517f08c379a0000000000000000000000000000000000000000000000000000000008152600401612141906154f1565b60405180910390fd5b600073ffffffffffffffffffffffffffffffffffffffff1660018d8154811061216f57fe5b90600052602060002090600b020160040160009054906101000a900473ffffffffffffffffffffffffffffffffffffffff1673ffffffffffffffffffffffffffffffffffffffff1614156121f8576040517f08c379a00000000000000000000000000000000000000000000000000000000081526004016121ef90615611565b60405180910390fd5b612200613ab8565b60018d8154811061220d57fe5b90600052602060002090600b02016040518061016001604052908160008201548152602001600182018054600181600116156101000203166002900480601f0160208091040260200160405190810160405280929190818152602001828054600181600116156101000203166002900480156122ca5780601f1061229f576101008083540402835291602001916122ca565b820191906000526020600020905b8154815290600101906020018083116122ad57829003601f168201915b50505050508152602001600282018054600181600116156101000203166002900480601f01602080910402602001604051908101604052809291908181526020018280546001816001161561010002031660029004801561236c5780601f106123415761010080835404028352916020019161236c565b820191906000526020600020905b81548152906001019060200180831161234f57829003601f168201915b50505050508152602001600382018054600181600116156101000203166002900480601f01602080910402602001604051908101604052809291908181526020018280546001816001161561010002031660029004801561240e5780601f106123e35761010080835404028352916020019161240e565b820191906000526020600020905b8154815290600101906020018083116123f157829003601f168201915b505050505081526020016004820160009054906101000a900473ffffffffffffffffffffffffffffffffffffffff1673ffffffffffffffffffffffffffffffffffffffff1673ffffffffffffffffffffffffffffffffffffffff1681526020016005820160009054906101000a900473ffffffffffffffffffffffffffffffffffffffff1673ffffffffffffffffffffffffffffffffffffffff1673ffffffffffffffffffffffffffffffffffffffff16815260200160068201548152602001600782015481526020016008820154815260200160098201548152602001600a820154815250509050806000015181602001518260400151836060015184608001518560a001518660c001518760e001518861010001518961012001518a61014001518999508898508797509b509b509b509b509b509b509b509b509b509b509b505091939597999b90929496989a50565b6000808251116125a5576040517f08c379a000000000000000000000000000000000000000000000000000000000815260040161259c90615451565b60405180910390fd5b60006005836040516125b79190615207565b908152602001604051809103902054141561266157600060018054905011801561264a5750816040516020016125ed9190615207565b60405160208183030381529060405280519060200120600160008154811061261157fe5b90600052602060002090600b0201600201604051602001612632919061521e565b60405160208183030381529060405280519060200120145b156126585760019050612666565b60009050612666565b600190505b919050565b600060608060606000806000806000806000806126878d611d83565b9050612692816120f1565b9b509b509b509b509b509b509b509b509b509b509b505091939597999b90929496989a50565b6000806126c483612788565b90506000600184815481106126d557fe5b90600052602060002090600b02016007015490506000600760008681526020019081526020016000206127286001600760008981526020019081526020016000208054905061390590919063ffffffff16565b8154811061273257fe5b9060005260206000200154905082801561274c5750600081115b1561276e57612764828261390590919063ffffffff16565b9350505050612776565b600093505050505b919050565b6000600180549050905090565b600080600180549050116127d1576040517f08c379a00000000000000000000000000000000000000000000000000000000081526004016127c8906153b1565b60405180910390fd5b600073ffffffffffffffffffffffffffffffffffffffff16600183815481106127f657fe5b90600052602060002090600b020160040160009054906101000a900473ffffffffffffffffffffffffffffffffffffffff1673ffffffffffffffffffffffffffffffffffffffff16141561287f576040517f08c379a000000000000000000000000000000000000000000000000000000000815260040161287690615311565b60405180910390fd5b6000600760008481526020019081526020016000206128be6001600760008781526020019081526020016000208054905061390590919063ffffffff16565b815481106128c857fe5b906000526020600020015490506000600184815481106128e457fe5b90600052602060002090600b020160060154905081811061290a57600192505050612911565b6000925050505b919050565b60008060009054906101000a900473ffffffffffffffffffffffffffffffffffffffff1673ffffffffffffffffffffffffffffffffffffffff163373ffffffffffffffffffffffffffffffffffffffff16146129a7576040517f08c379a000000000000000000000000000000000000000000000000000000000815260040161299e90615631565b60405180910390fd5b600083116129ea576040517f08c379a00000000000000000000000000000000000000000000000000000000081526004016129e1906152f1565b60405180910390fd5b60006129f685846111d0565b905060008111612a3b576040517f08c379a0000000000000000000000000000000000000000000000000000000008152600401612a3290615411565b60405180910390fd5b83811015612a7e576040517f08c379a0000000000000000000000000000000000000000000000000000000008152600401612a7590615531565b60405180910390fd5b600060018681548110612a8d57fe5b90600052602060002090600b020190506000612ab686836006015461390590919063ffffffff16565b9050600060076000898152602001908152602001600020612af76001600760008c81526020019081526020016000208054905061390590919063ffffffff16565b81548110612b0157fe5b906000526020600020015490506000600b60008a815260200190815260200160002060008381526020019081526020016000205490506000600c60008973ffffffffffffffffffffffffffffffffffffffff1673ffffffffffffffffffffffffffffffffffffffff16815260200190815260200160002060008b8152602001908152602001600020600084815260200190815260200160002054905060008111612be0576040517f08c379a0000000000000000000000000000000000000000000000000000000008152600401612bd790615671565b60405180910390fd5b838560060181905550612bf161395b565b60405180610100016040528060028054905081526020018a73ffffffffffffffffffffffffffffffffffffffff1681526020018581526020018c81526020018b8152602001438152602001428152602001600015158152509050600281908060018154018082558091505090600182039060005260206000209060080201600090919290919091506000820151816000015560208201518160010160006101000a81548173ffffffffffffffffffffffffffffffffffffffff021916908373ffffffffffffffffffffffffffffffffffffffff16021790555060408201518160020155606082015181600301556080820151816004015560a0820151816005015560c0820151816006015560e08201518160070160006101000a81548160ff021916908315150217905550505050600a60008c815260200190815260200160002081908060018154018082558091505090600182039060005260206000209060080201600090919290919091506000820151816000015560208201518160010160006101000a81548173ffffffffffffffffffffffffffffffffffffffff021916908373ffffffffffffffffffffffffffffffffffffffff16021790555060408201518160020155606082015181600301556080820151816004015560a0820151816005015560c0820151816006015560e08201518160070160006101000a81548160ff021916908315150217905550505050600960008a73ffffffffffffffffffffffffffffffffffffffff1673ffffffffffffffffffffffffffffffffffffffff16815260200190815260200160002060028054905090806001815401808255809150509060018203906000526020600020016000909192909190915055506000821115612ef857612e8e8a8361390590919063ffffffff16565b600c60008b73ffffffffffffffffffffffffffffffffffffffff1673ffffffffffffffffffffffffffffffffffffffff16815260200190815260200160002060008d8152602001908152602001600020600086815260200190815260200160002081905550612f5f565b89600c60008b73ffffffffffffffffffffffffffffffffffffffff1673ffffffffffffffffffffffffffffffffffffffff16815260200190815260200160002060008d81526020019081526020016000206000868152602001908152602001600020819055505b6000831115612fa857612f7b8a8461390590919063ffffffff16565b600b60008d8152602001908152602001600020600086815260200190815260200160002081905550612fd2565b89600b60008d81526020019081526020016000206000868152602001908152602001600020819055505b600360009054906101000a900473ffffffffffffffffffffffffffffffffffffffff1673ffffffffffffffffffffffffffffffffffffffff1663a9059cbb8a8c6040518363ffffffff167c010000000000000000000000000000000000000000000000000000000002815260040161304b929190615250565b602060405180830381600087803b15801561306557600080fd5b505af1158015613079573d6000803e3d6000fd5b505050506040513d601f19601f8201168201806040525061309d9190810190613cd2565b6130dc576040517f08c379a00000000000000000000000000000000000000000000000000000000081526004016130d390615691565b60405180910390fd5b7fff0bb824b4c6266ca9ab8bb696d71e0fdf07e7ec2120ae728d1e4b00ece5a9238b8b87434260006040516131169695949392919061594a565b60405180910390a160019750505050505050509392505050565b6007602052816000526040600020818154811061314957fe5b90600052602060002001600091509150505481565b6002818154811061316b57fe5b90600052602060002090600802016000915090508060000154908060010160009054906101000a900473ffffffffffffffffffffffffffffffffffffffff16908060020154908060030154908060040154908060050154908060060154908060070160009054906101000a900460ff16905088565b60008060018054905011613229576040517f08c379a0000000000000000000000000000000000000000000000000000000008152600401613220906154f1565b60405180910390fd5b600073ffffffffffffffffffffffffffffffffffffffff166001838154811061324e57fe5b90600052602060002090600b020160040160009054906101000a900473ffffffffffffffffffffffffffffffffffffffff1673ffffffffffffffffffffffffffffffffffffffff1614156132d7576040517f08c379a00000000000000000000000000000000000000000000000000000000081526004016132ce90615611565b60405180910390fd5b600182815481106132e457fe5b90600052602060002090600b0201600601549050919050565b6009602052816000526040600020818154811061331657fe5b90600052602060002001600091509150505481565b6000806000806000806000806000600a60008c81526020019081526020016000208054905011613390576040517f08c379a0000000000000000000000000000000000000000000000000000000008152600401613387906152d1565b60405180910390fd5b600073ffffffffffffffffffffffffffffffffffffffff16600a60008c81526020019081526020016000208a815481106133c657fe5b906000526020600020906008020160010160009054906101000a900473ffffffffffffffffffffffffffffffffffffffff1673ffffffffffffffffffffffffffffffffffffffff16141561344f576040517f08c379a000000000000000000000000000000000000000000000000000000000815260040161344690615391565b60405180910390fd5b61345761395b565b600a60008c81526020019081526020016000208a8154811061347557fe5b906000526020600020906008020160405180610100016040529081600082015481526020016001820160009054906101000a900473ffffffffffffffffffffffffffffffffffffffff1673ffffffffffffffffffffffffffffffffffffffff1673ffffffffffffffffffffffffffffffffffffffff16815260200160028201548152602001600382015481526020016004820154815260200160058201548152602001600682015481526020016007820160009054906101000a900460ff1615151515815250509050806000015181602001518260400151836060015184608001518560a001518660c001518760e0015198509850985098509850985098509850509295985092959890939650565b60008073ffffffffffffffffffffffffffffffffffffffff16600184815481106135aa57fe5b90600052602060002090600b020160040160009054906101000a900473ffffffffffffffffffffffffffffffffffffffff1673ffffffffffffffffffffffffffffffffffffffff161415613633576040517f08c379a000000000000000000000000000000000000000000000000000000000815260040161362a90615331565b60405180910390fd5b600b6000848152602001908152602001600020600083815260200190815260200160002054905092915050565b600b602052816000526040600020602052806000526040600020600091509150505481565b6005818051602081018201805184825260208301602085012081835280955050505050506000915090505481565b6000806136bf846126b8565b905060008111613704576040517f08c379a00000000000000000000000000000000000000000000000000000000081526004016136fb906154b1565b60405180910390fd5b60006001858154811061371357fe5b90600052602060002090600b020160040160009054906101000a900473ffffffffffffffffffffffffffffffffffffffff169050600360009054906101000a900473ffffffffffffffffffffffffffffffffffffffff1673ffffffffffffffffffffffffffffffffffffffff1663a9059cbb82846040518363ffffffff167c01000000000000000000000000000000000000000000000000000000000281526004016137c0929190615250565b602060405180830381600087803b1580156137da57600080fd5b505af11580156137ee573d6000803e3d6000fd5b505050506040513d601f19601f820116820180604052506138129190810190613cd2565b613851576040517f08c379a000000000000000000000000000000000000000000000000000000000815260040161384890615351565b60405180910390fd5b613882826001878154811061386257fe5b90600052602060002090600b0201600701546138b090919063ffffffff16565b6001868154811061388f57fe5b90600052602060002090600b02016007018190555060019250505092915050565b6000808284019050838110156138fb576040517f08c379a00000000000000000000000000000000000000000000000000000000081526004016138f290615651565b60405180910390fd5b8091505092915050565b60008282111561394a576040517f08c379a000000000000000000000000000000000000000000000000000000000815260040161394190615371565b60405180910390fd5b600082840390508091505092915050565b60405180610100016040528060008152602001600073ffffffffffffffffffffffffffffffffffffffff16815260200160008152602001600081526020016000815260200160008152602001600081526020016000151581525090565b828054600181600116156101000203166002900490600052602060002090601f016020900481019282601f106139f957805160ff1916838001178555613a27565b82800160010185558215613a27579182015b82811115613a26578251825591602001919060010190613a0b565b5b509050613a349190613b3e565b5090565b828054600181600116156101000203166002900490600052602060002090601f016020900481019282601f10613a7957805160ff1916838001178555613aa7565b82800160010185558215613aa7579182015b82811115613aa6578251825591602001919060010190613a8b565b5b509050613ab49190613b3e565b5090565b60405180610160016040528060008152602001606081526020016060815260200160608152602001600073ffffffffffffffffffffffffffffffffffffffff168152602001600073ffffffffffffffffffffffffffffffffffffffff16815260200160008152602001600081526020016000815260200160008152602001600081525090565b613b6091905b80821115613b5c576000816000905550600101613b44565b5090565b90565b6000613b6f8235615abc565b905092915050565b6000613b838251615ace565b905092915050565b600082601f830112613b9c57600080fd5b8135613baf613baa826159d8565b6159ab565b91508082526020830160208301858383011115613bcb57600080fd5b613bd6838284615b28565b50505092915050565b600082601f830112613bf057600080fd5b8135613c03613bfe82615a04565b6159ab565b91508082526020830160208301858383011115613c1f57600080fd5b613c2a838284615b28565b50505092915050565b6000613c3f8235615afa565b905092915050565b60008060408385031215613c5a57600080fd5b6000613c6885828601613b63565b9250506020613c7985828601613c33565b9150509250929050565b600080600060608486031215613c9857600080fd5b6000613ca686828701613b63565b9350506020613cb786828701613c33565b9250506040613cc886828701613c33565b9150509250925092565b600060208284031215613ce457600080fd5b6000613cf284828501613b77565b91505092915050565b600060208284031215613d0d57600080fd5b600082013567ffffffffffffffff811115613d2757600080fd5b613d3384828501613b8b565b91505092915050565b600060208284031215613d4e57600080fd5b600082013567ffffffffffffffff811115613d6857600080fd5b613d7484828501613bdf565b91505092915050565b60008060008060008060c08789031215613d9657600080fd5b600087013567ffffffffffffffff811115613db057600080fd5b613dbc89828a01613bdf565b965050602087013567ffffffffffffffff811115613dd957600080fd5b613de589828a01613bdf565b955050604087013567ffffffffffffffff811115613e0257600080fd5b613e0e89828a01613bdf565b9450506060613e1f89828a01613c33565b9350506080613e3089828a01613b63565b92505060a0613e4189828a01613b63565b9150509295509295509295565b600060208284031215613e6057600080fd5b6000613e6e84828501613c33565b91505092915050565b60008060408385031215613e8a57600080fd5b6000613e9885828601613c33565b9250506020613ea985828601613b63565b9150509250929050565b60008060408385031215613ec657600080fd5b6000613ed485828601613c33565b9250506020613ee585828601613c33565b9150509250929050565b600080600060608486031215613f0457600080fd5b6000613f1286828701613c33565b9350506020613f2386828701613c33565b9250506040613f3486828701613b63565b9150509250925092565b613f4781615a74565b82525050565b613f5681615a86565b82525050565b613f6581615b04565b82525050565b6000613f7682615a4d565b613f808185615a58565b9350613f90818560208601615b37565b613f9981615b6a565b840191505092915050565b6000613faf82615a4d565b613fb98185615a69565b9350613fc9818560208601615b37565b80840191505092915050565b6000613fe082615a42565b613fea8185615a58565b9350613ffa818560208601615b37565b61400381615b6a565b840191505092915050565b60008154600181166000811461402b576001811461405057614094565b607f600283041661403c8187615a69565b955060ff1983168652808601935050614094565b6002820461405e8187615a69565b955061406985615a30565b60005b8281101561408b5781548189015260018201915060208101905061406c565b82880195505050505b505092915050565b60006140a9604283615a58565b91507f536f6369657479307846756e64733a3a67657446756e64506c6564676542795060008301527f6c6564676549643a204e6f20506c656467657320457869737420466f7220467560208301527f6e640000000000000000000000000000000000000000000000000000000000006040830152606082019050919050565b6000614135604283615a58565b91507f536f6369657479307846756e64733a3a756e706c656467655369676e616c467260008301527f6f6d46756e643a2043616e2774207769746864726177207a65726f205369676e60208301527f616c0000000000000000000000000000000000000000000000000000000000006040830152606082019050919050565b60006141c1604f83615a58565b91507f536f6369657479307846756e64733a3a697346756e644f7665724c617465737460008301527f4d696c6573746f6e653a2046756e6420576974682050726f766964656420494460208301527f20446f6573204e6f7420457869737400000000000000000000000000000000006040830152606082019050919050565b600061424d603d83615a58565b91507f536f6369657479307846756e64733a3a67657446756e6473436f6d6d6974746560008301527f64546f4d696c6573746f6e653a20696e76616c6964205f66756e6449640000006020830152604082019050919050565b60006142b3605083615a58565b91507f536f6369657479307846756e64733a3a666f727761726446756e6473546f426560008301527f6e65666963696172793a205369676e616c207472616e7366657220746f20626560208301527f6e6566696369617279206661696c6564000000000000000000000000000000006040830152606082019050919050565b600061433f602083615a58565b91507f536166654d6174683a3a7375623a20496e746567657220756e646572666c6f776000830152602082019050919050565b600061437f604a83615a58565b91507f536f6369657479307846756e64733a3a67657446756e64506c6564676542795060008301527f6c6564676549643a20506c6564676520494420446f6573204e6f74204578697360208301527f7420466f722046756e64000000000000000000000000000000000000000000006040830152606082019050919050565b600061440b603983615a58565b91507f536f6369657479307846756e64733a3a697346756e644f7665724c617465737460008301527f4d696c6573746f6e653a204e6f2046756e6473204578697374000000000000006020830152604082019050919050565b6000614471604d83615a58565b91507f536f6369657479307846756e64733a7365744e65774d696c6573746f6e653a3a60008301527f205f6d696c6573746f6e65536574746572206973206e6f7420657175616c207460208301527f6f2066756e644d616e61676572000000000000000000000000000000000000006040830152606082019050919050565b60006144fd605183615a58565b91507f536f6369657479307846756e64733a3a76616c7565466f72776172646564546f60008301527f42656e65666963696172793a2046756e6420576974682050726f76696465642060208301527f494420446f6573204e6f742045786973740000000000000000000000000000006040830152606082019050919050565b6000614589604983615a58565b91507f536f6369657479307846756e64733a3a756e706c656467655369676e616c467260008301527f6f6d46756e643a204e6f20617661696c61626c652066756e647320666f72207760208301527f69746864726177616c00000000000000000000000000000000000000000000006040830152606082019050919050565b6000614615605483615a58565b91507f536f6369657479307846756e64733a3a637265617465536f636965747930784660008301527f756e643a20496e697469616c205369676e616c204d696c6573746f6e65204d7560208301527f7374204265204d6f7265205468616e205a65726f0000000000000000000000006040830152606082019050919050565b60006146a1602383615a58565b91507f55726c20536c756720526571756972656420427574204e6f742050726f76696460008301527f65642e00000000000000000000000000000000000000000000000000000000006020830152604082019050919050565b6000614707604283615a58565b91507f536f6369657479307846756e64733a7365744e65774d696c6573746f6e653a3a60008301527f2046756e64206973206e6f74206f766572206c6174657374206d696c6573746f60208301527f6e650000000000000000000000000000000000000000000000000000000000006040830152606082019050919050565b6000614793603b83615a58565b91507f536f6369657479307846756e64733a3a676574506c656467657246756e64735760008301527f6974686472617761626c653a204e6f2046756e647320457869737400000000006020830152604082019050919050565b60006147f9605183615a58565b91507f536f6369657479307846756e64733a3a666f727761726446756e6473546f426560008301527f6e65666963696172793a20466f727761726461626c652062616c616e6365206e60208301527f6f74206d6f7265207468616e207a65726f0000000000000000000000000000006040830152606082019050919050565b6000614885604783615a58565b91507f536f6369657479307846756e64733a3a7365744e65774d696c6573746f6e653a60008301527f20466f7277617264696e672046756e647320546f2042656e656669636961727960208301527f204661696c6564000000000000000000000000000000000000000000000000006040830152606082019050919050565b6000614911603383615a58565b91507f536f6369657479307846756e64733a3a666574636846756e6446726f6d46756e60008301527f6449643a204e6f2046756e6473204578697374000000000000000000000000006020830152604082019050919050565b6000614977603283615a58565b91507f536f6369657479307846756e64733a3a706c656467655369676e616c546f467560008301527f6e643a204e6f2046756e647320457869737400000000000000000000000000006020830152604082019050919050565b60006149dd605b83615a58565b91507f536f636965747930783a3a756e706c656467655369676e616c46726f6d46756e60008301527f643a20526571756573746564207769746864726177616c20616d6f756e74206560208301527f78636565647320617661696c61626c6520616c6c6f636174696f6e00000000006040830152606082019050919050565b6000614a69605183615a58565b91507f536f6369657479307846756e64733a3a676574506c656467657246756e64735760008301527f6974686472617761626c653a2046756e6420576974682050726f76696465642060208301527f494420446f6573204e6f742045786973740000000000000000000000000000006040830152606082019050919050565b6000614af5605183615a58565b91507f536f6369657479307846756e64733a7365744e65774d696c6573746f6e653a3a60008301527f205f6e65774d696c6573746f6e65206973206e6f74206772656174657220746860208301527f616e207369676e616c52656365697665640000000000000000000000000000006040830152606082019050919050565b6000614b81604383615a58565b91507f536f6369657479307846756e64733a3a637265617465536f636965747930784660008301527f756e643a2055726c20536c756720497320416c7265616479205265676973746560208301527f72656400000000000000000000000000000000000000000000000000000000006040830152606082019050919050565b6000614c0d604883615a58565b91507f536f6369657479307846756e64733a3a706c656467655369676e616c546f467560008301527f6e643a2046756e6420576974682050726f766964656420494420446f6573204e60208301527f6f742045786973740000000000000000000000000000000000000000000000006040830152606082019050919050565b6000614c99604983615a58565b91507f536f6369657479307846756e64733a3a637265617465536f636965747930784660008301527f756e643a205f66756e64526563697069656e742063616e277420626520766f6960208301527f64206164647265737300000000000000000000000000000000000000000000006040830152606082019050919050565b6000614d25605383615a58565b91507f536f6369657479307846756e64733a7365744e65774d696c6573746f6e653a3a60008301527f205f6e65774d696c6573746f6e65206973206e6f74206772656174657220746860208301527f616e206c6174657374206d696c6573746f6e65000000000000000000000000006040830152606082019050919050565b6000614db1604983615a58565b91507f536f6369657479307846756e64733a3a666574636846756e6446726f6d46756e60008301527f6449643a2046756e6420576974682050726f766964656420494420446f65732060208301527f4e6f7420457869737400000000000000000000000000000000000000000000006040830152606082019050919050565b6000614e3d604683615a58565b91507f536f6369657479307846756e64733a3a697343616c6c65644279536f6369657460008301527f7930783a204f6e6c7920736f636965747930782063616e2063616c6c2074686960208301527f732066756e6300000000000000000000000000000000000000000000000000006040830152606082019050919050565b6000614ec9601f83615a58565b91507f536166654d6174683a3a6164643a20496e7465676572206f766572666c6f77006000830152602082019050919050565b6000614f09606083615a58565b91507f536f6369657479307846756e64733a3a756e706c656467655369676e616c467260008301527f6f6d46756e643a2063757272656e74506c65646765724d696c6573746f6e654360208301527f6f6d6d69746d656e74206d757374206265206d6f7265207468616e207a65726f6040830152606082019050919050565b6000614f95603483615a58565b91507f536f636965747930783a3a756e706c656467655369676e616c46726f6d46756e60008301527f643a205769746864726177616c206661696c65640000000000000000000000006020830152604082019050919050565b6000614ffb604a83615a58565b91507f536f6369657479307846756e64733a3a706c656467655369676e616c546f467560008301527f6e643a205369676e616c207175616e74697479206d757374206265206d6f726560208301527f207468616e207a65726f000000000000000000000000000000000000000000006040830152606082019050919050565b6000615087604783615a58565b91507f536f6369657479307846756e64733a3a637265617465536f636965747930784660008301527f756e643a205f66756e6443726561746f722063616e277420626520766f69642060208301527f61646472657373000000000000000000000000000000000000000000000000006040830152606082019050919050565b6000615113604283615a58565b91507f536f6369657479307846756e64733a3a666574636846756e64496446726f6d5560008301527f726c536c75673a204973204e6f7420526567697374657265642055726c20536c60208301527f75670000000000000000000000000000000000000000000000000000000000006040830152606082019050919050565b600061519f603b83615a58565b91507f536f6369657479307846756e64733a3a76616c7565466f72776172646564546f60008301527f42656e65666963696172793a204e6f2046756e647320457869737400000000006020830152604082019050919050565b61520181615ab2565b82525050565b60006152138284613fa4565b915081905092915050565b600061522a828461400e565b915081905092915050565b600060208201905061524a6000830184613f3e565b92915050565b60006040820190506152656000830185613f3e565b61527260208301846151f8565b9392505050565b600060208201905061528e6000830184613f4d565b92915050565b60006020820190506152a96000830184613f5c565b92915050565b600060208201905081810360008301526152c98184613fd5565b905092915050565b600060208201905081810360008301526152ea8161409c565b9050919050565b6000602082019050818103600083015261530a81614128565b9050919050565b6000602082019050818103600083015261532a816141b4565b9050919050565b6000602082019050818103600083015261534a81614240565b9050919050565b6000602082019050818103600083015261536a816142a6565b9050919050565b6000602082019050818103600083015261538a81614332565b9050919050565b600060208201905081810360008301526153aa81614372565b9050919050565b600060208201905081810360008301526153ca816143fe565b9050919050565b600060208201905081810360008301526153ea81614464565b9050919050565b6000602082019050818103600083015261540a816144f0565b9050919050565b6000602082019050818103600083015261542a8161457c565b9050919050565b6000602082019050818103600083015261544a81614608565b9050919050565b6000602082019050818103600083015261546a81614694565b9050919050565b6000602082019050818103600083015261548a816146fa565b9050919050565b600060208201905081810360008301526154aa81614786565b9050919050565b600060208201905081810360008301526154ca816147ec565b9050919050565b600060208201905081810360008301526154ea81614878565b9050919050565b6000602082019050818103600083015261550a81614904565b9050919050565b6000602082019050818103600083015261552a8161496a565b9050919050565b6000602082019050818103600083015261554a816149d0565b9050919050565b6000602082019050818103600083015261556a81614a5c565b9050919050565b6000602082019050818103600083015261558a81614ae8565b9050919050565b600060208201905081810360008301526155aa81614b74565b9050919050565b600060208201905081810360008301526155ca81614c00565b9050919050565b600060208201905081810360008301526155ea81614c8c565b9050919050565b6000602082019050818103600083015261560a81614d18565b9050919050565b6000602082019050818103600083015261562a81614da4565b9050919050565b6000602082019050818103600083015261564a81614e30565b9050919050565b6000602082019050818103600083015261566a81614ebc565b9050919050565b6000602082019050818103600083015261568a81614efc565b9050919050565b600060208201905081810360008301526156aa81614f88565b9050919050565b600060208201905081810360008301526156ca81614fee565b9050919050565b600060208201905081810360008301526156ea8161507a565b9050919050565b6000602082019050818103600083015261570a81615106565b9050919050565b6000602082019050818103600083015261572a81615192565b9050919050565b600060208201905061574660008301846151f8565b92915050565b600061010082019050615762600083018b6151f8565b61576f602083018a613f3e565b61577c60408301896151f8565b61578960608301886151f8565b61579660808301876151f8565b6157a360a08301866151f8565b6157b060c08301856151f8565b6157bd60e0830184613f4d565b9998505050505050505050565b6000610160820190506157e0600083018e6151f8565b81810360208301526157f2818d613f6b565b90508181036040830152615806818c613f6b565b9050818103606083015261581a818b613f6b565b9050615829608083018a613f3e565b61583660a0830189613f3e565b61584360c08301886151f8565b61585060e08301876151f8565b61585e6101008301866151f8565b61586c6101208301856151f8565b61587a6101408301846151f8565b9c9b505050505050505050505050565b6000610160820190506158a0600083018e6151f8565b81810360208301526158b2818d613fd5565b905081810360408301526158c6818c613fd5565b905081810360608301526158da818b613fd5565b90506158e9608083018a613f3e565b6158f660a0830189613f3e565b61590360c08301886151f8565b61591060e08301876151f8565b61591e6101008301866151f8565b61592c6101208301856151f8565b61593a6101408301846151f8565b9c9b505050505050505050505050565b600060c08201905061595f60008301896151f8565b61596c60208301886151f8565b61597960408301876151f8565b61598660608301866151f8565b61599360808301856151f8565b6159a060a0830184613f4d565b979650505050505050565b6000604051905081810181811067ffffffffffffffff821117156159ce57600080fd5b8060405250919050565b600067ffffffffffffffff8211156159ef57600080fd5b601f19601f8301169050602081019050919050565b600067ffffffffffffffff821115615a1b57600080fd5b601f19601f8301169050602081019050919050565b60008160005260206000209050919050565b600081519050919050565b600081519050919050565b600082825260208201905092915050565b600081905092915050565b6000615a7f82615a92565b9050919050565b60008115159050919050565b600073ffffffffffffffffffffffffffffffffffffffff82169050919050565b6000819050919050565b6000615ac782615ada565b9050919050565b60008115159050919050565b600073ffffffffffffffffffffffffffffffffffffffff82169050919050565b6000819050919050565b6000615b0f82615b16565b9050919050565b6000615b2182615a92565b9050919050565b82818337600083830152505050565b60005b83811015615b55578082015181840152602081019050615b3a565b83811115615b64576000848401525b50505050565b6000601f19601f830116905091905056fea265627a7a7230582087f6c874bd2a4d5ded884b01a54ec29075f534a7cb016ec49210cecabfe712536c6578706572696d656e74616cf50037",
  "source": "pragma solidity 0.5.7;\npragma experimental ABIEncoderV2;\n\nimport { SafeMath } from \"openzeppelin-solidity/contracts/math/SafeMath.sol\";\nimport { ISignal } from \"./interface/ISignal.sol\";\n\ncontract Society0xFunds {\n    using SafeMath for uint256;\n\n    struct Fund {\n        uint256 id;\n        string fundName;\n        string urlSlug;\n        string coverPictureIpfsHash;\n        address recipient;\n        address fundManager;\n        uint256 signalReceived;\n        uint256 signalWithdrawn;\n        uint256 updatedBlockNumber;\n        uint256 createdBlockNumber;\n        uint256 createdBlockTimestamp;\n    }\n\n    struct Pledge {\n        uint256 id;\n        address pledgerAddress;\n        uint256 pledgeToMilestone;\n        uint256 fundId;\n        uint256 signalValue;\n        uint256 blockNumber;\n        uint256 blockTimestamp;\n        bool incoming;\n    }\n\n    event PledgeEvent (\n        uint256 fundId,\n        uint256 signalPledgeValue,\n        uint256 signalTotal,\n        uint256 blockNumber,\n        uint256 blockTimestamp,\n        bool incoming\n    );\n\n    address public society0x;\n    Fund[] public funds;\n    Pledge[] public pledges;\n    ISignal public signal;\n    mapping (uint256 => string) public fundIdToUrlSlug;\n    mapping (string => uint256) public urlSlugToFundId;\n    mapping (address => uint256[]) public creatorToFunds;\n    mapping (uint256 => uint256[]) public fundIdToMilestones;\n    mapping (uint256 => uint256) public fundIdToMilestoneCount;\n    mapping (address => uint256[]) public pledgerToPledges;\n    mapping (uint256 => Pledge[]) public fundIdToPledges;\n    mapping (uint256 => mapping(uint256 => uint256)) public fundIdToMilestoneValueToCommittedFunds;\n    mapping (address => mapping(uint256 => mapping(uint256 => uint256))) public pledgerToFundIdToMiletoneToCommittedFunds;\n    \n    constructor(address _society0x, ISignal _signal) public {\n        society0x = _society0x;\n        signal = _signal;\n    }\n\n    modifier isCalledBySociety0x {\n        require(\n            msg.sender == society0x,\n            \"Society0xFunds::isCalledBySociety0x: Only society0x can call this func\"\n        );\n        _;\n    }\n\n    function createSociety0xFund(\n        string memory _fundName,\n        string memory _urlSlug,\n        string memory _coverPictureIpfsHash,\n        uint256 _initialMilestone,\n        address _fundCreator,\n        address _fundRecipient\n    ) public isCalledBySociety0x returns (bool) {\n        require(\n            !isRegisteredUrlSlug(_urlSlug),\n            \"Society0xFunds::createSociety0xFund: Url Slug Is Already Registered\"\n        );\n        require(\n            _initialMilestone > 0,\n            \"Society0xFunds::createSociety0xFund: Initial Signal Milestone Must Be More Than Zero\"\n        );\n        require(\n            _fundCreator != 0x0000000000000000000000000000000000000000,\n            \"Society0xFunds::createSociety0xFund: _fundCreator can't be void address\"\n        );\n        require(\n            _fundRecipient != 0x0000000000000000000000000000000000000000,\n            \"Society0xFunds::createSociety0xFund: _fundRecipient can't be void address\"\n        );\n        uint256 fundId = funds.length;\n        funds.push(Fund(\n            fundId,\n            _fundName,\n            _urlSlug,\n            _coverPictureIpfsHash,\n            _fundRecipient,\n            _fundCreator,\n            0,\n            0,\n            block.number,\n            block.number,\n            block.timestamp\n        ));\n        fundIdToMilestones[fundId].push(0);\n        fundIdToMilestones[fundId].push(_initialMilestone);\n        fundIdToUrlSlug[fundId] = _urlSlug;\n        urlSlugToFundId[_urlSlug] = fundId;\n        creatorToFunds[_fundCreator].push(fundId);\n        fundIdToMilestoneCount[fundId] = 2;\n        fundIdToMilestoneValueToCommittedFunds[fundId][_initialMilestone] = 0;\n        return true;\n    }\n\n    function getFundsCommittedToMilestone(uint256 _fundId, uint256 _milestoneValue) public view returns (uint256) {\n        require(\n            (funds[_fundId].recipient != 0x0000000000000000000000000000000000000000),\n            \"Society0xFunds::getFundsCommittedToMilestone: invalid _fundId\"\n        );\n        return fundIdToMilestoneValueToCommittedFunds[_fundId][_milestoneValue];\n    }\n\n    function fetchFundIdFromUrlSlug(string memory _urlSlug) public view returns(uint256) {\n        require(\n            isRegisteredUrlSlug(_urlSlug),\n            \"Society0xFunds::fetchFundIdFromUrlSlug: Is Not Registered Url Slug\"\n        );\n        return urlSlugToFundId[_urlSlug];\n    }\n\n    function fetchFundFromUrlSlug(string memory _urlSlug) public view returns (\n        uint256,\n        string memory,\n        string memory,\n        string memory,\n        address,\n        address,\n        uint256,\n        uint256,\n        uint256,\n        uint256,\n        uint256\n    ) {\n        uint256 fundId = fetchFundIdFromUrlSlug(_urlSlug);\n        return fetchFundFromFundId(fundId);\n    }\n\n    function fetchFundFromFundId(uint256 _fundId) public view returns (\n        uint256,\n        string memory,\n        string memory,\n        string memory,\n        address,\n        address,\n        uint256,\n        uint256,\n        uint256,\n        uint256,\n        uint256\n    ) {\n        require(\n            (funds.length > 0),\n            \"Society0xFunds::fetchFundFromFundId: No Funds Exist\"\n        );\n        require(\n            (funds[_fundId].recipient != 0x0000000000000000000000000000000000000000),\n            \"Society0xFunds::fetchFundFromFundId: Fund With Provided ID Does Not Exist\"\n        );\n        Fund memory fund = funds[_fundId];\n        return(\n            fund.id,\n            fund.fundName,\n            fund.urlSlug,\n            fund.coverPictureIpfsHash,\n            fund.recipient,\n            fund.fundManager,\n            fund.signalReceived,\n            fund.signalWithdrawn,\n            fund.updatedBlockNumber,\n            fund.createdBlockNumber,\n            fund.createdBlockTimestamp\n        );\n    }\n\n    function getFundSignalReceived(uint256 _fundId) public view returns (uint256) {\n        require(\n            (funds.length > 0),\n            \"Society0xFunds::fetchFundFromFundId: No Funds Exist\"\n        );\n        require(\n            (funds[_fundId].recipient != 0x0000000000000000000000000000000000000000),\n            \"Society0xFunds::fetchFundFromFundId: Fund With Provided ID Does Not Exist\"\n        );\n        return funds[_fundId].signalReceived;\n    }\n\n    function getFundListLength() public view returns (uint256) {\n        return funds.length;\n    }\n\n    function pledgeSignalToFund(\n        uint256 _fundId,\n        uint256 _signalValue,\n        address _pledgerAddress\n    ) public isCalledBySociety0x returns(\n        bool\n    ) {\n        require(\n            (funds.length > 0),\n            \"Society0xFunds::pledgeSignalToFund: No Funds Exist\"\n        );\n        require(\n            (funds[_fundId].recipient != 0x0000000000000000000000000000000000000000),\n            \"Society0xFunds::pledgeSignalToFund: Fund With Provided ID Does Not Exist\"\n        );\n        require(\n            (_signalValue > 0),\n            \"Society0xFunds::pledgeSignalToFund: Signal quantity must be more than zero\"\n        );\n        Fund storage fund = funds[_fundId];\n        uint256 newBalance = fund.signalReceived.add(_signalValue);\n        uint256 pledgeToMilestone = fundIdToMilestones[_fundId][fundIdToMilestones[_fundId].length.sub(1)];\n        uint256 currentMilestoneCommitment = fundIdToMilestoneValueToCommittedFunds[_fundId][pledgeToMilestone];\n        uint256 currentPledgerMilestoneCommitment = pledgerToFundIdToMiletoneToCommittedFunds[_pledgerAddress][_fundId][pledgeToMilestone];\n        fund.signalReceived = newBalance;\n        Pledge memory pledge = Pledge(\n            pledges.length,\n            _pledgerAddress,\n            pledgeToMilestone,\n            _fundId,\n            _signalValue,\n            block.number,\n            block.timestamp,\n            true\n        );\n        pledges.push(pledge);\n        fundIdToPledges[_fundId].push(pledge);\n        pledgerToPledges[_pledgerAddress].push(pledges.length);\n        if(currentPledgerMilestoneCommitment > 0){\n            pledgerToFundIdToMiletoneToCommittedFunds[_pledgerAddress][_fundId][pledgeToMilestone] = currentPledgerMilestoneCommitment.add(_signalValue);\n        } else {\n            pledgerToFundIdToMiletoneToCommittedFunds[_pledgerAddress][_fundId][pledgeToMilestone] = _signalValue;\n        }\n        if(currentMilestoneCommitment > 0){\n            fundIdToMilestoneValueToCommittedFunds[_fundId][pledgeToMilestone] = currentMilestoneCommitment.add(_signalValue);\n        }else{\n            fundIdToMilestoneValueToCommittedFunds[_fundId][pledgeToMilestone] = _signalValue;\n        }\n        emit PledgeEvent(_fundId, _signalValue, newBalance, block.number, block.timestamp, true);\n        return true;\n    }\n\n    function unpledgeSignalFromFund(\n        uint256 _fundId,\n        uint256 _signalValue,\n        address _pledgerAddress\n    ) public isCalledBySociety0x returns(\n        bool\n    ) {\n        require(\n            _signalValue > 0,\n            \"Society0xFunds::unpledgeSignalFromFund: Can't withdraw zero Signal\"\n        );\n        uint256 fundsAvailableForWithdrawal = getPledgerFundsWithdrawable(_fundId, _pledgerAddress);\n        require(\n            fundsAvailableForWithdrawal > 0,\n            \"Society0xFunds::unpledgeSignalFromFund: No available funds for withdrawal\"\n        );\n        require(\n            fundsAvailableForWithdrawal >= _signalValue,\n            \"Society0x::unpledgeSignalFromFund: Requested withdrawal amount exceeds available allocation\"\n        );\n        Fund storage fund = funds[_fundId];\n        uint256 newBalance = fund.signalReceived.sub(_signalValue);\n        uint256 unpledgeFromMilestone = fundIdToMilestones[_fundId][fundIdToMilestones[_fundId].length.sub(1)];\n        uint256 currentMilestoneCommitment = fundIdToMilestoneValueToCommittedFunds[_fundId][unpledgeFromMilestone];\n        uint256 currentPledgerMilestoneCommitment = pledgerToFundIdToMiletoneToCommittedFunds[_pledgerAddress][_fundId][unpledgeFromMilestone];\n        require(\n            (currentPledgerMilestoneCommitment > 0),\n            \"Society0xFunds::unpledgeSignalFromFund: currentPledgerMilestoneCommitment must be more than zero\"\n        );\n        fund.signalReceived = newBalance;\n        Pledge memory pledge = Pledge(\n            pledges.length,\n            _pledgerAddress,\n            unpledgeFromMilestone,\n            _fundId,\n            _signalValue,\n            block.number,\n            block.timestamp,\n            false\n        );\n        pledges.push(pledge);\n        fundIdToPledges[_fundId].push(pledge);\n        pledgerToPledges[_pledgerAddress].push(pledges.length);\n        if(currentPledgerMilestoneCommitment > 0){\n            pledgerToFundIdToMiletoneToCommittedFunds[_pledgerAddress][_fundId][unpledgeFromMilestone] = currentPledgerMilestoneCommitment.sub(_signalValue);\n        } else {\n            pledgerToFundIdToMiletoneToCommittedFunds[_pledgerAddress][_fundId][unpledgeFromMilestone] = _signalValue;\n        }\n        if(currentMilestoneCommitment > 0){\n            fundIdToMilestoneValueToCommittedFunds[_fundId][unpledgeFromMilestone] = currentMilestoneCommitment.sub(_signalValue);\n        }else{\n            fundIdToMilestoneValueToCommittedFunds[_fundId][unpledgeFromMilestone] = _signalValue;\n        }\n        require(\n            signal.transfer(_pledgerAddress, _signalValue),\n            \"Society0x::unpledgeSignalFromFund: Withdrawal failed\"\n        );\n        emit PledgeEvent(_fundId, _signalValue, newBalance, block.number, block.timestamp, false);\n        return true;\n    }\n\n    function valueForwardableToBeneficiary(uint256 _fundId) public view returns(uint256) {\n        bool isFundOverLatestMilestone = isFundOverLatestMilestone(_fundId);\n        uint256 fundSignalWithdrawn = funds[_fundId].signalWithdrawn;\n        uint256 latestMilestone = fundIdToMilestones[_fundId][fundIdToMilestones[_fundId].length.sub(1)];\n        if(isFundOverLatestMilestone && (latestMilestone > 0)) {\n            return latestMilestone.sub(fundSignalWithdrawn);\n        }else{\n            return 0;\n        }\n    }\n\n    function valueForwardedToBeneficiary(uint256 _fundId) public view returns(uint256) {\n        require(\n            (funds.length > 0),\n            \"Society0xFunds::valueForwardedToBeneficiary: No Funds Exist\"\n        );\n        require(\n            (funds[_fundId].recipient != 0x0000000000000000000000000000000000000000),\n            \"Society0xFunds::valueForwardedToBeneficiary: Fund With Provided ID Does Not Exist\"\n        );\n        return funds[_fundId].signalWithdrawn;\n    }\n\n    function isFundOverLatestMilestone(uint256 _fundId) public view returns (bool) {\n        require(\n            (funds.length > 0),\n            \"Society0xFunds::isFundOverLatestMilestone: No Funds Exist\"\n        );\n        require(\n            (funds[_fundId].recipient != 0x0000000000000000000000000000000000000000),\n            \"Society0xFunds::isFundOverLatestMilestone: Fund With Provided ID Does Not Exist\"\n        );\n        uint256 latestMilestone = fundIdToMilestones[_fundId][fundIdToMilestones[_fundId].length.sub(1)];\n        uint256 fundSignalReceived = funds[_fundId].signalReceived;\n        if(fundSignalReceived >= latestMilestone) {\n            return true;\n        }else{\n            return false;\n        }\n    }\n\n    function forwardFundsToBeneficiary(uint256 _fundId, address _forwarderAddress) public isCalledBySociety0x returns (bool) {\n        _forwardFundsToBeneficiary(_fundId, _forwarderAddress);\n        return true;\n    }\n\n    function _forwardFundsToBeneficiary(uint256 _fundId, address _forwarderAddress) internal returns (bool) {\n        uint256 valueForwardable = valueForwardableToBeneficiary(_fundId);\n        require(\n            valueForwardable > 0,\n            \"Society0xFunds::forwardFundsToBeneficiary: Forwardable balance not more than zero\"\n        );\n        address beneficiary = funds[_fundId].recipient;\n        require(\n            signal.transfer(beneficiary, valueForwardable),\n            \"Society0xFunds::forwardFundsToBeneficiary: Signal transfer to beneficiary failed\"\n        );\n        funds[_fundId].signalWithdrawn = funds[_fundId].signalWithdrawn.add(valueForwardable);\n        return true;\n    }\n\n    function setNewMilestone(uint256 _fundId, uint256 _newMilestone, address _milestoneSetter) public isCalledBySociety0x returns (bool) {\n        require(\n            isFundOverLatestMilestone(_fundId),\n            \"Society0xFunds:setNewMilestone:: Fund is not over latest milestone\"\n        );\n        require(\n            isFundManager(_milestoneSetter, _fundId),\n            \"Society0xFunds:setNewMilestone:: _milestoneSetter is not equal to fundManager\"\n        );\n        require(\n            _newMilestone > fundIdToMilestones[_fundId][fundIdToMilestones[_fundId].length.sub(1)],\n            \"Society0xFunds:setNewMilestone:: _newMilestone is not greater than latest milestone\"\n        );\n        require(\n            _newMilestone > funds[_fundId].signalReceived,\n            \"Society0xFunds:setNewMilestone:: _newMilestone is not greater than signalReceived\"\n        );\n        uint256 valueForwardable = valueForwardableToBeneficiary(_fundId);\n        if(valueForwardable > 0) {\n            require(\n                _forwardFundsToBeneficiary(_fundId, _milestoneSetter),\n                \"Society0xFunds::setNewMilestone: Forwarding Funds To Beneficiary Failed\"\n            );\n        }\n        fundIdToMilestones[_fundId].push(_newMilestone);\n        fundIdToMilestoneCount[_fundId] = fundIdToMilestoneCount[_fundId].add(1);\n        fundIdToMilestoneValueToCommittedFunds[_fundId][_newMilestone] = 0;\n        return true;\n    }\n\n    function isFundManager(address _checkAddress, uint256 _fundId) public view returns(bool) {\n        return _checkAddress == funds[_fundId].fundManager;\n    }\n\n    function getFundPledgeCount(uint256 _fundId) public view returns(uint256) {\n        return fundIdToPledges[_fundId].length;\n    }\n\n    function getFundPledgeByPledgeId(uint256 _fundId, uint256 _pledgeIndex) public view returns(\n        uint256,\n        address,\n        uint256,\n        uint256,\n        uint256,\n        uint256,\n        uint256,\n        bool\n    ) {\n        require(\n            (fundIdToPledges[_fundId].length > 0),\n            \"Society0xFunds::getFundPledgeByPledgeId: No Pledges Exist For Fund\"\n        );\n        require(\n            (fundIdToPledges[_fundId][_pledgeIndex].pledgerAddress != 0x0000000000000000000000000000000000000000),\n            \"Society0xFunds::getFundPledgeByPledgeId: Pledge ID Does Not Exist For Fund\"\n        );\n        Pledge memory pledge = fundIdToPledges[_fundId][_pledgeIndex];\n        return(\n            pledge.id,\n            pledge.pledgerAddress,\n            pledge.pledgeToMilestone,\n            pledge.fundId,\n            pledge.signalValue,\n            pledge.blockNumber,\n            pledge.blockTimestamp,\n            pledge.incoming\n        );\n    }\n\n    function getPledgerFundsWithdrawable(uint256 _fundId, address _pledger) public view returns(uint256) {\n        require(\n            (funds.length > 0),\n            \"Society0xFunds::getPledgerFundsWithdrawable: No Funds Exist\"\n        );\n        require(\n            (funds[_fundId].recipient != 0x0000000000000000000000000000000000000000),\n            \"Society0xFunds::getPledgerFundsWithdrawable: Fund With Provided ID Does Not Exist\"\n        );\n        uint256 latestMilestone = fundIdToMilestones[_fundId][fundIdToMilestones[_fundId].length.sub(1)];\n        Fund storage fund = funds[_fundId];\n        uint256 currentFundSignalBalance = fund.signalReceived;\n        if(latestMilestone > currentFundSignalBalance) {\n            uint256 currentPledgerMilestoneCommitment = pledgerToFundIdToMiletoneToCommittedFunds[_pledger][_fundId][latestMilestone];\n            return currentPledgerMilestoneCommitment;\n        }else{\n            return 0;\n        }\n    }\n\n    function isRegisteredUrlSlug(string memory _urlSlug) public view returns(bool) {\n        require(\n            (bytes(_urlSlug).length > 0),\n            \"Url Slug Required But Not Provided.\"\n        );\n        if(urlSlugToFundId[_urlSlug] == 0) {\n            if((funds.length > 0) && (keccak256(abi.encodePacked(funds[0].urlSlug)) == keccak256(abi.encodePacked(_urlSlug)))){\n                return true;\n            }else{\n                return false;\n            }\n        }else{\n            return true;\n        }\n    }\n}",
  "sourcePath": "/Users/jaywelsh/GitHub/society0x/ethereum/contracts/Society0xFunds.sol",
  "compiler": {
    "name": "solc",
    "version": "0.5.7+commit.6da8b019.Emscripten.clang"
  },
  "schemaVersion": "3.0.16",
  "updatedAt": "2020-01-19T12:50:31.239Z",
  "devdoc": {
    "methods": {}
  },
  "userdoc": {
    "methods": {}
  }
}