{
  "contractName": "Society0xPersona",
  "abi": [
    {
      "constant": true,
      "inputs": [
        {
          "name": "",
          "type": "address"
        },
        {
          "name": "",
          "type": "address"
        }
      ],
      "name": "pendingConnections",
      "outputs": [
        {
          "name": "",
          "type": "bool"
        }
      ],
      "payable": false,
      "stateMutability": "view",
      "type": "function"
    },
    {
      "constant": true,
      "inputs": [],
      "name": "society0x",
      "outputs": [
        {
          "name": "",
          "type": "address"
        }
      ],
      "payable": false,
      "stateMutability": "view",
      "type": "function"
    },
    {
      "constant": true,
      "inputs": [
        {
          "name": "",
          "type": "address"
        },
        {
          "name": "",
          "type": "address"
        }
      ],
      "name": "connections",
      "outputs": [
        {
          "name": "",
          "type": "bool"
        }
      ],
      "payable": false,
      "stateMutability": "view",
      "type": "function"
    },
    {
      "constant": true,
      "inputs": [],
      "name": "profileCount",
      "outputs": [
        {
          "name": "",
          "type": "uint256"
        }
      ],
      "payable": false,
      "stateMutability": "view",
      "type": "function"
    },
    {
      "inputs": [
        {
          "name": "_society0x",
          "type": "address"
        }
      ],
      "payable": false,
      "stateMutability": "nonpayable",
      "type": "constructor"
    },
    {
      "constant": false,
      "inputs": [
        {
          "name": "_profileName",
          "type": "string"
        },
        {
          "name": "_originalMsgSender",
          "type": "address"
        }
      ],
      "name": "registerProfile",
      "outputs": [],
      "payable": false,
      "stateMutability": "nonpayable",
      "type": "function"
    },
    {
      "constant": false,
      "inputs": [
        {
          "name": "_profilePictureIpfsHash",
          "type": "string"
        },
        {
          "name": "_originalMsgSender",
          "type": "address"
        }
      ],
      "name": "editProfileImage",
      "outputs": [
        {
          "name": "",
          "type": "address"
        },
        {
          "name": "",
          "type": "string"
        },
        {
          "name": "",
          "type": "string"
        },
        {
          "name": "",
          "type": "string"
        },
        {
          "name": "",
          "type": "string"
        },
        {
          "name": "",
          "type": "uint256"
        },
        {
          "name": "",
          "type": "uint256"
        },
        {
          "name": "",
          "type": "uint8"
        },
        {
          "name": "",
          "type": "uint256"
        },
        {
          "name": "",
          "type": "uint256"
        }
      ],
      "payable": false,
      "stateMutability": "nonpayable",
      "type": "function"
    },
    {
      "constant": false,
      "inputs": [
        {
          "name": "_coverPictureIpfsHash",
          "type": "string"
        },
        {
          "name": "_originalMsgSender",
          "type": "address"
        }
      ],
      "name": "editCoverImage",
      "outputs": [
        {
          "name": "",
          "type": "address"
        },
        {
          "name": "",
          "type": "string"
        },
        {
          "name": "",
          "type": "string"
        },
        {
          "name": "",
          "type": "string"
        },
        {
          "name": "",
          "type": "string"
        },
        {
          "name": "",
          "type": "uint256"
        },
        {
          "name": "",
          "type": "uint256"
        },
        {
          "name": "",
          "type": "uint8"
        },
        {
          "name": "",
          "type": "uint256"
        },
        {
          "name": "",
          "type": "uint256"
        }
      ],
      "payable": false,
      "stateMutability": "nonpayable",
      "type": "function"
    },
    {
      "constant": true,
      "inputs": [
        {
          "name": "_address",
          "type": "address"
        }
      ],
      "name": "fetchProfileNameFromAddress",
      "outputs": [
        {
          "name": "",
          "type": "string"
        }
      ],
      "payable": false,
      "stateMutability": "view",
      "type": "function"
    },
    {
      "constant": true,
      "inputs": [
        {
          "name": "_address",
          "type": "address"
        }
      ],
      "name": "fetchProfileFromAddress",
      "outputs": [
        {
          "name": "",
          "type": "address"
        },
        {
          "name": "",
          "type": "string"
        },
        {
          "name": "",
          "type": "string"
        },
        {
          "name": "",
          "type": "string"
        },
        {
          "name": "",
          "type": "string"
        },
        {
          "name": "",
          "type": "uint256"
        },
        {
          "name": "",
          "type": "uint256"
        },
        {
          "name": "",
          "type": "uint8"
        },
        {
          "name": "",
          "type": "uint256"
        },
        {
          "name": "",
          "type": "uint256"
        }
      ],
      "payable": false,
      "stateMutability": "view",
      "type": "function"
    },
    {
      "constant": false,
      "inputs": [
        {
          "name": "_requestConnectionFromAddress",
          "type": "address"
        },
        {
          "name": "_originalMsgSender",
          "type": "address"
        }
      ],
      "name": "createConnectionRequest",
      "outputs": [
        {
          "name": "",
          "type": "bool"
        }
      ],
      "payable": false,
      "stateMutability": "nonpayable",
      "type": "function"
    },
    {
      "constant": false,
      "inputs": [
        {
          "name": "_acceptConnectionFromAddress",
          "type": "address"
        },
        {
          "name": "_originalMsgSender",
          "type": "address"
        }
      ],
      "name": "acceptConnectionRequest",
      "outputs": [
        {
          "name": "",
          "type": "bool"
        }
      ],
      "payable": false,
      "stateMutability": "nonpayable",
      "type": "function"
    },
    {
      "constant": false,
      "inputs": [
        {
          "name": "_cancelConnectionToAddress",
          "type": "address"
        },
        {
          "name": "_originalMsgSender",
          "type": "address"
        }
      ],
      "name": "cancelOutgoingConnectionRequest",
      "outputs": [
        {
          "name": "",
          "type": "bool"
        }
      ],
      "payable": false,
      "stateMutability": "nonpayable",
      "type": "function"
    },
    {
      "constant": false,
      "inputs": [
        {
          "name": "_declineConnectionFromAddress",
          "type": "address"
        },
        {
          "name": "_originalMsgSender",
          "type": "address"
        }
      ],
      "name": "declineConnectionRequest",
      "outputs": [
        {
          "name": "",
          "type": "bool"
        }
      ],
      "payable": false,
      "stateMutability": "nonpayable",
      "type": "function"
    },
    {
      "constant": false,
      "inputs": [
        {
          "name": "_terminateConnectionToAddress",
          "type": "address"
        },
        {
          "name": "_originalMsgSender",
          "type": "address"
        }
      ],
      "name": "terminateConnection",
      "outputs": [
        {
          "name": "",
          "type": "bool"
        }
      ],
      "payable": false,
      "stateMutability": "nonpayable",
      "type": "function"
    },
    {
      "constant": true,
      "inputs": [
        {
          "name": "_targetAddress",
          "type": "address"
        },
        {
          "name": "_originalMsgSender",
          "type": "address"
        }
      ],
      "name": "isEstablishedConnection",
      "outputs": [
        {
          "name": "",
          "type": "bool"
        }
      ],
      "payable": false,
      "stateMutability": "view",
      "type": "function"
    },
    {
      "constant": true,
      "inputs": [
        {
          "name": "_incomingCheckAddress",
          "type": "address"
        },
        {
          "name": "_originalMsgSender",
          "type": "address"
        }
      ],
      "name": "isPendingIncomingConnection",
      "outputs": [
        {
          "name": "",
          "type": "bool"
        }
      ],
      "payable": false,
      "stateMutability": "view",
      "type": "function"
    },
    {
      "constant": true,
      "inputs": [
        {
          "name": "_outgoingCheckAddress",
          "type": "address"
        },
        {
          "name": "_originalMsgSender",
          "type": "address"
        }
      ],
      "name": "isPendingOutgoingConnection",
      "outputs": [
        {
          "name": "",
          "type": "bool"
        }
      ],
      "payable": false,
      "stateMutability": "view",
      "type": "function"
    },
    {
      "constant": true,
      "inputs": [
        {
          "name": "_profileName",
          "type": "string"
        }
      ],
      "name": "fetchProfileFromProfileName",
      "outputs": [
        {
          "name": "",
          "type": "address"
        },
        {
          "name": "",
          "type": "string"
        },
        {
          "name": "",
          "type": "string"
        },
        {
          "name": "",
          "type": "string"
        },
        {
          "name": "",
          "type": "string"
        },
        {
          "name": "",
          "type": "uint256"
        },
        {
          "name": "",
          "type": "uint256"
        },
        {
          "name": "",
          "type": "uint8"
        },
        {
          "name": "",
          "type": "uint256"
        },
        {
          "name": "",
          "type": "uint256"
        }
      ],
      "payable": false,
      "stateMutability": "view",
      "type": "function"
    },
    {
      "constant": true,
      "inputs": [
        {
          "name": "_profileName",
          "type": "string"
        }
      ],
      "name": "fetchAddressFromProfileName",
      "outputs": [
        {
          "name": "",
          "type": "address"
        }
      ],
      "payable": false,
      "stateMutability": "view",
      "type": "function"
    },
    {
      "constant": true,
      "inputs": [
        {
          "name": "_address",
          "type": "address"
        }
      ],
      "name": "isRegisteredAddress",
      "outputs": [
        {
          "name": "",
          "type": "bool"
        }
      ],
      "payable": false,
      "stateMutability": "view",
      "type": "function"
    },
    {
      "constant": true,
      "inputs": [
        {
          "name": "_address",
          "type": "address"
        }
      ],
      "name": "isNotRegisteredAddress",
      "outputs": [
        {
          "name": "",
          "type": "bool"
        }
      ],
      "payable": false,
      "stateMutability": "view",
      "type": "function"
    },
    {
      "constant": true,
      "inputs": [
        {
          "name": "_profileName",
          "type": "string"
        }
      ],
      "name": "isRegisteredName",
      "outputs": [
        {
          "name": "",
          "type": "bool"
        }
      ],
      "payable": false,
      "stateMutability": "view",
      "type": "function"
    }
  ],
  "bytecode": "0x60806040523480156200001157600080fd5b5060405160208062004a08833981018060405262000033919081019062000091565b80600160006101000a81548173ffffffffffffffffffffffffffffffffffffffff021916908373ffffffffffffffffffffffffffffffffffffffff16021790555050620000f1565b6000620000898251620000bd565b905092915050565b600060208284031215620000a457600080fd5b6000620000b4848285016200007b565b91505092915050565b6000620000ca82620000d1565b9050919050565b600073ffffffffffffffffffffffffffffffffffffffff82169050919050565b61490780620001016000396000f3fe608060405234801561001057600080fd5b506004361061015f576000357c0100000000000000000000000000000000000000000000000000000000900480639dd9861b116100d5578063bb37f90811610099578063bb37f90814610447578063c21de24714610480578063db0c7ca8146104b0578063ef43acef146104e0578063f18486a1146104fe578063fcf53da7146105375761015f565b80639dd9861b1461036b5780639fc55f3214610387578063a5ab3260146103b7578063ac822e78146103e7578063b105844b146104175761015f565b806361b1198b1161012757806361b1198b1461025d578063686af4f51461028d5780638651b8f5146102ab578063883aca1e146102db5780638b7804691461030b5780639674cf841461033b5761015f565b806320354b131461016457806323fed546146101945780632bee6bc8146101c45780632edda780146101fd57806349552e0f1461022d575b600080fd5b61017e600480360361017991908101906134bb565b610570565b60405161018b91906143f6565b60405180910390f35b6101ae60048036036101a991908101906134e4565b61069c565b6040516101bb91906143db565b60405180910390f35b6101de60048036036101d99190810190613561565b61093d565b6040516101f49a99989796959493929190614323565b60405180910390f35b610217600480360361021291908101906134e4565b611006565b60405161022491906143db565b60405180910390f35b610247600480360361024291908101906134e4565b611182565b60405161025491906143db565b60405180910390f35b610277600480360361027291908101906134e4565b6111b1565b60405161028491906143db565b60405180910390f35b610295611578565b6040516102a29190614308565b60405180910390f35b6102c560048036036102c091908101906134e4565b61159e565b6040516102d291906143db565b60405180910390f35b6102f560048036036102f091908101906134e4565b611762565b60405161030291906143db565b60405180910390f35b610325600480360361032091908101906134e4565b611791565b60405161033291906143db565b60405180910390f35b61035560048036036103509190810190613520565b61190d565b60405161036291906143db565b60405180910390f35b61038560048036036103809190810190613561565b6119c8565b005b6103a1600480360361039c91908101906134e4565b611d77565b6040516103ae91906143db565b60405180910390f35b6103d160048036036103cc91908101906134e4565b6120be565b6040516103de91906143db565b60405180910390f35b61040160048036036103fc91908101906134e4565b61235f565b60405161040e91906143db565b60405180910390f35b610431600480360361042c91908101906134bb565b6125b6565b60405161043e91906143db565b60405180910390f35b610461600480360361045c9190810190613520565b612650565b6040516104779a99989796959493929190614323565b60405180910390f35b61049a60048036036104959190810190613520565b612710565b6040516104a79190614308565b60405180910390f35b6104ca60048036036104c591908101906134bb565b6127a6565b6040516104d791906143db565b60405180910390f35b6104e8612841565b6040516104f59190614758565b60405180910390f35b61051860048036036105139190810190613561565b612847565b60405161052e9a99989796959493929190614323565b60405180910390f35b610551600480360361054c91908101906134bb565b612f10565b6040516105679a99989796959493929190614323565b60405180910390f35b606061057b826127a6565b6105ba576040517f08c379a00000000000000000000000000000000000000000000000000000000081526004016105b190614678565b60405180910390fd5b600560008373ffffffffffffffffffffffffffffffffffffffff1673ffffffffffffffffffffffffffffffffffffffff1681526020019081526020016000206001018054600181600116156101000203166002900480601f0160208091040260200160405190810160405280929190818152602001828054600181600116156101000203166002900480156106905780601f1061066557610100808354040283529160200191610690565b820191906000526020600020905b81548152906001019060200180831161067357829003601f168201915b50505050509050919050565b6000600160009054906101000a900473ffffffffffffffffffffffffffffffffffffffff1673ffffffffffffffffffffffffffffffffffffffff163373ffffffffffffffffffffffffffffffffffffffff161461072e576040517f08c379a000000000000000000000000000000000000000000000000000000000815260040161072590614518565b60405180910390fd5b610737836127a6565b610776576040517f08c379a000000000000000000000000000000000000000000000000000000000815260040161076d90614698565b60405180910390fd5b6107808284611006565b6107bf576040517f08c379a00000000000000000000000000000000000000000000000000000000081526004016107b690614618565b60405180910390fd5b6107c9838361159e565b15610809576040517f08c379a0000000000000000000000000000000000000000000000000000000008152600401610800906145b8565b60405180910390fd5b6000600260008573ffffffffffffffffffffffffffffffffffffffff1673ffffffffffffffffffffffffffffffffffffffff16815260200190815260200160002060008473ffffffffffffffffffffffffffffffffffffffff1673ffffffffffffffffffffffffffffffffffffffff16815260200190815260200160002060006101000a81548160ff0219169083151502179055506000600260008473ffffffffffffffffffffffffffffffffffffffff1673ffffffffffffffffffffffffffffffffffffffff16815260200190815260200160002060008573ffffffffffffffffffffffffffffffffffffffff1673ffffffffffffffffffffffffffffffffffffffff16815260200190815260200160002060006101000a81548160ff0219169083151502179055506001905092915050565b60006060806060806000806000806000600160009054906101000a900473ffffffffffffffffffffffffffffffffffffffff1673ffffffffffffffffffffffffffffffffffffffff163373ffffffffffffffffffffffffffffffffffffffff16146109dd576040517f08c379a00000000000000000000000000000000000000000000000000000000081526004016109d490614518565b60405180910390fd5b6109e68b6127a6565b610a25576040517f08c379a0000000000000000000000000000000000000000000000000000000008152600401610a1c90614678565b60405180910390fd5b60008c5111610a69576040517f08c379a0000000000000000000000000000000000000000000000000000000008152600401610a6090614578565b60405180910390fd5b610a71613342565b600560008d73ffffffffffffffffffffffffffffffffffffffff1673ffffffffffffffffffffffffffffffffffffffff168152602001908152602001600020604051806101400160405290816000820160009054906101000a900473ffffffffffffffffffffffffffffffffffffffff1673ffffffffffffffffffffffffffffffffffffffff1673ffffffffffffffffffffffffffffffffffffffff168152602001600182018054600181600116156101000203166002900480601f016020809104026020016040519081016040528092919081815260200182805460018160011615610100020316600290048015610bab5780601f10610b8057610100808354040283529160200191610bab565b820191906000526020600020905b815481529060010190602001808311610b8e57829003601f168201915b50505050508152602001600282018054600181600116156101000203166002900480601f016020809104026020016040519081016040528092919081815260200182805460018160011615610100020316600290048015610c4d5780601f10610c2257610100808354040283529160200191610c4d565b820191906000526020600020905b815481529060010190602001808311610c3057829003601f168201915b50505050508152602001600382018054600181600116156101000203166002900480601f016020809104026020016040519081016040528092919081815260200182805460018160011615610100020316600290048015610cef5780601f10610cc457610100808354040283529160200191610cef565b820191906000526020600020905b815481529060010190602001808311610cd257829003601f168201915b50505050508152602001600482018054600181600116156101000203166002900480601f016020809104026020016040519081016040528092919081815260200182805460018160011615610100020316600290048015610d915780601f10610d6657610100808354040283529160200191610d91565b820191906000526020600020905b815481529060010190602001808311610d7457829003601f168201915b5050505050815260200160058201548152602001600682015481526020016007820160009054906101000a900460ff1660ff1660ff168152602001600882015481526020016009820154815250509050604051806101400160405280826000015173ffffffffffffffffffffffffffffffffffffffff168152602001826020015181526020018e815260200182606001518152602001826080015181526020018260a0015181526020018260c0015181526020018260e0015160ff168152602001428152602001826101200151815250600560008e73ffffffffffffffffffffffffffffffffffffffff1673ffffffffffffffffffffffffffffffffffffffff16815260200190815260200160002060008201518160000160006101000a81548173ffffffffffffffffffffffffffffffffffffffff021916908373ffffffffffffffffffffffffffffffffffffffff1602179055506020820151816001019080519060200190610f039291906133ae565b506040820151816002019080519060200190610f209291906133ae565b506060820151816003019080519060200190610f3d9291906133ae565b506080820151816004019080519060200190610f5a9291906133ae565b5060a0820151816005015560c0820151816006015560e08201518160070160006101000a81548160ff021916908360ff16021790555061010082015181600801556101208201518160090155905050806000015181602001518e836060015184608001518560a001518660c001518760e001518861010001518961012001518898508696508595509a509a509a509a509a509a509a509a509a509a50509295989b9194979a5092959850565b6000600160009054906101000a900473ffffffffffffffffffffffffffffffffffffffff1673ffffffffffffffffffffffffffffffffffffffff163373ffffffffffffffffffffffffffffffffffffffff1614611098576040517f08c379a000000000000000000000000000000000000000000000000000000000815260040161108f90614518565b60405180910390fd5b6110a1836127a6565b6110e0576040517f08c379a00000000000000000000000000000000000000000000000000000000081526004016110d7906146d8565b60405180910390fd5b600260008473ffffffffffffffffffffffffffffffffffffffff1673ffffffffffffffffffffffffffffffffffffffff16815260200190815260200160002060008373ffffffffffffffffffffffffffffffffffffffff1673ffffffffffffffffffffffffffffffffffffffff16815260200190815260200160002060009054906101000a900460ff16611177576000905061117c565b600190505b92915050565b60026020528160005260406000206020528060005260406000206000915091509054906101000a900460ff1681565b6000600160009054906101000a900473ffffffffffffffffffffffffffffffffffffffff1673ffffffffffffffffffffffffffffffffffffffff163373ffffffffffffffffffffffffffffffffffffffff1614611243576040517f08c379a000000000000000000000000000000000000000000000000000000000815260040161123a90614518565b60405180910390fd5b61124c836127a6565b61128b576040517f08c379a000000000000000000000000000000000000000000000000000000000815260040161128290614538565b60405180910390fd5b6112958383611006565b6112d4576040517f08c379a00000000000000000000000000000000000000000000000000000000081526004016112cb90614458565b60405180910390fd5b6112de838361159e565b1561131e576040517f08c379a000000000000000000000000000000000000000000000000000000000815260040161131590614558565b60405180910390fd5b6000600260008573ffffffffffffffffffffffffffffffffffffffff1673ffffffffffffffffffffffffffffffffffffffff16815260200190815260200160002060008473ffffffffffffffffffffffffffffffffffffffff1673ffffffffffffffffffffffffffffffffffffffff16815260200190815260200160002060006101000a81548160ff0219169083151502179055506000600260008473ffffffffffffffffffffffffffffffffffffffff1673ffffffffffffffffffffffffffffffffffffffff16815260200190815260200160002060008573ffffffffffffffffffffffffffffffffffffffff1673ffffffffffffffffffffffffffffffffffffffff16815260200190815260200160002060006101000a81548160ff0219169083151502179055506001600360008573ffffffffffffffffffffffffffffffffffffffff1673ffffffffffffffffffffffffffffffffffffffff16815260200190815260200160002060008473ffffffffffffffffffffffffffffffffffffffff1673ffffffffffffffffffffffffffffffffffffffff16815260200190815260200160002060006101000a81548160ff0219169083151502179055506001600360008473ffffffffffffffffffffffffffffffffffffffff1673ffffffffffffffffffffffffffffffffffffffff16815260200190815260200160002060008573ffffffffffffffffffffffffffffffffffffffff1673ffffffffffffffffffffffffffffffffffffffff16815260200190815260200160002060006101000a81548160ff02191690831515021790555092915050565b600160009054906101000a900473ffffffffffffffffffffffffffffffffffffffff1681565b6000600160009054906101000a900473ffffffffffffffffffffffffffffffffffffffff1673ffffffffffffffffffffffffffffffffffffffff163373ffffffffffffffffffffffffffffffffffffffff1614611630576040517f08c379a000000000000000000000000000000000000000000000000000000000815260040161162790614518565b60405180910390fd5b60011515600360008473ffffffffffffffffffffffffffffffffffffffff1673ffffffffffffffffffffffffffffffffffffffff16815260200190815260200160002060008573ffffffffffffffffffffffffffffffffffffffff1673ffffffffffffffffffffffffffffffffffffffff16815260200190815260200160002060009054906101000a900460ff16151514801561175a575060011515600360008573ffffffffffffffffffffffffffffffffffffffff1673ffffffffffffffffffffffffffffffffffffffff16815260200190815260200160002060008473ffffffffffffffffffffffffffffffffffffffff1673ffffffffffffffffffffffffffffffffffffffff16815260200190815260200160002060009054906101000a900460ff161515145b905092915050565b60036020528160005260406000206020528060005260406000206000915091509054906101000a900460ff1681565b6000600160009054906101000a900473ffffffffffffffffffffffffffffffffffffffff1673ffffffffffffffffffffffffffffffffffffffff163373ffffffffffffffffffffffffffffffffffffffff1614611823576040517f08c379a000000000000000000000000000000000000000000000000000000000815260040161181a90614518565b60405180910390fd5b61182c836127a6565b61186b576040517f08c379a0000000000000000000000000000000000000000000000000000000008152600401611862906144f8565b60405180910390fd5b600260008373ffffffffffffffffffffffffffffffffffffffff1673ffffffffffffffffffffffffffffffffffffffff16815260200190815260200160002060008473ffffffffffffffffffffffffffffffffffffffff1673ffffffffffffffffffffffffffffffffffffffff16815260200190815260200160002060009054906101000a900460ff166119025760009050611907565b600190505b92915050565b600080825111611952576040517f08c379a000000000000000000000000000000000000000000000000000000000815260040161194990614638565b60405180910390fd5b600073ffffffffffffffffffffffffffffffffffffffff1660048360405161197a91906142f1565b908152602001604051809103902060009054906101000a900473ffffffffffffffffffffffffffffffffffffffff1673ffffffffffffffffffffffffffffffffffffffff1614159050919050565b600160009054906101000a900473ffffffffffffffffffffffffffffffffffffffff1673ffffffffffffffffffffffffffffffffffffffff163373ffffffffffffffffffffffffffffffffffffffff1614611a58576040517f08c379a0000000000000000000000000000000000000000000000000000000008152600401611a4f90614518565b60405180910390fd5b611a61816127a6565b15611aa1576040517f08c379a0000000000000000000000000000000000000000000000000000000008152600401611a98906145f8565b60405180910390fd5b611aaa8261190d565b15611aea576040517f08c379a0000000000000000000000000000000000000000000000000000000008152600401611ae190614438565b60405180910390fd5b6000825111611b2e576040517f08c379a0000000000000000000000000000000000000000000000000000000008152600401611b25906146b8565b60405180910390fd5b6040518061014001604052808273ffffffffffffffffffffffffffffffffffffffff1681526020018381526020016040518060200160405280600081525081526020016040518060200160405280600081525081526020016040518060200160405280600081525081526020016000815260200160008152602001600060ff16815260200142815260200142815250600560008373ffffffffffffffffffffffffffffffffffffffff1673ffffffffffffffffffffffffffffffffffffffff16815260200190815260200160002060008201518160000160006101000a81548173ffffffffffffffffffffffffffffffffffffffff021916908373ffffffffffffffffffffffffffffffffffffffff1602179055506020820151816001019080519060200190611c5f9291906133ae565b506040820151816002019080519060200190611c7c9291906133ae565b506060820151816003019080519060200190611c999291906133ae565b506080820151816004019080519060200190611cb69291906133ae565b5060a0820151816005015560c0820151816006015560e08201518160070160006101000a81548160ff021916908360ff1602179055506101008201518160080155610120820151816009015590505080600483604051611d1691906142f1565b908152602001604051809103902060006101000a81548173ffffffffffffffffffffffffffffffffffffffff021916908373ffffffffffffffffffffffffffffffffffffffff16021790555060008081548092919060010191905055505050565b6000600160009054906101000a900473ffffffffffffffffffffffffffffffffffffffff1673ffffffffffffffffffffffffffffffffffffffff163373ffffffffffffffffffffffffffffffffffffffff1614611e09576040517f08c379a0000000000000000000000000000000000000000000000000000000008152600401611e0090614518565b60405180910390fd5b611e12836127a6565b611e51576040517f08c379a0000000000000000000000000000000000000000000000000000000008152600401611e4890614718565b60405180910390fd5b611e5b8383611791565b15611e9b576040517f08c379a0000000000000000000000000000000000000000000000000000000008152600401611e9290614418565b60405180910390fd5b611ea5838361159e565b15611ee5576040517f08c379a0000000000000000000000000000000000000000000000000000000008152600401611edc90614738565b60405180910390fd5b611eef8383611006565b611f8d576001600260008473ffffffffffffffffffffffffffffffffffffffff1673ffffffffffffffffffffffffffffffffffffffff16815260200190815260200160002060008573ffffffffffffffffffffffffffffffffffffffff1673ffffffffffffffffffffffffffffffffffffffff16815260200190815260200160002060006101000a81548160ff0219169083151502179055506120b8565b6001600360008573ffffffffffffffffffffffffffffffffffffffff1673ffffffffffffffffffffffffffffffffffffffff16815260200190815260200160002060008473ffffffffffffffffffffffffffffffffffffffff1673ffffffffffffffffffffffffffffffffffffffff16815260200190815260200160002060006101000a81548160ff0219169083151502179055506001600360008473ffffffffffffffffffffffffffffffffffffffff1673ffffffffffffffffffffffffffffffffffffffff16815260200190815260200160002060008573ffffffffffffffffffffffffffffffffffffffff1673ffffffffffffffffffffffffffffffffffffffff16815260200190815260200160002060006101000a81548160ff0219169083151502179055505b92915050565b6000600160009054906101000a900473ffffffffffffffffffffffffffffffffffffffff1673ffffffffffffffffffffffffffffffffffffffff163373ffffffffffffffffffffffffffffffffffffffff1614612150576040517f08c379a000000000000000000000000000000000000000000000000000000000815260040161214790614518565b60405180910390fd5b612159836127a6565b612198576040517f08c379a000000000000000000000000000000000000000000000000000000000815260040161218f906146f8565b60405180910390fd5b6121a28383611006565b6121e1576040517f08c379a00000000000000000000000000000000000000000000000000000000081526004016121d890614498565b60405180910390fd5b6121eb838361159e565b1561222b576040517f08c379a0000000000000000000000000000000000000000000000000000000008152600401612222906144d8565b60405180910390fd5b6000600260008573ffffffffffffffffffffffffffffffffffffffff1673ffffffffffffffffffffffffffffffffffffffff16815260200190815260200160002060008473ffffffffffffffffffffffffffffffffffffffff1673ffffffffffffffffffffffffffffffffffffffff16815260200190815260200160002060006101000a81548160ff0219169083151502179055506000600260008473ffffffffffffffffffffffffffffffffffffffff1673ffffffffffffffffffffffffffffffffffffffff16815260200190815260200160002060008573ffffffffffffffffffffffffffffffffffffffff1673ffffffffffffffffffffffffffffffffffffffff16815260200190815260200160002060006101000a81548160ff0219169083151502179055506001905092915050565b6000600160009054906101000a900473ffffffffffffffffffffffffffffffffffffffff1673ffffffffffffffffffffffffffffffffffffffff163373ffffffffffffffffffffffffffffffffffffffff16146123f1576040517f08c379a00000000000000000000000000000000000000000000000000000000081526004016123e890614518565b60405180910390fd5b6123fa836127a6565b612439576040517f08c379a0000000000000000000000000000000000000000000000000000000008152600401612430906144b8565b60405180910390fd5b612443838361159e565b612482576040517f08c379a0000000000000000000000000000000000000000000000000000000008152600401612479906145d8565b60405180910390fd5b6000600360008573ffffffffffffffffffffffffffffffffffffffff1673ffffffffffffffffffffffffffffffffffffffff16815260200190815260200160002060008473ffffffffffffffffffffffffffffffffffffffff1673ffffffffffffffffffffffffffffffffffffffff16815260200190815260200160002060006101000a81548160ff0219169083151502179055506000600360008473ffffffffffffffffffffffffffffffffffffffff1673ffffffffffffffffffffffffffffffffffffffff16815260200190815260200160002060008573ffffffffffffffffffffffffffffffffffffffff1673ffffffffffffffffffffffffffffffffffffffff16815260200190815260200160002060006101000a81548160ff0219169083151502179055506001905092915050565b60008073ffffffffffffffffffffffffffffffffffffffff16600560008473ffffffffffffffffffffffffffffffffffffffff1673ffffffffffffffffffffffffffffffffffffffff16815260200190815260200160002060000160009054906101000a900473ffffffffffffffffffffffffffffffffffffffff1673ffffffffffffffffffffffffffffffffffffffff16149050919050565b600060608060608060008060008060006126698b61190d565b6126a8576040517f08c379a000000000000000000000000000000000000000000000000000000000815260040161269f90614658565b60405180910390fd5b6126ef60048c6040516126bb91906142f1565b908152602001604051809103902060009054906101000a900473ffffffffffffffffffffffffffffffffffffffff16612f10565b99509950995099509950995099509950995099509193959799509193959799565b600061271b8261190d565b61275a576040517f08c379a000000000000000000000000000000000000000000000000000000000815260040161275190614658565b60405180910390fd5b600060048360405161276c91906142f1565b908152602001604051809103902060009054906101000a900473ffffffffffffffffffffffffffffffffffffffff16905080915050919050565b60008073ffffffffffffffffffffffffffffffffffffffff16600560008473ffffffffffffffffffffffffffffffffffffffff1673ffffffffffffffffffffffffffffffffffffffff16815260200190815260200160002060000160009054906101000a900473ffffffffffffffffffffffffffffffffffffffff1673ffffffffffffffffffffffffffffffffffffffff1614159050919050565b60005481565b60006060806060806000806000806000600160009054906101000a900473ffffffffffffffffffffffffffffffffffffffff1673ffffffffffffffffffffffffffffffffffffffff163373ffffffffffffffffffffffffffffffffffffffff16146128e7576040517f08c379a00000000000000000000000000000000000000000000000000000000081526004016128de90614518565b60405180910390fd5b6128f08b6127a6565b61292f576040517f08c379a000000000000000000000000000000000000000000000000000000000815260040161292690614678565b60405180910390fd5b60008c5111612973576040517f08c379a000000000000000000000000000000000000000000000000000000000815260040161296a90614598565b60405180910390fd5b61297b613342565b600560008d73ffffffffffffffffffffffffffffffffffffffff1673ffffffffffffffffffffffffffffffffffffffff168152602001908152602001600020604051806101400160405290816000820160009054906101000a900473ffffffffffffffffffffffffffffffffffffffff1673ffffffffffffffffffffffffffffffffffffffff1673ffffffffffffffffffffffffffffffffffffffff168152602001600182018054600181600116156101000203166002900480601f016020809104026020016040519081016040528092919081815260200182805460018160011615610100020316600290048015612ab55780601f10612a8a57610100808354040283529160200191612ab5565b820191906000526020600020905b815481529060010190602001808311612a9857829003601f168201915b50505050508152602001600282018054600181600116156101000203166002900480601f016020809104026020016040519081016040528092919081815260200182805460018160011615610100020316600290048015612b575780601f10612b2c57610100808354040283529160200191612b57565b820191906000526020600020905b815481529060010190602001808311612b3a57829003601f168201915b50505050508152602001600382018054600181600116156101000203166002900480601f016020809104026020016040519081016040528092919081815260200182805460018160011615610100020316600290048015612bf95780601f10612bce57610100808354040283529160200191612bf9565b820191906000526020600020905b815481529060010190602001808311612bdc57829003601f168201915b50505050508152602001600482018054600181600116156101000203166002900480601f016020809104026020016040519081016040528092919081815260200182805460018160011615610100020316600290048015612c9b5780601f10612c7057610100808354040283529160200191612c9b565b820191906000526020600020905b815481529060010190602001808311612c7e57829003601f168201915b5050505050815260200160058201548152602001600682015481526020016007820160009054906101000a900460ff1660ff1660ff168152602001600882015481526020016009820154815250509050604051806101400160405280826000015173ffffffffffffffffffffffffffffffffffffffff16815260200182602001518152602001826040015181526020018e8152602001826080015181526020018260a0015181526020018260c0015181526020018260e0015160ff168152602001428152602001826101200151815250600560008e73ffffffffffffffffffffffffffffffffffffffff1673ffffffffffffffffffffffffffffffffffffffff16815260200190815260200160002060008201518160000160006101000a81548173ffffffffffffffffffffffffffffffffffffffff021916908373ffffffffffffffffffffffffffffffffffffffff1602179055506020820151816001019080519060200190612e0d9291906133ae565b506040820151816002019080519060200190612e2a9291906133ae565b506060820151816003019080519060200190612e479291906133ae565b506080820151816004019080519060200190612e649291906133ae565b5060a0820151816005015560c0820151816006015560e08201518160070160006101000a81548160ff021916908360ff160217905550610100820151816008015561012082015181600901559050508060000151816020015182604001518f84608001518560a001518660c001518760e001518861010001518961012001518898508797508595509a509a509a509a509a509a509a509a509a509a50509295989b9194979a5092959850565b60006060806060806000806000806000612f298b6127a6565b612f68576040517f08c379a0000000000000000000000000000000000000000000000000000000008152600401612f5f90614478565b60405180910390fd5b612f70613342565b600560008d73ffffffffffffffffffffffffffffffffffffffff1673ffffffffffffffffffffffffffffffffffffffff168152602001908152602001600020604051806101400160405290816000820160009054906101000a900473ffffffffffffffffffffffffffffffffffffffff1673ffffffffffffffffffffffffffffffffffffffff1673ffffffffffffffffffffffffffffffffffffffff168152602001600182018054600181600116156101000203166002900480601f0160208091040260200160405190810160405280929190818152602001828054600181600116156101000203166002900480156130aa5780601f1061307f576101008083540402835291602001916130aa565b820191906000526020600020905b81548152906001019060200180831161308d57829003601f168201915b50505050508152602001600282018054600181600116156101000203166002900480601f01602080910402602001604051908101604052809291908181526020018280546001816001161561010002031660029004801561314c5780601f106131215761010080835404028352916020019161314c565b820191906000526020600020905b81548152906001019060200180831161312f57829003601f168201915b50505050508152602001600382018054600181600116156101000203166002900480601f0160208091040260200160405190810160405280929190818152602001828054600181600116156101000203166002900480156131ee5780601f106131c3576101008083540402835291602001916131ee565b820191906000526020600020905b8154815290600101906020018083116131d157829003601f168201915b50505050508152602001600482018054600181600116156101000203166002900480601f0160208091040260200160405190810160405280929190818152602001828054600181600116156101000203166002900480156132905780601f1061326557610100808354040283529160200191613290565b820191906000526020600020905b81548152906001019060200180831161327357829003601f168201915b5050505050815260200160058201548152602001600682015481526020016007820160009054906101000a900460ff1660ff1660ff168152602001600882015481526020016009820154815250509050806000015181602001518260400151836060015184608001518560a001518660c001518760e001518861010001518961012001518898508797508696508595509a509a509a509a509a509a509a509a509a509a50509193959799509193959799565b604051806101400160405280600073ffffffffffffffffffffffffffffffffffffffff168152602001606081526020016060815260200160608152602001606081526020016000815260200160008152602001600060ff16815260200160008152602001600081525090565b828054600181600116156101000203166002900490600052602060002090601f016020900481019282601f106133ef57805160ff191683800117855561341d565b8280016001018555821561341d579182015b8281111561341c578251825591602001919060010190613401565b5b50905061342a919061342e565b5090565b61345091905b8082111561344c576000816000905550600101613434565b5090565b90565b600061345f8235614848565b905092915050565b600082601f83011261347857600080fd5b813561348b613486826147a0565b614773565b915080825260208301602083018583830111156134a757600080fd5b6134b283828461487a565b50505092915050565b6000602082840312156134cd57600080fd5b60006134db84828501613453565b91505092915050565b600080604083850312156134f757600080fd5b600061350585828601613453565b925050602061351685828601613453565b9150509250929050565b60006020828403121561353257600080fd5b600082013567ffffffffffffffff81111561354c57600080fd5b61355884828501613467565b91505092915050565b6000806040838503121561357457600080fd5b600083013567ffffffffffffffff81111561358e57600080fd5b61359a85828601613467565b92505060206135ab85828601613453565b9150509250929050565b6135be816147f3565b82525050565b6135cd81614805565b82525050565b60006135de826147cc565b6135e881856147d7565b93506135f8818560208601614889565b613601816148bc565b840191505092915050565b6000613617826147cc565b61362181856147e8565b9350613631818560208601614889565b80840191505092915050565b600061364a604e836147d7565b91507f536f636965747930783a3a637265617465436f6e6e656374696f6e526571756560008301527f73743a204f7574676f696e6720436f6e6e656374696f6e20526571756573742060208301527f416c7265616479204578697374730000000000000000000000000000000000006040830152606082019050919050565b60006136d6601a836147d7565b91507f497320526567697374657265642050726f66696c65204e616d650000000000006000830152602082019050919050565b6000613716604e836147d7565b91507f536f636965747930783a3a616363657074436f6e6e656374696f6e526571756560008301527f73743a2050656e64696e6720496e636f6d696e6720436f6e6e656374696f6e2060208301527f446f6573204e6f742045786973740000000000000000000000000000000000006040830152606082019050919050565b60006137a26048836147d7565b91507f536f636965747930783a3a666574636850726f66696c6546726f6d416464726560008301527f73733a205f61646472657373206973206e6f742061207265676973746572656460208301527f20616464726573730000000000000000000000000000000000000000000000006040830152606082019050919050565b600061382e604f836147d7565b91507f536f636965747930783a3a6465636c696e65436f6e6e656374696f6e5265717560008301527f6573743a2050656e64696e6720496e636f6d696e6720436f6e6e656374696f6e60208301527f20446f6573204e6f7420457869737400000000000000000000000000000000006040830152606082019050919050565b60006138ba6059836147d7565b91507f536f636965747930783a3a7465726d696e617465436f6e6e656374696f6e3a2060008301527f5f7465726d696e617465436f6e6e656374696f6e546f4164647265737320697360208301527f206e6f74206120726567697374657265642061646472657373000000000000006040830152606082019050919050565b6000613946604a836147d7565b91507f536f636965747930783a3a6465636c696e65436f6e6e656374696f6e5265717560008301527f6573743a2045737461626c697368656420436f6e6e656374696f6e20416c726560208301527f61647920457869737473000000000000000000000000000000000000000000006040830152606082019050919050565b60006139d2604f836147d7565b91507f536f636965747930783a3a697350656e64696e674f7574676f696e67436f6e6e60008301527f656374696f6e3a205f6f7574676f696e67436865636b4164647265737320697360208301527f206e6f74207265676973746572656400000000000000000000000000000000006040830152606082019050919050565b6000613a5e6048836147d7565b91507f536f63696574793078506572736f6e613a3a697343616c6c65644279536f636960008301527f65747930783a204f6e6c7920736f636965747930782063616e2063616c6c207460208301527f6869732066756e630000000000000000000000000000000000000000000000006040830152606082019050919050565b6000613aea605d836147d7565b91507f536f636965747930783a3a616363657074436f6e6e656374696f6e526571756560008301527f73743a205f72657175657374436f6e6e656374696f6e46726f6d41646472657360208301527f73206973206e6f742061207265676973746572656420616464726573730000006040830152606082019050919050565b6000613b766049836147d7565b91507f536f636965747930783a3a616363657074436f6e6e656374696f6e526571756560008301527f73743a2045737461626c697368656420436f6e6e656374696f6e20416c72656160208301527f64792045786973747300000000000000000000000000000000000000000000006040830152606082019050919050565b6000613c026024836147d7565b91507f5f70726f66696c65506963747572654970667348617368204e6f742050726f7660008301527f69646564000000000000000000000000000000000000000000000000000000006020830152604082019050919050565b6000613c686022836147d7565b91507f5f636f766572506963747572654970667348617368204e6f742050726f76696460008301527f65640000000000000000000000000000000000000000000000000000000000006020830152604082019050919050565b6000613cce6051836147d7565b91507f536f636965747930783a3a63616e63656c4f7574676f696e67436f6e6e65637460008301527f696f6e526571756573743a2045737461626c697368656420436f6e6e6563746960208301527f6f6e20416c7265616479204578697374730000000000000000000000000000006040830152606082019050919050565b6000613d5a604d836147d7565b91507f536f636965747930783a3a7465726d696e617465436f6e6e656374696f6e3a2060008301527f436f6e6e656374696f6e204973204e6f742045737461626c697368656420466f60208301527f72205465726d696e6174696f6e000000000000000000000000000000000000006040830152606082019050919050565b6000613de66015836147d7565b91507f49732052656769737465726564204164647265737300000000000000000000006000830152602082019050919050565b6000613e266056836147d7565b91507f536f636965747930783a3a63616e63656c4f7574676f696e67436f6e6e65637460008301527f696f6e526571756573743a2050656e64696e67204f7574676f696e6720436f6e60208301527f6e656374696f6e20446f6573204e6f74204578697374000000000000000000006040830152606082019050919050565b6000613eb26027836147d7565b91507f50726f66696c65204e616d6520526571756972656420427574204e6f7420507260008301527f6f76696465642e000000000000000000000000000000000000000000000000006020830152604082019050919050565b6000613f18601e836147d7565b91507f4973204e6f7420526567697374657265642050726f66696c65204e616d6500006000830152602082019050919050565b6000613f586019836147d7565b91507f4973204e6f7420526567697374657265642041646472657373000000000000006000830152602082019050919050565b6000613f986061836147d7565b91507f536f636965747930783a3a63616e63656c4f7574676f696e67436f6e6e65637460008301527f696f6e526571756573743a5f63616e63656c436f6e6e656374696f6e546f416460208301527f6472657373206973206e6f74206120726567697374657265642061646472657360408301527f73000000000000000000000000000000000000000000000000000000000000006060830152608082019050919050565b600061404a6030836147d7565b91507f726567697374657250726f66696c653a2050726f66696c652050736575646f6e60008301527f796d204e6f742050726f76696465642e000000000000000000000000000000006020830152604082019050919050565b60006140b0604f836147d7565b91507f536f636965747930783a3a697350656e64696e67496e636f6d696e67436f6e6e60008301527f656374696f6e3a205f696e636f6d696e67436865636b4164647265737320697360208301527f206e6f74207265676973746572656400000000000000000000000000000000006040830152606082019050919050565b600061413c605e836147d7565b91507f536f636965747930783a3a6465636c696e65436f6e6e656374696f6e5265717560008301527f6573743a205f6465636c696e65436f6e6e656374696f6e46726f6d416464726560208301527f7373206973206e6f7420612072656769737465726564206164647265737300006040830152606082019050919050565b60006141c8605d836147d7565b91507f536f636965747930783a3a637265617465436f6e6e656374696f6e526571756560008301527f73743a205f72657175657374436f6e6e656374696f6e46726f6d41646472657360208301527f73206973206e6f742061207265676973746572656420616464726573730000006040830152606082019050919050565b60006142546049836147d7565b91507f536f636965747930783a3a637265617465436f6e6e656374696f6e526571756560008301527f73743a2045737461626c697368656420436f6e6e656374696f6e20416c72656160208301527f64792045786973747300000000000000000000000000000000000000000000006040830152606082019050919050565b6142dc81614831565b82525050565b6142eb8161483b565b82525050565b60006142fd828461360c565b915081905092915050565b600060208201905061431d60008301846135b5565b92915050565b600061014082019050614339600083018d6135b5565b818103602083015261434b818c6135d3565b9050818103604083015261435f818b6135d3565b90508181036060830152614373818a6135d3565b9050818103608083015261438781896135d3565b905061439660a08301886142d3565b6143a360c08301876142d3565b6143b060e08301866142e2565b6143be6101008301856142d3565b6143cc6101208301846142d3565b9b9a5050505050505050505050565b60006020820190506143f060008301846135c4565b92915050565b6000602082019050818103600083015261441081846135d3565b905092915050565b600060208201905081810360008301526144318161363d565b9050919050565b60006020820190508181036000830152614451816136c9565b9050919050565b6000602082019050818103600083015261447181613709565b9050919050565b6000602082019050818103600083015261449181613795565b9050919050565b600060208201905081810360008301526144b181613821565b9050919050565b600060208201905081810360008301526144d1816138ad565b9050919050565b600060208201905081810360008301526144f181613939565b9050919050565b60006020820190508181036000830152614511816139c5565b9050919050565b6000602082019050818103600083015261453181613a51565b9050919050565b6000602082019050818103600083015261455181613add565b9050919050565b6000602082019050818103600083015261457181613b69565b9050919050565b6000602082019050818103600083015261459181613bf5565b9050919050565b600060208201905081810360008301526145b181613c5b565b9050919050565b600060208201905081810360008301526145d181613cc1565b9050919050565b600060208201905081810360008301526145f181613d4d565b9050919050565b6000602082019050818103600083015261461181613dd9565b9050919050565b6000602082019050818103600083015261463181613e19565b9050919050565b6000602082019050818103600083015261465181613ea5565b9050919050565b6000602082019050818103600083015261467181613f0b565b9050919050565b6000602082019050818103600083015261469181613f4b565b9050919050565b600060208201905081810360008301526146b181613f8b565b9050919050565b600060208201905081810360008301526146d18161403d565b9050919050565b600060208201905081810360008301526146f1816140a3565b9050919050565b600060208201905081810360008301526147118161412f565b9050919050565b60006020820190508181036000830152614731816141bb565b9050919050565b6000602082019050818103600083015261475181614247565b9050919050565b600060208201905061476d60008301846142d3565b92915050565b6000604051905081810181811067ffffffffffffffff8211171561479657600080fd5b8060405250919050565b600067ffffffffffffffff8211156147b757600080fd5b601f19601f8301169050602081019050919050565b600081519050919050565b600082825260208201905092915050565b600081905092915050565b60006147fe82614811565b9050919050565b60008115159050919050565b600073ffffffffffffffffffffffffffffffffffffffff82169050919050565b6000819050919050565b600060ff82169050919050565b60006148538261485a565b9050919050565b600073ffffffffffffffffffffffffffffffffffffffff82169050919050565b82818337600083830152505050565b60005b838110156148a757808201518184015260208101905061488c565b838111156148b6576000848401525b50505050565b6000601f19601f830116905091905056fea265627a7a72305820cf25d02bbfc58f355ff5e0b504ce2614cb1798e78c398cb455c88c4c7549cde26c6578706572696d656e74616cf50037",
  "source": "pragma solidity 0.5.7;\npragma experimental ABIEncoderV2;\n\nimport { IERC20 } from \"openzeppelin-solidity/contracts/token/ERC20/IERC20.sol\";\n\ncontract Society0xPersona {\n\n    struct Profile {\n        address id;\n        string pseudonym;\n        string profilePictureIpfsHash;\n        string coverPictureIpfsHash;\n        string profileMetaData;\n        uint256 signalReceived;\n        uint256 signalGiven;\n        uint8 accountMode;\n        uint256 updatedTimestamp;\n        uint256 createdTimestamp;\n    }\n\n    uint public profileCount;\n    address public society0x;\n    mapping (address => mapping(address => bool)) public pendingConnections;\n    mapping (address => mapping(address => bool)) public connections;\n    mapping (string => address) private profileNameToAddress;\n    mapping (address => Profile) private addressToProfile;\n\n    constructor(address _society0x) public {\n        society0x = _society0x;\n    }\n\n    modifier isCalledBySociety0x {\n        require(\n            msg.sender == society0x,\n            \"Society0xPersona::isCalledBySociety0x: Only society0x can call this func\"\n        );\n        _;\n    }\n\n    function registerProfile(\n        string memory _profileName,\n        address _originalMsgSender\n    ) public isCalledBySociety0x {\n        require(\n            !isRegisteredAddress(_originalMsgSender),\n            \"Is Registered Address\"\n        );\n        require(\n            !isRegisteredName(_profileName),\n            \"Is Registered Profile Name\"\n        );\n        require(\n            (bytes(_profileName).length > 0),\n            \"registerProfile: Profile Pseudonym Not Provided.\"\n        );\n\n        addressToProfile[_originalMsgSender] = Profile(\n            _originalMsgSender,\n            _profileName,\n            \"\",\n            \"\",\n            \"\",\n            0,\n            0,\n            0,\n            block.timestamp,\n            block.timestamp\n        );\n\n        profileNameToAddress[_profileName] = _originalMsgSender;\n        profileCount++;\n    }\n\n    function editProfileImage(\n        string memory _profilePictureIpfsHash,\n        address _originalMsgSender\n    ) public isCalledBySociety0x returns(\n        address,\n        string memory,\n        string memory,\n        string memory,\n        string memory,\n        uint256,\n        uint256,\n        uint8,\n        uint256,\n        uint256\n    ) {\n        require(\n            isRegisteredAddress(_originalMsgSender),\n            \"Is Not Registered Address\"\n        );\n        require(\n            bytes(_profilePictureIpfsHash).length > 0,\n            \"_profilePictureIpfsHash Not Provided\"\n        );\n        Profile memory c = addressToProfile[_originalMsgSender];\n        addressToProfile[_originalMsgSender] = Profile(\n            c.id,\n            c.pseudonym,\n            _profilePictureIpfsHash,\n            c.coverPictureIpfsHash,\n            c.profileMetaData,\n            c.signalReceived,\n            c.signalGiven,\n            c.accountMode,\n            block.timestamp,\n            c.createdTimestamp\n        );\n        return (\n            c.id,\n            c.pseudonym,\n            _profilePictureIpfsHash,\n            c.coverPictureIpfsHash,\n            c.profileMetaData,\n            c.signalReceived,\n            c.signalGiven,\n            c.accountMode,\n            c.updatedTimestamp,\n            c.createdTimestamp\n        );\n    }\n\n    function editCoverImage(\n        string memory _coverPictureIpfsHash,\n        address _originalMsgSender\n    ) public isCalledBySociety0x returns(\n        address,\n        string memory,\n        string memory,\n        string memory,\n        string memory,\n        uint256,\n        uint256,\n        uint8,\n        uint256,\n        uint256\n    ) {\n        require(\n            isRegisteredAddress(_originalMsgSender),\n            \"Is Not Registered Address\"\n        );\n        require(\n            bytes(_coverPictureIpfsHash).length > 0,\n            \"_coverPictureIpfsHash Not Provided\"\n        );\n        Profile memory c = addressToProfile[_originalMsgSender];\n        addressToProfile[_originalMsgSender] = Profile(\n            c.id,\n            c.pseudonym,\n            c.profilePictureIpfsHash,\n            _coverPictureIpfsHash,\n            c.profileMetaData,\n            c.signalReceived,\n            c.signalGiven,\n            c.accountMode,\n            block.timestamp,\n            c.createdTimestamp\n        );\n        return (\n            c.id,\n            c.pseudonym,\n            c.profilePictureIpfsHash,\n            _coverPictureIpfsHash,\n            c.profileMetaData,\n            c.signalReceived,\n            c.signalGiven,\n            c.accountMode,\n            c.updatedTimestamp,\n            c.createdTimestamp\n        );\n    }\n\n    function fetchProfileNameFromAddress(address _address) public view returns(string memory) {\n        require(\n            isRegisteredAddress(_address),\n            \"Is Not Registered Address\"\n        );\n        return addressToProfile[_address].pseudonym;\n    }\n\n    function fetchProfileFromAddress(address _address) public view returns(\n        address,\n        string memory,\n        string memory,\n        string memory,\n        string memory,\n        uint256,\n        uint256,\n        uint8,\n        uint256,\n        uint256\n    ) {\n        require(\n            isRegisteredAddress(_address),\n            \"Society0x::fetchProfileFromAddress: _address is not a registered address\"\n        );\n        Profile memory c = addressToProfile[_address];\n        return (\n            c.id,\n            c.pseudonym,\n            c.profilePictureIpfsHash,\n            c.coverPictureIpfsHash,\n            c.profileMetaData,\n            c.signalReceived,\n            c.signalGiven,\n            c.accountMode,\n            c.updatedTimestamp,\n            c.createdTimestamp\n        );\n    }\n\n    function createConnectionRequest(\n        address _requestConnectionFromAddress,\n        address _originalMsgSender\n    ) public isCalledBySociety0x returns (bool) {\n        require(\n            isRegisteredAddress(_requestConnectionFromAddress),\n            \"Society0x::createConnectionRequest: _requestConnectionFromAddress is not a registered address\"\n        );\n        require(\n            !isPendingOutgoingConnection(_requestConnectionFromAddress, _originalMsgSender),\n            \"Society0x::createConnectionRequest: Outgoing Connection Request Already Exists\"\n        );\n        require(\n            !isEstablishedConnection(_requestConnectionFromAddress, _originalMsgSender),\n            \"Society0x::createConnectionRequest: Established Connection Already Exists\"\n        );\n        if(!isPendingIncomingConnection(_requestConnectionFromAddress, _originalMsgSender)){\n            pendingConnections[_originalMsgSender][_requestConnectionFromAddress] = true;\n        }else{\n            connections[_requestConnectionFromAddress][_originalMsgSender] = true;\n            connections[_originalMsgSender][_requestConnectionFromAddress] = true;\n        }\n    }\n\n    function acceptConnectionRequest(\n        address _acceptConnectionFromAddress,\n        address _originalMsgSender\n    ) public isCalledBySociety0x returns (bool) {\n        require(\n            isRegisteredAddress(_acceptConnectionFromAddress),\n            \"Society0x::acceptConnectionRequest: _requestConnectionFromAddress is not a registered address\"\n        );\n        require(\n            isPendingIncomingConnection(_acceptConnectionFromAddress, _originalMsgSender),\n            \"Society0x::acceptConnectionRequest: Pending Incoming Connection Does Not Exist\"\n        );\n        require(\n            !isEstablishedConnection(_acceptConnectionFromAddress, _originalMsgSender),\n            \"Society0x::acceptConnectionRequest: Established Connection Already Exists\"\n        );\n        pendingConnections[_acceptConnectionFromAddress][_originalMsgSender] = false;\n        pendingConnections[_originalMsgSender][_acceptConnectionFromAddress] = false;\n        connections[_acceptConnectionFromAddress][_originalMsgSender] = true;\n        connections[_originalMsgSender][_acceptConnectionFromAddress] = true;\n    }\n\n    function cancelOutgoingConnectionRequest(\n        address _cancelConnectionToAddress,\n        address _originalMsgSender\n    ) public isCalledBySociety0x returns (bool) {\n        require(\n            isRegisteredAddress(_cancelConnectionToAddress),\n            \"Society0x::cancelOutgoingConnectionRequest:_cancelConnectionToAddress is not a registered address\"\n        );\n        require(\n            isPendingIncomingConnection(_originalMsgSender, _cancelConnectionToAddress),\n            \"Society0x::cancelOutgoingConnectionRequest: Pending Outgoing Connection Does Not Exist\"\n        );\n        require(\n            !isEstablishedConnection(_cancelConnectionToAddress, _originalMsgSender),\n            \"Society0x::cancelOutgoingConnectionRequest: Established Connection Already Exists\"\n        );\n        pendingConnections[_cancelConnectionToAddress][_originalMsgSender] = false;\n        pendingConnections[_originalMsgSender][_cancelConnectionToAddress] = false;\n        return true;\n    }\n\n    function declineConnectionRequest(\n        address _declineConnectionFromAddress,\n        address _originalMsgSender\n    ) public isCalledBySociety0x returns (bool) {\n        require(\n            isRegisteredAddress(_declineConnectionFromAddress),\n            \"Society0x::declineConnectionRequest: _declineConnectionFromAddress is not a registered address\"\n        );\n        require(\n            isPendingIncomingConnection(_declineConnectionFromAddress, _originalMsgSender),\n            \"Society0x::declineConnectionRequest: Pending Incoming Connection Does Not Exist\"\n        );\n        require(\n            !isEstablishedConnection(_declineConnectionFromAddress, _originalMsgSender),\n            \"Society0x::declineConnectionRequest: Established Connection Already Exists\"\n        );\n        pendingConnections[_declineConnectionFromAddress][_originalMsgSender] = false;\n        pendingConnections[_originalMsgSender][_declineConnectionFromAddress] = false;\n        return true;\n    }\n\n    function terminateConnection(\n        address _terminateConnectionToAddress,\n        address _originalMsgSender\n    ) public isCalledBySociety0x returns (bool) {\n        require(\n            isRegisteredAddress(_terminateConnectionToAddress),\n            \"Society0x::terminateConnection: _terminateConnectionToAddress is not a registered address\"\n        );\n        require(\n            isEstablishedConnection(_terminateConnectionToAddress, _originalMsgSender),\n            \"Society0x::terminateConnection: Connection Is Not Established For Termination\"\n        );\n        connections[_terminateConnectionToAddress][_originalMsgSender] = false;\n        connections[_originalMsgSender][_terminateConnectionToAddress] = false;\n        return true;\n    }\n\n    function isEstablishedConnection(\n        address _targetAddress,\n        address _originalMsgSender\n    ) public view isCalledBySociety0x returns (bool) {\n       return (connections[_originalMsgSender][_targetAddress] == true) && (connections[_targetAddress][_originalMsgSender] == true);\n    }\n\n    function isPendingIncomingConnection(\n        address _incomingCheckAddress,\n        address _originalMsgSender\n    ) public view isCalledBySociety0x returns (bool) {\n        require(\n            isRegisteredAddress(_incomingCheckAddress),\n            \"Society0x::isPendingIncomingConnection: _incomingCheckAddress is not registered\"\n        );\n        if(!pendingConnections[_incomingCheckAddress][_originalMsgSender]){\n            return false;\n        }else{\n            return true;\n        }\n    }\n\n    function isPendingOutgoingConnection(\n        address _outgoingCheckAddress,\n        address _originalMsgSender\n    ) public view isCalledBySociety0x returns (bool) {\n        require(\n            isRegisteredAddress(_outgoingCheckAddress),\n            \"Society0x::isPendingOutgoingConnection: _outgoingCheckAddress is not registered\"\n        );\n        if(!pendingConnections[_originalMsgSender][_outgoingCheckAddress]){\n            return false;\n        }else{\n            return true;\n        }\n    }\n\n    function fetchProfileFromProfileName(\n        string memory _profileName\n    ) public view returns(\n        address,\n        string memory,\n        string memory,\n        string memory,\n        string memory,\n        uint256,\n        uint256,\n        uint8,\n        uint256,\n        uint256\n    ) {\n        require(\n            isRegisteredName(_profileName),\n            \"Is Not Registered Profile Name\"\n        );\n        return fetchProfileFromAddress(profileNameToAddress[_profileName]);\n    }\n\n    function fetchAddressFromProfileName(string memory _profileName) public view returns(address) {\n        require(\n            isRegisteredName(_profileName),\n            \"Is Not Registered Profile Name\"\n        );\n        address _profileAddress = profileNameToAddress[_profileName];\n        return _profileAddress;\n    }\n\n    function isRegisteredAddress(address _address) public view returns(bool) {\n        return addressToProfile[_address].id != 0x0000000000000000000000000000000000000000;\n    }\n\n    function isNotRegisteredAddress(address _address) public view returns(bool) {\n        return addressToProfile[_address].id == 0x0000000000000000000000000000000000000000;\n    }\n\n    function isRegisteredName(string memory _profileName) public view returns(bool) {\n        require(\n            (bytes(_profileName).length > 0),\n            \"Profile Name Required But Not Provided.\"\n        );\n        return profileNameToAddress[_profileName] != 0x0000000000000000000000000000000000000000;\n    }\n\n}",
  "sourcePath": "/Users/jaywelsh/GitHub/society0x/ethereum/contracts/Society0xPersona.sol",
  "compiler": {
    "name": "solc",
    "version": "0.5.7+commit.6da8b019.Emscripten.clang"
  },
  "schemaVersion": "3.0.16",
  "updatedAt": "2020-01-04T19:22:41.187Z",
  "devdoc": {
    "methods": {}
  },
  "userdoc": {
    "methods": {}
  }
}