{
  "contractName": "TwitterHumanityApplicant",
  "abi": [
    {
      "constant": false,
      "inputs": [
        {
          "name": "who",
          "type": "address"
        }
      ],
      "name": "applyFor",
      "outputs": [
        {
          "name": "",
          "type": "uint256"
        }
      ],
      "payable": false,
      "stateMutability": "nonpayable",
      "type": "function"
    },
    {
      "constant": true,
      "inputs": [],
      "name": "humanity",
      "outputs": [
        {
          "name": "",
          "type": "address"
        }
      ],
      "payable": false,
      "stateMutability": "view",
      "type": "function"
    },
    {
      "constant": false,
      "inputs": [
        {
          "name": "who",
          "type": "address"
        }
      ],
      "name": "applyWithEtherFor",
      "outputs": [
        {
          "name": "",
          "type": "uint256"
        }
      ],
      "payable": true,
      "stateMutability": "payable",
      "type": "function"
    },
    {
      "constant": true,
      "inputs": [],
      "name": "governance",
      "outputs": [
        {
          "name": "",
          "type": "address"
        }
      ],
      "payable": false,
      "stateMutability": "view",
      "type": "function"
    },
    {
      "constant": true,
      "inputs": [],
      "name": "registry",
      "outputs": [
        {
          "name": "",
          "type": "address"
        }
      ],
      "payable": false,
      "stateMutability": "view",
      "type": "function"
    },
    {
      "constant": true,
      "inputs": [],
      "name": "exchange",
      "outputs": [
        {
          "name": "",
          "type": "address"
        }
      ],
      "payable": false,
      "stateMutability": "view",
      "type": "function"
    },
    {
      "inputs": [
        {
          "name": "_governance",
          "type": "address"
        },
        {
          "name": "_registry",
          "type": "address"
        },
        {
          "name": "_humanity",
          "type": "address"
        },
        {
          "name": "_exchange",
          "type": "address"
        }
      ],
      "payable": false,
      "stateMutability": "nonpayable",
      "type": "constructor"
    },
    {
      "payable": true,
      "stateMutability": "payable",
      "type": "fallback"
    },
    {
      "anonymous": false,
      "inputs": [
        {
          "indexed": true,
          "name": "proposalId",
          "type": "uint256"
        },
        {
          "indexed": true,
          "name": "applicant",
          "type": "address"
        },
        {
          "indexed": false,
          "name": "username",
          "type": "string"
        }
      ],
      "name": "Apply",
      "type": "event"
    },
    {
      "constant": false,
      "inputs": [
        {
          "name": "username",
          "type": "string"
        }
      ],
      "name": "applyWithTwitter",
      "outputs": [
        {
          "name": "",
          "type": "uint256"
        }
      ],
      "payable": false,
      "stateMutability": "nonpayable",
      "type": "function"
    },
    {
      "constant": false,
      "inputs": [
        {
          "name": "who",
          "type": "address"
        },
        {
          "name": "username",
          "type": "string"
        }
      ],
      "name": "applyWithTwitterFor",
      "outputs": [
        {
          "name": "",
          "type": "uint256"
        }
      ],
      "payable": false,
      "stateMutability": "nonpayable",
      "type": "function"
    },
    {
      "constant": false,
      "inputs": [
        {
          "name": "username",
          "type": "string"
        }
      ],
      "name": "applyWithTwitterUsingEther",
      "outputs": [
        {
          "name": "",
          "type": "uint256"
        }
      ],
      "payable": true,
      "stateMutability": "payable",
      "type": "function"
    },
    {
      "constant": false,
      "inputs": [
        {
          "name": "who",
          "type": "address"
        },
        {
          "name": "username",
          "type": "string"
        }
      ],
      "name": "applyWithTwitterUsingEtherFor",
      "outputs": [
        {
          "name": "",
          "type": "uint256"
        }
      ],
      "payable": true,
      "stateMutability": "payable",
      "type": "function"
    }
  ],
  "bytecode": "0x60806040523480156200001157600080fd5b50604051608080620016af8339810180604052620000339190810190620002fb565b83838383838383826000806101000a81548173ffffffffffffffffffffffffffffffffffffffff021916908373ffffffffffffffffffffffffffffffffffffffff16021790555081600160006101000a81548173ffffffffffffffffffffffffffffffffffffffff021916908373ffffffffffffffffffffffffffffffffffffffff16021790555080600260006101000a81548173ffffffffffffffffffffffffffffffffffffffff021916908373ffffffffffffffffffffffffffffffffffffffff160217905550600260009054906101000a900473ffffffffffffffffffffffffffffffffffffffff1673ffffffffffffffffffffffffffffffffffffffff1663095ea7b36000809054906101000a900473ffffffffffffffffffffffffffffffffffffffff167fffffffffffffffffffffffffffffffffffffffffffffffffffffffffffffffff6040518363ffffffff167c0100000000000000000000000000000000000000000000000000000000028152600401620001b892919062000389565b602060405180830381600087803b158015620001d357600080fd5b505af1158015620001e8573d6000803e3d6000fd5b505050506040513d601f19601f820116820180604052506200020e9190810190620002cf565b5050505080600360006101000a81548173ffffffffffffffffffffffffffffffffffffffff021916908373ffffffffffffffffffffffffffffffffffffffff160217905550505050505050505062000484565b60006200026f825162000408565b905092915050565b600062000285825162000414565b905092915050565b60006200029b825162000428565b905092915050565b6000620002b182516200043c565b905092915050565b6000620002c7825162000450565b905092915050565b600060208284031215620002e257600080fd5b6000620002f28482850162000261565b91505092915050565b600080600080608085870312156200031257600080fd5b600062000322878288016200028d565b94505060206200033587828801620002a3565b9350506040620003488782880162000277565b92505060606200035b87828801620002b9565b91505092959194509250565b6200037281620003b6565b82525050565b6200038381620003ea565b82525050565b6000604082019050620003a0600083018562000367565b620003af602083018462000378565b9392505050565b6000620003c382620003ca565b9050919050565b600073ffffffffffffffffffffffffffffffffffffffff82169050919050565b6000819050919050565b6000620004018262000464565b9050919050565b60008115159050919050565b60006200042182620003f4565b9050919050565b60006200043582620003f4565b9050919050565b60006200044982620003f4565b9050919050565b60006200045d82620003f4565b9050919050565b600073ffffffffffffffffffffffffffffffffffffffff82169050919050565b61121b80620004946000396000f3fe6080604052600436106100ae576000357c0100000000000000000000000000000000000000000000000000000000900480635aa6e675116100765780635aa6e675146101b55780637b103999146101e05780638a17611a1461020b578063d2f7265a1461023b578063f63a03a714610266576100ae565b80630b6e78b7146100b057806337ea0de2146100ed57806348e8681b1461012a57806349f81a201461015a57806351e6a9f514610185575b005b3480156100bc57600080fd5b506100d760048036036100d29190810190610ba9565b6102a3565b6040516100e49190610f6f565b60405180910390f35b3480156100f957600080fd5b50610114600480360361010f9190810190610b80565b61030a565b6040516101219190610f6f565b60405180910390f35b610144600480360361013f9190810190610ba9565b610785565b6040516101519190610f6f565b60405180910390f35b34801561016657600080fd5b5061016f6107ec565b60405161017c9190610ea1565b60405180910390f35b61019f600480360361019a9190810190610b80565b610812565b6040516101ac9190610f6f565b60405180910390f35b3480156101c157600080fd5b506101ca610a03565b6040516101d79190610ebc565b60405180910390f35b3480156101ec57600080fd5b506101f5610a28565b6040516102029190610ed7565b60405180910390f35b61022560048036036102209190810190610c26565b610a4e565b6040516102329190610f6f565b60405180910390f35b34801561024757600080fd5b50610250610a61565b60405161025d9190610ef2565b60405180910390f35b34801561027257600080fd5b5061028d60048036036102889190810190610c26565b610a87565b60405161029a9190610f6f565b60405180910390f35b6000806102af8461030a565b90508373ffffffffffffffffffffffffffffffffffffffff16817fa760eea069988dd86998d7cfc5e919ffbec5a4f878497ebe16c16bd2d7d79544856040516102f89190610f0d565b60405180910390a38091505092915050565b6000806000809054906101000a900473ffffffffffffffffffffffffffffffffffffffff1673ffffffffffffffffffffffffffffffffffffffff1663c27cabb56040518163ffffffff167c010000000000000000000000000000000000000000000000000000000002815260040160206040518083038186803b15801561039057600080fd5b505afa1580156103a4573d6000803e3d6000fd5b505050506040513d601f19601f820116820180604052506103c89190810190610c67565b90506000600260009054906101000a900473ffffffffffffffffffffffffffffffffffffffff1673ffffffffffffffffffffffffffffffffffffffff166370a08231306040518263ffffffff167c01000000000000000000000000000000000000000000000000000000000281526004016104439190610e11565b60206040518083038186803b15801561045b57600080fd5b505afa15801561046f573d6000803e3d6000fd5b505050506040513d601f19601f820116820180604052506104939190810190610c67565b9050808211156105bc57600260009054906101000a900473ffffffffffffffffffffffffffffffffffffffff1673ffffffffffffffffffffffffffffffffffffffff166323b872dd33306104f08587610a9a90919063ffffffff16565b6040518463ffffffff167c010000000000000000000000000000000000000000000000000000000002815260040161052a93929190610e6a565b602060405180830381600087803b15801561054457600080fd5b505af1158015610558573d6000803e3d6000fd5b505050506040513d601f19601f8201168201806040525061057c9190810190610bfd565b6105bb576040517f08c379a00000000000000000000000000000000000000000000000000000000081526004016105b290610f2f565b60405180910390fd5b5b6060600160009054906101000a900473ffffffffffffffffffffffffffffffffffffffff1673ffffffffffffffffffffffffffffffffffffffff16630a3b0a4f90507c0100000000000000000000000000000000000000000000000000000000028560405160240161062e9190610e11565b604051602081830303815290604052907bffffffffffffffffffffffffffffffffffffffffffffffffffffffff19166020820180517bffffffffffffffffffffffffffffffffffffffffffffffffffffffff838183161783525050505090506000809054906101000a900473ffffffffffffffffffffffffffffffffffffffff1673ffffffffffffffffffffffffffffffffffffffff1663e3c3b20033600160009054906101000a900473ffffffffffffffffffffffffffffffffffffffff16846040518463ffffffff167c010000000000000000000000000000000000000000000000000000000002815260040161072993929190610e2c565b602060405180830381600087803b15801561074357600080fd5b505af1158015610757573d6000803e3d6000fd5b505050506040513d601f19601f8201168201806040525061077b9190810190610c67565b9350505050919050565b60008061079184610812565b90508373ffffffffffffffffffffffffffffffffffffffff16817fa760eea069988dd86998d7cfc5e919ffbec5a4f878497ebe16c16bd2d7d79544856040516107da9190610f0d565b60405180910390a38091505092915050565b600260009054906101000a900473ffffffffffffffffffffffffffffffffffffffff1681565b6000806000809054906101000a900473ffffffffffffffffffffffffffffffffffffffff1673ffffffffffffffffffffffffffffffffffffffff1663c27cabb56040518163ffffffff167c010000000000000000000000000000000000000000000000000000000002815260040160206040518083038186803b15801561089857600080fd5b505afa1580156108ac573d6000803e3d6000fd5b505050506040513d601f19601f820116820180604052506108d09190810190610c67565b9050600360009054906101000a900473ffffffffffffffffffffffffffffffffffffffff1673ffffffffffffffffffffffffffffffffffffffff16636b1d4db73483426040518463ffffffff167c010000000000000000000000000000000000000000000000000000000002815260040161094c929190610f8a565b6020604051808303818588803b15801561096557600080fd5b505af1158015610979573d6000803e3d6000fd5b50505050506040513d601f19601f8201168201806040525061099e9190810190610c67565b5060006109aa8461030a565b90503373ffffffffffffffffffffffffffffffffffffffff166108fc3073ffffffffffffffffffffffffffffffffffffffff16319081150290604051600060405180830381858888f19350505050508092505050919050565b6000809054906101000a900473ffffffffffffffffffffffffffffffffffffffff1681565b600160009054906101000a900473ffffffffffffffffffffffffffffffffffffffff1681565b6000610a5a3383610785565b9050919050565b600360009054906101000a900473ffffffffffffffffffffffffffffffffffffffff1681565b6000610a9333836102a3565b9050919050565b600082821115610adf576040517f08c379a0000000000000000000000000000000000000000000000000000000008152600401610ad690610f4f565b60405180910390fd5b600082840390508091505092915050565b6000610afc8235611080565b905092915050565b6000610b108251611092565b905092915050565b600082601f830112610b2957600080fd5b8135610b3c610b3782610fe0565b610fb3565b91508082526020830160208301858383011115610b5857600080fd5b610b6383828461118e565b50505092915050565b6000610b7882516110be565b905092915050565b600060208284031215610b9257600080fd5b6000610ba084828501610af0565b91505092915050565b60008060408385031215610bbc57600080fd5b6000610bca85828601610af0565b925050602083013567ffffffffffffffff811115610be757600080fd5b610bf385828601610b18565b9150509250929050565b600060208284031215610c0f57600080fd5b6000610c1d84828501610b04565b91505092915050565b600060208284031215610c3857600080fd5b600082013567ffffffffffffffff811115610c5257600080fd5b610c5e84828501610b18565b91505092915050565b600060208284031215610c7957600080fd5b6000610c8784828501610b6c565b91505092915050565b610c99816110c8565b82525050565b610ca881611044565b82525050565b6000610cb98261100c565b610cc38185611022565b9350610cd381856020860161119d565b610cdc816111d0565b840191505092915050565b610cf0816110da565b82525050565b610cff816110fe565b82525050565b610d0e81611122565b82525050565b610d1d81611146565b82525050565b6000610d2e82611017565b610d388185611033565b9350610d4881856020860161119d565b610d51816111d0565b840191505092915050565b6000610d69602c83611033565b91507f48756d616e6974794170706c6963616e743a3a6170706c79466f723a2054726160008301527f6e73666572206661696c656400000000000000000000000000000000000000006020830152604082019050919050565b6000610dcf602083611033565b91507f536166654d6174683a3a7375623a20496e746567657220756e646572666c6f776000830152602082019050919050565b610e0b81611076565b82525050565b6000602082019050610e266000830184610c9f565b92915050565b6000606082019050610e416000830186610c90565b610e4e6020830185610c9f565b8181036040830152610e608184610cae565b9050949350505050565b6000606082019050610e7f6000830186610c90565b610e8c6020830185610c9f565b610e996040830184610e02565b949350505050565b6000602082019050610eb66000830184610ce7565b92915050565b6000602082019050610ed16000830184610cf6565b92915050565b6000602082019050610eec6000830184610d05565b92915050565b6000602082019050610f076000830184610d14565b92915050565b60006020820190508181036000830152610f278184610d23565b905092915050565b60006020820190508181036000830152610f4881610d5c565b9050919050565b60006020820190508181036000830152610f6881610dc2565b9050919050565b6000602082019050610f846000830184610e02565b92915050565b6000604082019050610f9f6000830185610e02565b610fac6020830184610e02565b9392505050565b6000604051905081810181811067ffffffffffffffff82111715610fd657600080fd5b8060405250919050565b600067ffffffffffffffff821115610ff757600080fd5b601f19601f8301169050602081019050919050565b600081519050919050565b600081519050919050565b600082825260208201905092915050565b600082825260208201905092915050565b600061104f82611056565b9050919050565b600073ffffffffffffffffffffffffffffffffffffffff82169050919050565b6000819050919050565b600061108b8261109e565b9050919050565b60008115159050919050565b600073ffffffffffffffffffffffffffffffffffffffff82169050919050565b6000819050919050565b60006110d38261116a565b9050919050565b60006110e5826110ec565b9050919050565b60006110f782611056565b9050919050565b600061110982611110565b9050919050565b600061111b82611056565b9050919050565b600061112d82611134565b9050919050565b600061113f82611056565b9050919050565b600061115182611158565b9050919050565b600061116382611056565b9050919050565b60006111758261117c565b9050919050565b600061118782611056565b9050919050565b82818337600083830152505050565b60005b838110156111bb5780820151818401526020810190506111a0565b838111156111ca576000848401525b50505050565b6000601f19601f830116905091905056fea265627a7a7230582012e7625b0e74fde9dc48b53c236dcc4ef9f22084daa69b9b68a7abb9d6c57a346c6578706572696d656e74616cf50037",
  "source": "pragma solidity 0.5.7;\npragma experimental ABIEncoderV2;\n\nimport { IERC20 } from \"openzeppelin-solidity/contracts/token/ERC20/IERC20.sol\";\n\nimport { IRegistry } from \"./interface/IRegistry.sol\";\nimport { IUniswapExchange } from \"./interface/IUniswapExchange.sol\";\n\nimport { IGovernance } from \"./interface/IGovernance.sol\";\nimport { PayableHumanityApplicant } from \"./PayableHumanityApplicant.sol\";\n\n/**\n * @title TwitterHumanityApplicant\n * @dev Convenient interface for applying to the Humanity registry using Twitter as proof of identity.\n */\ncontract TwitterHumanityApplicant is PayableHumanityApplicant {\n\n    event Apply(uint indexed proposalId, address indexed applicant, string username);\n\n    constructor(\n        IGovernance _governance,\n        IRegistry _registry,\n        IERC20 _humanity,\n        IUniswapExchange _exchange\n    ) public\n        PayableHumanityApplicant(_governance, _registry, _humanity, _exchange) {}\n\n    function applyWithTwitter(string memory username) public returns (uint) {\n        return applyWithTwitterFor(msg.sender, username);\n    }\n\n    function applyWithTwitterFor(address who, string memory username) public returns (uint) {\n        uint proposalId = applyFor(who);\n        emit Apply(proposalId, who, username);\n        return proposalId;\n    }\n\n    function applyWithTwitterUsingEther(string memory username) public payable returns (uint) {\n        return applyWithTwitterUsingEtherFor(msg.sender, username);\n    }\n\n    function applyWithTwitterUsingEtherFor(address who, string memory username) public payable returns (uint) {\n        uint proposalId = applyWithEtherFor(who);\n        emit Apply(proposalId, who, username);\n        return proposalId;\n    }\n\n}\n",
  "sourcePath": "/Users/jaywelsh/GitHub/society0x/ethereum/contracts/TwitterHumanityApplicant.sol",
  "compiler": {
    "name": "solc",
    "version": "0.5.7+commit.6da8b019.Emscripten.clang"
  },
  "schemaVersion": "3.0.9",
  "updatedAt": "2019-07-21T12:29:37.370Z",
  "devdoc": {
    "details": "Convenient interface for applying to the Humanity registry using Twitter as proof of identity.",
    "methods": {},
    "title": "TwitterHumanityApplicant"
  },
  "userdoc": {
    "methods": {}
  }
}