{
  "contractName": "UniversalBasicIncome",
  "abi": [
    {
      "constant": true,
      "inputs": [],
      "name": "registry",
      "outputs": [
        {
          "name": "",
          "type": "address"
        }
      ],
      "payable": false,
      "stateMutability": "view",
      "type": "function"
    },
    {
      "constant": true,
      "inputs": [],
      "name": "INCOME_PER_SECOND",
      "outputs": [
        {
          "name": "",
          "type": "uint256"
        }
      ],
      "payable": false,
      "stateMutability": "view",
      "type": "function"
    },
    {
      "constant": true,
      "inputs": [
        {
          "name": "",
          "type": "address"
        }
      ],
      "name": "claimTimes",
      "outputs": [
        {
          "name": "",
          "type": "uint256"
        }
      ],
      "payable": false,
      "stateMutability": "view",
      "type": "function"
    },
    {
      "constant": true,
      "inputs": [],
      "name": "MONTHLY_INCOME",
      "outputs": [
        {
          "name": "",
          "type": "uint256"
        }
      ],
      "payable": false,
      "stateMutability": "view",
      "type": "function"
    },
    {
      "constant": true,
      "inputs": [],
      "name": "dai",
      "outputs": [
        {
          "name": "",
          "type": "address"
        }
      ],
      "payable": false,
      "stateMutability": "view",
      "type": "function"
    },
    {
      "inputs": [
        {
          "name": "_registry",
          "type": "address"
        },
        {
          "name": "_dai",
          "type": "address"
        }
      ],
      "payable": false,
      "stateMutability": "nonpayable",
      "type": "constructor"
    },
    {
      "constant": false,
      "inputs": [],
      "name": "claim",
      "outputs": [],
      "payable": false,
      "stateMutability": "nonpayable",
      "type": "function"
    }
  ],
  "bytecode": "0x608060405234801561001057600080fd5b50604051604080610c40833981018060405261002f91908101906100df565b816000806101000a81548173ffffffffffffffffffffffffffffffffffffffff021916908373ffffffffffffffffffffffffffffffffffffffff16021790555080600160006101000a81548173ffffffffffffffffffffffffffffffffffffffff021916908373ffffffffffffffffffffffffffffffffffffffff1602179055505050610171565b60006100c3825161012d565b905092915050565b60006100d7825161013f565b905092915050565b600080604083850312156100f257600080fd5b6000610100858286016100b7565b9250506020610111858286016100cb565b9150509250929050565b600061012682610151565b9050919050565b60006101388261011b565b9050919050565b600061014a8261011b565b9050919050565b600073ffffffffffffffffffffffffffffffffffffffff82169050919050565b610ac0806101806000396000f3fe608060405234801561001057600080fd5b506004361061007f576000357c0100000000000000000000000000000000000000000000000000000000900480634e71d92d146100845780637b1039991461008e5780637e42b2b1146100ac578063b89ea402146100ca578063ee8bb63c146100fa578063f4b9fa7514610118575b600080fd5b61008c610136565b005b610096610508565b6040516100a391906108c2565b60405180910390f35b6100b461052d565b6040516100c19190610958565b60405180910390f35b6100e460048036036100df9190810190610691565b610545565b6040516100f19190610958565b60405180910390f35b61010261055d565b60405161010f9190610958565b60405180910390f35b610120610569565b60405161012d91906108dd565b60405180910390f35b6000809054906101000a900473ffffffffffffffffffffffffffffffffffffffff1673ffffffffffffffffffffffffffffffffffffffff1663f72c436f336040518263ffffffff167c01000000000000000000000000000000000000000000000000000000000281526004016101ac919061087e565b60206040518083038186803b1580156101c457600080fd5b505afa1580156101d8573d6000803e3d6000fd5b505050506040513d601f19601f820116820180604052506101fc91908101906106ba565b61023b576040517f08c379a000000000000000000000000000000000000000000000000000000000815260040161023290610938565b60405180910390fd5b6000804290506000600260003373ffffffffffffffffffffffffffffffffffffffff1673ffffffffffffffffffffffffffffffffffffffff16815260200190815260200160002054141561029957670de0b6b3a76400009150610314565b61031162278d00670de0b6b3a7640000816102b057fe5b04610303600260003373ffffffffffffffffffffffffffffffffffffffff1673ffffffffffffffffffffffffffffffffffffffff168152602001908152602001600020548461058f90919063ffffffff16565b6105e590919063ffffffff16565b91505b6000600160009054906101000a900473ffffffffffffffffffffffffffffffffffffffff1673ffffffffffffffffffffffffffffffffffffffff166370a08231306040518263ffffffff167c010000000000000000000000000000000000000000000000000000000002815260040161038d9190610863565b60206040518083038186803b1580156103a557600080fd5b505afa1580156103b9573d6000803e3d6000fd5b505050506040513d601f19601f820116820180604052506103dd91908101906106e3565b905060008382106103ee57836103f0565b815b9050600160009054906101000a900473ffffffffffffffffffffffffffffffffffffffff1673ffffffffffffffffffffffffffffffffffffffff1663a9059cbb33836040518363ffffffff167c010000000000000000000000000000000000000000000000000000000002815260040161046b929190610899565b602060405180830381600087803b15801561048557600080fd5b505af1158015610499573d6000803e3d6000fd5b505050506040513d601f19601f820116820180604052506104bd91908101906106ba565b5082600260003373ffffffffffffffffffffffffffffffffffffffff1673ffffffffffffffffffffffffffffffffffffffff1681526020019081526020016000208190555050505050565b6000809054906101000a900473ffffffffffffffffffffffffffffffffffffffff1681565b62278d00670de0b6b3a76400008161054157fe5b0481565b60026020528060005260406000206000915090505481565b670de0b6b3a764000081565b600160009054906101000a900473ffffffffffffffffffffffffffffffffffffffff1681565b6000828211156105d4576040517f08c379a00000000000000000000000000000000000000000000000000000000081526004016105cb90610918565b60405180910390fd5b600082840390508091505092915050565b6000808314156105f8576000905061064f565b600082840290508284828161060957fe5b041461064a576040517f08c379a0000000000000000000000000000000000000000000000000000000008152600401610641906108f8565b60405180910390fd5b809150505b92915050565b600061066182356109c0565b905092915050565b600061067582516109d2565b905092915050565b600061068982516109fe565b905092915050565b6000602082840312156106a357600080fd5b60006106b184828501610655565b91505092915050565b6000602082840312156106cc57600080fd5b60006106da84828501610669565b91505092915050565b6000602082840312156106f557600080fd5b60006107038482850161067d565b91505092915050565b61071581610a08565b82525050565b61072481610984565b82525050565b61073381610a1a565b82525050565b61074281610a3e565b82525050565b6000610755601f83610973565b91507f536166654d6174683a3a6d756c3a20496e7465676572206f766572666c6f77006000830152602082019050919050565b6000610795602083610973565b91507f536166654d6174683a3a7375623a20496e746567657220756e646572666c6f776000830152602082019050919050565b60006107d5605183610973565b91507f556e6976657273616c4261736963496e636f6d653a3a636c61696d3a20596f7560008301527f206d757374206265206f6e207468652048756d616e697479207265676973747260208301527f7920746f20636c61696d20696e636f6d650000000000000000000000000000006040830152606082019050919050565b61085d816109b6565b82525050565b6000602082019050610878600083018461071b565b92915050565b6000602082019050610893600083018461070c565b92915050565b60006040820190506108ae600083018561070c565b6108bb6020830184610854565b9392505050565b60006020820190506108d7600083018461072a565b92915050565b60006020820190506108f26000830184610739565b92915050565b6000602082019050818103600083015261091181610748565b9050919050565b6000602082019050818103600083015261093181610788565b9050919050565b60006020820190508181036000830152610951816107c8565b9050919050565b600060208201905061096d6000830184610854565b92915050565b600082825260208201905092915050565b600061098f82610996565b9050919050565b600073ffffffffffffffffffffffffffffffffffffffff82169050919050565b6000819050919050565b60006109cb826109de565b9050919050565b60008115159050919050565b600073ffffffffffffffffffffffffffffffffffffffff82169050919050565b6000819050919050565b6000610a1382610a62565b9050919050565b6000610a2582610a2c565b9050919050565b6000610a3782610996565b9050919050565b6000610a4982610a50565b9050919050565b6000610a5b82610996565b9050919050565b6000610a6d82610a74565b9050919050565b6000610a7f82610996565b905091905056fea265627a7a72305820a85e80cb1ab1f83ac809fc82c1490415463fa2d56a9d4c4131cc981856dabfd96c6578706572696d656e74616cf50037",
  "source": "pragma solidity 0.5.7;\npragma experimental ABIEncoderV2;\n\nimport { IERC20 } from \"openzeppelin-solidity/contracts/token/ERC20/IERC20.sol\";\nimport { SafeMath } from \"openzeppelin-solidity/contracts/math/SafeMath.sol\";\n\nimport { HumanityRegistry } from \"./HumanityRegistry.sol\";\n\n/**\n * @title UniversalBasicIncome\n * @dev Dai that can be claimed by humans on the Human Registry.\n */\ncontract UniversalBasicIncome {\n    using SafeMath for uint;\n\n    HumanityRegistry public registry;\n    IERC20 public dai;\n\n    uint public constant MONTHLY_INCOME = 1e18; // 1 Dai\n    uint public constant INCOME_PER_SECOND = MONTHLY_INCOME / 30 days;\n\n    mapping (address => uint) public claimTimes;\n\n    constructor(HumanityRegistry _registry, IERC20 _dai) public {\n        registry = _registry;\n        dai = _dai;\n    }\n\n    function claim() public {\n        require(registry.isHuman(msg.sender), \"UniversalBasicIncome::claim: You must be on the Humanity registry to claim income\");\n\n        uint income;\n        uint time = block.timestamp;\n\n        // If claiming for the first time, send 1 month of UBI\n        if (claimTimes[msg.sender] == 0) {\n            income = MONTHLY_INCOME;\n        } else {\n            income = time.sub(claimTimes[msg.sender]).mul(INCOME_PER_SECOND);\n        }\n\n        uint balance = dai.balanceOf(address(this));\n        // If not enough Dai reserves, send the remaining balance\n        uint actualIncome = balance < income ? balance : income;\n\n        dai.transfer(msg.sender, actualIncome);\n        claimTimes[msg.sender] = time;\n    }\n\n}",
  "sourcePath": "/Users/jaywelsh/GitHub/society0x/ethereum/contracts/UniversalBasicIncome.sol",
  "compiler": {
    "name": "solc",
    "version": "0.5.7+commit.6da8b019.Emscripten.clang"
  },
  "schemaVersion": "3.0.9",
  "updatedAt": "2019-06-01T13:06:25.403Z",
  "devdoc": {
    "details": "Dai that can be claimed by humans on the Human Registry.",
    "methods": {},
    "title": "UniversalBasicIncome"
  },
  "userdoc": {
    "methods": {}
  }
}